{
  "_format": "hh-sol-artifact-1",
  "contractName": "CourseAttendance",
  "sourceName": "contracts/CourseAttendance.sol",
  "abi": [
    {
      "inputs": [
        {
          "internalType": "uint256",
          "name": "_id",
          "type": "uint256"
        }
      ],
      "name": "attendCourse",
      "outputs": [],
      "stateMutability": "payable",
      "type": "function"
    },
    {
      "inputs": [
        {
          "internalType": "uint256",
          "name": "_id",
          "type": "uint256"
        }
      ],
      "name": "closeAttendance",
      "outputs": [],
      "stateMutability": "nonpayable",
      "type": "function"
    },
    {
      "inputs": [
        {
          "internalType": "uint256",
          "name": "",
          "type": "uint256"
        }
      ],
      "name": "closedCourses",
      "outputs": [
        {
          "internalType": "string",
          "name": "lecturer",
          "type": "string"
        },
        {
          "internalType": "string",
          "name": "courseName",
          "type": "string"
        },
        {
          "internalType": "string",
          "name": "description",
          "type": "string"
        },
        {
          "internalType": "string",
          "name": "department",
          "type": "string"
        },
        {
          "internalType": "string",
          "name": "image",
          "type": "string"
        },
        {
          "internalType": "string",
          "name": "courseCode",
          "type": "string"
        },
        {
          "internalType": "string",
          "name": "week",
          "type": "string"
        },
        {
          "internalType": "string",
          "name": "programLevel",
          "type": "string"
        }
      ],
      "stateMutability": "view",
      "type": "function"
    },
    {
      "inputs": [
        {
          "internalType": "uint256",
          "name": "",
          "type": "uint256"
        }
      ],
      "name": "courses",
      "outputs": [
        {
          "internalType": "string",
          "name": "lecturer",
          "type": "string"
        },
        {
          "internalType": "string",
          "name": "courseName",
          "type": "string"
        },
        {
          "internalType": "string",
          "name": "description",
          "type": "string"
        },
        {
          "internalType": "string",
          "name": "department",
          "type": "string"
        },
        {
          "internalType": "string",
          "name": "image",
          "type": "string"
        },
        {
          "internalType": "string",
          "name": "courseCode",
          "type": "string"
        },
        {
          "internalType": "string",
          "name": "week",
          "type": "string"
        },
        {
          "internalType": "string",
          "name": "programLevel",
          "type": "string"
        }
      ],
      "stateMutability": "view",
      "type": "function"
    },
    {
      "inputs": [
        {
          "internalType": "string",
          "name": "_lecturer",
          "type": "string"
        },
        {
          "internalType": "string",
          "name": "_courseName",
          "type": "string"
        },
        {
          "internalType": "string",
          "name": "_description",
          "type": "string"
        },
        {
          "internalType": "string",
          "name": "_department",
          "type": "string"
        },
        {
          "internalType": "string",
          "name": "_image",
          "type": "string"
        },
        {
          "internalType": "string",
          "name": "_courseCode",
          "type": "string"
        },
        {
          "internalType": "string",
          "name": "_week",
          "type": "string"
        },
        {
          "internalType": "string",
          "name": "_programLevel",
          "type": "string"
        }
      ],
      "name": "createCourse",
      "outputs": [
        {
          "internalType": "uint256",
          "name": "",
          "type": "uint256"
        }
      ],
      "stateMutability": "nonpayable",
      "type": "function"
    },
    {
      "inputs": [],
      "name": "getAllClosedCourses",
      "outputs": [
        {
          "components": [
            {
              "internalType": "string",
              "name": "lecturer",
              "type": "string"
            },
            {
              "internalType": "string",
              "name": "courseName",
              "type": "string"
            },
            {
              "internalType": "string",
              "name": "description",
              "type": "string"
            },
            {
              "internalType": "string",
              "name": "department",
              "type": "string"
            },
            {
              "internalType": "string",
              "name": "image",
              "type": "string"
            },
            {
              "internalType": "string",
              "name": "courseCode",
              "type": "string"
            },
            {
              "internalType": "string",
              "name": "week",
              "type": "string"
            },
            {
              "internalType": "string",
              "name": "programLevel",
              "type": "string"
            },
            {
              "internalType": "address[]",
              "name": "attendees",
              "type": "address[]"
            }
          ],
          "internalType": "struct CourseAttendance.Course[]",
          "name": "",
          "type": "tuple[]"
        }
      ],
      "stateMutability": "view",
      "type": "function"
    },
    {
      "inputs": [],
      "name": "getAllCourses",
      "outputs": [
        {
          "components": [
            {
              "internalType": "string",
              "name": "lecturer",
              "type": "string"
            },
            {
              "internalType": "string",
              "name": "courseName",
              "type": "string"
            },
            {
              "internalType": "string",
              "name": "description",
              "type": "string"
            },
            {
              "internalType": "string",
              "name": "department",
              "type": "string"
            },
            {
              "internalType": "string",
              "name": "image",
              "type": "string"
            },
            {
              "internalType": "string",
              "name": "courseCode",
              "type": "string"
            },
            {
              "internalType": "string",
              "name": "week",
              "type": "string"
            },
            {
              "internalType": "string",
              "name": "programLevel",
              "type": "string"
            },
            {
              "internalType": "address[]",
              "name": "attendees",
              "type": "address[]"
            }
          ],
          "internalType": "struct CourseAttendance.Course[]",
          "name": "",
          "type": "tuple[]"
        }
      ],
      "stateMutability": "view",
      "type": "function"
    },
    {
      "inputs": [
        {
          "internalType": "uint256",
          "name": "_id",
          "type": "uint256"
        }
      ],
      "name": "getAttendees",
      "outputs": [
        {
          "internalType": "address[]",
          "name": "",
          "type": "address[]"
        }
      ],
      "stateMutability": "view",
      "type": "function"
    },
    {
      "inputs": [
        {
          "internalType": "uint256",
          "name": "_id",
          "type": "uint256"
        }
      ],
      "name": "getAttendeesForClosed",
      "outputs": [
        {
          "internalType": "address[]",
          "name": "",
          "type": "address[]"
        }
      ],
      "stateMutability": "view",
      "type": "function"
    },
    {
      "inputs": [
        {
          "internalType": "string",
          "name": "_department",
          "type": "string"
        },
        {
          "internalType": "string",
          "name": "_programLevel",
          "type": "string"
        }
      ],
      "name": "getClosedCourses",
      "outputs": [
        {
          "components": [
            {
              "internalType": "string",
              "name": "lecturer",
              "type": "string"
            },
            {
              "internalType": "string",
              "name": "courseName",
              "type": "string"
            },
            {
              "internalType": "string",
              "name": "description",
              "type": "string"
            },
            {
              "internalType": "string",
              "name": "department",
              "type": "string"
            },
            {
              "internalType": "string",
              "name": "image",
              "type": "string"
            },
            {
              "internalType": "string",
              "name": "courseCode",
              "type": "string"
            },
            {
              "internalType": "string",
              "name": "week",
              "type": "string"
            },
            {
              "internalType": "string",
              "name": "programLevel",
              "type": "string"
            },
            {
              "internalType": "address[]",
              "name": "attendees",
              "type": "address[]"
            }
          ],
          "internalType": "struct CourseAttendance.Course[]",
          "name": "",
          "type": "tuple[]"
        }
      ],
      "stateMutability": "view",
      "type": "function"
    },
    {
      "inputs": [
        {
          "internalType": "string",
          "name": "_department",
          "type": "string"
        },
        {
          "internalType": "string",
          "name": "_programLevel",
          "type": "string"
        }
      ],
      "name": "getCourses",
      "outputs": [
        {
          "components": [
            {
              "internalType": "string",
              "name": "lecturer",
              "type": "string"
            },
            {
              "internalType": "string",
              "name": "courseName",
              "type": "string"
            },
            {
              "internalType": "string",
              "name": "description",
              "type": "string"
            },
            {
              "internalType": "string",
              "name": "department",
              "type": "string"
            },
            {
              "internalType": "string",
              "name": "image",
              "type": "string"
            },
            {
              "internalType": "string",
              "name": "courseCode",
              "type": "string"
            },
            {
              "internalType": "string",
              "name": "week",
              "type": "string"
            },
            {
              "internalType": "string",
              "name": "programLevel",
              "type": "string"
            },
            {
              "internalType": "address[]",
              "name": "attendees",
              "type": "address[]"
            }
          ],
          "internalType": "struct CourseAttendance.Course[]",
          "name": "",
          "type": "tuple[]"
        }
      ],
      "stateMutability": "view",
      "type": "function"
    },
    {
      "inputs": [
        {
          "internalType": "uint256",
          "name": "_id",
          "type": "uint256"
        }
      ],
      "name": "getLecturer",
      "outputs": [
        {
          "internalType": "string",
          "name": "",
          "type": "string"
        }
      ],
      "stateMutability": "view",
      "type": "function"
    },
    {
      "inputs": [
        {
          "internalType": "uint256",
          "name": "_id",
          "type": "uint256"
        }
      ],
      "name": "getNumberOfAttendees",
      "outputs": [
        {
          "internalType": "uint256",
          "name": "",
          "type": "uint256"
        }
      ],
      "stateMutability": "view",
      "type": "function"
    },
    {
      "inputs": [
        {
          "internalType": "uint256",
          "name": "_id",
          "type": "uint256"
        }
      ],
      "name": "getNumberOfAttendeesforClosed",
      "outputs": [
        {
          "internalType": "uint256",
          "name": "",
          "type": "uint256"
        }
      ],
      "stateMutability": "view",
      "type": "function"
    },
    {
      "inputs": [],
      "name": "numberofCourses",
      "outputs": [
        {
          "internalType": "uint256",
          "name": "",
          "type": "uint256"
        }
      ],
      "stateMutability": "view",
      "type": "function"
    },
    {
      "inputs": [],
      "name": "numberofclosedCourses",
      "outputs": [
        {
          "internalType": "uint256",
          "name": "",
          "type": "uint256"
        }
      ],
      "stateMutability": "view",
      "type": "function"
    },
    {
      "inputs": [
        {
          "internalType": "uint256",
          "name": "",
          "type": "uint256"
        }
      ],
      "name": "tempCourses",
      "outputs": [
        {
          "internalType": "string",
          "name": "lecturer",
          "type": "string"
        },
        {
          "internalType": "string",
          "name": "courseName",
          "type": "string"
        },
        {
          "internalType": "string",
          "name": "description",
          "type": "string"
        },
        {
          "internalType": "string",
          "name": "department",
          "type": "string"
        },
        {
          "internalType": "string",
          "name": "image",
          "type": "string"
        },
        {
          "internalType": "string",
          "name": "courseCode",
          "type": "string"
        },
        {
          "internalType": "string",
          "name": "week",
          "type": "string"
        },
        {
          "internalType": "string",
          "name": "programLevel",
          "type": "string"
        }
      ],
      "stateMutability": "view",
      "type": "function"
    }
  ],
  "bytecode": "0x60806040526000600255600060035534801561001a57600080fd5b5061466e8061002a6000396000f3fe6080604052600436106100fd5760003560e01c80636323e980116100955780639e58d254116100645780639e58d2541461039c578063a4d0acef146103d9578063d990dc3414610404578063e0c1437714610441578063f25003681461047e576100fd565b80636323e980146102d45780637d750c9a146102f057806384bd5a131461032d57806396f979d214610358576100fd565b8063199cf123116100d1578063199cf123146101d95780632edea9141461021657806338966b75146102535780635ffd855814610297576100fd565b80623f198c1461010257806304e48bd11461012d5780630f6b9c92146101585780631370d84714610195575b600080fd5b34801561010e57600080fd5b506101176104a7565b604051610124919061368f565b60405180910390f35b34801561013957600080fd5b506101426104ad565b60405161014f91906139e9565b60405180910390f35b34801561016457600080fd5b5061017f600480360381019061017a9190613a4b565b610a91565b60405161018c919061368f565b60405180910390f35b3480156101a157600080fd5b506101bc60048036038101906101b79190613a4b565b610ab3565b6040516101d0989796959493929190613ac2565b60405180910390f35b3480156101e557600080fd5b5061020060048036038101906101fb9190613cad565b610f4b565b60405161020d91906139e9565b60405180910390f35b34801561022257600080fd5b5061023d60048036038101906102389190613cad565b611613565b60405161024a91906139e9565b60405180910390f35b34801561025f57600080fd5b5061027a60048036038101906102759190613a4b565b611cde565b60405161028e989796959493929190613ac2565b60405180910390f35b3480156102a357600080fd5b506102be60048036038101906102b99190613d25565b612166565b6040516102cb919061368f565b60405180910390f35b6102ee60048036038101906102e99190613a4b565b612245565b005b3480156102fc57600080fd5b5061031760048036038101906103129190613a4b565b61230e565b6040516103249190613f2a565b60405180910390f35b34801561033957600080fd5b506103426123b2565b60405161034f919061368f565b60405180910390f35b34801561036457600080fd5b5061037f600480360381019061037a9190613a4b565b6123b8565b604051610393989796959493929190613ac2565b60405180910390f35b3480156103a857600080fd5b506103c360048036038101906103be9190613a4b565b612840565b6040516103d0919061368f565b60405180910390f35b3480156103e557600080fd5b506103ee612863565b6040516103fb91906139e9565b60405180910390f35b34801561041057600080fd5b5061042b60048036038101906104269190613a4b565b612e48565b6040516104389190613f4c565b60405180910390f35b34801561044d57600080fd5b5061046860048036038101906104639190613a4b565b612eef565b6040516104759190613f2a565b60405180910390f35b34801561048a57600080fd5b506104a560048036038101906104a09190613a4b565b612f92565b005b60035481565b6060600060025467ffffffffffffffff8111156104cd576104cc613b82565b5b60405190808252806020026020018201604052801561050657816020015b6104f361348f565b8152602001906001900390816104eb5790505b50905060005b600254811015610a895760008060008381526020019081526020016000209050806040518061012001604052908160008201805461054990613f9d565b80601f016020809104026020016040519081016040528092919081815260200182805461057590613f9d565b80156105c25780601f10610597576101008083540402835291602001916105c2565b820191906000526020600020905b8154815290600101906020018083116105a557829003601f168201915b505050505081526020016001820180546105db90613f9d565b80601f016020809104026020016040519081016040528092919081815260200182805461060790613f9d565b80156106545780601f1061062957610100808354040283529160200191610654565b820191906000526020600020905b81548152906001019060200180831161063757829003601f168201915b5050505050815260200160028201805461066d90613f9d565b80601f016020809104026020016040519081016040528092919081815260200182805461069990613f9d565b80156106e65780601f106106bb576101008083540402835291602001916106e6565b820191906000526020600020905b8154815290600101906020018083116106c957829003601f168201915b505050505081526020016003820180546106ff90613f9d565b80601f016020809104026020016040519081016040528092919081815260200182805461072b90613f9d565b80156107785780601f1061074d57610100808354040283529160200191610778565b820191906000526020600020905b81548152906001019060200180831161075b57829003601f168201915b5050505050815260200160048201805461079190613f9d565b80601f01602080910402602001604051908101604052809291908181526020018280546107bd90613f9d565b801561080a5780601f106107df5761010080835404028352916020019161080a565b820191906000526020600020905b8154815290600101906020018083116107ed57829003601f168201915b5050505050815260200160058201805461082390613f9d565b80601f016020809104026020016040519081016040528092919081815260200182805461084f90613f9d565b801561089c5780601f106108715761010080835404028352916020019161089c565b820191906000526020600020905b81548152906001019060200180831161087f57829003601f168201915b505050505081526020016006820180546108b590613f9d565b80601f01602080910402602001604051908101604052809291908181526020018280546108e190613f9d565b801561092e5780601f106109035761010080835404028352916020019161092e565b820191906000526020600020905b81548152906001019060200180831161091157829003601f168201915b5050505050815260200160078201805461094790613f9d565b80601f016020809104026020016040519081016040528092919081815260200182805461097390613f9d565b80156109c05780601f10610995576101008083540402835291602001916109c0565b820191906000526020600020905b8154815290600101906020018083116109a357829003601f168201915b5050505050815260200160088201805480602002602001604051908101604052809291908181526020018280548015610a4e57602002820191906000526020600020905b8160009054906101000a900473ffffffffffffffffffffffffffffffffffffffff1673ffffffffffffffffffffffffffffffffffffffff1681526020019060010190808311610a04575b505050505081525050838381518110610a6a57610a69613fce565b5b6020026020010181905250508080610a819061402c565b91505061050c565b508091505090565b6000806000838152602001908152602001600020600801805490509050919050565b60048181548110610ac357600080fd5b9060005260206000209060090201600091509050806000018054610ae690613f9d565b80601f0160208091040260200160405190810160405280929190818152602001828054610b1290613f9d565b8015610b5f5780601f10610b3457610100808354040283529160200191610b5f565b820191906000526020600020905b815481529060010190602001808311610b4257829003601f168201915b505050505090806001018054610b7490613f9d565b80601f0160208091040260200160405190810160405280929190818152602001828054610ba090613f9d565b8015610bed5780601f10610bc257610100808354040283529160200191610bed565b820191906000526020600020905b815481529060010190602001808311610bd057829003601f168201915b505050505090806002018054610c0290613f9d565b80601f0160208091040260200160405190810160405280929190818152602001828054610c2e90613f9d565b8015610c7b5780601f10610c5057610100808354040283529160200191610c7b565b820191906000526020600020905b815481529060010190602001808311610c5e57829003601f168201915b505050505090806003018054610c9090613f9d565b80601f0160208091040260200160405190810160405280929190818152602001828054610cbc90613f9d565b8015610d095780601f10610cde57610100808354040283529160200191610d09565b820191906000526020600020905b815481529060010190602001808311610cec57829003601f168201915b505050505090806004018054610d1e90613f9d565b80601f0160208091040260200160405190810160405280929190818152602001828054610d4a90613f9d565b8015610d975780601f10610d6c57610100808354040283529160200191610d97565b820191906000526020600020905b815481529060010190602001808311610d7a57829003601f168201915b505050505090806005018054610dac90613f9d565b80601f0160208091040260200160405190810160405280929190818152602001828054610dd890613f9d565b8015610e255780601f10610dfa57610100808354040283529160200191610e25565b820191906000526020600020905b815481529060010190602001808311610e0857829003601f168201915b505050505090806006018054610e3a90613f9d565b80601f0160208091040260200160405190810160405280929190818152602001828054610e6690613f9d565b8015610eb35780601f10610e8857610100808354040283529160200191610eb3565b820191906000526020600020905b815481529060010190602001808311610e9657829003601f168201915b505050505090806007018054610ec890613f9d565b80601f0160208091040260200160405190810160405280929190818152602001828054610ef490613f9d565b8015610f415780601f10610f1657610100808354040283529160200191610f41565b820191906000526020600020905b815481529060010190602001808311610f2457829003601f168201915b5050505050905088565b6060600060025467ffffffffffffffff811115610f6b57610f6a613b82565b5b604051908082528060200260200182016040528015610fa457816020015b610f9161348f565b815260200190600190039081610f895790505b5090506000805b6002548110156116045785604051602001610fc691906140b0565b60405160208183030381529060405280519060200120600080838152602001908152602001600020600301604051602001611001919061415f565b6040516020818303038152906040528051906020012014801561108357508460405160200161103091906140b0565b6040516020818303038152906040528051906020012060008083815260200190815260200160002060070160405160200161106b919061415f565b60405160208183030381529060405280519060200120145b156115f157600080828152602001908152602001600020604051806101200160405290816000820180546110b690613f9d565b80601f01602080910402602001604051908101604052809291908181526020018280546110e290613f9d565b801561112f5780601f106111045761010080835404028352916020019161112f565b820191906000526020600020905b81548152906001019060200180831161111257829003601f168201915b5050505050815260200160018201805461114890613f9d565b80601f016020809104026020016040519081016040528092919081815260200182805461117490613f9d565b80156111c15780601f10611196576101008083540402835291602001916111c1565b820191906000526020600020905b8154815290600101906020018083116111a457829003601f168201915b505050505081526020016002820180546111da90613f9d565b80601f016020809104026020016040519081016040528092919081815260200182805461120690613f9d565b80156112535780601f1061122857610100808354040283529160200191611253565b820191906000526020600020905b81548152906001019060200180831161123657829003601f168201915b5050505050815260200160038201805461126c90613f9d565b80601f016020809104026020016040519081016040528092919081815260200182805461129890613f9d565b80156112e55780601f106112ba576101008083540402835291602001916112e5565b820191906000526020600020905b8154815290600101906020018083116112c857829003601f168201915b505050505081526020016004820180546112fe90613f9d565b80601f016020809104026020016040519081016040528092919081815260200182805461132a90613f9d565b80156113775780601f1061134c57610100808354040283529160200191611377565b820191906000526020600020905b81548152906001019060200180831161135a57829003601f168201915b5050505050815260200160058201805461139090613f9d565b80601f01602080910402602001604051908101604052809291908181526020018280546113bc90613f9d565b80156114095780601f106113de57610100808354040283529160200191611409565b820191906000526020600020905b8154815290600101906020018083116113ec57829003601f168201915b5050505050815260200160068201805461142290613f9d565b80601f016020809104026020016040519081016040528092919081815260200182805461144e90613f9d565b801561149b5780601f106114705761010080835404028352916020019161149b565b820191906000526020600020905b81548152906001019060200180831161147e57829003601f168201915b505050505081526020016007820180546114b490613f9d565b80601f01602080910402602001604051908101604052809291908181526020018280546114e090613f9d565b801561152d5780601f106115025761010080835404028352916020019161152d565b820191906000526020600020905b81548152906001019060200180831161151057829003601f168201915b50505050508152602001600882018054806020026020016040519081016040528092919081815260200182805480156115bb57602002820191906000526020600020905b8160009054906101000a900473ffffffffffffffffffffffffffffffffffffffff1673ffffffffffffffffffffffffffffffffffffffff1681526020019060010190808311611571575b5050505050815250508383815181106115d7576115d6613fce565b5b602002602001018190525081806115ed9061402c565b9250505b80806115fc9061402c565b915050610fab565b50808252819250505092915050565b6060600060035467ffffffffffffffff81111561163357611632613b82565b5b60405190808252806020026020018201604052801561166c57816020015b61165961348f565b8152602001906001900390816116515790505b5090506000805b600354811015611ccf578560405160200161168e91906140b0565b60405160208183030381529060405280519060200120600160008381526020019081526020016000206003016040516020016116ca919061415f565b6040516020818303038152906040528051906020012014801561174d5750846040516020016116f991906140b0565b6040516020818303038152906040528051906020012060016000838152602001908152602001600020600701604051602001611735919061415f565b60405160208183030381529060405280519060200120145b15611cbc57600160008281526020019081526020016000206040518061012001604052908160008201805461178190613f9d565b80601f01602080910402602001604051908101604052809291908181526020018280546117ad90613f9d565b80156117fa5780601f106117cf576101008083540402835291602001916117fa565b820191906000526020600020905b8154815290600101906020018083116117dd57829003601f168201915b5050505050815260200160018201805461181390613f9d565b80601f016020809104026020016040519081016040528092919081815260200182805461183f90613f9d565b801561188c5780601f106118615761010080835404028352916020019161188c565b820191906000526020600020905b81548152906001019060200180831161186f57829003601f168201915b505050505081526020016002820180546118a590613f9d565b80601f01602080910402602001604051908101604052809291908181526020018280546118d190613f9d565b801561191e5780601f106118f35761010080835404028352916020019161191e565b820191906000526020600020905b81548152906001019060200180831161190157829003601f168201915b5050505050815260200160038201805461193790613f9d565b80601f016020809104026020016040519081016040528092919081815260200182805461196390613f9d565b80156119b05780601f10611985576101008083540402835291602001916119b0565b820191906000526020600020905b81548152906001019060200180831161199357829003601f168201915b505050505081526020016004820180546119c990613f9d565b80601f01602080910402602001604051908101604052809291908181526020018280546119f590613f9d565b8015611a425780601f10611a1757610100808354040283529160200191611a42565b820191906000526020600020905b815481529060010190602001808311611a2557829003601f168201915b50505050508152602001600582018054611a5b90613f9d565b80601f0160208091040260200160405190810160405280929190818152602001828054611a8790613f9d565b8015611ad45780601f10611aa957610100808354040283529160200191611ad4565b820191906000526020600020905b815481529060010190602001808311611ab757829003601f168201915b50505050508152602001600682018054611aed90613f9d565b80601f0160208091040260200160405190810160405280929190818152602001828054611b1990613f9d565b8015611b665780601f10611b3b57610100808354040283529160200191611b66565b820191906000526020600020905b815481529060010190602001808311611b4957829003601f168201915b50505050508152602001600782018054611b7f90613f9d565b80601f0160208091040260200160405190810160405280929190818152602001828054611bab90613f9d565b8015611bf85780601f10611bcd57610100808354040283529160200191611bf8565b820191906000526020600020905b815481529060010190602001808311611bdb57829003601f168201915b5050505050815260200160088201805480602002602001604051908101604052809291908181526020018280548015611c8657602002820191906000526020600020905b8160009054906101000a900473ffffffffffffffffffffffffffffffffffffffff1673ffffffffffffffffffffffffffffffffffffffff1681526020019060010190808311611c3c575b505050505081525050838381518110611ca257611ca1613fce565b5b60200260200101819052508180611cb89061402c565b9250505b8080611cc79061402c565b915050611673565b50808252819250505092915050565b6001602052806000526040600020600091509050806000018054611d0190613f9d565b80601f0160208091040260200160405190810160405280929190818152602001828054611d2d90613f9d565b8015611d7a5780601f10611d4f57610100808354040283529160200191611d7a565b820191906000526020600020905b815481529060010190602001808311611d5d57829003601f168201915b505050505090806001018054611d8f90613f9d565b80601f0160208091040260200160405190810160405280929190818152602001828054611dbb90613f9d565b8015611e085780601f10611ddd57610100808354040283529160200191611e08565b820191906000526020600020905b815481529060010190602001808311611deb57829003601f168201915b505050505090806002018054611e1d90613f9d565b80601f0160208091040260200160405190810160405280929190818152602001828054611e4990613f9d565b8015611e965780601f10611e6b57610100808354040283529160200191611e96565b820191906000526020600020905b815481529060010190602001808311611e7957829003601f168201915b505050505090806003018054611eab90613f9d565b80601f0160208091040260200160405190810160405280929190818152602001828054611ed790613f9d565b8015611f245780601f10611ef957610100808354040283529160200191611f24565b820191906000526020600020905b815481529060010190602001808311611f0757829003601f168201915b505050505090806004018054611f3990613f9d565b80601f0160208091040260200160405190810160405280929190818152602001828054611f6590613f9d565b8015611fb25780601f10611f8757610100808354040283529160200191611fb2565b820191906000526020600020905b815481529060010190602001808311611f9557829003601f168201915b505050505090806005018054611fc790613f9d565b80601f0160208091040260200160405190810160405280929190818152602001828054611ff390613f9d565b80156120405780601f1061201557610100808354040283529160200191612040565b820191906000526020600020905b81548152906001019060200180831161202357829003601f168201915b50505050509080600601805461205590613f9d565b80601f016020809104026020016040519081016040528092919081815260200182805461208190613f9d565b80156120ce5780601f106120a3576101008083540402835291602001916120ce565b820191906000526020600020905b8154815290600101906020018083116120b157829003601f168201915b5050505050908060070180546120e390613f9d565b80601f016020809104026020016040519081016040528092919081815260200182805461210f90613f9d565b801561215c5780601f106121315761010080835404028352916020019161215c565b820191906000526020600020905b81548152906001019060200180831161213f57829003601f168201915b5050505050905088565b6000806000806002548152602001908152602001600020905089816000019081612190919061430d565b50888160010190816121a2919061430d565b50878160020190816121b4919061430d565b50868160030190816121c6919061430d565b50858160040190816121d8919061430d565b50848160050190816121ea919061430d565b50838160060190816121fc919061430d565b508281600701908161220e919061430d565b50600260008154809291906122229061402c565b9190505550600160025461223691906143df565b91505098975050505050505050565b6000806000838152602001908152602001600020905061226582336131c2565b156122a5576040517f08c379a000000000000000000000000000000000000000000000000000000000815260040161229c90614485565b60405180910390fd5b80600801339080600181540180825580915050600190039060005260206000200160009091909190916101000a81548173ffffffffffffffffffffffffffffffffffffffff021916908373ffffffffffffffffffffffffffffffffffffffff1602179055505050565b6060600160008381526020019081526020016000206008018054806020026020016040519081016040528092919081815260200182805480156123a657602002820191906000526020600020905b8160009054906101000a900473ffffffffffffffffffffffffffffffffffffffff1673ffffffffffffffffffffffffffffffffffffffff168152602001906001019080831161235c575b50505050509050919050565b60025481565b60006020528060005260406000206000915090508060000180546123db90613f9d565b80601f016020809104026020016040519081016040528092919081815260200182805461240790613f9d565b80156124545780601f1061242957610100808354040283529160200191612454565b820191906000526020600020905b81548152906001019060200180831161243757829003601f168201915b50505050509080600101805461246990613f9d565b80601f016020809104026020016040519081016040528092919081815260200182805461249590613f9d565b80156124e25780601f106124b7576101008083540402835291602001916124e2565b820191906000526020600020905b8154815290600101906020018083116124c557829003601f168201915b5050505050908060020180546124f790613f9d565b80601f016020809104026020016040519081016040528092919081815260200182805461252390613f9d565b80156125705780601f1061254557610100808354040283529160200191612570565b820191906000526020600020905b81548152906001019060200180831161255357829003601f168201915b50505050509080600301805461258590613f9d565b80601f01602080910402602001604051908101604052809291908181526020018280546125b190613f9d565b80156125fe5780601f106125d3576101008083540402835291602001916125fe565b820191906000526020600020905b8154815290600101906020018083116125e157829003601f168201915b50505050509080600401805461261390613f9d565b80601f016020809104026020016040519081016040528092919081815260200182805461263f90613f9d565b801561268c5780601f106126615761010080835404028352916020019161268c565b820191906000526020600020905b81548152906001019060200180831161266f57829003601f168201915b5050505050908060050180546126a190613f9d565b80601f01602080910402602001604051908101604052809291908181526020018280546126cd90613f9d565b801561271a5780601f106126ef5761010080835404028352916020019161271a565b820191906000526020600020905b8154815290600101906020018083116126fd57829003601f168201915b50505050509080600601805461272f90613f9d565b80601f016020809104026020016040519081016040528092919081815260200182805461275b90613f9d565b80156127a85780601f1061277d576101008083540402835291602001916127a8565b820191906000526020600020905b81548152906001019060200180831161278b57829003601f168201915b5050505050908060070180546127bd90613f9d565b80601f01602080910402602001604051908101604052809291908181526020018280546127e990613f9d565b80156128365780601f1061280b57610100808354040283529160200191612836565b820191906000526020600020905b81548152906001019060200180831161281957829003601f168201915b5050505050905088565b600060016000838152602001908152602001600020600801805490509050919050565b6060600060035467ffffffffffffffff81111561288357612882613b82565b5b6040519080825280602002602001820160405280156128bc57816020015b6128a961348f565b8152602001906001900390816128a15790505b50905060005b600354811015612e40576000600160008381526020019081526020016000209050806040518061012001604052908160008201805461290090613f9d565b80601f016020809104026020016040519081016040528092919081815260200182805461292c90613f9d565b80156129795780601f1061294e57610100808354040283529160200191612979565b820191906000526020600020905b81548152906001019060200180831161295c57829003601f168201915b5050505050815260200160018201805461299290613f9d565b80601f01602080910402602001604051908101604052809291908181526020018280546129be90613f9d565b8015612a0b5780601f106129e057610100808354040283529160200191612a0b565b820191906000526020600020905b8154815290600101906020018083116129ee57829003601f168201915b50505050508152602001600282018054612a2490613f9d565b80601f0160208091040260200160405190810160405280929190818152602001828054612a5090613f9d565b8015612a9d5780601f10612a7257610100808354040283529160200191612a9d565b820191906000526020600020905b815481529060010190602001808311612a8057829003601f168201915b50505050508152602001600382018054612ab690613f9d565b80601f0160208091040260200160405190810160405280929190818152602001828054612ae290613f9d565b8015612b2f5780601f10612b0457610100808354040283529160200191612b2f565b820191906000526020600020905b815481529060010190602001808311612b1257829003601f168201915b50505050508152602001600482018054612b4890613f9d565b80601f0160208091040260200160405190810160405280929190818152602001828054612b7490613f9d565b8015612bc15780601f10612b9657610100808354040283529160200191612bc1565b820191906000526020600020905b815481529060010190602001808311612ba457829003601f168201915b50505050508152602001600582018054612bda90613f9d565b80601f0160208091040260200160405190810160405280929190818152602001828054612c0690613f9d565b8015612c535780601f10612c2857610100808354040283529160200191612c53565b820191906000526020600020905b815481529060010190602001808311612c3657829003601f168201915b50505050508152602001600682018054612c6c90613f9d565b80601f0160208091040260200160405190810160405280929190818152602001828054612c9890613f9d565b8015612ce55780601f10612cba57610100808354040283529160200191612ce5565b820191906000526020600020905b815481529060010190602001808311612cc857829003601f168201915b50505050508152602001600782018054612cfe90613f9d565b80601f0160208091040260200160405190810160405280929190818152602001828054612d2a90613f9d565b8015612d775780601f10612d4c57610100808354040283529160200191612d77565b820191906000526020600020905b815481529060010190602001808311612d5a57829003601f168201915b5050505050815260200160088201805480602002602001604051908101604052809291908181526020018280548015612e0557602002820191906000526020600020905b8160009054906101000a900473ffffffffffffffffffffffffffffffffffffffff1673ffffffffffffffffffffffffffffffffffffffff1681526020019060010190808311612dbb575b505050505081525050838381518110612e2157612e20613fce565b5b6020026020010181905250508080612e389061402c565b9150506128c2565b508091505090565b60606000808381526020019081526020016000206000018054612e6a90613f9d565b80601f0160208091040260200160405190810160405280929190818152602001828054612e9690613f9d565b8015612ee35780601f10612eb857610100808354040283529160200191612ee3565b820191906000526020600020905b815481529060010190602001808311612ec657829003601f168201915b50505050509050919050565b6060600080838152602001908152602001600020600801805480602002602001604051908101604052809291908181526020018280548015612f8657602002820191906000526020600020905b8160009054906101000a900473ffffffffffffffffffffffffffffffffffffffff1673ffffffffffffffffffffffffffffffffffffffff1681526020019060010190808311612f3c575b50505050509050919050565b60008060008381526020019081526020016000209050600481908060018154018082558091505060019003906000526020600020906009020160009091909190915060008201816000019081612fe891906144bb565b5060018201816001019081612ffd91906144bb565b506002820181600201908161301291906144bb565b506003820181600301908161302791906144bb565b506004820181600401908161303c91906144bb565b506005820181600501908161305191906144bb565b506006820181600601908161306691906144bb565b506007820181600701908161307b91906144bb565b5060088201816008019080546130929291906134db565b50505061309e82613289565b60046000815481106130b3576130b2613fce565b5b9060005260206000209060090201600160006003548152602001908152602001600020600082018160000190816130ea91906144bb565b50600182018160010190816130ff91906144bb565b506002820181600201908161311491906144bb565b506003820181600301908161312991906144bb565b506004820181600401908161313e91906144bb565b506005820181600501908161315391906144bb565b506006820181600601908161316891906144bb565b506007820181600701908161317d91906144bb565b5060088201816008019080546131949291906134db565b50905050600360008154809291906131ab9061402c565b9190505550600460006131be919061352d565b5050565b600080600080858152602001908152602001600020905060005b816008018054905081101561327c578373ffffffffffffffffffffffffffffffffffffffff1682600801828154811061321857613217613fce565b5b9060005260206000200160009054906101000a900473ffffffffffffffffffffffffffffffffffffffff1673ffffffffffffffffffffffffffffffffffffffff160361326957600192505050613283565b80806132749061402c565b9150506131dc565b5060009150505b92915050565b60025481106132cd576040517f08c379a00000000000000000000000000000000000000000000000000000000081526004016132c4906145ef565b60405180910390fd5b60008060016002546132df91906143df565b81526020019081526020016000206000808381526020019081526020016000206000820181600001908161331391906144bb565b506001820181600101908161332891906144bb565b506002820181600201908161333d91906144bb565b506003820181600301908161335291906144bb565b506004820181600401908161336791906144bb565b506005820181600501908161337c91906144bb565b506006820181600601908161339191906144bb565b50600782018160070190816133a691906144bb565b5060088201816008019080546133bd9291906134db565b5090505060008060016002546133d391906143df565b8152602001908152602001600020600080820160006133f29190613551565b6001820160006134029190613551565b6002820160006134129190613551565b6003820160006134229190613551565b6004820160006134329190613551565b6005820160006134429190613551565b6006820160006134529190613551565b6007820160006134629190613551565b6008820160006134729190613591565b5050600260008154809291906134879061460f565b919050555050565b6040518061012001604052806060815260200160608152602001606081526020016060815260200160608152602001606081526020016060815260200160608152602001606081525090565b82805482825590600052602060002090810192821561351c5760005260206000209182015b8281111561351b578254825591600101919060010190613500565b5b50905061352991906135b2565b5090565b508054600082556009029060005260206000209081019061354e91906135cf565b50565b50805461355d90613f9d565b6000825580601f1061356f575061358e565b601f01602090049060005260206000209081019061358d91906135b2565b5b50565b50805460008255906000526020600020908101906135af91906135b2565b50565b5b808211156135cb5760008160009055506001016135b3565b5090565b5b8082111561367257600080820160006135e99190613551565b6001820160006135f99190613551565b6002820160006136099190613551565b6003820160006136199190613551565b6004820160006136299190613551565b6005820160006136399190613551565b6006820160006136499190613551565b6007820160006136599190613551565b6008820160006136699190613591565b506009016135d0565b5090565b6000819050919050565b61368981613676565b82525050565b60006020820190506136a46000830184613680565b92915050565b600081519050919050565b600082825260208201905092915050565b6000819050602082019050919050565b600081519050919050565b600082825260208201905092915050565b60005b838110156137105780820151818401526020810190506136f5565b60008484015250505050565b6000601f19601f8301169050919050565b6000613738826136d6565b61374281856136e1565b93506137528185602086016136f2565b61375b8161371c565b840191505092915050565b600081519050919050565b600082825260208201905092915050565b6000819050602082019050919050565b600073ffffffffffffffffffffffffffffffffffffffff82169050919050565b60006137bd82613792565b9050919050565b6137cd816137b2565b82525050565b60006137df83836137c4565b60208301905092915050565b6000602082019050919050565b600061380382613766565b61380d8185613771565b935061381883613782565b8060005b8381101561384957815161383088826137d3565b975061383b836137eb565b92505060018101905061381c565b5085935050505092915050565b6000610120830160008301518482036000860152613874828261372d565b9150506020830151848203602086015261388e828261372d565b915050604083015184820360408601526138a8828261372d565b915050606083015184820360608601526138c2828261372d565b915050608083015184820360808601526138dc828261372d565b91505060a083015184820360a08601526138f6828261372d565b91505060c083015184820360c0860152613910828261372d565b91505060e083015184820360e086015261392a828261372d565b91505061010083015184820361010086015261394682826137f8565b9150508091505092915050565b600061395f8383613856565b905092915050565b6000602082019050919050565b600061397f826136aa565b61398981856136b5565b93508360208202850161399b856136c6565b8060005b858110156139d757848403895281516139b88582613953565b94506139c383613967565b925060208a0199505060018101905061399f565b50829750879550505050505092915050565b60006020820190508181036000830152613a038184613974565b905092915050565b6000604051905090565b600080fd5b600080fd5b613a2881613676565b8114613a3357600080fd5b50565b600081359050613a4581613a1f565b92915050565b600060208284031215613a6157613a60613a15565b5b6000613a6f84828501613a36565b91505092915050565b600082825260208201905092915050565b6000613a94826136d6565b613a9e8185613a78565b9350613aae8185602086016136f2565b613ab78161371c565b840191505092915050565b6000610100820190508181036000830152613add818b613a89565b90508181036020830152613af1818a613a89565b90508181036040830152613b058189613a89565b90508181036060830152613b198188613a89565b90508181036080830152613b2d8187613a89565b905081810360a0830152613b418186613a89565b905081810360c0830152613b558185613a89565b905081810360e0830152613b698184613a89565b90509998505050505050505050565b600080fd5b600080fd5b7f4e487b7100000000000000000000000000000000000000000000000000000000600052604160045260246000fd5b613bba8261371c565b810181811067ffffffffffffffff82111715613bd957613bd8613b82565b5b80604052505050565b6000613bec613a0b565b9050613bf88282613bb1565b919050565b600067ffffffffffffffff821115613c1857613c17613b82565b5b613c218261371c565b9050602081019050919050565b82818337600083830152505050565b6000613c50613c4b84613bfd565b613be2565b905082815260208101848484011115613c6c57613c6b613b7d565b5b613c77848285613c2e565b509392505050565b600082601f830112613c9457613c93613b78565b5b8135613ca4848260208601613c3d565b91505092915050565b60008060408385031215613cc457613cc3613a15565b5b600083013567ffffffffffffffff811115613ce257613ce1613a1a565b5b613cee85828601613c7f565b925050602083013567ffffffffffffffff811115613d0f57613d0e613a1a565b5b613d1b85828601613c7f565b9150509250929050565b600080600080600080600080610100898b031215613d4657613d45613a15565b5b600089013567ffffffffffffffff811115613d6457613d63613a1a565b5b613d708b828c01613c7f565b985050602089013567ffffffffffffffff811115613d9157613d90613a1a565b5b613d9d8b828c01613c7f565b975050604089013567ffffffffffffffff811115613dbe57613dbd613a1a565b5b613dca8b828c01613c7f565b965050606089013567ffffffffffffffff811115613deb57613dea613a1a565b5b613df78b828c01613c7f565b955050608089013567ffffffffffffffff811115613e1857613e17613a1a565b5b613e248b828c01613c7f565b94505060a089013567ffffffffffffffff811115613e4557613e44613a1a565b5b613e518b828c01613c7f565b93505060c089013567ffffffffffffffff811115613e7257613e71613a1a565b5b613e7e8b828c01613c7f565b92505060e089013567ffffffffffffffff811115613e9f57613e9e613a1a565b5b613eab8b828c01613c7f565b9150509295985092959890939650565b600082825260208201905092915050565b6000613ed782613766565b613ee18185613ebb565b9350613eec83613782565b8060005b83811015613f1d578151613f0488826137d3565b9750613f0f836137eb565b925050600181019050613ef0565b5085935050505092915050565b60006020820190508181036000830152613f448184613ecc565b905092915050565b60006020820190508181036000830152613f668184613a89565b905092915050565b7f4e487b7100000000000000000000000000000000000000000000000000000000600052602260045260246000fd5b60006002820490506001821680613fb557607f821691505b602082108103613fc857613fc7613f6e565b5b50919050565b7f4e487b7100000000000000000000000000000000000000000000000000000000600052603260045260246000fd5b7f4e487b7100000000000000000000000000000000000000000000000000000000600052601160045260246000fd5b600061403782613676565b91507fffffffffffffffffffffffffffffffffffffffffffffffffffffffffffffffff820361406957614068613ffd565b5b600182019050919050565b600081905092915050565b600061408a826136d6565b6140948185614074565b93506140a48185602086016136f2565b80840191505092915050565b60006140bc828461407f565b915081905092915050565b60008190508160005260206000209050919050565b600081546140e981613f9d565b6140f38186614074565b9450600182166000811461410e576001811461412357614156565b60ff1983168652811515820286019350614156565b61412c856140c7565b60005b8381101561414e5781548189015260018201915060208101905061412f565b838801955050505b50505092915050565b600061416b82846140dc565b915081905092915050565b60006020601f8301049050919050565b600082821b905092915050565b6000600883026141c37fffffffffffffffffffffffffffffffffffffffffffffffffffffffffffffffff82614186565b6141cd8683614186565b95508019841693508086168417925050509392505050565b6000819050919050565b600061420a61420561420084613676565b6141e5565b613676565b9050919050565b6000819050919050565b614224836141ef565b61423861423082614211565b848454614193565b825550505050565b600090565b61424d614240565b61425881848461421b565b505050565b5b8181101561427c57614271600082614245565b60018101905061425e565b5050565b601f8211156142c157614292816140c7565b61429b84614176565b810160208510156142aa578190505b6142be6142b685614176565b83018261425d565b50505b505050565b600082821c905092915050565b60006142e4600019846008026142c6565b1980831691505092915050565b60006142fd83836142d3565b9150826002028217905092915050565b614316826136d6565b67ffffffffffffffff81111561432f5761432e613b82565b5b6143398254613f9d565b614344828285614280565b600060209050601f8311600181146143775760008415614365578287015190505b61436f85826142f1565b8655506143d7565b601f198416614385866140c7565b60005b828110156143ad57848901518255600182019150602085019450602081019050614388565b868310156143ca57848901516143c6601f8916826142d3565b8355505b6001600288020188555050505b505050505050565b60006143ea82613676565b91506143f583613676565b925082820390508181111561440d5761440c613ffd565b5b92915050565b7f596f75206861766520616c726561647920617474656e6465642074686973206360008201527f6c6173732e000000000000000000000000000000000000000000000000000000602082015250565b600061446f602583613a78565b915061447a82614413565b604082019050919050565b6000602082019050818103600083015261449e81614462565b9050919050565b6000815490506144b481613f9d565b9050919050565b8181036144c95750506145a1565b6144d2826144a5565b67ffffffffffffffff8111156144eb576144ea613b82565b5b6144f58254613f9d565b614500828285614280565b6000601f83116001811461452f576000841561451d578287015490505b61452785826142f1565b86555061459a565b601f19841661453d876140c7565b9650614548866140c7565b60005b828110156145705784890154825560018201915060018501945060208101905061454b565b8683101561458d5784890154614589601f8916826142d3565b8355505b6001600288020188555050505b5050505050505b565b7f496e76616c696420696e64657800000000000000000000000000000000000000600082015250565b60006145d9600d83613a78565b91506145e4826145a3565b602082019050919050565b60006020820190508181036000830152614608816145cc565b9050919050565b600061461a82613676565b91506000820361462d5761462c613ffd565b5b60018203905091905056fea26469706673582212204425deca9864f7cf96a6eec1865681a5565e0eb7ec994b25f6256e2f805546be64736f6c63430008130033",
  "linkReferences": {},
  "deployedLinkReferences": {}
}