{
  "_format": "hh-sol-artifact-1",
  "contractName": "CourseAttendance",
  "sourceName": "contracts/CourseAttendance.sol",
  "abi": [
    {
      "inputs": [
        {
          "internalType": "uint256",
          "name": "_id",
          "type": "uint256"
        }
      ],
      "name": "attendCourse",
      "outputs": [],
      "stateMutability": "payable",
      "type": "function"
    },
    {
      "inputs": [
        {
          "internalType": "uint256",
          "name": "_id",
          "type": "uint256"
        }
      ],
      "name": "closeAttendance",
      "outputs": [],
      "stateMutability": "nonpayable",
      "type": "function"
    },
    {
      "inputs": [
        {
          "internalType": "uint256",
          "name": "",
          "type": "uint256"
        }
      ],
      "name": "closedCourses",
      "outputs": [
        {
          "internalType": "string",
          "name": "lecturer",
          "type": "string"
        },
        {
          "internalType": "string",
          "name": "courseName",
          "type": "string"
        },
        {
          "internalType": "string",
          "name": "description",
          "type": "string"
        },
        {
          "internalType": "string",
          "name": "department",
          "type": "string"
        },
        {
          "internalType": "string",
          "name": "image",
          "type": "string"
        }
      ],
      "stateMutability": "view",
      "type": "function"
    },
    {
      "inputs": [
        {
          "internalType": "uint256",
          "name": "",
          "type": "uint256"
        }
      ],
      "name": "courses",
      "outputs": [
        {
          "internalType": "string",
          "name": "lecturer",
          "type": "string"
        },
        {
          "internalType": "string",
          "name": "courseName",
          "type": "string"
        },
        {
          "internalType": "string",
          "name": "description",
          "type": "string"
        },
        {
          "internalType": "string",
          "name": "department",
          "type": "string"
        },
        {
          "internalType": "string",
          "name": "image",
          "type": "string"
        }
      ],
      "stateMutability": "view",
      "type": "function"
    },
    {
      "inputs": [
        {
          "internalType": "string",
          "name": "_lecturer",
          "type": "string"
        },
        {
          "internalType": "string",
          "name": "_courseName",
          "type": "string"
        },
        {
          "internalType": "string",
          "name": "_description",
          "type": "string"
        },
        {
          "internalType": "string",
          "name": "_department",
          "type": "string"
        },
        {
          "internalType": "string",
          "name": "_image",
          "type": "string"
        }
      ],
      "name": "createCourse",
      "outputs": [
        {
          "internalType": "uint256",
          "name": "",
          "type": "uint256"
        }
      ],
      "stateMutability": "nonpayable",
      "type": "function"
    },
    {
      "inputs": [],
      "name": "getAllClosedCourses",
      "outputs": [
        {
          "components": [
            {
              "internalType": "string",
              "name": "lecturer",
              "type": "string"
            },
            {
              "internalType": "string",
              "name": "courseName",
              "type": "string"
            },
            {
              "internalType": "string",
              "name": "description",
              "type": "string"
            },
            {
              "internalType": "string",
              "name": "department",
              "type": "string"
            },
            {
              "internalType": "string",
              "name": "image",
              "type": "string"
            },
            {
              "internalType": "address[]",
              "name": "attendees",
              "type": "address[]"
            }
          ],
          "internalType": "struct CourseAttendance.Course[]",
          "name": "",
          "type": "tuple[]"
        }
      ],
      "stateMutability": "view",
      "type": "function"
    },
    {
      "inputs": [],
      "name": "getAllCourses",
      "outputs": [
        {
          "components": [
            {
              "internalType": "string",
              "name": "lecturer",
              "type": "string"
            },
            {
              "internalType": "string",
              "name": "courseName",
              "type": "string"
            },
            {
              "internalType": "string",
              "name": "description",
              "type": "string"
            },
            {
              "internalType": "string",
              "name": "department",
              "type": "string"
            },
            {
              "internalType": "string",
              "name": "image",
              "type": "string"
            },
            {
              "internalType": "address[]",
              "name": "attendees",
              "type": "address[]"
            }
          ],
          "internalType": "struct CourseAttendance.Course[]",
          "name": "",
          "type": "tuple[]"
        }
      ],
      "stateMutability": "view",
      "type": "function"
    },
    {
      "inputs": [
        {
          "internalType": "uint256",
          "name": "_id",
          "type": "uint256"
        }
      ],
      "name": "getAttendees",
      "outputs": [
        {
          "internalType": "address[]",
          "name": "",
          "type": "address[]"
        }
      ],
      "stateMutability": "view",
      "type": "function"
    },
    {
      "inputs": [
        {
          "internalType": "uint256",
          "name": "_id",
          "type": "uint256"
        }
      ],
      "name": "getAttendeesForClosed",
      "outputs": [
        {
          "internalType": "address[]",
          "name": "",
          "type": "address[]"
        }
      ],
      "stateMutability": "view",
      "type": "function"
    },
    {
      "inputs": [
        {
          "internalType": "string",
          "name": "_department",
          "type": "string"
        }
      ],
      "name": "getClosedCourses",
      "outputs": [
        {
          "components": [
            {
              "internalType": "string",
              "name": "lecturer",
              "type": "string"
            },
            {
              "internalType": "string",
              "name": "courseName",
              "type": "string"
            },
            {
              "internalType": "string",
              "name": "description",
              "type": "string"
            },
            {
              "internalType": "string",
              "name": "department",
              "type": "string"
            },
            {
              "internalType": "string",
              "name": "image",
              "type": "string"
            },
            {
              "internalType": "address[]",
              "name": "attendees",
              "type": "address[]"
            }
          ],
          "internalType": "struct CourseAttendance.Course[]",
          "name": "",
          "type": "tuple[]"
        }
      ],
      "stateMutability": "view",
      "type": "function"
    },
    {
      "inputs": [
        {
          "internalType": "string",
          "name": "_department",
          "type": "string"
        }
      ],
      "name": "getCourses",
      "outputs": [
        {
          "components": [
            {
              "internalType": "string",
              "name": "lecturer",
              "type": "string"
            },
            {
              "internalType": "string",
              "name": "courseName",
              "type": "string"
            },
            {
              "internalType": "string",
              "name": "description",
              "type": "string"
            },
            {
              "internalType": "string",
              "name": "department",
              "type": "string"
            },
            {
              "internalType": "string",
              "name": "image",
              "type": "string"
            },
            {
              "internalType": "address[]",
              "name": "attendees",
              "type": "address[]"
            }
          ],
          "internalType": "struct CourseAttendance.Course[]",
          "name": "",
          "type": "tuple[]"
        }
      ],
      "stateMutability": "view",
      "type": "function"
    },
    {
      "inputs": [
        {
          "internalType": "uint256",
          "name": "_id",
          "type": "uint256"
        }
      ],
      "name": "getLecturer",
      "outputs": [
        {
          "internalType": "string",
          "name": "",
          "type": "string"
        }
      ],
      "stateMutability": "view",
      "type": "function"
    },
    {
      "inputs": [
        {
          "internalType": "uint256",
          "name": "_id",
          "type": "uint256"
        }
      ],
      "name": "getNumberOfAttendees",
      "outputs": [
        {
          "internalType": "uint256",
          "name": "",
          "type": "uint256"
        }
      ],
      "stateMutability": "view",
      "type": "function"
    },
    {
      "inputs": [
        {
          "internalType": "uint256",
          "name": "_id",
          "type": "uint256"
        }
      ],
      "name": "getNumberOfAttendeesforClosed",
      "outputs": [
        {
          "internalType": "uint256",
          "name": "",
          "type": "uint256"
        }
      ],
      "stateMutability": "view",
      "type": "function"
    },
    {
      "inputs": [],
      "name": "numberofCourses",
      "outputs": [
        {
          "internalType": "uint256",
          "name": "",
          "type": "uint256"
        }
      ],
      "stateMutability": "view",
      "type": "function"
    },
    {
      "inputs": [],
      "name": "numberofclosedCourses",
      "outputs": [
        {
          "internalType": "uint256",
          "name": "",
          "type": "uint256"
        }
      ],
      "stateMutability": "view",
      "type": "function"
    },
    {
      "inputs": [
        {
          "internalType": "uint256",
          "name": "",
          "type": "uint256"
        }
      ],
      "name": "tempCourses",
      "outputs": [
        {
          "internalType": "string",
          "name": "lecturer",
          "type": "string"
        },
        {
          "internalType": "string",
          "name": "courseName",
          "type": "string"
        },
        {
          "internalType": "string",
          "name": "description",
          "type": "string"
        },
        {
          "internalType": "string",
          "name": "department",
          "type": "string"
        },
        {
          "internalType": "string",
          "name": "image",
          "type": "string"
        }
      ],
      "stateMutability": "view",
      "type": "function"
    }
  ],
  "bytecode": "0x60806040526000600255600060035534801561001a57600080fd5b506136f58061002a6000396000f3fe6080604052600436106100fd5760003560e01c8063644b9b5e116100955780639e58d254116100645780639e58d25414610393578063a4d0acef146103d0578063d990dc34146103fb578063e0c1437714610438578063f250036814610475576100fd565b8063644b9b5e146102ad5780637d750c9a146102ea57806384bd5a131461032757806396f979d214610352576100fd565b80631370d847116100d15780631370d847146101d2578063339f36601461021357806338966b75146102505780636323e98014610291576100fd565b80623f198c1461010257806304e48bd11461012d5780630f6b9c9214610158578063122748b714610195575b600080fd5b34801561010e57600080fd5b5061011761049e565b6040516101249190612865565b60405180910390f35b34801561013957600080fd5b506101426104a4565b60405161014f9190612b6e565b60405180910390f35b34801561016457600080fd5b5061017f600480360381019061017a9190612bd0565b6108d1565b60405161018c9190612865565b60405180910390f35b3480156101a157600080fd5b506101bc60048036038101906101b79190612d32565b6108f3565b6040516101c99190612865565b60405180910390f35b3480156101de57600080fd5b506101f960048036038101906101f49190612bd0565b610999565b60405161020a959493929190612e83565b60405180910390f35b34801561021f57600080fd5b5061023a60048036038101906102359190612ef9565b610c87565b6040516102479190612b6e565b60405180910390f35b34801561025c57600080fd5b5061027760048036038101906102729190612bd0565b61112b565b604051610288959493929190612e83565b60405180910390f35b6102ab60048036038101906102a69190612bd0565b611409565b005b3480156102b957600080fd5b506102d460048036038101906102cf9190612ef9565b6114d2565b6040516102e19190612b6e565b60405180910390f35b3480156102f657600080fd5b50610311600480360381019061030c9190612bd0565b611978565b60405161031e9190612fb1565b60405180910390f35b34801561033357600080fd5b5061033c611a1c565b6040516103499190612865565b60405180910390f35b34801561035e57600080fd5b5061037960048036038101906103749190612bd0565b611a22565b60405161038a959493929190612e83565b60405180910390f35b34801561039f57600080fd5b506103ba60048036038101906103b59190612bd0565b611d00565b6040516103c79190612865565b60405180910390f35b3480156103dc57600080fd5b506103e5611d23565b6040516103f29190612b6e565b60405180910390f35b34801561040757600080fd5b50610422600480360381019061041d9190612bd0565b612151565b60405161042f9190612fd3565b60405180910390f35b34801561044457600080fd5b5061045f600480360381019061045a9190612bd0565b6121f8565b60405161046c9190612fb1565b60405180910390f35b34801561048157600080fd5b5061049c60048036038101906104979190612bd0565b61229b565b005b60035481565b6060600060025467ffffffffffffffff8111156104c4576104c3612c07565b5b6040519080825280602002602001820160405280156104fd57816020015b6104ea6126ab565b8152602001906001900390816104e25790505b50905060005b6002548110156108c95760008060008381526020019081526020016000209050806040518060c001604052908160008201805461053f90613024565b80601f016020809104026020016040519081016040528092919081815260200182805461056b90613024565b80156105b85780601f1061058d576101008083540402835291602001916105b8565b820191906000526020600020905b81548152906001019060200180831161059b57829003601f168201915b505050505081526020016001820180546105d190613024565b80601f01602080910402602001604051908101604052809291908181526020018280546105fd90613024565b801561064a5780601f1061061f5761010080835404028352916020019161064a565b820191906000526020600020905b81548152906001019060200180831161062d57829003601f168201915b5050505050815260200160028201805461066390613024565b80601f016020809104026020016040519081016040528092919081815260200182805461068f90613024565b80156106dc5780601f106106b1576101008083540402835291602001916106dc565b820191906000526020600020905b8154815290600101906020018083116106bf57829003601f168201915b505050505081526020016003820180546106f590613024565b80601f016020809104026020016040519081016040528092919081815260200182805461072190613024565b801561076e5780601f106107435761010080835404028352916020019161076e565b820191906000526020600020905b81548152906001019060200180831161075157829003601f168201915b5050505050815260200160048201805461078790613024565b80601f01602080910402602001604051908101604052809291908181526020018280546107b390613024565b80156108005780601f106107d557610100808354040283529160200191610800565b820191906000526020600020905b8154815290600101906020018083116107e357829003601f168201915b505050505081526020016005820180548060200260200160405190810160405280929190818152602001828054801561088e57602002820191906000526020600020905b8160009054906101000a900473ffffffffffffffffffffffffffffffffffffffff1673ffffffffffffffffffffffffffffffffffffffff1681526020019060010190808311610844575b5050505050815250508383815181106108aa576108a9613055565b5b60200260200101819052505080806108c1906130b3565b915050610503565b508091505090565b6000806000838152602001908152602001600020600501805490509050919050565b600080600080600254815260200190815260200160002090508681600001908161091d91906132a7565b508581600101908161092f91906132a7565b508481600201908161094191906132a7565b508381600301908161095391906132a7565b508281600401908161096591906132a7565b5060026000815480929190610979906130b3565b9190505550600160025461098d9190613379565b91505095945050505050565b600481815481106109a957600080fd5b90600052602060002090600602016000915090508060000180546109cc90613024565b80601f01602080910402602001604051908101604052809291908181526020018280546109f890613024565b8015610a455780601f10610a1a57610100808354040283529160200191610a45565b820191906000526020600020905b815481529060010190602001808311610a2857829003601f168201915b505050505090806001018054610a5a90613024565b80601f0160208091040260200160405190810160405280929190818152602001828054610a8690613024565b8015610ad35780601f10610aa857610100808354040283529160200191610ad3565b820191906000526020600020905b815481529060010190602001808311610ab657829003601f168201915b505050505090806002018054610ae890613024565b80601f0160208091040260200160405190810160405280929190818152602001828054610b1490613024565b8015610b615780601f10610b3657610100808354040283529160200191610b61565b820191906000526020600020905b815481529060010190602001808311610b4457829003601f168201915b505050505090806003018054610b7690613024565b80601f0160208091040260200160405190810160405280929190818152602001828054610ba290613024565b8015610bef5780601f10610bc457610100808354040283529160200191610bef565b820191906000526020600020905b815481529060010190602001808311610bd257829003601f168201915b505050505090806004018054610c0490613024565b80601f0160208091040260200160405190810160405280929190818152602001828054610c3090613024565b8015610c7d5780601f10610c5257610100808354040283529160200191610c7d565b820191906000526020600020905b815481529060010190602001808311610c6057829003601f168201915b5050505050905085565b6060600060025467ffffffffffffffff811115610ca757610ca6612c07565b5b604051908082528060200260200182016040528015610ce057816020015b610ccd6126ab565b815260200190600190039081610cc55790505b5090506000805b60025481101561111d5784604051602001610d0291906133e9565b60405160208183030381529060405280519060200120600080838152602001908152602001600020600301604051602001610d3d9190613483565b604051602081830303815290604052805190602001200361110a576000808281526020019081526020016000206040518060c0016040529081600082018054610d8590613024565b80601f0160208091040260200160405190810160405280929190818152602001828054610db190613024565b8015610dfe5780601f10610dd357610100808354040283529160200191610dfe565b820191906000526020600020905b815481529060010190602001808311610de157829003601f168201915b50505050508152602001600182018054610e1790613024565b80601f0160208091040260200160405190810160405280929190818152602001828054610e4390613024565b8015610e905780601f10610e6557610100808354040283529160200191610e90565b820191906000526020600020905b815481529060010190602001808311610e7357829003601f168201915b50505050508152602001600282018054610ea990613024565b80601f0160208091040260200160405190810160405280929190818152602001828054610ed590613024565b8015610f225780601f10610ef757610100808354040283529160200191610f22565b820191906000526020600020905b815481529060010190602001808311610f0557829003601f168201915b50505050508152602001600382018054610f3b90613024565b80601f0160208091040260200160405190810160405280929190818152602001828054610f6790613024565b8015610fb45780601f10610f8957610100808354040283529160200191610fb4565b820191906000526020600020905b815481529060010190602001808311610f9757829003601f168201915b50505050508152602001600482018054610fcd90613024565b80601f0160208091040260200160405190810160405280929190818152602001828054610ff990613024565b80156110465780601f1061101b57610100808354040283529160200191611046565b820191906000526020600020905b81548152906001019060200180831161102957829003601f168201915b50505050508152602001600582018054806020026020016040519081016040528092919081815260200182805480156110d457602002820191906000526020600020905b8160009054906101000a900473ffffffffffffffffffffffffffffffffffffffff1673ffffffffffffffffffffffffffffffffffffffff168152602001906001019080831161108a575b5050505050815250508383815181106110f0576110ef613055565b5b60200260200101819052508180611106906130b3565b9250505b8080611115906130b3565b915050610ce7565b508082528192505050919050565b600160205280600052604060002060009150905080600001805461114e90613024565b80601f016020809104026020016040519081016040528092919081815260200182805461117a90613024565b80156111c75780601f1061119c576101008083540402835291602001916111c7565b820191906000526020600020905b8154815290600101906020018083116111aa57829003601f168201915b5050505050908060010180546111dc90613024565b80601f016020809104026020016040519081016040528092919081815260200182805461120890613024565b80156112555780601f1061122a57610100808354040283529160200191611255565b820191906000526020600020905b81548152906001019060200180831161123857829003601f168201915b50505050509080600201805461126a90613024565b80601f016020809104026020016040519081016040528092919081815260200182805461129690613024565b80156112e35780601f106112b8576101008083540402835291602001916112e3565b820191906000526020600020905b8154815290600101906020018083116112c657829003601f168201915b5050505050908060030180546112f890613024565b80601f016020809104026020016040519081016040528092919081815260200182805461132490613024565b80156113715780601f1061134657610100808354040283529160200191611371565b820191906000526020600020905b81548152906001019060200180831161135457829003601f168201915b50505050509080600401805461138690613024565b80601f01602080910402602001604051908101604052809291908181526020018280546113b290613024565b80156113ff5780601f106113d4576101008083540402835291602001916113ff565b820191906000526020600020905b8154815290600101906020018083116113e257829003601f168201915b5050505050905085565b60008060008381526020019081526020016000209050611429823361244d565b15611469576040517f08c379a00000000000000000000000000000000000000000000000000000000081526004016114609061350c565b60405180910390fd5b80600501339080600181540180825580915050600190039060005260206000200160009091909190916101000a81548173ffffffffffffffffffffffffffffffffffffffff021916908373ffffffffffffffffffffffffffffffffffffffff1602179055505050565b6060600060035467ffffffffffffffff8111156114f2576114f1612c07565b5b60405190808252806020026020018201604052801561152b57816020015b6115186126ab565b8152602001906001900390816115105790505b5090506000805b60035481101561196a578460405160200161154d91906133e9565b60405160208183030381529060405280519060200120600160008381526020019081526020016000206003016040516020016115899190613483565b604051602081830303815290604052805190602001200361195757600160008281526020019081526020016000206040518060c00160405290816000820180546115d290613024565b80601f01602080910402602001604051908101604052809291908181526020018280546115fe90613024565b801561164b5780601f106116205761010080835404028352916020019161164b565b820191906000526020600020905b81548152906001019060200180831161162e57829003601f168201915b5050505050815260200160018201805461166490613024565b80601f016020809104026020016040519081016040528092919081815260200182805461169090613024565b80156116dd5780601f106116b2576101008083540402835291602001916116dd565b820191906000526020600020905b8154815290600101906020018083116116c057829003601f168201915b505050505081526020016002820180546116f690613024565b80601f016020809104026020016040519081016040528092919081815260200182805461172290613024565b801561176f5780601f106117445761010080835404028352916020019161176f565b820191906000526020600020905b81548152906001019060200180831161175257829003601f168201915b5050505050815260200160038201805461178890613024565b80601f01602080910402602001604051908101604052809291908181526020018280546117b490613024565b80156118015780601f106117d657610100808354040283529160200191611801565b820191906000526020600020905b8154815290600101906020018083116117e457829003601f168201915b5050505050815260200160048201805461181a90613024565b80601f016020809104026020016040519081016040528092919081815260200182805461184690613024565b80156118935780601f1061186857610100808354040283529160200191611893565b820191906000526020600020905b81548152906001019060200180831161187657829003601f168201915b505050505081526020016005820180548060200260200160405190810160405280929190818152602001828054801561192157602002820191906000526020600020905b8160009054906101000a900473ffffffffffffffffffffffffffffffffffffffff1673ffffffffffffffffffffffffffffffffffffffff16815260200190600101908083116118d7575b50505050508152505083838151811061193d5761193c613055565b5b60200260200101819052508180611953906130b3565b9250505b8080611962906130b3565b915050611532565b508082528192505050919050565b606060016000838152602001908152602001600020600501805480602002602001604051908101604052809291908181526020018280548015611a1057602002820191906000526020600020905b8160009054906101000a900473ffffffffffffffffffffffffffffffffffffffff1673ffffffffffffffffffffffffffffffffffffffff16815260200190600101908083116119c6575b50505050509050919050565b60025481565b6000602052806000526040600020600091509050806000018054611a4590613024565b80601f0160208091040260200160405190810160405280929190818152602001828054611a7190613024565b8015611abe5780601f10611a9357610100808354040283529160200191611abe565b820191906000526020600020905b815481529060010190602001808311611aa157829003601f168201915b505050505090806001018054611ad390613024565b80601f0160208091040260200160405190810160405280929190818152602001828054611aff90613024565b8015611b4c5780601f10611b2157610100808354040283529160200191611b4c565b820191906000526020600020905b815481529060010190602001808311611b2f57829003601f168201915b505050505090806002018054611b6190613024565b80601f0160208091040260200160405190810160405280929190818152602001828054611b8d90613024565b8015611bda5780601f10611baf57610100808354040283529160200191611bda565b820191906000526020600020905b815481529060010190602001808311611bbd57829003601f168201915b505050505090806003018054611bef90613024565b80601f0160208091040260200160405190810160405280929190818152602001828054611c1b90613024565b8015611c685780601f10611c3d57610100808354040283529160200191611c68565b820191906000526020600020905b815481529060010190602001808311611c4b57829003601f168201915b505050505090806004018054611c7d90613024565b80601f0160208091040260200160405190810160405280929190818152602001828054611ca990613024565b8015611cf65780601f10611ccb57610100808354040283529160200191611cf6565b820191906000526020600020905b815481529060010190602001808311611cd957829003601f168201915b5050505050905085565b600060016000838152602001908152602001600020600501805490509050919050565b6060600060035467ffffffffffffffff811115611d4357611d42612c07565b5b604051908082528060200260200182016040528015611d7c57816020015b611d696126ab565b815260200190600190039081611d615790505b50905060005b600354811015612149576000600160008381526020019081526020016000209050806040518060c0016040529081600082018054611dbf90613024565b80601f0160208091040260200160405190810160405280929190818152602001828054611deb90613024565b8015611e385780601f10611e0d57610100808354040283529160200191611e38565b820191906000526020600020905b815481529060010190602001808311611e1b57829003601f168201915b50505050508152602001600182018054611e5190613024565b80601f0160208091040260200160405190810160405280929190818152602001828054611e7d90613024565b8015611eca5780601f10611e9f57610100808354040283529160200191611eca565b820191906000526020600020905b815481529060010190602001808311611ead57829003601f168201915b50505050508152602001600282018054611ee390613024565b80601f0160208091040260200160405190810160405280929190818152602001828054611f0f90613024565b8015611f5c5780601f10611f3157610100808354040283529160200191611f5c565b820191906000526020600020905b815481529060010190602001808311611f3f57829003601f168201915b50505050508152602001600382018054611f7590613024565b80601f0160208091040260200160405190810160405280929190818152602001828054611fa190613024565b8015611fee5780601f10611fc357610100808354040283529160200191611fee565b820191906000526020600020905b815481529060010190602001808311611fd157829003601f168201915b5050505050815260200160048201805461200790613024565b80601f016020809104026020016040519081016040528092919081815260200182805461203390613024565b80156120805780601f1061205557610100808354040283529160200191612080565b820191906000526020600020905b81548152906001019060200180831161206357829003601f168201915b505050505081526020016005820180548060200260200160405190810160405280929190818152602001828054801561210e57602002820191906000526020600020905b8160009054906101000a900473ffffffffffffffffffffffffffffffffffffffff1673ffffffffffffffffffffffffffffffffffffffff16815260200190600101908083116120c4575b50505050508152505083838151811061212a57612129613055565b5b6020026020010181905250508080612141906130b3565b915050611d82565b508091505090565b6060600080838152602001908152602001600020600001805461217390613024565b80601f016020809104026020016040519081016040528092919081815260200182805461219f90613024565b80156121ec5780601f106121c1576101008083540402835291602001916121ec565b820191906000526020600020905b8154815290600101906020018083116121cf57829003601f168201915b50505050509050919050565b606060008083815260200190815260200160002060050180548060200260200160405190810160405280929190818152602001828054801561228f57602002820191906000526020600020905b8160009054906101000a900473ffffffffffffffffffffffffffffffffffffffff1673ffffffffffffffffffffffffffffffffffffffff1681526020019060010190808311612245575b50505050509050919050565b600080600083815260200190815260200160002090506004819080600181540180825580915050600190039060005260206000209060060201600090919091909150600082018160000190816122f19190613542565b50600182018160010190816123069190613542565b506002820181600201908161231b9190613542565b50600382018160030190816123309190613542565b50600482018160040190816123459190613542565b50600582018160050190805461235c9291906126e1565b50505061236882612514565b600460008154811061237d5761237c613055565b5b9060005260206000209060060201600160006003548152602001908152602001600020600082018160000190816123b49190613542565b50600182018160010190816123c99190613542565b50600282018160020190816123de9190613542565b50600382018160030190816123f39190613542565b50600482018160040190816124089190613542565b50600582018160050190805461241f9291906126e1565b5090505060036000815480929190612436906130b3565b9190505550600460006124499190612733565b5050565b600080600080858152602001908152602001600020905060005b8160050180549050811015612507578373ffffffffffffffffffffffffffffffffffffffff168260050182815481106124a3576124a2613055565b5b9060005260206000200160009054906101000a900473ffffffffffffffffffffffffffffffffffffffff1673ffffffffffffffffffffffffffffffffffffffff16036124f45760019250505061250e565b80806124ff906130b3565b915050612467565b5060009150505b92915050565b6002548110612558576040517f08c379a000000000000000000000000000000000000000000000000000000000815260040161254f90613676565b60405180910390fd5b600080600160025461256a9190613379565b81526020019081526020016000206000808381526020019081526020016000206000820181600001908161259e9190613542565b50600182018160010190816125b39190613542565b50600282018160020190816125c89190613542565b50600382018160030190816125dd9190613542565b50600482018160040190816125f29190613542565b5060058201816005019080546126099291906126e1565b50905050600080600160025461261f9190613379565b81526020019081526020016000206000808201600061263e9190612757565b60018201600061264e9190612757565b60028201600061265e9190612757565b60038201600061266e9190612757565b60048201600061267e9190612757565b60058201600061268e9190612797565b5050600260008154809291906126a390613696565b919050555050565b6040518060c001604052806060815260200160608152602001606081526020016060815260200160608152602001606081525090565b8280548282559060005260206000209081019282156127225760005260206000209182015b82811115612721578254825591600101919060010190612706565b5b50905061272f91906127b8565b5090565b508054600082556006029060005260206000209081019061275491906127d5565b50565b50805461276390613024565b6000825580601f106127755750612794565b601f01602090049060005260206000209081019061279391906127b8565b5b50565b50805460008255906000526020600020908101906127b591906127b8565b50565b5b808211156127d15760008160009055506001016127b9565b5090565b5b8082111561284857600080820160006127ef9190612757565b6001820160006127ff9190612757565b60028201600061280f9190612757565b60038201600061281f9190612757565b60048201600061282f9190612757565b60058201600061283f9190612797565b506006016127d6565b5090565b6000819050919050565b61285f8161284c565b82525050565b600060208201905061287a6000830184612856565b92915050565b600081519050919050565b600082825260208201905092915050565b6000819050602082019050919050565b600081519050919050565b600082825260208201905092915050565b60005b838110156128e65780820151818401526020810190506128cb565b60008484015250505050565b6000601f19601f8301169050919050565b600061290e826128ac565b61291881856128b7565b93506129288185602086016128c8565b612931816128f2565b840191505092915050565b600081519050919050565b600082825260208201905092915050565b6000819050602082019050919050565b600073ffffffffffffffffffffffffffffffffffffffff82169050919050565b600061299382612968565b9050919050565b6129a381612988565b82525050565b60006129b5838361299a565b60208301905092915050565b6000602082019050919050565b60006129d98261293c565b6129e38185612947565b93506129ee83612958565b8060005b83811015612a1f578151612a0688826129a9565b9750612a11836129c1565b9250506001810190506129f2565b5085935050505092915050565b600060c0830160008301518482036000860152612a498282612903565b91505060208301518482036020860152612a638282612903565b91505060408301518482036040860152612a7d8282612903565b91505060608301518482036060860152612a978282612903565b91505060808301518482036080860152612ab18282612903565b91505060a083015184820360a0860152612acb82826129ce565b9150508091505092915050565b6000612ae48383612a2c565b905092915050565b6000602082019050919050565b6000612b0482612880565b612b0e818561288b565b935083602082028501612b208561289c565b8060005b85811015612b5c5784840389528151612b3d8582612ad8565b9450612b4883612aec565b925060208a01995050600181019050612b24565b50829750879550505050505092915050565b60006020820190508181036000830152612b888184612af9565b905092915050565b6000604051905090565b600080fd5b600080fd5b612bad8161284c565b8114612bb857600080fd5b50565b600081359050612bca81612ba4565b92915050565b600060208284031215612be657612be5612b9a565b5b6000612bf484828501612bbb565b91505092915050565b600080fd5b600080fd5b7f4e487b7100000000000000000000000000000000000000000000000000000000600052604160045260246000fd5b612c3f826128f2565b810181811067ffffffffffffffff82111715612c5e57612c5d612c07565b5b80604052505050565b6000612c71612b90565b9050612c7d8282612c36565b919050565b600067ffffffffffffffff821115612c9d57612c9c612c07565b5b612ca6826128f2565b9050602081019050919050565b82818337600083830152505050565b6000612cd5612cd084612c82565b612c67565b905082815260208101848484011115612cf157612cf0612c02565b5b612cfc848285612cb3565b509392505050565b600082601f830112612d1957612d18612bfd565b5b8135612d29848260208601612cc2565b91505092915050565b600080600080600060a08688031215612d4e57612d4d612b9a565b5b600086013567ffffffffffffffff811115612d6c57612d6b612b9f565b5b612d7888828901612d04565b955050602086013567ffffffffffffffff811115612d9957612d98612b9f565b5b612da588828901612d04565b945050604086013567ffffffffffffffff811115612dc657612dc5612b9f565b5b612dd288828901612d04565b935050606086013567ffffffffffffffff811115612df357612df2612b9f565b5b612dff88828901612d04565b925050608086013567ffffffffffffffff811115612e2057612e1f612b9f565b5b612e2c88828901612d04565b9150509295509295909350565b600082825260208201905092915050565b6000612e55826128ac565b612e5f8185612e39565b9350612e6f8185602086016128c8565b612e78816128f2565b840191505092915050565b600060a0820190508181036000830152612e9d8188612e4a565b90508181036020830152612eb18187612e4a565b90508181036040830152612ec58186612e4a565b90508181036060830152612ed98185612e4a565b90508181036080830152612eed8184612e4a565b90509695505050505050565b600060208284031215612f0f57612f0e612b9a565b5b600082013567ffffffffffffffff811115612f2d57612f2c612b9f565b5b612f3984828501612d04565b91505092915050565b600082825260208201905092915050565b6000612f5e8261293c565b612f688185612f42565b9350612f7383612958565b8060005b83811015612fa4578151612f8b88826129a9565b9750612f96836129c1565b925050600181019050612f77565b5085935050505092915050565b60006020820190508181036000830152612fcb8184612f53565b905092915050565b60006020820190508181036000830152612fed8184612e4a565b905092915050565b7f4e487b7100000000000000000000000000000000000000000000000000000000600052602260045260246000fd5b6000600282049050600182168061303c57607f821691505b60208210810361304f5761304e612ff5565b5b50919050565b7f4e487b7100000000000000000000000000000000000000000000000000000000600052603260045260246000fd5b7f4e487b7100000000000000000000000000000000000000000000000000000000600052601160045260246000fd5b60006130be8261284c565b91507fffffffffffffffffffffffffffffffffffffffffffffffffffffffffffffffff82036130f0576130ef613084565b5b600182019050919050565b60008190508160005260206000209050919050565b60006020601f8301049050919050565b600082821b905092915050565b60006008830261315d7fffffffffffffffffffffffffffffffffffffffffffffffffffffffffffffffff82613120565b6131678683613120565b95508019841693508086168417925050509392505050565b6000819050919050565b60006131a461319f61319a8461284c565b61317f565b61284c565b9050919050565b6000819050919050565b6131be83613189565b6131d26131ca826131ab565b84845461312d565b825550505050565b600090565b6131e76131da565b6131f28184846131b5565b505050565b5b818110156132165761320b6000826131df565b6001810190506131f8565b5050565b601f82111561325b5761322c816130fb565b61323584613110565b81016020851015613244578190505b61325861325085613110565b8301826131f7565b50505b505050565b600082821c905092915050565b600061327e60001984600802613260565b1980831691505092915050565b6000613297838361326d565b9150826002028217905092915050565b6132b0826128ac565b67ffffffffffffffff8111156132c9576132c8612c07565b5b6132d38254613024565b6132de82828561321a565b600060209050601f83116001811461331157600084156132ff578287015190505b613309858261328b565b865550613371565b601f19841661331f866130fb565b60005b8281101561334757848901518255600182019150602085019450602081019050613322565b868310156133645784890151613360601f89168261326d565b8355505b6001600288020188555050505b505050505050565b60006133848261284c565b915061338f8361284c565b92508282039050818111156133a7576133a6613084565b5b92915050565b600081905092915050565b60006133c3826128ac565b6133cd81856133ad565b93506133dd8185602086016128c8565b80840191505092915050565b60006133f582846133b8565b915081905092915050565b6000815461340d81613024565b61341781866133ad565b9450600182166000811461343257600181146134475761347a565b60ff198316865281151582028601935061347a565b613450856130fb565b60005b8381101561347257815481890152600182019150602081019050613453565b838801955050505b50505092915050565b600061348f8284613400565b915081905092915050565b7f596f75206861766520616c726561647920617474656e6465642074686973206360008201527f6c6173732e000000000000000000000000000000000000000000000000000000602082015250565b60006134f6602583612e39565b91506135018261349a565b604082019050919050565b60006020820190508181036000830152613525816134e9565b9050919050565b60008154905061353b81613024565b9050919050565b818103613550575050613628565b6135598261352c565b67ffffffffffffffff81111561357257613571612c07565b5b61357c8254613024565b61358782828561321a565b6000601f8311600181146135b657600084156135a4578287015490505b6135ae858261328b565b865550613621565b601f1984166135c4876130fb565b96506135cf866130fb565b60005b828110156135f7578489015482556001820191506001850194506020810190506135d2565b868310156136145784890154613610601f89168261326d565b8355505b6001600288020188555050505b5050505050505b565b7f496e76616c696420696e64657800000000000000000000000000000000000000600082015250565b6000613660600d83612e39565b915061366b8261362a565b602082019050919050565b6000602082019050818103600083015261368f81613653565b9050919050565b60006136a18261284c565b9150600082036136b4576136b3613084565b5b60018203905091905056fea26469706673582212204555dd7924b6b8a968b2ce4161f1f6f88b275a10f85b784c3dde099c956bf48464736f6c63430008130033",
  "linkReferences": {},
  "deployedLinkReferences": {}
}