{
  "_format": "hh-sol-artifact-1",
  "contractName": "CourseAttendance",
  "sourceName": "contracts/CourseAttendance.sol",
  "abi": [
    {
      "inputs": [
        {
          "internalType": "uint256",
          "name": "_id",
          "type": "uint256"
        }
      ],
      "name": "attendCourse",
      "outputs": [],
      "stateMutability": "payable",
      "type": "function"
    },
    {
      "inputs": [
        {
          "internalType": "uint256",
          "name": "_id",
          "type": "uint256"
        }
      ],
      "name": "closeAttendance",
      "outputs": [],
      "stateMutability": "nonpayable",
      "type": "function"
    },
    {
      "inputs": [
        {
          "internalType": "uint256",
          "name": "",
          "type": "uint256"
        }
      ],
      "name": "closedCourses",
      "outputs": [
        {
          "internalType": "string",
          "name": "lecturer",
          "type": "string"
        },
        {
          "internalType": "string",
          "name": "courseName",
          "type": "string"
        },
        {
          "internalType": "string",
          "name": "description",
          "type": "string"
        },
        {
          "internalType": "string",
          "name": "department",
          "type": "string"
        },
        {
          "internalType": "string",
          "name": "image",
          "type": "string"
        }
      ],
      "stateMutability": "view",
      "type": "function"
    },
    {
      "inputs": [
        {
          "internalType": "uint256",
          "name": "",
          "type": "uint256"
        }
      ],
      "name": "courses",
      "outputs": [
        {
          "internalType": "string",
          "name": "lecturer",
          "type": "string"
        },
        {
          "internalType": "string",
          "name": "courseName",
          "type": "string"
        },
        {
          "internalType": "string",
          "name": "description",
          "type": "string"
        },
        {
          "internalType": "string",
          "name": "department",
          "type": "string"
        },
        {
          "internalType": "string",
          "name": "image",
          "type": "string"
        }
      ],
      "stateMutability": "view",
      "type": "function"
    },
    {
      "inputs": [
        {
          "internalType": "string",
          "name": "_lecturer",
          "type": "string"
        },
        {
          "internalType": "string",
          "name": "_courseName",
          "type": "string"
        },
        {
          "internalType": "string",
          "name": "_description",
          "type": "string"
        },
        {
          "internalType": "string",
          "name": "_department",
          "type": "string"
        },
        {
          "internalType": "string",
          "name": "_image",
          "type": "string"
        }
      ],
      "name": "createCourse",
      "outputs": [
        {
          "internalType": "uint256",
          "name": "",
          "type": "uint256"
        }
      ],
      "stateMutability": "nonpayable",
      "type": "function"
    },
    {
      "inputs": [
        {
          "internalType": "uint256",
          "name": "_id",
          "type": "uint256"
        }
      ],
      "name": "getAttendees",
      "outputs": [
        {
          "internalType": "address[]",
          "name": "",
          "type": "address[]"
        }
      ],
      "stateMutability": "view",
      "type": "function"
    },
    {
      "inputs": [
        {
          "internalType": "uint256",
          "name": "_id",
          "type": "uint256"
        }
      ],
      "name": "getAttendeesForClosed",
      "outputs": [
        {
          "internalType": "address[]",
          "name": "",
          "type": "address[]"
        }
      ],
      "stateMutability": "view",
      "type": "function"
    },
    {
      "inputs": [
        {
          "internalType": "string",
          "name": "_department",
          "type": "string"
        }
      ],
      "name": "getClosedCourses",
      "outputs": [
        {
          "components": [
            {
              "internalType": "string",
              "name": "lecturer",
              "type": "string"
            },
            {
              "internalType": "string",
              "name": "courseName",
              "type": "string"
            },
            {
              "internalType": "string",
              "name": "description",
              "type": "string"
            },
            {
              "internalType": "string",
              "name": "department",
              "type": "string"
            },
            {
              "internalType": "string",
              "name": "image",
              "type": "string"
            },
            {
              "internalType": "address[]",
              "name": "attendees",
              "type": "address[]"
            }
          ],
          "internalType": "struct CourseAttendance.Course[]",
          "name": "",
          "type": "tuple[]"
        }
      ],
      "stateMutability": "view",
      "type": "function"
    },
    {
      "inputs": [
        {
          "internalType": "string",
          "name": "_department",
          "type": "string"
        }
      ],
      "name": "getCourses",
      "outputs": [
        {
          "components": [
            {
              "internalType": "string",
              "name": "lecturer",
              "type": "string"
            },
            {
              "internalType": "string",
              "name": "courseName",
              "type": "string"
            },
            {
              "internalType": "string",
              "name": "description",
              "type": "string"
            },
            {
              "internalType": "string",
              "name": "department",
              "type": "string"
            },
            {
              "internalType": "string",
              "name": "image",
              "type": "string"
            },
            {
              "internalType": "address[]",
              "name": "attendees",
              "type": "address[]"
            }
          ],
          "internalType": "struct CourseAttendance.Course[]",
          "name": "",
          "type": "tuple[]"
        }
      ],
      "stateMutability": "view",
      "type": "function"
    },
    {
      "inputs": [
        {
          "internalType": "uint256",
          "name": "_id",
          "type": "uint256"
        }
      ],
      "name": "getLecturer",
      "outputs": [
        {
          "internalType": "string",
          "name": "",
          "type": "string"
        }
      ],
      "stateMutability": "view",
      "type": "function"
    },
    {
      "inputs": [
        {
          "internalType": "uint256",
          "name": "_id",
          "type": "uint256"
        }
      ],
      "name": "getNumberOfAttendees",
      "outputs": [
        {
          "internalType": "uint256",
          "name": "",
          "type": "uint256"
        }
      ],
      "stateMutability": "view",
      "type": "function"
    },
    {
      "inputs": [
        {
          "internalType": "uint256",
          "name": "_id",
          "type": "uint256"
        }
      ],
      "name": "getNumberOfAttendeesforClosed",
      "outputs": [
        {
          "internalType": "uint256",
          "name": "",
          "type": "uint256"
        }
      ],
      "stateMutability": "view",
      "type": "function"
    },
    {
      "inputs": [],
      "name": "numberofCourses",
      "outputs": [
        {
          "internalType": "uint256",
          "name": "",
          "type": "uint256"
        }
      ],
      "stateMutability": "view",
      "type": "function"
    },
    {
      "inputs": [],
      "name": "numberofclosedCourses",
      "outputs": [
        {
          "internalType": "uint256",
          "name": "",
          "type": "uint256"
        }
      ],
      "stateMutability": "view",
      "type": "function"
    },
    {
      "inputs": [
        {
          "internalType": "uint256",
          "name": "",
          "type": "uint256"
        }
      ],
      "name": "tempCourses",
      "outputs": [
        {
          "internalType": "string",
          "name": "lecturer",
          "type": "string"
        },
        {
          "internalType": "string",
          "name": "courseName",
          "type": "string"
        },
        {
          "internalType": "string",
          "name": "description",
          "type": "string"
        },
        {
          "internalType": "string",
          "name": "department",
          "type": "string"
        },
        {
          "internalType": "string",
          "name": "image",
          "type": "string"
        }
      ],
      "stateMutability": "view",
      "type": "function"
    }
  ],
  "bytecode": "0x60806040526000600255600060035534801561001a57600080fd5b50612e2e8061002a6000396000f3fe6080604052600436106100e75760003560e01c8063644b9b5e1161008a5780639e58d254116100595780639e58d25414610352578063d990dc341461038f578063e0c14377146103cc578063f250036814610409576100e7565b8063644b9b5e1461026c5780637d750c9a146102a957806384bd5a13146102e657806396f979d214610311576100e7565b80631370d847116100c65780631370d84714610191578063339f3660146101d257806338966b751461020f5780636323e98014610250576100e7565b80623f198c146100ec5780630f6b9c9214610117578063122748b714610154575b600080fd5b3480156100f857600080fd5b50610101610432565b60405161010e9190611f9e565b60405180910390f35b34801561012357600080fd5b5061013e60048036038101906101399190611ff9565b610438565b60405161014b9190611f9e565b60405180910390f35b34801561016057600080fd5b5061017b6004803603810190610176919061216c565b61045a565b6040516101889190611f9e565b60405180910390f35b34801561019d57600080fd5b506101b860048036038101906101b39190611ff9565b610500565b6040516101c99594939291906122f2565b60405180910390f35b3480156101de57600080fd5b506101f960048036038101906101f49190612368565b6107ee565b6040516102069190612659565b60405180910390f35b34801561021b57600080fd5b5061023660048036038101906102319190611ff9565b610c92565b6040516102479594939291906122f2565b60405180910390f35b61026a60048036038101906102659190611ff9565b610f70565b005b34801561027857600080fd5b50610293600480360381019061028e9190612368565b611039565b6040516102a09190612659565b60405180910390f35b3480156102b557600080fd5b506102d060048036038101906102cb9190611ff9565b6114df565b6040516102dd91906126ea565b60405180910390f35b3480156102f257600080fd5b506102fb611583565b6040516103089190611f9e565b60405180910390f35b34801561031d57600080fd5b5061033860048036038101906103339190611ff9565b611589565b6040516103499594939291906122f2565b60405180910390f35b34801561035e57600080fd5b5061037960048036038101906103749190611ff9565b611867565b6040516103869190611f9e565b60405180910390f35b34801561039b57600080fd5b506103b660048036038101906103b19190611ff9565b61188a565b6040516103c3919061270c565b60405180910390f35b3480156103d857600080fd5b506103f360048036038101906103ee9190611ff9565b611931565b60405161040091906126ea565b60405180910390f35b34801561041557600080fd5b50610430600480360381019061042b9190611ff9565b6119d4565b005b60035481565b6000806000838152602001908152602001600020600501805490509050919050565b6000806000806002548152602001908152602001600020905086816000019081610484919061293a565b5085816001019081610496919061293a565b50848160020190816104a8919061293a565b50838160030190816104ba919061293a565b50828160040190816104cc919061293a565b50600260008154809291906104e090612a3b565b919050555060016002546104f49190612a83565b91505095945050505050565b6004818154811061051057600080fd5b90600052602060002090600602016000915090508060000180546105339061275d565b80601f016020809104026020016040519081016040528092919081815260200182805461055f9061275d565b80156105ac5780601f10610581576101008083540402835291602001916105ac565b820191906000526020600020905b81548152906001019060200180831161058f57829003601f168201915b5050505050908060010180546105c19061275d565b80601f01602080910402602001604051908101604052809291908181526020018280546105ed9061275d565b801561063a5780601f1061060f5761010080835404028352916020019161063a565b820191906000526020600020905b81548152906001019060200180831161061d57829003601f168201915b50505050509080600201805461064f9061275d565b80601f016020809104026020016040519081016040528092919081815260200182805461067b9061275d565b80156106c85780601f1061069d576101008083540402835291602001916106c8565b820191906000526020600020905b8154815290600101906020018083116106ab57829003601f168201915b5050505050908060030180546106dd9061275d565b80601f01602080910402602001604051908101604052809291908181526020018280546107099061275d565b80156107565780601f1061072b57610100808354040283529160200191610756565b820191906000526020600020905b81548152906001019060200180831161073957829003601f168201915b50505050509080600401805461076b9061275d565b80601f01602080910402602001604051908101604052809291908181526020018280546107979061275d565b80156107e45780601f106107b9576101008083540402835291602001916107e4565b820191906000526020600020905b8154815290600101906020018083116107c757829003601f168201915b5050505050905085565b6060600060025467ffffffffffffffff81111561080e5761080d612041565b5b60405190808252806020026020018201604052801561084757816020015b610834611de4565b81526020019060019003908161082c5790505b5090506000805b600254811015610c8457846040516020016108699190612af3565b604051602081830303815290604052805190602001206000808381526020019081526020016000206003016040516020016108a49190612b8d565b6040516020818303038152906040528051906020012003610c71576000808281526020019081526020016000206040518060c00160405290816000820180546108ec9061275d565b80601f01602080910402602001604051908101604052809291908181526020018280546109189061275d565b80156109655780601f1061093a57610100808354040283529160200191610965565b820191906000526020600020905b81548152906001019060200180831161094857829003601f168201915b5050505050815260200160018201805461097e9061275d565b80601f01602080910402602001604051908101604052809291908181526020018280546109aa9061275d565b80156109f75780601f106109cc576101008083540402835291602001916109f7565b820191906000526020600020905b8154815290600101906020018083116109da57829003601f168201915b50505050508152602001600282018054610a109061275d565b80601f0160208091040260200160405190810160405280929190818152602001828054610a3c9061275d565b8015610a895780601f10610a5e57610100808354040283529160200191610a89565b820191906000526020600020905b815481529060010190602001808311610a6c57829003601f168201915b50505050508152602001600382018054610aa29061275d565b80601f0160208091040260200160405190810160405280929190818152602001828054610ace9061275d565b8015610b1b5780601f10610af057610100808354040283529160200191610b1b565b820191906000526020600020905b815481529060010190602001808311610afe57829003601f168201915b50505050508152602001600482018054610b349061275d565b80601f0160208091040260200160405190810160405280929190818152602001828054610b609061275d565b8015610bad5780601f10610b8257610100808354040283529160200191610bad565b820191906000526020600020905b815481529060010190602001808311610b9057829003601f168201915b5050505050815260200160058201805480602002602001604051908101604052809291908181526020018280548015610c3b57602002820191906000526020600020905b8160009054906101000a900473ffffffffffffffffffffffffffffffffffffffff1673ffffffffffffffffffffffffffffffffffffffff1681526020019060010190808311610bf1575b505050505081525050838381518110610c5757610c56612ba4565b5b60200260200101819052508180610c6d90612a3b565b9250505b8080610c7c90612a3b565b91505061084e565b508082528192505050919050565b6001602052806000526040600020600091509050806000018054610cb59061275d565b80601f0160208091040260200160405190810160405280929190818152602001828054610ce19061275d565b8015610d2e5780601f10610d0357610100808354040283529160200191610d2e565b820191906000526020600020905b815481529060010190602001808311610d1157829003601f168201915b505050505090806001018054610d439061275d565b80601f0160208091040260200160405190810160405280929190818152602001828054610d6f9061275d565b8015610dbc5780601f10610d9157610100808354040283529160200191610dbc565b820191906000526020600020905b815481529060010190602001808311610d9f57829003601f168201915b505050505090806002018054610dd19061275d565b80601f0160208091040260200160405190810160405280929190818152602001828054610dfd9061275d565b8015610e4a5780601f10610e1f57610100808354040283529160200191610e4a565b820191906000526020600020905b815481529060010190602001808311610e2d57829003601f168201915b505050505090806003018054610e5f9061275d565b80601f0160208091040260200160405190810160405280929190818152602001828054610e8b9061275d565b8015610ed85780601f10610ead57610100808354040283529160200191610ed8565b820191906000526020600020905b815481529060010190602001808311610ebb57829003601f168201915b505050505090806004018054610eed9061275d565b80601f0160208091040260200160405190810160405280929190818152602001828054610f199061275d565b8015610f665780601f10610f3b57610100808354040283529160200191610f66565b820191906000526020600020905b815481529060010190602001808311610f4957829003601f168201915b5050505050905085565b60008060008381526020019081526020016000209050610f908233611b86565b15610fd0576040517f08c379a0000000000000000000000000000000000000000000000000000000008152600401610fc790612c45565b60405180910390fd5b80600501339080600181540180825580915050600190039060005260206000200160009091909190916101000a81548173ffffffffffffffffffffffffffffffffffffffff021916908373ffffffffffffffffffffffffffffffffffffffff1602179055505050565b6060600060035467ffffffffffffffff81111561105957611058612041565b5b60405190808252806020026020018201604052801561109257816020015b61107f611de4565b8152602001906001900390816110775790505b5090506000805b6003548110156114d157846040516020016110b49190612af3565b60405160208183030381529060405280519060200120600160008381526020019081526020016000206003016040516020016110f09190612b8d565b60405160208183030381529060405280519060200120036114be57600160008281526020019081526020016000206040518060c00160405290816000820180546111399061275d565b80601f01602080910402602001604051908101604052809291908181526020018280546111659061275d565b80156111b25780601f10611187576101008083540402835291602001916111b2565b820191906000526020600020905b81548152906001019060200180831161119557829003601f168201915b505050505081526020016001820180546111cb9061275d565b80601f01602080910402602001604051908101604052809291908181526020018280546111f79061275d565b80156112445780601f1061121957610100808354040283529160200191611244565b820191906000526020600020905b81548152906001019060200180831161122757829003601f168201915b5050505050815260200160028201805461125d9061275d565b80601f01602080910402602001604051908101604052809291908181526020018280546112899061275d565b80156112d65780601f106112ab576101008083540402835291602001916112d6565b820191906000526020600020905b8154815290600101906020018083116112b957829003601f168201915b505050505081526020016003820180546112ef9061275d565b80601f016020809104026020016040519081016040528092919081815260200182805461131b9061275d565b80156113685780601f1061133d57610100808354040283529160200191611368565b820191906000526020600020905b81548152906001019060200180831161134b57829003601f168201915b505050505081526020016004820180546113819061275d565b80601f01602080910402602001604051908101604052809291908181526020018280546113ad9061275d565b80156113fa5780601f106113cf576101008083540402835291602001916113fa565b820191906000526020600020905b8154815290600101906020018083116113dd57829003601f168201915b505050505081526020016005820180548060200260200160405190810160405280929190818152602001828054801561148857602002820191906000526020600020905b8160009054906101000a900473ffffffffffffffffffffffffffffffffffffffff1673ffffffffffffffffffffffffffffffffffffffff168152602001906001019080831161143e575b5050505050815250508383815181106114a4576114a3612ba4565b5b602002602001018190525081806114ba90612a3b565b9250505b80806114c990612a3b565b915050611099565b508082528192505050919050565b60606001600083815260200190815260200160002060050180548060200260200160405190810160405280929190818152602001828054801561157757602002820191906000526020600020905b8160009054906101000a900473ffffffffffffffffffffffffffffffffffffffff1673ffffffffffffffffffffffffffffffffffffffff168152602001906001019080831161152d575b50505050509050919050565b60025481565b60006020528060005260406000206000915090508060000180546115ac9061275d565b80601f01602080910402602001604051908101604052809291908181526020018280546115d89061275d565b80156116255780601f106115fa57610100808354040283529160200191611625565b820191906000526020600020905b81548152906001019060200180831161160857829003601f168201915b50505050509080600101805461163a9061275d565b80601f01602080910402602001604051908101604052809291908181526020018280546116669061275d565b80156116b35780601f10611688576101008083540402835291602001916116b3565b820191906000526020600020905b81548152906001019060200180831161169657829003601f168201915b5050505050908060020180546116c89061275d565b80601f01602080910402602001604051908101604052809291908181526020018280546116f49061275d565b80156117415780601f1061171657610100808354040283529160200191611741565b820191906000526020600020905b81548152906001019060200180831161172457829003601f168201915b5050505050908060030180546117569061275d565b80601f01602080910402602001604051908101604052809291908181526020018280546117829061275d565b80156117cf5780601f106117a4576101008083540402835291602001916117cf565b820191906000526020600020905b8154815290600101906020018083116117b257829003601f168201915b5050505050908060040180546117e49061275d565b80601f01602080910402602001604051908101604052809291908181526020018280546118109061275d565b801561185d5780601f106118325761010080835404028352916020019161185d565b820191906000526020600020905b81548152906001019060200180831161184057829003601f168201915b5050505050905085565b600060016000838152602001908152602001600020600501805490509050919050565b606060008083815260200190815260200160002060000180546118ac9061275d565b80601f01602080910402602001604051908101604052809291908181526020018280546118d89061275d565b80156119255780601f106118fa57610100808354040283529160200191611925565b820191906000526020600020905b81548152906001019060200180831161190857829003601f168201915b50505050509050919050565b60606000808381526020019081526020016000206005018054806020026020016040519081016040528092919081815260200182805480156119c857602002820191906000526020600020905b8160009054906101000a900473ffffffffffffffffffffffffffffffffffffffff1673ffffffffffffffffffffffffffffffffffffffff168152602001906001019080831161197e575b50505050509050919050565b60008060008381526020019081526020016000209050600481908060018154018082558091505060019003906000526020600020906006020160009091909190915060008201816000019081611a2a9190612c7b565b5060018201816001019081611a3f9190612c7b565b5060028201816002019081611a549190612c7b565b5060038201816003019081611a699190612c7b565b5060048201816004019081611a7e9190612c7b565b506005820181600501908054611a95929190611e1a565b505050611aa182611c4d565b6004600081548110611ab657611ab5612ba4565b5b906000526020600020906006020160016000600354815260200190815260200160002060008201816000019081611aed9190612c7b565b5060018201816001019081611b029190612c7b565b5060028201816002019081611b179190612c7b565b5060038201816003019081611b2c9190612c7b565b5060048201816004019081611b419190612c7b565b506005820181600501908054611b58929190611e1a565b5090505060036000815480929190611b6f90612a3b565b919050555060046000611b829190611e6c565b5050565b600080600080858152602001908152602001600020905060005b8160050180549050811015611c40578373ffffffffffffffffffffffffffffffffffffffff16826005018281548110611bdc57611bdb612ba4565b5b9060005260206000200160009054906101000a900473ffffffffffffffffffffffffffffffffffffffff1673ffffffffffffffffffffffffffffffffffffffff1603611c2d57600192505050611c47565b8080611c3890612a3b565b915050611ba0565b5060009150505b92915050565b6002548110611c91576040517f08c379a0000000000000000000000000000000000000000000000000000000008152600401611c8890612daf565b60405180910390fd5b6000806001600254611ca39190612a83565b815260200190815260200160002060008083815260200190815260200160002060008201816000019081611cd79190612c7b565b5060018201816001019081611cec9190612c7b565b5060028201816002019081611d019190612c7b565b5060038201816003019081611d169190612c7b565b5060048201816004019081611d2b9190612c7b565b506005820181600501908054611d42929190611e1a565b509050506000806001600254611d589190612a83565b815260200190815260200160002060008082016000611d779190611e90565b600182016000611d879190611e90565b600282016000611d979190611e90565b600382016000611da79190611e90565b600482016000611db79190611e90565b600582016000611dc79190611ed0565b505060026000815480929190611ddc90612dcf565b919050555050565b6040518060c001604052806060815260200160608152602001606081526020016060815260200160608152602001606081525090565b828054828255906000526020600020908101928215611e5b5760005260206000209182015b82811115611e5a578254825591600101919060010190611e3f565b5b509050611e689190611ef1565b5090565b5080546000825560060290600052602060002090810190611e8d9190611f0e565b50565b508054611e9c9061275d565b6000825580601f10611eae5750611ecd565b601f016020900490600052602060002090810190611ecc9190611ef1565b5b50565b5080546000825590600052602060002090810190611eee9190611ef1565b50565b5b80821115611f0a576000816000905550600101611ef2565b5090565b5b80821115611f815760008082016000611f289190611e90565b600182016000611f389190611e90565b600282016000611f489190611e90565b600382016000611f589190611e90565b600482016000611f689190611e90565b600582016000611f789190611ed0565b50600601611f0f565b5090565b6000819050919050565b611f9881611f85565b82525050565b6000602082019050611fb36000830184611f8f565b92915050565b6000604051905090565b600080fd5b600080fd5b611fd681611f85565b8114611fe157600080fd5b50565b600081359050611ff381611fcd565b92915050565b60006020828403121561200f5761200e611fc3565b5b600061201d84828501611fe4565b91505092915050565b600080fd5b600080fd5b6000601f19601f8301169050919050565b7f4e487b7100000000000000000000000000000000000000000000000000000000600052604160045260246000fd5b61207982612030565b810181811067ffffffffffffffff8211171561209857612097612041565b5b80604052505050565b60006120ab611fb9565b90506120b78282612070565b919050565b600067ffffffffffffffff8211156120d7576120d6612041565b5b6120e082612030565b9050602081019050919050565b82818337600083830152505050565b600061210f61210a846120bc565b6120a1565b90508281526020810184848401111561212b5761212a61202b565b5b6121368482856120ed565b509392505050565b600082601f83011261215357612152612026565b5b81356121638482602086016120fc565b91505092915050565b600080600080600060a0868803121561218857612187611fc3565b5b600086013567ffffffffffffffff8111156121a6576121a5611fc8565b5b6121b28882890161213e565b955050602086013567ffffffffffffffff8111156121d3576121d2611fc8565b5b6121df8882890161213e565b945050604086013567ffffffffffffffff811115612200576121ff611fc8565b5b61220c8882890161213e565b935050606086013567ffffffffffffffff81111561222d5761222c611fc8565b5b6122398882890161213e565b925050608086013567ffffffffffffffff81111561225a57612259611fc8565b5b6122668882890161213e565b9150509295509295909350565b600081519050919050565b600082825260208201905092915050565b60005b838110156122ad578082015181840152602081019050612292565b60008484015250505050565b60006122c482612273565b6122ce818561227e565b93506122de81856020860161228f565b6122e781612030565b840191505092915050565b600060a082019050818103600083015261230c81886122b9565b9050818103602083015261232081876122b9565b9050818103604083015261233481866122b9565b9050818103606083015261234881856122b9565b9050818103608083015261235c81846122b9565b90509695505050505050565b60006020828403121561237e5761237d611fc3565b5b600082013567ffffffffffffffff81111561239c5761239b611fc8565b5b6123a88482850161213e565b91505092915050565b600081519050919050565b600082825260208201905092915050565b6000819050602082019050919050565b600082825260208201905092915050565b60006123f982612273565b61240381856123dd565b935061241381856020860161228f565b61241c81612030565b840191505092915050565b600081519050919050565b600082825260208201905092915050565b6000819050602082019050919050565b600073ffffffffffffffffffffffffffffffffffffffff82169050919050565b600061247e82612453565b9050919050565b61248e81612473565b82525050565b60006124a08383612485565b60208301905092915050565b6000602082019050919050565b60006124c482612427565b6124ce8185612432565b93506124d983612443565b8060005b8381101561250a5781516124f18882612494565b97506124fc836124ac565b9250506001810190506124dd565b5085935050505092915050565b600060c083016000830151848203600086015261253482826123ee565b9150506020830151848203602086015261254e82826123ee565b9150506040830151848203604086015261256882826123ee565b9150506060830151848203606086015261258282826123ee565b9150506080830151848203608086015261259c82826123ee565b91505060a083015184820360a08601526125b682826124b9565b9150508091505092915050565b60006125cf8383612517565b905092915050565b6000602082019050919050565b60006125ef826123b1565b6125f981856123bc565b93508360208202850161260b856123cd565b8060005b85811015612647578484038952815161262885826125c3565b9450612633836125d7565b925060208a0199505060018101905061260f565b50829750879550505050505092915050565b6000602082019050818103600083015261267381846125e4565b905092915050565b600082825260208201905092915050565b600061269782612427565b6126a1818561267b565b93506126ac83612443565b8060005b838110156126dd5781516126c48882612494565b97506126cf836124ac565b9250506001810190506126b0565b5085935050505092915050565b60006020820190508181036000830152612704818461268c565b905092915050565b6000602082019050818103600083015261272681846122b9565b905092915050565b7f4e487b7100000000000000000000000000000000000000000000000000000000600052602260045260246000fd5b6000600282049050600182168061277557607f821691505b6020821081036127885761278761272e565b5b50919050565b60008190508160005260206000209050919050565b60006020601f8301049050919050565b600082821b905092915050565b6000600883026127f07fffffffffffffffffffffffffffffffffffffffffffffffffffffffffffffffff826127b3565b6127fa86836127b3565b95508019841693508086168417925050509392505050565b6000819050919050565b600061283761283261282d84611f85565b612812565b611f85565b9050919050565b6000819050919050565b6128518361281c565b61286561285d8261283e565b8484546127c0565b825550505050565b600090565b61287a61286d565b612885818484612848565b505050565b5b818110156128a95761289e600082612872565b60018101905061288b565b5050565b601f8211156128ee576128bf8161278e565b6128c8846127a3565b810160208510156128d7578190505b6128eb6128e3856127a3565b83018261288a565b50505b505050565b600082821c905092915050565b6000612911600019846008026128f3565b1980831691505092915050565b600061292a8383612900565b9150826002028217905092915050565b61294382612273565b67ffffffffffffffff81111561295c5761295b612041565b5b612966825461275d565b6129718282856128ad565b600060209050601f8311600181146129a45760008415612992578287015190505b61299c858261291e565b865550612a04565b601f1984166129b28661278e565b60005b828110156129da578489015182556001820191506020850194506020810190506129b5565b868310156129f757848901516129f3601f891682612900565b8355505b6001600288020188555050505b505050505050565b7f4e487b7100000000000000000000000000000000000000000000000000000000600052601160045260246000fd5b6000612a4682611f85565b91507fffffffffffffffffffffffffffffffffffffffffffffffffffffffffffffffff8203612a7857612a77612a0c565b5b600182019050919050565b6000612a8e82611f85565b9150612a9983611f85565b9250828203905081811115612ab157612ab0612a0c565b5b92915050565b600081905092915050565b6000612acd82612273565b612ad78185612ab7565b9350612ae781856020860161228f565b80840191505092915050565b6000612aff8284612ac2565b915081905092915050565b60008154612b178161275d565b612b218186612ab7565b94506001821660008114612b3c5760018114612b5157612b84565b60ff1983168652811515820286019350612b84565b612b5a8561278e565b60005b83811015612b7c57815481890152600182019150602081019050612b5d565b838801955050505b50505092915050565b6000612b998284612b0a565b915081905092915050565b7f4e487b7100000000000000000000000000000000000000000000000000000000600052603260045260246000fd5b7f596f75206861766520616c726561647920617474656e6465642074686973206360008201527f6c6173732e000000000000000000000000000000000000000000000000000000602082015250565b6000612c2f60258361227e565b9150612c3a82612bd3565b604082019050919050565b60006020820190508181036000830152612c5e81612c22565b9050919050565b600081549050612c748161275d565b9050919050565b818103612c89575050612d61565b612c9282612c65565b67ffffffffffffffff811115612cab57612caa612041565b5b612cb5825461275d565b612cc08282856128ad565b6000601f831160018114612cef5760008415612cdd578287015490505b612ce7858261291e565b865550612d5a565b601f198416612cfd8761278e565b9650612d088661278e565b60005b82811015612d3057848901548255600182019150600185019450602081019050612d0b565b86831015612d4d5784890154612d49601f891682612900565b8355505b6001600288020188555050505b5050505050505b565b7f496e76616c696420696e64657800000000000000000000000000000000000000600082015250565b6000612d99600d8361227e565b9150612da482612d63565b602082019050919050565b60006020820190508181036000830152612dc881612d8c565b9050919050565b6000612dda82611f85565b915060008203612ded57612dec612a0c565b5b60018203905091905056fea26469706673582212209402add43448ec256da00bf617361b6c3397118348a6d94a7df4b38781e6184264736f6c63430008130033",
  "linkReferences": {},
  "deployedLinkReferences": {}
}