{
  "contractName": "CourseAttendance",
  "abi": [
    {
      "inputs": [
        {
          "internalType": "uint256",
          "name": "",
          "type": "uint256"
        }
      ],
      "name": "courses",
      "outputs": [
        {
          "internalType": "address",
          "name": "owner",
          "type": "address"
        },
        {
          "internalType": "string",
          "name": "courseName",
          "type": "string"
        },
        {
          "internalType": "string",
          "name": "description",
          "type": "string"
        },
        {
          "internalType": "uint256",
          "name": "deadline",
          "type": "uint256"
        },
        {
          "internalType": "string",
          "name": "image",
          "type": "string"
        }
      ],
      "stateMutability": "view",
      "type": "function"
    },
    {
      "inputs": [],
      "name": "numberofCourses",
      "outputs": [
        {
          "internalType": "uint256",
          "name": "",
          "type": "uint256"
        }
      ],
      "stateMutability": "view",
      "type": "function"
    },
    {
      "inputs": [
        {
          "internalType": "address",
          "name": "_owner",
          "type": "address"
        },
        {
          "internalType": "string",
          "name": "_courseName",
          "type": "string"
        },
        {
          "internalType": "string",
          "name": "_description",
          "type": "string"
        },
        {
          "internalType": "uint256",
          "name": "_deadline",
          "type": "uint256"
        },
        {
          "internalType": "string",
          "name": "_image",
          "type": "string"
        }
      ],
      "name": "createCourse",
      "outputs": [
        {
          "internalType": "uint256",
          "name": "",
          "type": "uint256"
        }
      ],
      "stateMutability": "nonpayable",
      "type": "function"
    },
    {
      "inputs": [
        {
          "internalType": "uint256",
          "name": "_id",
          "type": "uint256"
        }
      ],
      "name": "attendCourse",
      "outputs": [],
      "stateMutability": "nonpayable",
      "type": "function"
    },
    {
      "inputs": [
        {
          "internalType": "uint256",
          "name": "_id",
          "type": "uint256"
        }
      ],
      "name": "getAttendees",
      "outputs": [
        {
          "internalType": "address[]",
          "name": "",
          "type": "address[]"
        }
      ],
      "stateMutability": "view",
      "type": "function"
    },
    {
      "inputs": [],
      "name": "getCourses",
      "outputs": [
        {
          "components": [
            {
              "internalType": "address",
              "name": "owner",
              "type": "address"
            },
            {
              "internalType": "string",
              "name": "courseName",
              "type": "string"
            },
            {
              "internalType": "string",
              "name": "description",
              "type": "string"
            },
            {
              "internalType": "uint256",
              "name": "deadline",
              "type": "uint256"
            },
            {
              "internalType": "string",
              "name": "image",
              "type": "string"
            },
            {
              "internalType": "address[]",
              "name": "attendees",
              "type": "address[]"
            }
          ],
          "internalType": "struct CourseAttendance.Course[]",
          "name": "",
          "type": "tuple[]"
        }
      ],
      "stateMutability": "view",
      "type": "function"
    }
  ],
  "bytecode": "0x6080604052600060015534801561001557600080fd5b506116fe806100256000396000f3fe608060405234801561001057600080fd5b50600436106100625760003560e01c80636323e9801461006757806366309ebf1461008357806384bd5a13146100b357806396f979d2146100d1578063cc12647914610105578063e0c1437714610123575b600080fd5b610081600480360381019061007c9190610a96565b610153565b005b61009d60048036038101906100989190610c67565b6102ed565b6040516100aa9190610d45565b60405180910390f35b6100bb610400565b6040516100c89190610d45565b60405180910390f35b6100eb60048036038101906100e69190610a96565b610406565b6040516100fc959493929190610dee565b60405180910390f35b61010d6105f4565b60405161011a91906110cd565b60405180910390f35b61013d60048036038101906101389190610a96565b61095d565b60405161014a919061115e565b60405180910390f35b6000806000838152602001908152602001600020905080600301544211156101b0576040517f08c379a00000000000000000000000000000000000000000000000000000000081526004016101a7906111cc565b60405180910390fd5b60005b8160050180549050811015610283573373ffffffffffffffffffffffffffffffffffffffff168260050182815481106101ef576101ee6111ec565b5b9060005260206000200160009054906101000a900473ffffffffffffffffffffffffffffffffffffffff1673ffffffffffffffffffffffffffffffffffffffff1603610270576040517f08c379a00000000000000000000000000000000000000000000000000000000081526004016102679061128d565b60405180910390fd5b808061027b906112dc565b9150506101b3565b5080600501339080600181540180825580915050600190039060005260206000200160009091909190916101000a81548173ffffffffffffffffffffffffffffffffffffffff021916908373ffffffffffffffffffffffffffffffffffffffff1602179055505050565b600080600080600154815260200190815260200160002090504281600301541061034c576040517f08c379a000000000000000000000000000000000000000000000000000000000815260040161034390611396565b60405180910390fd5b868160000160006101000a81548173ffffffffffffffffffffffffffffffffffffffff021916908373ffffffffffffffffffffffffffffffffffffffff160217905550858160010190816103a091906115c2565b50848160020190816103b291906115c2565b50838160030181905550828160040190816103cd91906115c2565b50600160008154809291906103e1906112dc565b9190505550600180546103f49190611694565b91505095945050505050565b60015481565b60006020528060005260406000206000915090508060000160009054906101000a900473ffffffffffffffffffffffffffffffffffffffff169080600101805461044f906113e5565b80601f016020809104026020016040519081016040528092919081815260200182805461047b906113e5565b80156104c85780601f1061049d576101008083540402835291602001916104c8565b820191906000526020600020905b8154815290600101906020018083116104ab57829003601f168201915b5050505050908060020180546104dd906113e5565b80601f0160208091040260200160405190810160405280929190818152602001828054610509906113e5565b80156105565780601f1061052b57610100808354040283529160200191610556565b820191906000526020600020905b81548152906001019060200180831161053957829003601f168201915b505050505090806003015490806004018054610571906113e5565b80601f016020809104026020016040519081016040528092919081815260200182805461059d906113e5565b80156105ea5780601f106105bf576101008083540402835291602001916105ea565b820191906000526020600020905b8154815290600101906020018083116105cd57829003601f168201915b5050505050905085565b6060600060015467ffffffffffffffff81111561061457610613610b3c565b5b60405190808252806020026020018201604052801561064d57816020015b61063a610a00565b8152602001906001900390816106325790505b50905060005b6001548110156109555760008060008381526020019081526020016000209050806040518060c00160405290816000820160009054906101000a900473ffffffffffffffffffffffffffffffffffffffff1673ffffffffffffffffffffffffffffffffffffffff1673ffffffffffffffffffffffffffffffffffffffff1681526020016001820180546106e5906113e5565b80601f0160208091040260200160405190810160405280929190818152602001828054610711906113e5565b801561075e5780601f106107335761010080835404028352916020019161075e565b820191906000526020600020905b81548152906001019060200180831161074157829003601f168201915b50505050508152602001600282018054610777906113e5565b80601f01602080910402602001604051908101604052809291908181526020018280546107a3906113e5565b80156107f05780601f106107c5576101008083540402835291602001916107f0565b820191906000526020600020905b8154815290600101906020018083116107d357829003601f168201915b5050505050815260200160038201548152602001600482018054610813906113e5565b80601f016020809104026020016040519081016040528092919081815260200182805461083f906113e5565b801561088c5780601f106108615761010080835404028352916020019161088c565b820191906000526020600020905b81548152906001019060200180831161086f57829003601f168201915b505050505081526020016005820180548060200260200160405190810160405280929190818152602001828054801561091a57602002820191906000526020600020905b8160009054906101000a900473ffffffffffffffffffffffffffffffffffffffff1673ffffffffffffffffffffffffffffffffffffffff16815260200190600101908083116108d0575b505050505081525050838381518110610936576109356111ec565b5b602002602001018190525050808061094d906112dc565b915050610653565b508091505090565b60606000808381526020019081526020016000206005018054806020026020016040519081016040528092919081815260200182805480156109f457602002820191906000526020600020905b8160009054906101000a900473ffffffffffffffffffffffffffffffffffffffff1673ffffffffffffffffffffffffffffffffffffffff16815260200190600101908083116109aa575b50505050509050919050565b6040518060c00160405280600073ffffffffffffffffffffffffffffffffffffffff16815260200160608152602001606081526020016000815260200160608152602001606081525090565b6000604051905090565b600080fd5b600080fd5b6000819050919050565b610a7381610a60565b8114610a7e57600080fd5b50565b600081359050610a9081610a6a565b92915050565b600060208284031215610aac57610aab610a56565b5b6000610aba84828501610a81565b91505092915050565b600073ffffffffffffffffffffffffffffffffffffffff82169050919050565b6000610aee82610ac3565b9050919050565b610afe81610ae3565b8114610b0957600080fd5b50565b600081359050610b1b81610af5565b92915050565b600080fd5b600080fd5b6000601f19601f8301169050919050565b7f4e487b7100000000000000000000000000000000000000000000000000000000600052604160045260246000fd5b610b7482610b2b565b810181811067ffffffffffffffff82111715610b9357610b92610b3c565b5b80604052505050565b6000610ba6610a4c565b9050610bb28282610b6b565b919050565b600067ffffffffffffffff821115610bd257610bd1610b3c565b5b610bdb82610b2b565b9050602081019050919050565b82818337600083830152505050565b6000610c0a610c0584610bb7565b610b9c565b905082815260208101848484011115610c2657610c25610b26565b5b610c31848285610be8565b509392505050565b600082601f830112610c4e57610c4d610b21565b5b8135610c5e848260208601610bf7565b91505092915050565b600080600080600060a08688031215610c8357610c82610a56565b5b6000610c9188828901610b0c565b955050602086013567ffffffffffffffff811115610cb257610cb1610a5b565b5b610cbe88828901610c39565b945050604086013567ffffffffffffffff811115610cdf57610cde610a5b565b5b610ceb88828901610c39565b9350506060610cfc88828901610a81565b925050608086013567ffffffffffffffff811115610d1d57610d1c610a5b565b5b610d2988828901610c39565b9150509295509295909350565b610d3f81610a60565b82525050565b6000602082019050610d5a6000830184610d36565b92915050565b610d6981610ae3565b82525050565b600081519050919050565b600082825260208201905092915050565b60005b83811015610da9578082015181840152602081019050610d8e565b60008484015250505050565b6000610dc082610d6f565b610dca8185610d7a565b9350610dda818560208601610d8b565b610de381610b2b565b840191505092915050565b600060a082019050610e036000830188610d60565b8181036020830152610e158187610db5565b90508181036040830152610e298186610db5565b9050610e386060830185610d36565b8181036080830152610e4a8184610db5565b90509695505050505050565b600081519050919050565b600082825260208201905092915050565b6000819050602082019050919050565b610e8b81610ae3565b82525050565b600082825260208201905092915050565b6000610ead82610d6f565b610eb78185610e91565b9350610ec7818560208601610d8b565b610ed081610b2b565b840191505092915050565b610ee481610a60565b82525050565b600081519050919050565b600082825260208201905092915050565b6000819050602082019050919050565b6000610f228383610e82565b60208301905092915050565b6000602082019050919050565b6000610f4682610eea565b610f508185610ef5565b9350610f5b83610f06565b8060005b83811015610f8c578151610f738882610f16565b9750610f7e83610f2e565b925050600181019050610f5f565b5085935050505092915050565b600060c083016000830151610fb16000860182610e82565b5060208301518482036020860152610fc98282610ea2565b91505060408301518482036040860152610fe38282610ea2565b9150506060830151610ff86060860182610edb565b50608083015184820360808601526110108282610ea2565b91505060a083015184820360a086015261102a8282610f3b565b9150508091505092915050565b60006110438383610f99565b905092915050565b6000602082019050919050565b600061106382610e56565b61106d8185610e61565b93508360208202850161107f85610e72565b8060005b858110156110bb578484038952815161109c8582611037565b94506110a78361104b565b925060208a01995050600181019050611083565b50829750879550505050505092915050565b600060208201905081810360008301526110e78184611058565b905092915050565b600082825260208201905092915050565b600061110b82610eea565b61111581856110ef565b935061112083610f06565b8060005b838110156111515781516111388882610f16565b975061114383610f2e565b925050600181019050611124565b5085935050505092915050565b600060208201905081810360008301526111788184611100565b905092915050565b7f417474656e64616e636520706572696f642068617320656e6465642e00000000600082015250565b60006111b6601c83610d7a565b91506111c182611180565b602082019050919050565b600060208201905081810360008301526111e5816111a9565b9050919050565b7f4e487b7100000000000000000000000000000000000000000000000000000000600052603260045260246000fd5b7f596f75206861766520616c726561647920617474656e6465642074686973206360008201527f6f757273652e0000000000000000000000000000000000000000000000000000602082015250565b6000611277602683610d7a565b91506112828261121b565b604082019050919050565b600060208201905081810360008301526112a68161126a565b9050919050565b7f4e487b7100000000000000000000000000000000000000000000000000000000600052601160045260246000fd5b60006112e782610a60565b91507fffffffffffffffffffffffffffffffffffffffffffffffffffffffffffffffff8203611319576113186112ad565b5b600182019050919050565b7f54686520646561646c696e652073686f756c642062652061206461746520696e60008201527f20746865206675747572652e0000000000000000000000000000000000000000602082015250565b6000611380602c83610d7a565b915061138b82611324565b604082019050919050565b600060208201905081810360008301526113af81611373565b9050919050565b7f4e487b7100000000000000000000000000000000000000000000000000000000600052602260045260246000fd5b600060028204905060018216806113fd57607f821691505b6020821081036114105761140f6113b6565b5b50919050565b60008190508160005260206000209050919050565b60006020601f8301049050919050565b600082821b905092915050565b6000600883026114787fffffffffffffffffffffffffffffffffffffffffffffffffffffffffffffffff8261143b565b611482868361143b565b95508019841693508086168417925050509392505050565b6000819050919050565b60006114bf6114ba6114b584610a60565b61149a565b610a60565b9050919050565b6000819050919050565b6114d9836114a4565b6114ed6114e5826114c6565b848454611448565b825550505050565b600090565b6115026114f5565b61150d8184846114d0565b505050565b5b81811015611531576115266000826114fa565b600181019050611513565b5050565b601f8211156115765761154781611416565b6115508461142b565b8101602085101561155f578190505b61157361156b8561142b565b830182611512565b50505b505050565b600082821c905092915050565b60006115996000198460080261157b565b1980831691505092915050565b60006115b28383611588565b9150826002028217905092915050565b6115cb82610d6f565b67ffffffffffffffff8111156115e4576115e3610b3c565b5b6115ee82546113e5565b6115f9828285611535565b600060209050601f83116001811461162c576000841561161a578287015190505b61162485826115a6565b86555061168c565b601f19841661163a86611416565b60005b828110156116625784890151825560018201915060208501945060208101905061163d565b8683101561167f578489015161167b601f891682611588565b8355505b6001600288020188555050505b505050505050565b600061169f82610a60565b91506116aa83610a60565b92508282039050818111156116c2576116c16112ad565b5b9291505056fea2646970667358221220e90582ab33ec39e25c36c6b7d562a18d7d3df82ed87d6a4304815619ad2d396b64736f6c63430008110033",
  "immutableReferences": {},
  "source": "// SPDX-License-Identifier: MIT\r\npragma experimental ABIEncoderV2;\r\npragma solidity >=0.4.22 <0.9.0;\r\n\r\ncontract CourseAttendance { //this will be used for student aide but for now i will just copy the crowdfunding campaign solidity\r\n    struct Course {\r\n        address owner; //lecturer?\r\n        string courseName;\r\n        string description;\r\n        uint256 deadline; //last time to take attendance\r\n        string image;\r\n        address[] attendees;\r\n    }\r\n\r\n    mapping(uint256 => Course) public courses;\r\n\r\n    uint256 public numberofCourses = 0;\r\n\r\n    function createCourse(address _owner, string memory _courseName, string memory _description, uint256 _deadline, string memory _image) public returns (uint256) {\r\n        Course storage course = courses[numberofCourses];\r\n\r\n        require(course.deadline < block.timestamp, \"The deadline should be a date in the future.\");\r\n\r\n        course.owner = _owner;\r\n        course.courseName = _courseName;\r\n        course.description = _description;\r\n        course.deadline = _deadline;\r\n        course.image = _image;\r\n\r\n        numberofCourses++;\r\n\r\n        return numberofCourses - 1; //index of newest aide\r\n    }\r\n\r\n    function attendCourse(uint256 _id) public {\r\n        Course storage course = courses[_id];\r\n\r\n        require(block.timestamp <= course.deadline, \"Attendance period has ended.\");\r\n\r\n        // Check if the attendee hasn't attended already\r\n        for (uint i = 0; i < course.attendees.length; i++) {\r\n            require(course.attendees[i] != msg.sender, \"You have already attended this course.\");\r\n        }\r\n\r\n        course.attendees.push(msg.sender);\r\n    }\r\n\r\n    function getAttendees(uint256 _id) view public returns (address[] memory) {\r\n        return (courses[_id].attendees);\r\n    }\r\n\r\n    function getCourses() public view returns (Course[] memory) {\r\n        Course[] memory allCourses = new Course[](numberofCourses);\r\n\r\n        for(uint i = 0; i < numberofCourses; i++){\r\n            Course storage item = courses[i];\r\n\r\n            allCourses[i] = item;\r\n        }\r\n\r\n        return allCourses;\r\n    }\r\n}",
  "sourcePath": "C:\\Users\\iamem\\Desktop\\fyp\\contracts\\CourseAttendance.sol",
  "compiler": {
    "name": "solc",
    "version": "0.8.17+commit.8df45f5f.Emscripten.clang"
  },
  "schemaVersion": "3.4.15",
  "updatedAt": "2023-12-30T03:58:59.196Z",
  "devdoc": {
    "kind": "dev",
    "methods": {},
    "version": 1
  },
  "userdoc": {
    "kind": "user",
    "methods": {},
    "version": 1
  }
}