{
  "_format": "hh-sol-artifact-1",
  "contractName": "CourseAttendance",
  "sourceName": "contracts/CourseAttendance.sol",
  "abi": [
    {
      "inputs": [
        {
          "internalType": "uint256",
          "name": "_id",
          "type": "uint256"
        }
      ],
      "name": "attendCourse",
      "outputs": [],
      "stateMutability": "payable",
      "type": "function"
    },
    {
      "inputs": [
        {
          "internalType": "uint256",
          "name": "_id",
          "type": "uint256"
        }
      ],
      "name": "closeAttendance",
      "outputs": [],
      "stateMutability": "nonpayable",
      "type": "function"
    },
    {
      "inputs": [
        {
          "internalType": "uint256",
          "name": "",
          "type": "uint256"
        }
      ],
      "name": "closedCourses",
      "outputs": [
        {
          "internalType": "string",
          "name": "lecturer",
          "type": "string"
        },
        {
          "internalType": "string",
          "name": "courseName",
          "type": "string"
        },
        {
          "internalType": "string",
          "name": "description",
          "type": "string"
        },
        {
          "internalType": "string",
          "name": "department",
          "type": "string"
        },
        {
          "internalType": "string",
          "name": "image",
          "type": "string"
        },
        {
          "internalType": "string",
          "name": "courseCode",
          "type": "string"
        },
        {
          "internalType": "string",
          "name": "week",
          "type": "string"
        }
      ],
      "stateMutability": "view",
      "type": "function"
    },
    {
      "inputs": [
        {
          "internalType": "uint256",
          "name": "",
          "type": "uint256"
        }
      ],
      "name": "courses",
      "outputs": [
        {
          "internalType": "string",
          "name": "lecturer",
          "type": "string"
        },
        {
          "internalType": "string",
          "name": "courseName",
          "type": "string"
        },
        {
          "internalType": "string",
          "name": "description",
          "type": "string"
        },
        {
          "internalType": "string",
          "name": "department",
          "type": "string"
        },
        {
          "internalType": "string",
          "name": "image",
          "type": "string"
        },
        {
          "internalType": "string",
          "name": "courseCode",
          "type": "string"
        },
        {
          "internalType": "string",
          "name": "week",
          "type": "string"
        }
      ],
      "stateMutability": "view",
      "type": "function"
    },
    {
      "inputs": [
        {
          "internalType": "string",
          "name": "_lecturer",
          "type": "string"
        },
        {
          "internalType": "string",
          "name": "_courseName",
          "type": "string"
        },
        {
          "internalType": "string",
          "name": "_description",
          "type": "string"
        },
        {
          "internalType": "string",
          "name": "_department",
          "type": "string"
        },
        {
          "internalType": "string",
          "name": "_image",
          "type": "string"
        },
        {
          "internalType": "string",
          "name": "_courseCode",
          "type": "string"
        },
        {
          "internalType": "string",
          "name": "_week",
          "type": "string"
        }
      ],
      "name": "createCourse",
      "outputs": [
        {
          "internalType": "uint256",
          "name": "",
          "type": "uint256"
        }
      ],
      "stateMutability": "nonpayable",
      "type": "function"
    },
    {
      "inputs": [],
      "name": "getAllClosedCourses",
      "outputs": [
        {
          "components": [
            {
              "internalType": "string",
              "name": "lecturer",
              "type": "string"
            },
            {
              "internalType": "string",
              "name": "courseName",
              "type": "string"
            },
            {
              "internalType": "string",
              "name": "description",
              "type": "string"
            },
            {
              "internalType": "string",
              "name": "department",
              "type": "string"
            },
            {
              "internalType": "string",
              "name": "image",
              "type": "string"
            },
            {
              "internalType": "string",
              "name": "courseCode",
              "type": "string"
            },
            {
              "internalType": "string",
              "name": "week",
              "type": "string"
            },
            {
              "internalType": "address[]",
              "name": "attendees",
              "type": "address[]"
            }
          ],
          "internalType": "struct CourseAttendance.Course[]",
          "name": "",
          "type": "tuple[]"
        }
      ],
      "stateMutability": "view",
      "type": "function"
    },
    {
      "inputs": [],
      "name": "getAllCourses",
      "outputs": [
        {
          "components": [
            {
              "internalType": "string",
              "name": "lecturer",
              "type": "string"
            },
            {
              "internalType": "string",
              "name": "courseName",
              "type": "string"
            },
            {
              "internalType": "string",
              "name": "description",
              "type": "string"
            },
            {
              "internalType": "string",
              "name": "department",
              "type": "string"
            },
            {
              "internalType": "string",
              "name": "image",
              "type": "string"
            },
            {
              "internalType": "string",
              "name": "courseCode",
              "type": "string"
            },
            {
              "internalType": "string",
              "name": "week",
              "type": "string"
            },
            {
              "internalType": "address[]",
              "name": "attendees",
              "type": "address[]"
            }
          ],
          "internalType": "struct CourseAttendance.Course[]",
          "name": "",
          "type": "tuple[]"
        }
      ],
      "stateMutability": "view",
      "type": "function"
    },
    {
      "inputs": [
        {
          "internalType": "uint256",
          "name": "_id",
          "type": "uint256"
        }
      ],
      "name": "getAttendees",
      "outputs": [
        {
          "internalType": "address[]",
          "name": "",
          "type": "address[]"
        }
      ],
      "stateMutability": "view",
      "type": "function"
    },
    {
      "inputs": [
        {
          "internalType": "uint256",
          "name": "_id",
          "type": "uint256"
        }
      ],
      "name": "getAttendeesForClosed",
      "outputs": [
        {
          "internalType": "address[]",
          "name": "",
          "type": "address[]"
        }
      ],
      "stateMutability": "view",
      "type": "function"
    },
    {
      "inputs": [
        {
          "internalType": "string",
          "name": "_department",
          "type": "string"
        }
      ],
      "name": "getClosedCourses",
      "outputs": [
        {
          "components": [
            {
              "internalType": "string",
              "name": "lecturer",
              "type": "string"
            },
            {
              "internalType": "string",
              "name": "courseName",
              "type": "string"
            },
            {
              "internalType": "string",
              "name": "description",
              "type": "string"
            },
            {
              "internalType": "string",
              "name": "department",
              "type": "string"
            },
            {
              "internalType": "string",
              "name": "image",
              "type": "string"
            },
            {
              "internalType": "string",
              "name": "courseCode",
              "type": "string"
            },
            {
              "internalType": "string",
              "name": "week",
              "type": "string"
            },
            {
              "internalType": "address[]",
              "name": "attendees",
              "type": "address[]"
            }
          ],
          "internalType": "struct CourseAttendance.Course[]",
          "name": "",
          "type": "tuple[]"
        }
      ],
      "stateMutability": "view",
      "type": "function"
    },
    {
      "inputs": [
        {
          "internalType": "string",
          "name": "_department",
          "type": "string"
        }
      ],
      "name": "getCourses",
      "outputs": [
        {
          "components": [
            {
              "internalType": "string",
              "name": "lecturer",
              "type": "string"
            },
            {
              "internalType": "string",
              "name": "courseName",
              "type": "string"
            },
            {
              "internalType": "string",
              "name": "description",
              "type": "string"
            },
            {
              "internalType": "string",
              "name": "department",
              "type": "string"
            },
            {
              "internalType": "string",
              "name": "image",
              "type": "string"
            },
            {
              "internalType": "string",
              "name": "courseCode",
              "type": "string"
            },
            {
              "internalType": "string",
              "name": "week",
              "type": "string"
            },
            {
              "internalType": "address[]",
              "name": "attendees",
              "type": "address[]"
            }
          ],
          "internalType": "struct CourseAttendance.Course[]",
          "name": "",
          "type": "tuple[]"
        }
      ],
      "stateMutability": "view",
      "type": "function"
    },
    {
      "inputs": [
        {
          "internalType": "uint256",
          "name": "_id",
          "type": "uint256"
        }
      ],
      "name": "getLecturer",
      "outputs": [
        {
          "internalType": "string",
          "name": "",
          "type": "string"
        }
      ],
      "stateMutability": "view",
      "type": "function"
    },
    {
      "inputs": [
        {
          "internalType": "uint256",
          "name": "_id",
          "type": "uint256"
        }
      ],
      "name": "getNumberOfAttendees",
      "outputs": [
        {
          "internalType": "uint256",
          "name": "",
          "type": "uint256"
        }
      ],
      "stateMutability": "view",
      "type": "function"
    },
    {
      "inputs": [
        {
          "internalType": "uint256",
          "name": "_id",
          "type": "uint256"
        }
      ],
      "name": "getNumberOfAttendeesforClosed",
      "outputs": [
        {
          "internalType": "uint256",
          "name": "",
          "type": "uint256"
        }
      ],
      "stateMutability": "view",
      "type": "function"
    },
    {
      "inputs": [],
      "name": "numberofCourses",
      "outputs": [
        {
          "internalType": "uint256",
          "name": "",
          "type": "uint256"
        }
      ],
      "stateMutability": "view",
      "type": "function"
    },
    {
      "inputs": [],
      "name": "numberofclosedCourses",
      "outputs": [
        {
          "internalType": "uint256",
          "name": "",
          "type": "uint256"
        }
      ],
      "stateMutability": "view",
      "type": "function"
    },
    {
      "inputs": [
        {
          "internalType": "uint256",
          "name": "",
          "type": "uint256"
        }
      ],
      "name": "tempCourses",
      "outputs": [
        {
          "internalType": "string",
          "name": "lecturer",
          "type": "string"
        },
        {
          "internalType": "string",
          "name": "courseName",
          "type": "string"
        },
        {
          "internalType": "string",
          "name": "description",
          "type": "string"
        },
        {
          "internalType": "string",
          "name": "department",
          "type": "string"
        },
        {
          "internalType": "string",
          "name": "image",
          "type": "string"
        },
        {
          "internalType": "string",
          "name": "courseCode",
          "type": "string"
        },
        {
          "internalType": "string",
          "name": "week",
          "type": "string"
        }
      ],
      "stateMutability": "view",
      "type": "function"
    }
  ],
  "bytecode": "0x60806040526000600255600060035534801561001a57600080fd5b506140948061002a6000396000f3fe6080604052600436106100fd5760003560e01c80637d750c9a116100955780639e58d254116100645780639e58d25414610399578063a4d0acef146103d6578063d990dc3414610401578063e0c143771461043e578063f25003681461047b576100fd565b80637d750c9a146102b157806384bd5a13146102ee5780638597f54f1461031957806396f979d214610356576100fd565b8063339f3660116100d1578063339f3660146101d857806338966b75146102155780636323e98014610258578063644b9b5e14610274576100fd565b80623f198c1461010257806304e48bd11461012d5780630f6b9c92146101585780631370d84714610195575b600080fd5b34801561010e57600080fd5b506101176104a4565b6040516101249190613146565b60405180910390f35b34801561013957600080fd5b506101426104aa565b60405161014f9190613484565b60405180910390f35b34801561016457600080fd5b5061017f600480360381019061017a91906134e6565b6109fc565b60405161018c9190613146565b60405180910390f35b3480156101a157600080fd5b506101bc60048036038101906101b791906134e6565b610a1e565b6040516101cf979695949392919061355d565b60405180910390f35b3480156101e457600080fd5b506101ff60048036038101906101fa9190613732565b610e28565b60405161020c9190613484565b60405180910390f35b34801561022157600080fd5b5061023c600480360381019061023791906134e6565b6113f1565b60405161024f979695949392919061355d565b60405180910390f35b610272600480360381019061026d91906134e6565b6117eb565b005b34801561028057600080fd5b5061029b60048036038101906102969190613732565b6118b4565b6040516102a89190613484565b60405180910390f35b3480156102bd57600080fd5b506102d860048036038101906102d391906134e6565b611e7f565b6040516102e591906137ea565b60405180910390f35b3480156102fa57600080fd5b50610303611f23565b6040516103109190613146565b60405180910390f35b34801561032557600080fd5b50610340600480360381019061033b919061380c565b611f29565b60405161034d9190613146565b60405180910390f35b34801561036257600080fd5b5061037d600480360381019061037891906134e6565b611ff5565b604051610390979695949392919061355d565b60405180910390f35b3480156103a557600080fd5b506103c060048036038101906103bb91906134e6565b6123ef565b6040516103cd9190613146565b60405180910390f35b3480156103e257600080fd5b506103eb612412565b6040516103f89190613484565b60405180910390f35b34801561040d57600080fd5b50610428600480360381019061042391906134e6565b612965565b6040516104359190613972565b60405180910390f35b34801561044a57600080fd5b50610465600480360381019061046091906134e6565b612a0c565b60405161047291906137ea565b60405180910390f35b34801561048757600080fd5b506104a2600480360381019061049d91906134e6565b612aaf565b005b60035481565b6060600060025467ffffffffffffffff8111156104ca576104c9613607565b5b60405190808252806020026020018201604052801561050357816020015b6104f0612f5d565b8152602001906001900390816104e85790505b50905060005b6002548110156109f457600080600083815260200190815260200160002090508060405180610100016040529081600082018054610546906139c3565b80601f0160208091040260200160405190810160405280929190818152602001828054610572906139c3565b80156105bf5780601f10610594576101008083540402835291602001916105bf565b820191906000526020600020905b8154815290600101906020018083116105a257829003601f168201915b505050505081526020016001820180546105d8906139c3565b80601f0160208091040260200160405190810160405280929190818152602001828054610604906139c3565b80156106515780601f1061062657610100808354040283529160200191610651565b820191906000526020600020905b81548152906001019060200180831161063457829003601f168201915b5050505050815260200160028201805461066a906139c3565b80601f0160208091040260200160405190810160405280929190818152602001828054610696906139c3565b80156106e35780601f106106b8576101008083540402835291602001916106e3565b820191906000526020600020905b8154815290600101906020018083116106c657829003601f168201915b505050505081526020016003820180546106fc906139c3565b80601f0160208091040260200160405190810160405280929190818152602001828054610728906139c3565b80156107755780601f1061074a57610100808354040283529160200191610775565b820191906000526020600020905b81548152906001019060200180831161075857829003601f168201915b5050505050815260200160048201805461078e906139c3565b80601f01602080910402602001604051908101604052809291908181526020018280546107ba906139c3565b80156108075780601f106107dc57610100808354040283529160200191610807565b820191906000526020600020905b8154815290600101906020018083116107ea57829003601f168201915b50505050508152602001600582018054610820906139c3565b80601f016020809104026020016040519081016040528092919081815260200182805461084c906139c3565b80156108995780601f1061086e57610100808354040283529160200191610899565b820191906000526020600020905b81548152906001019060200180831161087c57829003601f168201915b505050505081526020016006820180546108b2906139c3565b80601f01602080910402602001604051908101604052809291908181526020018280546108de906139c3565b801561092b5780601f106109005761010080835404028352916020019161092b565b820191906000526020600020905b81548152906001019060200180831161090e57829003601f168201915b50505050508152602001600782018054806020026020016040519081016040528092919081815260200182805480156109b957602002820191906000526020600020905b8160009054906101000a900473ffffffffffffffffffffffffffffffffffffffff1673ffffffffffffffffffffffffffffffffffffffff168152602001906001019080831161096f575b5050505050815250508383815181106109d5576109d46139f4565b5b60200260200101819052505080806109ec90613a52565b915050610509565b508091505090565b6000806000838152602001908152602001600020600701805490509050919050565b60048181548110610a2e57600080fd5b9060005260206000209060080201600091509050806000018054610a51906139c3565b80601f0160208091040260200160405190810160405280929190818152602001828054610a7d906139c3565b8015610aca5780601f10610a9f57610100808354040283529160200191610aca565b820191906000526020600020905b815481529060010190602001808311610aad57829003601f168201915b505050505090806001018054610adf906139c3565b80601f0160208091040260200160405190810160405280929190818152602001828054610b0b906139c3565b8015610b585780601f10610b2d57610100808354040283529160200191610b58565b820191906000526020600020905b815481529060010190602001808311610b3b57829003601f168201915b505050505090806002018054610b6d906139c3565b80601f0160208091040260200160405190810160405280929190818152602001828054610b99906139c3565b8015610be65780601f10610bbb57610100808354040283529160200191610be6565b820191906000526020600020905b815481529060010190602001808311610bc957829003601f168201915b505050505090806003018054610bfb906139c3565b80601f0160208091040260200160405190810160405280929190818152602001828054610c27906139c3565b8015610c745780601f10610c4957610100808354040283529160200191610c74565b820191906000526020600020905b815481529060010190602001808311610c5757829003601f168201915b505050505090806004018054610c89906139c3565b80601f0160208091040260200160405190810160405280929190818152602001828054610cb5906139c3565b8015610d025780601f10610cd757610100808354040283529160200191610d02565b820191906000526020600020905b815481529060010190602001808311610ce557829003601f168201915b505050505090806005018054610d17906139c3565b80601f0160208091040260200160405190810160405280929190818152602001828054610d43906139c3565b8015610d905780601f10610d6557610100808354040283529160200191610d90565b820191906000526020600020905b815481529060010190602001808311610d7357829003601f168201915b505050505090806006018054610da5906139c3565b80601f0160208091040260200160405190810160405280929190818152602001828054610dd1906139c3565b8015610e1e5780601f10610df357610100808354040283529160200191610e1e565b820191906000526020600020905b815481529060010190602001808311610e0157829003601f168201915b5050505050905087565b6060600060025467ffffffffffffffff811115610e4857610e47613607565b5b604051908082528060200260200182016040528015610e8157816020015b610e6e612f5d565b815260200190600190039081610e665790505b5090506000805b6002548110156113e35784604051602001610ea39190613ad6565b60405160208183030381529060405280519060200120600080838152602001908152602001600020600301604051602001610ede9190613b85565b60405160208183030381529060405280519060200120036113d05760008082815260200190815260200160002060405180610100016040529081600082018054610f27906139c3565b80601f0160208091040260200160405190810160405280929190818152602001828054610f53906139c3565b8015610fa05780601f10610f7557610100808354040283529160200191610fa0565b820191906000526020600020905b815481529060010190602001808311610f8357829003601f168201915b50505050508152602001600182018054610fb9906139c3565b80601f0160208091040260200160405190810160405280929190818152602001828054610fe5906139c3565b80156110325780601f1061100757610100808354040283529160200191611032565b820191906000526020600020905b81548152906001019060200180831161101557829003601f168201915b5050505050815260200160028201805461104b906139c3565b80601f0160208091040260200160405190810160405280929190818152602001828054611077906139c3565b80156110c45780601f10611099576101008083540402835291602001916110c4565b820191906000526020600020905b8154815290600101906020018083116110a757829003601f168201915b505050505081526020016003820180546110dd906139c3565b80601f0160208091040260200160405190810160405280929190818152602001828054611109906139c3565b80156111565780601f1061112b57610100808354040283529160200191611156565b820191906000526020600020905b81548152906001019060200180831161113957829003601f168201915b5050505050815260200160048201805461116f906139c3565b80601f016020809104026020016040519081016040528092919081815260200182805461119b906139c3565b80156111e85780601f106111bd576101008083540402835291602001916111e8565b820191906000526020600020905b8154815290600101906020018083116111cb57829003601f168201915b50505050508152602001600582018054611201906139c3565b80601f016020809104026020016040519081016040528092919081815260200182805461122d906139c3565b801561127a5780601f1061124f5761010080835404028352916020019161127a565b820191906000526020600020905b81548152906001019060200180831161125d57829003601f168201915b50505050508152602001600682018054611293906139c3565b80601f01602080910402602001604051908101604052809291908181526020018280546112bf906139c3565b801561130c5780601f106112e15761010080835404028352916020019161130c565b820191906000526020600020905b8154815290600101906020018083116112ef57829003601f168201915b505050505081526020016007820180548060200260200160405190810160405280929190818152602001828054801561139a57602002820191906000526020600020905b8160009054906101000a900473ffffffffffffffffffffffffffffffffffffffff1673ffffffffffffffffffffffffffffffffffffffff1681526020019060010190808311611350575b5050505050815250508383815181106113b6576113b56139f4565b5b602002602001018190525081806113cc90613a52565b9250505b80806113db90613a52565b915050610e88565b508082528192505050919050565b6001602052806000526040600020600091509050806000018054611414906139c3565b80601f0160208091040260200160405190810160405280929190818152602001828054611440906139c3565b801561148d5780601f106114625761010080835404028352916020019161148d565b820191906000526020600020905b81548152906001019060200180831161147057829003601f168201915b5050505050908060010180546114a2906139c3565b80601f01602080910402602001604051908101604052809291908181526020018280546114ce906139c3565b801561151b5780601f106114f05761010080835404028352916020019161151b565b820191906000526020600020905b8154815290600101906020018083116114fe57829003601f168201915b505050505090806002018054611530906139c3565b80601f016020809104026020016040519081016040528092919081815260200182805461155c906139c3565b80156115a95780601f1061157e576101008083540402835291602001916115a9565b820191906000526020600020905b81548152906001019060200180831161158c57829003601f168201915b5050505050908060030180546115be906139c3565b80601f01602080910402602001604051908101604052809291908181526020018280546115ea906139c3565b80156116375780601f1061160c57610100808354040283529160200191611637565b820191906000526020600020905b81548152906001019060200180831161161a57829003601f168201915b50505050509080600401805461164c906139c3565b80601f0160208091040260200160405190810160405280929190818152602001828054611678906139c3565b80156116c55780601f1061169a576101008083540402835291602001916116c5565b820191906000526020600020905b8154815290600101906020018083116116a857829003601f168201915b5050505050908060050180546116da906139c3565b80601f0160208091040260200160405190810160405280929190818152602001828054611706906139c3565b80156117535780601f1061172857610100808354040283529160200191611753565b820191906000526020600020905b81548152906001019060200180831161173657829003601f168201915b505050505090806006018054611768906139c3565b80601f0160208091040260200160405190810160405280929190818152602001828054611794906139c3565b80156117e15780601f106117b6576101008083540402835291602001916117e1565b820191906000526020600020905b8154815290600101906020018083116117c457829003601f168201915b5050505050905087565b6000806000838152602001908152602001600020905061180b8233612cb5565b1561184b576040517f08c379a000000000000000000000000000000000000000000000000000000000815260040161184290613c0e565b60405180910390fd5b80600701339080600181540180825580915050600190039060005260206000200160009091909190916101000a81548173ffffffffffffffffffffffffffffffffffffffff021916908373ffffffffffffffffffffffffffffffffffffffff1602179055505050565b6060600060035467ffffffffffffffff8111156118d4576118d3613607565b5b60405190808252806020026020018201604052801561190d57816020015b6118fa612f5d565b8152602001906001900390816118f25790505b5090506000805b600354811015611e71578460405160200161192f9190613ad6565b604051602081830303815290604052805190602001206001600083815260200190815260200160002060030160405160200161196b9190613b85565b6040516020818303038152906040528051906020012003611e5e5760016000828152602001908152602001600020604051806101000160405290816000820180546119b5906139c3565b80601f01602080910402602001604051908101604052809291908181526020018280546119e1906139c3565b8015611a2e5780601f10611a0357610100808354040283529160200191611a2e565b820191906000526020600020905b815481529060010190602001808311611a1157829003601f168201915b50505050508152602001600182018054611a47906139c3565b80601f0160208091040260200160405190810160405280929190818152602001828054611a73906139c3565b8015611ac05780601f10611a9557610100808354040283529160200191611ac0565b820191906000526020600020905b815481529060010190602001808311611aa357829003601f168201915b50505050508152602001600282018054611ad9906139c3565b80601f0160208091040260200160405190810160405280929190818152602001828054611b05906139c3565b8015611b525780601f10611b2757610100808354040283529160200191611b52565b820191906000526020600020905b815481529060010190602001808311611b3557829003601f168201915b50505050508152602001600382018054611b6b906139c3565b80601f0160208091040260200160405190810160405280929190818152602001828054611b97906139c3565b8015611be45780601f10611bb957610100808354040283529160200191611be4565b820191906000526020600020905b815481529060010190602001808311611bc757829003601f168201915b50505050508152602001600482018054611bfd906139c3565b80601f0160208091040260200160405190810160405280929190818152602001828054611c29906139c3565b8015611c765780601f10611c4b57610100808354040283529160200191611c76565b820191906000526020600020905b815481529060010190602001808311611c5957829003601f168201915b50505050508152602001600582018054611c8f906139c3565b80601f0160208091040260200160405190810160405280929190818152602001828054611cbb906139c3565b8015611d085780601f10611cdd57610100808354040283529160200191611d08565b820191906000526020600020905b815481529060010190602001808311611ceb57829003601f168201915b50505050508152602001600682018054611d21906139c3565b80601f0160208091040260200160405190810160405280929190818152602001828054611d4d906139c3565b8015611d9a5780601f10611d6f57610100808354040283529160200191611d9a565b820191906000526020600020905b815481529060010190602001808311611d7d57829003601f168201915b5050505050815260200160078201805480602002602001604051908101604052809291908181526020018280548015611e2857602002820191906000526020600020905b8160009054906101000a900473ffffffffffffffffffffffffffffffffffffffff1673ffffffffffffffffffffffffffffffffffffffff1681526020019060010190808311611dde575b505050505081525050838381518110611e4457611e436139f4565b5b60200260200101819052508180611e5a90613a52565b9250505b8080611e6990613a52565b915050611914565b508082528192505050919050565b606060016000838152602001908152602001600020600701805480602002602001604051908101604052809291908181526020018280548015611f1757602002820191906000526020600020905b8160009054906101000a900473ffffffffffffffffffffffffffffffffffffffff1673ffffffffffffffffffffffffffffffffffffffff1681526020019060010190808311611ecd575b50505050509050919050565b60025481565b6000806000806002548152602001908152602001600020905088816000019081611f539190613dc5565b5087816001019081611f659190613dc5565b5086816002019081611f779190613dc5565b5085816003019081611f899190613dc5565b5084816004019081611f9b9190613dc5565b5083816005019081611fad9190613dc5565b5082816006019081611fbf9190613dc5565b5060026000815480929190611fd390613a52565b91905055506001600254611fe79190613e97565b915050979650505050505050565b6000602052806000526040600020600091509050806000018054612018906139c3565b80601f0160208091040260200160405190810160405280929190818152602001828054612044906139c3565b80156120915780601f1061206657610100808354040283529160200191612091565b820191906000526020600020905b81548152906001019060200180831161207457829003601f168201915b5050505050908060010180546120a6906139c3565b80601f01602080910402602001604051908101604052809291908181526020018280546120d2906139c3565b801561211f5780601f106120f45761010080835404028352916020019161211f565b820191906000526020600020905b81548152906001019060200180831161210257829003601f168201915b505050505090806002018054612134906139c3565b80601f0160208091040260200160405190810160405280929190818152602001828054612160906139c3565b80156121ad5780601f10612182576101008083540402835291602001916121ad565b820191906000526020600020905b81548152906001019060200180831161219057829003601f168201915b5050505050908060030180546121c2906139c3565b80601f01602080910402602001604051908101604052809291908181526020018280546121ee906139c3565b801561223b5780601f106122105761010080835404028352916020019161223b565b820191906000526020600020905b81548152906001019060200180831161221e57829003601f168201915b505050505090806004018054612250906139c3565b80601f016020809104026020016040519081016040528092919081815260200182805461227c906139c3565b80156122c95780601f1061229e576101008083540402835291602001916122c9565b820191906000526020600020905b8154815290600101906020018083116122ac57829003601f168201915b5050505050908060050180546122de906139c3565b80601f016020809104026020016040519081016040528092919081815260200182805461230a906139c3565b80156123575780601f1061232c57610100808354040283529160200191612357565b820191906000526020600020905b81548152906001019060200180831161233a57829003601f168201915b50505050509080600601805461236c906139c3565b80601f0160208091040260200160405190810160405280929190818152602001828054612398906139c3565b80156123e55780601f106123ba576101008083540402835291602001916123e5565b820191906000526020600020905b8154815290600101906020018083116123c857829003601f168201915b5050505050905087565b600060016000838152602001908152602001600020600701805490509050919050565b6060600060035467ffffffffffffffff81111561243257612431613607565b5b60405190808252806020026020018201604052801561246b57816020015b612458612f5d565b8152602001906001900390816124505790505b50905060005b60035481101561295d57600060016000838152602001908152602001600020905080604051806101000160405290816000820180546124af906139c3565b80601f01602080910402602001604051908101604052809291908181526020018280546124db906139c3565b80156125285780601f106124fd57610100808354040283529160200191612528565b820191906000526020600020905b81548152906001019060200180831161250b57829003601f168201915b50505050508152602001600182018054612541906139c3565b80601f016020809104026020016040519081016040528092919081815260200182805461256d906139c3565b80156125ba5780601f1061258f576101008083540402835291602001916125ba565b820191906000526020600020905b81548152906001019060200180831161259d57829003601f168201915b505050505081526020016002820180546125d3906139c3565b80601f01602080910402602001604051908101604052809291908181526020018280546125ff906139c3565b801561264c5780601f106126215761010080835404028352916020019161264c565b820191906000526020600020905b81548152906001019060200180831161262f57829003601f168201915b50505050508152602001600382018054612665906139c3565b80601f0160208091040260200160405190810160405280929190818152602001828054612691906139c3565b80156126de5780601f106126b3576101008083540402835291602001916126de565b820191906000526020600020905b8154815290600101906020018083116126c157829003601f168201915b505050505081526020016004820180546126f7906139c3565b80601f0160208091040260200160405190810160405280929190818152602001828054612723906139c3565b80156127705780601f1061274557610100808354040283529160200191612770565b820191906000526020600020905b81548152906001019060200180831161275357829003601f168201915b50505050508152602001600582018054612789906139c3565b80601f01602080910402602001604051908101604052809291908181526020018280546127b5906139c3565b80156128025780601f106127d757610100808354040283529160200191612802565b820191906000526020600020905b8154815290600101906020018083116127e557829003601f168201915b5050505050815260200160068201805461281b906139c3565b80601f0160208091040260200160405190810160405280929190818152602001828054612847906139c3565b80156128945780601f1061286957610100808354040283529160200191612894565b820191906000526020600020905b81548152906001019060200180831161287757829003601f168201915b505050505081526020016007820180548060200260200160405190810160405280929190818152602001828054801561292257602002820191906000526020600020905b8160009054906101000a900473ffffffffffffffffffffffffffffffffffffffff1673ffffffffffffffffffffffffffffffffffffffff16815260200190600101908083116128d8575b50505050508152505083838151811061293e5761293d6139f4565b5b602002602001018190525050808061295590613a52565b915050612471565b508091505090565b60606000808381526020019081526020016000206000018054612987906139c3565b80601f01602080910402602001604051908101604052809291908181526020018280546129b3906139c3565b8015612a005780601f106129d557610100808354040283529160200191612a00565b820191906000526020600020905b8154815290600101906020018083116129e357829003601f168201915b50505050509050919050565b6060600080838152602001908152602001600020600701805480602002602001604051908101604052809291908181526020018280548015612aa357602002820191906000526020600020905b8160009054906101000a900473ffffffffffffffffffffffffffffffffffffffff1673ffffffffffffffffffffffffffffffffffffffff1681526020019060010190808311612a59575b50505050509050919050565b60008060008381526020019081526020016000209050600481908060018154018082558091505060019003906000526020600020906008020160009091909190915060008201816000019081612b059190613ee1565b5060018201816001019081612b1a9190613ee1565b5060028201816002019081612b2f9190613ee1565b5060038201816003019081612b449190613ee1565b5060048201816004019081612b599190613ee1565b5060058201816005019081612b6e9190613ee1565b5060068201816006019081612b839190613ee1565b506007820181600701908054612b9a929190612fa2565b505050612ba682612d7c565b6004600081548110612bbb57612bba6139f4565b5b906000526020600020906008020160016000600354815260200190815260200160002060008201816000019081612bf29190613ee1565b5060018201816001019081612c079190613ee1565b5060028201816002019081612c1c9190613ee1565b5060038201816003019081612c319190613ee1565b5060048201816004019081612c469190613ee1565b5060058201816005019081612c5b9190613ee1565b5060068201816006019081612c709190613ee1565b506007820181600701908054612c87929190612fa2565b5090505060036000815480929190612c9e90613a52565b919050555060046000612cb19190612ff4565b5050565b600080600080858152602001908152602001600020905060005b8160070180549050811015612d6f578373ffffffffffffffffffffffffffffffffffffffff16826007018281548110612d0b57612d0a6139f4565b5b9060005260206000200160009054906101000a900473ffffffffffffffffffffffffffffffffffffffff1673ffffffffffffffffffffffffffffffffffffffff1603612d5c57600192505050612d76565b8080612d6790613a52565b915050612ccf565b5060009150505b92915050565b6002548110612dc0576040517f08c379a0000000000000000000000000000000000000000000000000000000008152600401612db790614015565b60405180910390fd5b6000806001600254612dd29190613e97565b815260200190815260200160002060008083815260200190815260200160002060008201816000019081612e069190613ee1565b5060018201816001019081612e1b9190613ee1565b5060028201816002019081612e309190613ee1565b5060038201816003019081612e459190613ee1565b5060048201816004019081612e5a9190613ee1565b5060058201816005019081612e6f9190613ee1565b5060068201816006019081612e849190613ee1565b506007820181600701908054612e9b929190612fa2565b509050506000806001600254612eb19190613e97565b815260200190815260200160002060008082016000612ed09190613018565b600182016000612ee09190613018565b600282016000612ef09190613018565b600382016000612f009190613018565b600482016000612f109190613018565b600582016000612f209190613018565b600682016000612f309190613018565b600782016000612f409190613058565b505060026000815480929190612f5590614035565b919050555050565b60405180610100016040528060608152602001606081526020016060815260200160608152602001606081526020016060815260200160608152602001606081525090565b828054828255906000526020600020908101928215612fe35760005260206000209182015b82811115612fe2578254825591600101919060010190612fc7565b5b509050612ff09190613079565b5090565b50805460008255600802906000526020600020908101906130159190613096565b50565b508054613024906139c3565b6000825580601f106130365750613055565b601f0160209004906000526020600020908101906130549190613079565b5b50565b50805460008255906000526020600020908101906130769190613079565b50565b5b8082111561309257600081600090555060010161307a565b5090565b5b8082111561312957600080820160006130b09190613018565b6001820160006130c09190613018565b6002820160006130d09190613018565b6003820160006130e09190613018565b6004820160006130f09190613018565b6005820160006131009190613018565b6006820160006131109190613018565b6007820160006131209190613058565b50600801613097565b5090565b6000819050919050565b6131408161312d565b82525050565b600060208201905061315b6000830184613137565b92915050565b600081519050919050565b600082825260208201905092915050565b6000819050602082019050919050565b600081519050919050565b600082825260208201905092915050565b60005b838110156131c75780820151818401526020810190506131ac565b60008484015250505050565b6000601f19601f8301169050919050565b60006131ef8261318d565b6131f98185613198565b93506132098185602086016131a9565b613212816131d3565b840191505092915050565b600081519050919050565b600082825260208201905092915050565b6000819050602082019050919050565b600073ffffffffffffffffffffffffffffffffffffffff82169050919050565b600061327482613249565b9050919050565b61328481613269565b82525050565b6000613296838361327b565b60208301905092915050565b6000602082019050919050565b60006132ba8261321d565b6132c48185613228565b93506132cf83613239565b8060005b838110156133005781516132e7888261328a565b97506132f2836132a2565b9250506001810190506132d3565b5085935050505092915050565b600061010083016000830151848203600086015261332b82826131e4565b9150506020830151848203602086015261334582826131e4565b9150506040830151848203604086015261335f82826131e4565b9150506060830151848203606086015261337982826131e4565b9150506080830151848203608086015261339382826131e4565b91505060a083015184820360a08601526133ad82826131e4565b91505060c083015184820360c08601526133c782826131e4565b91505060e083015184820360e08601526133e182826132af565b9150508091505092915050565b60006133fa838361330d565b905092915050565b6000602082019050919050565b600061341a82613161565b613424818561316c565b9350836020820285016134368561317d565b8060005b85811015613472578484038952815161345385826133ee565b945061345e83613402565b925060208a0199505060018101905061343a565b50829750879550505050505092915050565b6000602082019050818103600083015261349e818461340f565b905092915050565b6000604051905090565b600080fd5b600080fd5b6134c38161312d565b81146134ce57600080fd5b50565b6000813590506134e0816134ba565b92915050565b6000602082840312156134fc576134fb6134b0565b5b600061350a848285016134d1565b91505092915050565b600082825260208201905092915050565b600061352f8261318d565b6135398185613513565b93506135498185602086016131a9565b613552816131d3565b840191505092915050565b600060e0820190508181036000830152613577818a613524565b9050818103602083015261358b8189613524565b9050818103604083015261359f8188613524565b905081810360608301526135b38187613524565b905081810360808301526135c78186613524565b905081810360a08301526135db8185613524565b905081810360c08301526135ef8184613524565b905098975050505050505050565b600080fd5b600080fd5b7f4e487b7100000000000000000000000000000000000000000000000000000000600052604160045260246000fd5b61363f826131d3565b810181811067ffffffffffffffff8211171561365e5761365d613607565b5b80604052505050565b60006136716134a6565b905061367d8282613636565b919050565b600067ffffffffffffffff82111561369d5761369c613607565b5b6136a6826131d3565b9050602081019050919050565b82818337600083830152505050565b60006136d56136d084613682565b613667565b9050828152602081018484840111156136f1576136f0613602565b5b6136fc8482856136b3565b509392505050565b600082601f830112613719576137186135fd565b5b81356137298482602086016136c2565b91505092915050565b600060208284031215613748576137476134b0565b5b600082013567ffffffffffffffff811115613766576137656134b5565b5b61377284828501613704565b91505092915050565b600082825260208201905092915050565b60006137978261321d565b6137a1818561377b565b93506137ac83613239565b8060005b838110156137dd5781516137c4888261328a565b97506137cf836132a2565b9250506001810190506137b0565b5085935050505092915050565b60006020820190508181036000830152613804818461378c565b905092915050565b600080600080600080600060e0888a03121561382b5761382a6134b0565b5b600088013567ffffffffffffffff811115613849576138486134b5565b5b6138558a828b01613704565b975050602088013567ffffffffffffffff811115613876576138756134b5565b5b6138828a828b01613704565b965050604088013567ffffffffffffffff8111156138a3576138a26134b5565b5b6138af8a828b01613704565b955050606088013567ffffffffffffffff8111156138d0576138cf6134b5565b5b6138dc8a828b01613704565b945050608088013567ffffffffffffffff8111156138fd576138fc6134b5565b5b6139098a828b01613704565b93505060a088013567ffffffffffffffff81111561392a576139296134b5565b5b6139368a828b01613704565b92505060c088013567ffffffffffffffff811115613957576139566134b5565b5b6139638a828b01613704565b91505092959891949750929550565b6000602082019050818103600083015261398c8184613524565b905092915050565b7f4e487b7100000000000000000000000000000000000000000000000000000000600052602260045260246000fd5b600060028204905060018216806139db57607f821691505b6020821081036139ee576139ed613994565b5b50919050565b7f4e487b7100000000000000000000000000000000000000000000000000000000600052603260045260246000fd5b7f4e487b7100000000000000000000000000000000000000000000000000000000600052601160045260246000fd5b6000613a5d8261312d565b91507fffffffffffffffffffffffffffffffffffffffffffffffffffffffffffffffff8203613a8f57613a8e613a23565b5b600182019050919050565b600081905092915050565b6000613ab08261318d565b613aba8185613a9a565b9350613aca8185602086016131a9565b80840191505092915050565b6000613ae28284613aa5565b915081905092915050565b60008190508160005260206000209050919050565b60008154613b0f816139c3565b613b198186613a9a565b94506001821660008114613b345760018114613b4957613b7c565b60ff1983168652811515820286019350613b7c565b613b5285613aed565b60005b83811015613b7457815481890152600182019150602081019050613b55565b838801955050505b50505092915050565b6000613b918284613b02565b915081905092915050565b7f596f75206861766520616c726561647920617474656e6465642074686973206360008201527f6c6173732e000000000000000000000000000000000000000000000000000000602082015250565b6000613bf8602583613513565b9150613c0382613b9c565b604082019050919050565b60006020820190508181036000830152613c2781613beb565b9050919050565b60006020601f8301049050919050565b600082821b905092915050565b600060088302613c7b7fffffffffffffffffffffffffffffffffffffffffffffffffffffffffffffffff82613c3e565b613c858683613c3e565b95508019841693508086168417925050509392505050565b6000819050919050565b6000613cc2613cbd613cb88461312d565b613c9d565b61312d565b9050919050565b6000819050919050565b613cdc83613ca7565b613cf0613ce882613cc9565b848454613c4b565b825550505050565b600090565b613d05613cf8565b613d10818484613cd3565b505050565b5b81811015613d3457613d29600082613cfd565b600181019050613d16565b5050565b601f821115613d7957613d4a81613aed565b613d5384613c2e565b81016020851015613d62578190505b613d76613d6e85613c2e565b830182613d15565b50505b505050565b600082821c905092915050565b6000613d9c60001984600802613d7e565b1980831691505092915050565b6000613db58383613d8b565b9150826002028217905092915050565b613dce8261318d565b67ffffffffffffffff811115613de757613de6613607565b5b613df182546139c3565b613dfc828285613d38565b600060209050601f831160018114613e2f5760008415613e1d578287015190505b613e278582613da9565b865550613e8f565b601f198416613e3d86613aed565b60005b82811015613e6557848901518255600182019150602085019450602081019050613e40565b86831015613e825784890151613e7e601f891682613d8b565b8355505b6001600288020188555050505b505050505050565b6000613ea28261312d565b9150613ead8361312d565b9250828203905081811115613ec557613ec4613a23565b5b92915050565b600081549050613eda816139c3565b9050919050565b818103613eef575050613fc7565b613ef882613ecb565b67ffffffffffffffff811115613f1157613f10613607565b5b613f1b82546139c3565b613f26828285613d38565b6000601f831160018114613f555760008415613f43578287015490505b613f4d8582613da9565b865550613fc0565b601f198416613f6387613aed565b9650613f6e86613aed565b60005b82811015613f9657848901548255600182019150600185019450602081019050613f71565b86831015613fb35784890154613faf601f891682613d8b565b8355505b6001600288020188555050505b5050505050505b565b7f496e76616c696420696e64657800000000000000000000000000000000000000600082015250565b6000613fff600d83613513565b915061400a82613fc9565b602082019050919050565b6000602082019050818103600083015261402e81613ff2565b9050919050565b60006140408261312d565b91506000820361405357614052613a23565b5b60018203905091905056fea2646970667358221220602b67fb63781e324ada34591c65883cf24eb7d56de0449bfd3027255f16df4e64736f6c63430008130033",
  "linkReferences": {},
  "deployedLinkReferences": {}
}