{
  "_format": "hh-sol-artifact-1",
  "contractName": "CourseAttendance",
  "sourceName": "contracts/CourseAttendance.sol",
  "abi": [
    {
      "inputs": [
        {
          "internalType": "uint256",
          "name": "_id",
          "type": "uint256"
        }
      ],
      "name": "attendCourse",
      "outputs": [],
      "stateMutability": "payable",
      "type": "function"
    },
    {
      "inputs": [
        {
          "internalType": "uint256",
          "name": "",
          "type": "uint256"
        }
      ],
      "name": "closedCourses",
      "outputs": [
        {
          "internalType": "string",
          "name": "lecturer",
          "type": "string"
        },
        {
          "internalType": "string",
          "name": "courseName",
          "type": "string"
        },
        {
          "internalType": "string",
          "name": "description",
          "type": "string"
        },
        {
          "internalType": "string",
          "name": "department",
          "type": "string"
        },
        {
          "internalType": "string",
          "name": "image",
          "type": "string"
        },
        {
          "internalType": "uint256",
          "name": "startTime",
          "type": "uint256"
        },
        {
          "internalType": "uint256",
          "name": "endTime",
          "type": "uint256"
        }
      ],
      "stateMutability": "view",
      "type": "function"
    },
    {
      "inputs": [
        {
          "internalType": "uint256",
          "name": "",
          "type": "uint256"
        }
      ],
      "name": "courses",
      "outputs": [
        {
          "internalType": "string",
          "name": "lecturer",
          "type": "string"
        },
        {
          "internalType": "string",
          "name": "courseName",
          "type": "string"
        },
        {
          "internalType": "string",
          "name": "description",
          "type": "string"
        },
        {
          "internalType": "string",
          "name": "department",
          "type": "string"
        },
        {
          "internalType": "string",
          "name": "image",
          "type": "string"
        },
        {
          "internalType": "uint256",
          "name": "startTime",
          "type": "uint256"
        },
        {
          "internalType": "uint256",
          "name": "endTime",
          "type": "uint256"
        }
      ],
      "stateMutability": "view",
      "type": "function"
    },
    {
      "inputs": [
        {
          "internalType": "string",
          "name": "_lecturer",
          "type": "string"
        },
        {
          "internalType": "string",
          "name": "_courseName",
          "type": "string"
        },
        {
          "internalType": "string",
          "name": "_description",
          "type": "string"
        },
        {
          "internalType": "string",
          "name": "_department",
          "type": "string"
        },
        {
          "internalType": "string",
          "name": "_image",
          "type": "string"
        },
        {
          "internalType": "uint256",
          "name": "_startTime",
          "type": "uint256"
        },
        {
          "internalType": "uint256",
          "name": "_endTime",
          "type": "uint256"
        }
      ],
      "name": "createCourse",
      "outputs": [
        {
          "internalType": "uint256",
          "name": "",
          "type": "uint256"
        }
      ],
      "stateMutability": "nonpayable",
      "type": "function"
    },
    {
      "inputs": [],
      "name": "getBlockTime",
      "outputs": [
        {
          "internalType": "uint256",
          "name": "",
          "type": "uint256"
        }
      ],
      "stateMutability": "view",
      "type": "function"
    },
    {
      "inputs": [
        {
          "internalType": "uint256",
          "name": "_id",
          "type": "uint256"
        }
      ],
      "name": "getClassTime",
      "outputs": [
        {
          "internalType": "bool",
          "name": "",
          "type": "bool"
        }
      ],
      "stateMutability": "view",
      "type": "function"
    },
    {
      "inputs": [
        {
          "internalType": "string",
          "name": "_department",
          "type": "string"
        }
      ],
      "name": "getCourses",
      "outputs": [
        {
          "components": [
            {
              "internalType": "string",
              "name": "lecturer",
              "type": "string"
            },
            {
              "internalType": "string",
              "name": "courseName",
              "type": "string"
            },
            {
              "internalType": "string",
              "name": "description",
              "type": "string"
            },
            {
              "internalType": "string",
              "name": "department",
              "type": "string"
            },
            {
              "internalType": "string",
              "name": "image",
              "type": "string"
            },
            {
              "internalType": "uint256",
              "name": "startTime",
              "type": "uint256"
            },
            {
              "internalType": "uint256",
              "name": "endTime",
              "type": "uint256"
            },
            {
              "internalType": "address[]",
              "name": "attendees",
              "type": "address[]"
            }
          ],
          "internalType": "struct CourseAttendance.Course[]",
          "name": "",
          "type": "tuple[]"
        }
      ],
      "stateMutability": "view",
      "type": "function"
    },
    {
      "inputs": [],
      "name": "numberofCourses",
      "outputs": [
        {
          "internalType": "uint256",
          "name": "",
          "type": "uint256"
        }
      ],
      "stateMutability": "view",
      "type": "function"
    },
    {
      "inputs": [],
      "name": "numberofclosedCourses",
      "outputs": [
        {
          "internalType": "uint256",
          "name": "",
          "type": "uint256"
        }
      ],
      "stateMutability": "view",
      "type": "function"
    },
    {
      "inputs": [
        {
          "internalType": "uint256",
          "name": "",
          "type": "uint256"
        }
      ],
      "name": "tempCourses",
      "outputs": [
        {
          "internalType": "string",
          "name": "lecturer",
          "type": "string"
        },
        {
          "internalType": "string",
          "name": "courseName",
          "type": "string"
        },
        {
          "internalType": "string",
          "name": "description",
          "type": "string"
        },
        {
          "internalType": "string",
          "name": "department",
          "type": "string"
        },
        {
          "internalType": "string",
          "name": "image",
          "type": "string"
        },
        {
          "internalType": "uint256",
          "name": "startTime",
          "type": "uint256"
        },
        {
          "internalType": "uint256",
          "name": "endTime",
          "type": "uint256"
        }
      ],
      "stateMutability": "view",
      "type": "function"
    }
  ],
  "bytecode": "0x60806040526000600255600060035534801561001a57600080fd5b5061272c8061002a6000396000f3fe60806040526004361061008f5760003560e01c80636323e980116100595780636323e980146101bf57806384bd5a13146101db57806387ceff091461020657806396f979d214610231578063c9773059146102745761008f565b80620e43d3146100945780623f198c146100d15780631370d847146100fc578063339f36601461013f57806338966b751461017c575b600080fd5b3480156100a057600080fd5b506100bb60048036038101906100b69190611a17565b6102b1565b6040516100c89190611b54565b60405180910390f35b3480156100dd57600080fd5b506100e661036b565b6040516100f39190611b54565b60405180910390f35b34801561010857600080fd5b50610123600480360381019061011e9190611b6f565b610371565b6040516101369796959493929190611c1b565b60405180910390f35b34801561014b57600080fd5b5061016660048036038101906101619190611cad565b61066b565b6040516101739190611fd4565b60405180910390f35b34801561018857600080fd5b506101a3600480360381019061019e9190611b6f565b610b24565b6040516101b69796959493929190611c1b565b60405180910390f35b6101d960048036038101906101d49190611b6f565b610e0e565b005b3480156101e757600080fd5b506101f06110a5565b6040516101fd9190611b54565b60405180910390f35b34801561021257600080fd5b5061021b6110ab565b6040516102289190611b54565b60405180910390f35b34801561023d57600080fd5b5061025860048036038101906102539190611b6f565b6110b3565b60405161026b9796959493929190611c1b565b60405180910390f35b34801561028057600080fd5b5061029b60048036038101906102969190611b6f565b61139d565b6040516102a89190612011565b60405180910390f35b60008060008060025481526020019081526020016000209050888160000190816102db9190612238565b50878160010190816102ed9190612238565b50868160020190816102ff9190612238565b50858160030190816103119190612238565b50848160040190816103239190612238565b508381600501819055508281600601819055506002600081548092919061034990612339565b9190505550600160025461035d9190612381565b915050979650505050505050565b60035481565b6004818154811061038157600080fd5b90600052602060002090600802016000915090508060000180546103a49061205b565b80601f01602080910402602001604051908101604052809291908181526020018280546103d09061205b565b801561041d5780601f106103f25761010080835404028352916020019161041d565b820191906000526020600020905b81548152906001019060200180831161040057829003601f168201915b5050505050908060010180546104329061205b565b80601f016020809104026020016040519081016040528092919081815260200182805461045e9061205b565b80156104ab5780601f10610480576101008083540402835291602001916104ab565b820191906000526020600020905b81548152906001019060200180831161048e57829003601f168201915b5050505050908060020180546104c09061205b565b80601f01602080910402602001604051908101604052809291908181526020018280546104ec9061205b565b80156105395780601f1061050e57610100808354040283529160200191610539565b820191906000526020600020905b81548152906001019060200180831161051c57829003601f168201915b50505050509080600301805461054e9061205b565b80601f016020809104026020016040519081016040528092919081815260200182805461057a9061205b565b80156105c75780601f1061059c576101008083540402835291602001916105c7565b820191906000526020600020905b8154815290600101906020018083116105aa57829003601f168201915b5050505050908060040180546105dc9061205b565b80601f01602080910402602001604051908101604052809291908181526020018280546106089061205b565b80156106555780601f1061062a57610100808354040283529160200191610655565b820191906000526020600020905b81548152906001019060200180831161063857829003601f168201915b5050505050908060050154908060060154905087565b6060600060025467ffffffffffffffff81111561068b5761068a6118b6565b5b6040519080825280602002602001820160405280156106c457816020015b6106b16116c7565b8152602001906001900390816106a95790505b5090506000805b600254811015610b1657846040516020016106e691906123f1565b60405160208183030381529060405280519060200120600080838152602001908152602001600020600301604051602001610721919061248b565b6040516020818303038152906040528051906020012003610b03576000808281526020019081526020016000206040518061010001604052908160008201805461076a9061205b565b80601f01602080910402602001604051908101604052809291908181526020018280546107969061205b565b80156107e35780601f106107b8576101008083540402835291602001916107e3565b820191906000526020600020905b8154815290600101906020018083116107c657829003601f168201915b505050505081526020016001820180546107fc9061205b565b80601f01602080910402602001604051908101604052809291908181526020018280546108289061205b565b80156108755780601f1061084a57610100808354040283529160200191610875565b820191906000526020600020905b81548152906001019060200180831161085857829003601f168201915b5050505050815260200160028201805461088e9061205b565b80601f01602080910402602001604051908101604052809291908181526020018280546108ba9061205b565b80156109075780601f106108dc57610100808354040283529160200191610907565b820191906000526020600020905b8154815290600101906020018083116108ea57829003601f168201915b505050505081526020016003820180546109209061205b565b80601f016020809104026020016040519081016040528092919081815260200182805461094c9061205b565b80156109995780601f1061096e57610100808354040283529160200191610999565b820191906000526020600020905b81548152906001019060200180831161097c57829003601f168201915b505050505081526020016004820180546109b29061205b565b80601f01602080910402602001604051908101604052809291908181526020018280546109de9061205b565b8015610a2b5780601f10610a0057610100808354040283529160200191610a2b565b820191906000526020600020905b815481529060010190602001808311610a0e57829003601f168201915b50505050508152602001600582015481526020016006820154815260200160078201805480602002602001604051908101604052809291908181526020018280548015610acd57602002820191906000526020600020905b8160009054906101000a900473ffffffffffffffffffffffffffffffffffffffff1673ffffffffffffffffffffffffffffffffffffffff1681526020019060010190808311610a83575b505050505081525050838381518110610ae957610ae86124a2565b5b60200260200101819052508180610aff90612339565b9250505b8080610b0e90612339565b9150506106cb565b508082528192505050919050565b6001602052806000526040600020600091509050806000018054610b479061205b565b80601f0160208091040260200160405190810160405280929190818152602001828054610b739061205b565b8015610bc05780601f10610b9557610100808354040283529160200191610bc0565b820191906000526020600020905b815481529060010190602001808311610ba357829003601f168201915b505050505090806001018054610bd59061205b565b80601f0160208091040260200160405190810160405280929190818152602001828054610c019061205b565b8015610c4e5780601f10610c2357610100808354040283529160200191610c4e565b820191906000526020600020905b815481529060010190602001808311610c3157829003601f168201915b505050505090806002018054610c639061205b565b80601f0160208091040260200160405190810160405280929190818152602001828054610c8f9061205b565b8015610cdc5780601f10610cb157610100808354040283529160200191610cdc565b820191906000526020600020905b815481529060010190602001808311610cbf57829003601f168201915b505050505090806003018054610cf19061205b565b80601f0160208091040260200160405190810160405280929190818152602001828054610d1d9061205b565b8015610d6a5780601f10610d3f57610100808354040283529160200191610d6a565b820191906000526020600020905b815481529060010190602001808311610d4d57829003601f168201915b505050505090806004018054610d7f9061205b565b80601f0160208091040260200160405190810160405280929190818152602001828054610dab9061205b565b8015610df85780601f10610dcd57610100808354040283529160200191610df8565b820191906000526020600020905b815481529060010190602001808311610ddb57829003601f168201915b5050505050908060050154908060060154905087565b60008060008381526020019081526020016000209050610e2e82336113f1565b15610e6e576040517f08c379a0000000000000000000000000000000000000000000000000000000008152600401610e6590612543565b60405180910390fd5b80600701339080600181540180825580915050600190039060005260206000200160009091909190916101000a81548173ffffffffffffffffffffffffffffffffffffffff021916908373ffffffffffffffffffffffffffffffffffffffff160217905550610edc826114b8565b6110a157600481908060018154018082558091505060019003906000526020600020906008020160009091909190915060008201816000019081610f209190612579565b5060018201816001019081610f359190612579565b5060028201816002019081610f4a9190612579565b5060038201816003019081610f5f9190612579565b5060048201816004019081610f749190612579565b5060058201548160050155600682015481600601556007820181600701908054610f9f92919061170c565b505050610fab8261150c565b6004600081548110610fc057610fbf6124a2565b5b906000526020600020906008020160016000600354815260200190815260200160002060008201816000019081610ff79190612579565b506001820181600101908161100c9190612579565b50600282018160020190816110219190612579565b50600382018160030190816110369190612579565b506004820181600401908161104b9190612579565b506005820154816005015560068201548160060155600782018160070190805461107692919061170c565b509050506003600081548092919061108d90612339565b9190505550600460006110a0919061175e565b5b5050565b60025481565b600042905090565b60006020528060005260406000206000915090508060000180546110d69061205b565b80601f01602080910402602001604051908101604052809291908181526020018280546111029061205b565b801561114f5780601f106111245761010080835404028352916020019161114f565b820191906000526020600020905b81548152906001019060200180831161113257829003601f168201915b5050505050908060010180546111649061205b565b80601f01602080910402602001604051908101604052809291908181526020018280546111909061205b565b80156111dd5780601f106111b2576101008083540402835291602001916111dd565b820191906000526020600020905b8154815290600101906020018083116111c057829003601f168201915b5050505050908060020180546111f29061205b565b80601f016020809104026020016040519081016040528092919081815260200182805461121e9061205b565b801561126b5780601f106112405761010080835404028352916020019161126b565b820191906000526020600020905b81548152906001019060200180831161124e57829003601f168201915b5050505050908060030180546112809061205b565b80601f01602080910402602001604051908101604052809291908181526020018280546112ac9061205b565b80156112f95780601f106112ce576101008083540402835291602001916112f9565b820191906000526020600020905b8154815290600101906020018083116112dc57829003601f168201915b50505050509080600401805461130e9061205b565b80601f016020809104026020016040519081016040528092919081815260200182805461133a9061205b565b80156113875780601f1061135c57610100808354040283529160200191611387565b820191906000526020600020905b81548152906001019060200180831161136a57829003601f168201915b5050505050908060050154908060060154905087565b60008060008381526020019081526020016000206005015442101580156113d95750600080838152602001908152602001600020600601544211155b156113e757600190506113ec565b600090505b919050565b600080600080858152602001908152602001600020905060005b81600701805490508110156114ab578373ffffffffffffffffffffffffffffffffffffffff16826007018281548110611447576114466124a2565b5b9060005260206000200160009054906101000a900473ffffffffffffffffffffffffffffffffffffffff1673ffffffffffffffffffffffffffffffffffffffff1603611498576001925050506114b2565b80806114a390612339565b91505061140b565b5060009150505b92915050565b60008060008381526020019081526020016000206005015442101580156114f45750600080838152602001908152602001600020600601544211155b156115025760019050611507565b600090505b919050565b6002548110611550576040517f08c379a0000000000000000000000000000000000000000000000000000000008152600401611547906126ad565b60405180910390fd5b60008060016002546115629190612381565b8152602001908152602001600020600080838152602001908152602001600020600082018160000190816115969190612579565b50600182018160010190816115ab9190612579565b50600282018160020190816115c09190612579565b50600382018160030190816115d59190612579565b50600482018160040190816115ea9190612579565b506005820154816005015560068201548160060155600782018160070190805461161592919061170c565b50905050600080600160025461162b9190612381565b81526020019081526020016000206000808201600061164a9190611782565b60018201600061165a9190611782565b60028201600061166a9190611782565b60038201600061167a9190611782565b60048201600061168a9190611782565b600582016000905560068201600090556007820160006116aa91906117c2565b5050600260008154809291906116bf906126cd565b919050555050565b60405180610100016040528060608152602001606081526020016060815260200160608152602001606081526020016000815260200160008152602001606081525090565b82805482825590600052602060002090810192821561174d5760005260206000209182015b8281111561174c578254825591600101919060010190611731565b5b50905061175a91906117e3565b5090565b508054600082556008029060005260206000209081019061177f9190611800565b50565b50805461178e9061205b565b6000825580601f106117a057506117bf565b601f0160209004906000526020600020908101906117be91906117e3565b5b50565b50805460008255906000526020600020908101906117e091906117e3565b50565b5b808211156117fc5760008160009055506001016117e4565b5090565b5b80821115611883576000808201600061181a9190611782565b60018201600061182a9190611782565b60028201600061183a9190611782565b60038201600061184a9190611782565b60048201600061185a9190611782565b6005820160009055600682016000905560078201600061187a91906117c2565b50600801611801565b5090565b6000604051905090565b600080fd5b600080fd5b600080fd5b600080fd5b6000601f19601f8301169050919050565b7f4e487b7100000000000000000000000000000000000000000000000000000000600052604160045260246000fd5b6118ee826118a5565b810181811067ffffffffffffffff8211171561190d5761190c6118b6565b5b80604052505050565b6000611920611887565b905061192c82826118e5565b919050565b600067ffffffffffffffff82111561194c5761194b6118b6565b5b611955826118a5565b9050602081019050919050565b82818337600083830152505050565b600061198461197f84611931565b611916565b9050828152602081018484840111156119a05761199f6118a0565b5b6119ab848285611962565b509392505050565b600082601f8301126119c8576119c761189b565b5b81356119d8848260208601611971565b91505092915050565b6000819050919050565b6119f4816119e1565b81146119ff57600080fd5b50565b600081359050611a11816119eb565b92915050565b600080600080600080600060e0888a031215611a3657611a35611891565b5b600088013567ffffffffffffffff811115611a5457611a53611896565b5b611a608a828b016119b3565b975050602088013567ffffffffffffffff811115611a8157611a80611896565b5b611a8d8a828b016119b3565b965050604088013567ffffffffffffffff811115611aae57611aad611896565b5b611aba8a828b016119b3565b955050606088013567ffffffffffffffff811115611adb57611ada611896565b5b611ae78a828b016119b3565b945050608088013567ffffffffffffffff811115611b0857611b07611896565b5b611b148a828b016119b3565b93505060a0611b258a828b01611a02565b92505060c0611b368a828b01611a02565b91505092959891949750929550565b611b4e816119e1565b82525050565b6000602082019050611b696000830184611b45565b92915050565b600060208284031215611b8557611b84611891565b5b6000611b9384828501611a02565b91505092915050565b600081519050919050565b600082825260208201905092915050565b60005b83811015611bd6578082015181840152602081019050611bbb565b60008484015250505050565b6000611bed82611b9c565b611bf78185611ba7565b9350611c07818560208601611bb8565b611c10816118a5565b840191505092915050565b600060e0820190508181036000830152611c35818a611be2565b90508181036020830152611c498189611be2565b90508181036040830152611c5d8188611be2565b90508181036060830152611c718187611be2565b90508181036080830152611c858186611be2565b9050611c9460a0830185611b45565b611ca160c0830184611b45565b98975050505050505050565b600060208284031215611cc357611cc2611891565b5b600082013567ffffffffffffffff811115611ce157611ce0611896565b5b611ced848285016119b3565b91505092915050565b600081519050919050565b600082825260208201905092915050565b6000819050602082019050919050565b600082825260208201905092915050565b6000611d3e82611b9c565b611d488185611d22565b9350611d58818560208601611bb8565b611d61816118a5565b840191505092915050565b611d75816119e1565b82525050565b600081519050919050565b600082825260208201905092915050565b6000819050602082019050919050565b600073ffffffffffffffffffffffffffffffffffffffff82169050919050565b6000611dd282611da7565b9050919050565b611de281611dc7565b82525050565b6000611df48383611dd9565b60208301905092915050565b6000602082019050919050565b6000611e1882611d7b565b611e228185611d86565b9350611e2d83611d97565b8060005b83811015611e5e578151611e458882611de8565b9750611e5083611e00565b925050600181019050611e31565b5085935050505092915050565b6000610100830160008301518482036000860152611e898282611d33565b91505060208301518482036020860152611ea38282611d33565b91505060408301518482036040860152611ebd8282611d33565b91505060608301518482036060860152611ed78282611d33565b91505060808301518482036080860152611ef18282611d33565b91505060a0830151611f0660a0860182611d6c565b5060c0830151611f1960c0860182611d6c565b5060e083015184820360e0860152611f318282611e0d565b9150508091505092915050565b6000611f4a8383611e6b565b905092915050565b6000602082019050919050565b6000611f6a82611cf6565b611f748185611d01565b935083602082028501611f8685611d12565b8060005b85811015611fc25784840389528151611fa38582611f3e565b9450611fae83611f52565b925060208a01995050600181019050611f8a565b50829750879550505050505092915050565b60006020820190508181036000830152611fee8184611f5f565b905092915050565b60008115159050919050565b61200b81611ff6565b82525050565b60006020820190506120266000830184612002565b92915050565b7f4e487b7100000000000000000000000000000000000000000000000000000000600052602260045260246000fd5b6000600282049050600182168061207357607f821691505b6020821081036120865761208561202c565b5b50919050565b60008190508160005260206000209050919050565b60006020601f8301049050919050565b600082821b905092915050565b6000600883026120ee7fffffffffffffffffffffffffffffffffffffffffffffffffffffffffffffffff826120b1565b6120f886836120b1565b95508019841693508086168417925050509392505050565b6000819050919050565b600061213561213061212b846119e1565b612110565b6119e1565b9050919050565b6000819050919050565b61214f8361211a565b61216361215b8261213c565b8484546120be565b825550505050565b600090565b61217861216b565b612183818484612146565b505050565b5b818110156121a75761219c600082612170565b600181019050612189565b5050565b601f8211156121ec576121bd8161208c565b6121c6846120a1565b810160208510156121d5578190505b6121e96121e1856120a1565b830182612188565b50505b505050565b600082821c905092915050565b600061220f600019846008026121f1565b1980831691505092915050565b600061222883836121fe565b9150826002028217905092915050565b61224182611b9c565b67ffffffffffffffff81111561225a576122596118b6565b5b612264825461205b565b61226f8282856121ab565b600060209050601f8311600181146122a25760008415612290578287015190505b61229a858261221c565b865550612302565b601f1984166122b08661208c565b60005b828110156122d8578489015182556001820191506020850194506020810190506122b3565b868310156122f557848901516122f1601f8916826121fe565b8355505b6001600288020188555050505b505050505050565b7f4e487b7100000000000000000000000000000000000000000000000000000000600052601160045260246000fd5b6000612344826119e1565b91507fffffffffffffffffffffffffffffffffffffffffffffffffffffffffffffffff82036123765761237561230a565b5b600182019050919050565b600061238c826119e1565b9150612397836119e1565b92508282039050818111156123af576123ae61230a565b5b92915050565b600081905092915050565b60006123cb82611b9c565b6123d581856123b5565b93506123e5818560208601611bb8565b80840191505092915050565b60006123fd82846123c0565b915081905092915050565b600081546124158161205b565b61241f81866123b5565b9450600182166000811461243a576001811461244f57612482565b60ff1983168652811515820286019350612482565b6124588561208c565b60005b8381101561247a5781548189015260018201915060208101905061245b565b838801955050505b50505092915050565b60006124978284612408565b915081905092915050565b7f4e487b7100000000000000000000000000000000000000000000000000000000600052603260045260246000fd5b7f596f75206861766520616c726561647920617474656e6465642074686973206360008201527f6c6173732e000000000000000000000000000000000000000000000000000000602082015250565b600061252d602583611ba7565b9150612538826124d1565b604082019050919050565b6000602082019050818103600083015261255c81612520565b9050919050565b6000815490506125728161205b565b9050919050565b81810361258757505061265f565b61259082612563565b67ffffffffffffffff8111156125a9576125a86118b6565b5b6125b3825461205b565b6125be8282856121ab565b6000601f8311600181146125ed57600084156125db578287015490505b6125e5858261221c565b865550612658565b601f1984166125fb8761208c565b96506126068661208c565b60005b8281101561262e57848901548255600182019150600185019450602081019050612609565b8683101561264b5784890154612647601f8916826121fe565b8355505b6001600288020188555050505b5050505050505b565b7f496e76616c696420696e64657800000000000000000000000000000000000000600082015250565b6000612697600d83611ba7565b91506126a282612661565b602082019050919050565b600060208201905081810360008301526126c68161268a565b9050919050565b60006126d8826119e1565b9150600082036126eb576126ea61230a565b5b60018203905091905056fea2646970667358221220f38d37eb42052e9c95907b6f74a5c311af4e4d80273d6b3fefc1f1685316e6d964736f6c63430008130033",
  "linkReferences": {},
  "deployedLinkReferences": {}
}