{
  "_format": "hh-sol-artifact-1",
  "contractName": "CourseAttendance",
  "sourceName": "contracts/CourseAttendance.sol",
  "abi": [
    {
      "inputs": [
        {
          "internalType": "uint256",
          "name": "",
          "type": "uint256"
        }
      ],
      "name": "courses",
      "outputs": [
        {
          "internalType": "string",
          "name": "lecturer",
          "type": "string"
        },
        {
          "internalType": "string",
          "name": "courseName",
          "type": "string"
        },
        {
          "internalType": "string",
          "name": "description",
          "type": "string"
        },
        {
          "internalType": "string",
          "name": "department",
          "type": "string"
        },
        {
          "internalType": "uint256",
          "name": "startTime",
          "type": "uint256"
        },
        {
          "internalType": "uint256",
          "name": "endTime",
          "type": "uint256"
        },
        {
          "internalType": "uint256",
          "name": "date",
          "type": "uint256"
        },
        {
          "internalType": "string",
          "name": "image",
          "type": "string"
        }
      ],
      "stateMutability": "view",
      "type": "function"
    },
    {
      "inputs": [
        {
          "internalType": "string",
          "name": "_lecturer",
          "type": "string"
        },
        {
          "internalType": "string",
          "name": "_courseName",
          "type": "string"
        },
        {
          "internalType": "string",
          "name": "_description",
          "type": "string"
        },
        {
          "internalType": "string",
          "name": "_department",
          "type": "string"
        },
        {
          "internalType": "uint256",
          "name": "_startTime",
          "type": "uint256"
        },
        {
          "internalType": "uint256",
          "name": "_endTime",
          "type": "uint256"
        },
        {
          "internalType": "uint256",
          "name": "_date",
          "type": "uint256"
        },
        {
          "internalType": "string",
          "name": "_image",
          "type": "string"
        }
      ],
      "name": "createCourse",
      "outputs": [
        {
          "internalType": "uint256",
          "name": "",
          "type": "uint256"
        }
      ],
      "stateMutability": "nonpayable",
      "type": "function"
    },
    {
      "inputs": [
        {
          "internalType": "uint256",
          "name": "",
          "type": "uint256"
        }
      ],
      "name": "fullCourses",
      "outputs": [
        {
          "internalType": "string",
          "name": "lecturer",
          "type": "string"
        },
        {
          "internalType": "string",
          "name": "courseName",
          "type": "string"
        },
        {
          "internalType": "string",
          "name": "description",
          "type": "string"
        },
        {
          "internalType": "string",
          "name": "department",
          "type": "string"
        },
        {
          "internalType": "uint256",
          "name": "startTime",
          "type": "uint256"
        },
        {
          "internalType": "uint256",
          "name": "endTime",
          "type": "uint256"
        },
        {
          "internalType": "uint256",
          "name": "date",
          "type": "uint256"
        },
        {
          "internalType": "string",
          "name": "image",
          "type": "string"
        }
      ],
      "stateMutability": "view",
      "type": "function"
    },
    {
      "inputs": [
        {
          "internalType": "string",
          "name": "_department",
          "type": "string"
        }
      ],
      "name": "getCourses",
      "outputs": [
        {
          "components": [
            {
              "internalType": "string",
              "name": "lecturer",
              "type": "string"
            },
            {
              "internalType": "string",
              "name": "courseName",
              "type": "string"
            },
            {
              "internalType": "string",
              "name": "description",
              "type": "string"
            },
            {
              "internalType": "string",
              "name": "department",
              "type": "string"
            },
            {
              "internalType": "uint256",
              "name": "startTime",
              "type": "uint256"
            },
            {
              "internalType": "uint256",
              "name": "endTime",
              "type": "uint256"
            },
            {
              "internalType": "uint256",
              "name": "date",
              "type": "uint256"
            },
            {
              "internalType": "string",
              "name": "image",
              "type": "string"
            },
            {
              "internalType": "address[]",
              "name": "attendees",
              "type": "address[]"
            }
          ],
          "internalType": "struct CourseAttendance.Course[]",
          "name": "",
          "type": "tuple[]"
        }
      ],
      "stateMutability": "view",
      "type": "function"
    },
    {
      "inputs": [],
      "name": "numberofCourses",
      "outputs": [
        {
          "internalType": "uint256",
          "name": "",
          "type": "uint256"
        }
      ],
      "stateMutability": "view",
      "type": "function"
    },
    {
      "inputs": [],
      "name": "numberoffullCourses",
      "outputs": [
        {
          "internalType": "uint256",
          "name": "",
          "type": "uint256"
        }
      ],
      "stateMutability": "view",
      "type": "function"
    },
    {
      "inputs": [
        {
          "internalType": "uint256",
          "name": "",
          "type": "uint256"
        }
      ],
      "name": "tempCourses",
      "outputs": [
        {
          "internalType": "string",
          "name": "lecturer",
          "type": "string"
        },
        {
          "internalType": "string",
          "name": "courseName",
          "type": "string"
        },
        {
          "internalType": "string",
          "name": "description",
          "type": "string"
        },
        {
          "internalType": "string",
          "name": "department",
          "type": "string"
        },
        {
          "internalType": "uint256",
          "name": "startTime",
          "type": "uint256"
        },
        {
          "internalType": "uint256",
          "name": "endTime",
          "type": "uint256"
        },
        {
          "internalType": "uint256",
          "name": "date",
          "type": "uint256"
        },
        {
          "internalType": "string",
          "name": "image",
          "type": "string"
        }
      ],
      "stateMutability": "view",
      "type": "function"
    }
  ],
  "bytecode": "0x60806040526000600255600060035534801561001a57600080fd5b50611d048061002a6000396000f3fe608060405234801561001057600080fd5b506004361061007d5760003560e01c806339f9f6411161005b57806339f9f641146101075780635479b8d61461013e57806384bd5a131461016e57806396f979d21461018c5761007d565b80631370d8471461008257806331c57e85146100b9578063339f3660146100d7575b600080fd5b61009c600480360381019061009791906110cc565b6101c3565b6040516100b0989796959493929190611198565b60405180910390f35b6100c16104c3565b6040516100ce9190611239565b60405180910390f35b6100f160048036038101906100ec9190611389565b6104c9565b6040516100fe91906116c5565b60405180910390f35b610121600480360381019061011c91906110cc565b61098c565b604051610135989796959493929190611198565b60405180910390f35b610158600480360381019061015391906116e7565b610c7c565b6040516101659190611239565b60405180910390f35b610176610d40565b6040516101839190611239565b60405180910390f35b6101a660048036038101906101a191906110cc565b610d46565b6040516101ba989796959493929190611198565b60405180910390f35b600481815481106101d357600080fd5b90600052602060002090600902016000915090508060000180546101f690611858565b80601f016020809104026020016040519081016040528092919081815260200182805461022290611858565b801561026f5780601f106102445761010080835404028352916020019161026f565b820191906000526020600020905b81548152906001019060200180831161025257829003601f168201915b50505050509080600101805461028490611858565b80601f01602080910402602001604051908101604052809291908181526020018280546102b090611858565b80156102fd5780601f106102d2576101008083540402835291602001916102fd565b820191906000526020600020905b8154815290600101906020018083116102e057829003601f168201915b50505050509080600201805461031290611858565b80601f016020809104026020016040519081016040528092919081815260200182805461033e90611858565b801561038b5780601f106103605761010080835404028352916020019161038b565b820191906000526020600020905b81548152906001019060200180831161036e57829003601f168201915b5050505050908060030180546103a090611858565b80601f01602080910402602001604051908101604052809291908181526020018280546103cc90611858565b80156104195780601f106103ee57610100808354040283529160200191610419565b820191906000526020600020905b8154815290600101906020018083116103fc57829003601f168201915b50505050509080600401549080600501549080600601549080600701805461044090611858565b80601f016020809104026020016040519081016040528092919081815260200182805461046c90611858565b80156104b95780601f1061048e576101008083540402835291602001916104b9565b820191906000526020600020905b81548152906001019060200180831161049c57829003601f168201915b5050505050905088565b60035481565b6060600060025467ffffffffffffffff8111156104e9576104e861125e565b5b60405190808252806020026020018201604052801561052257816020015b61050f611036565b8152602001906001900390816105075790505b5090506000805b60025481101561097e578460405160200161054491906118c5565b6040516020818303038152906040528051906020012060008083815260200190815260200160002060030160405160200161057f9190611974565b604051602081830303815290604052805190602001200361096b57600080828152602001908152602001600020604051806101200160405290816000820180546105c890611858565b80601f01602080910402602001604051908101604052809291908181526020018280546105f490611858565b80156106415780601f1061061657610100808354040283529160200191610641565b820191906000526020600020905b81548152906001019060200180831161062457829003601f168201915b5050505050815260200160018201805461065a90611858565b80601f016020809104026020016040519081016040528092919081815260200182805461068690611858565b80156106d35780601f106106a8576101008083540402835291602001916106d3565b820191906000526020600020905b8154815290600101906020018083116106b657829003601f168201915b505050505081526020016002820180546106ec90611858565b80601f016020809104026020016040519081016040528092919081815260200182805461071890611858565b80156107655780601f1061073a57610100808354040283529160200191610765565b820191906000526020600020905b81548152906001019060200180831161074857829003601f168201915b5050505050815260200160038201805461077e90611858565b80601f01602080910402602001604051908101604052809291908181526020018280546107aa90611858565b80156107f75780601f106107cc576101008083540402835291602001916107f7565b820191906000526020600020905b8154815290600101906020018083116107da57829003601f168201915b5050505050815260200160048201548152602001600582015481526020016006820154815260200160078201805461082e90611858565b80601f016020809104026020016040519081016040528092919081815260200182805461085a90611858565b80156108a75780601f1061087c576101008083540402835291602001916108a7565b820191906000526020600020905b81548152906001019060200180831161088a57829003601f168201915b505050505081526020016008820180548060200260200160405190810160405280929190818152602001828054801561093557602002820191906000526020600020905b8160009054906101000a900473ffffffffffffffffffffffffffffffffffffffff1673ffffffffffffffffffffffffffffffffffffffff16815260200190600101908083116108eb575b5050505050815250508383815181106109515761095061198b565b5b60200260200101819052508180610967906119e9565b9250505b8080610976906119e9565b915050610529565b508082528192505050919050565b60016020528060005260406000206000915090508060000180546109af90611858565b80601f01602080910402602001604051908101604052809291908181526020018280546109db90611858565b8015610a285780601f106109fd57610100808354040283529160200191610a28565b820191906000526020600020905b815481529060010190602001808311610a0b57829003601f168201915b505050505090806001018054610a3d90611858565b80601f0160208091040260200160405190810160405280929190818152602001828054610a6990611858565b8015610ab65780601f10610a8b57610100808354040283529160200191610ab6565b820191906000526020600020905b815481529060010190602001808311610a9957829003601f168201915b505050505090806002018054610acb90611858565b80601f0160208091040260200160405190810160405280929190818152602001828054610af790611858565b8015610b445780601f10610b1957610100808354040283529160200191610b44565b820191906000526020600020905b815481529060010190602001808311610b2757829003601f168201915b505050505090806003018054610b5990611858565b80601f0160208091040260200160405190810160405280929190818152602001828054610b8590611858565b8015610bd25780601f10610ba757610100808354040283529160200191610bd2565b820191906000526020600020905b815481529060010190602001808311610bb557829003601f168201915b505050505090806004015490806005015490806006015490806007018054610bf990611858565b80601f0160208091040260200160405190810160405280929190818152602001828054610c2590611858565b8015610c725780601f10610c4757610100808354040283529160200191610c72565b820191906000526020600020905b815481529060010190602001808311610c5557829003601f168201915b5050505050905088565b6000806000806002548152602001908152602001600020905089816000019081610ca69190611bc8565b5088816001019081610cb89190611bc8565b5087816002019081610cca9190611bc8565b5086816003019081610cdc9190611bc8565b5085816004018190555084816005018190555083816006018190555082816007019081610d099190611bc8565b5060026000815480929190610d1d906119e9565b91905055506001600254610d319190611c9a565b91505098975050505050505050565b60025481565b6000602052806000526040600020600091509050806000018054610d6990611858565b80601f0160208091040260200160405190810160405280929190818152602001828054610d9590611858565b8015610de25780601f10610db757610100808354040283529160200191610de2565b820191906000526020600020905b815481529060010190602001808311610dc557829003601f168201915b505050505090806001018054610df790611858565b80601f0160208091040260200160405190810160405280929190818152602001828054610e2390611858565b8015610e705780601f10610e4557610100808354040283529160200191610e70565b820191906000526020600020905b815481529060010190602001808311610e5357829003601f168201915b505050505090806002018054610e8590611858565b80601f0160208091040260200160405190810160405280929190818152602001828054610eb190611858565b8015610efe5780601f10610ed357610100808354040283529160200191610efe565b820191906000526020600020905b815481529060010190602001808311610ee157829003601f168201915b505050505090806003018054610f1390611858565b80601f0160208091040260200160405190810160405280929190818152602001828054610f3f90611858565b8015610f8c5780601f10610f6157610100808354040283529160200191610f8c565b820191906000526020600020905b815481529060010190602001808311610f6f57829003601f168201915b505050505090806004015490806005015490806006015490806007018054610fb390611858565b80601f0160208091040260200160405190810160405280929190818152602001828054610fdf90611858565b801561102c5780601f106110015761010080835404028352916020019161102c565b820191906000526020600020905b81548152906001019060200180831161100f57829003601f168201915b5050505050905088565b6040518061012001604052806060815260200160608152602001606081526020016060815260200160008152602001600081526020016000815260200160608152602001606081525090565b6000604051905090565b600080fd5b600080fd5b6000819050919050565b6110a981611096565b81146110b457600080fd5b50565b6000813590506110c6816110a0565b92915050565b6000602082840312156110e2576110e161108c565b5b60006110f0848285016110b7565b91505092915050565b600081519050919050565b600082825260208201905092915050565b60005b83811015611133578082015181840152602081019050611118565b60008484015250505050565b6000601f19601f8301169050919050565b600061115b826110f9565b6111658185611104565b9350611175818560208601611115565b61117e8161113f565b840191505092915050565b61119281611096565b82525050565b60006101008201905081810360008301526111b3818b611150565b905081810360208301526111c7818a611150565b905081810360408301526111db8189611150565b905081810360608301526111ef8188611150565b90506111fe6080830187611189565b61120b60a0830186611189565b61121860c0830185611189565b81810360e083015261122a8184611150565b90509998505050505050505050565b600060208201905061124e6000830184611189565b92915050565b600080fd5b600080fd5b7f4e487b7100000000000000000000000000000000000000000000000000000000600052604160045260246000fd5b6112968261113f565b810181811067ffffffffffffffff821117156112b5576112b461125e565b5b80604052505050565b60006112c8611082565b90506112d4828261128d565b919050565b600067ffffffffffffffff8211156112f4576112f361125e565b5b6112fd8261113f565b9050602081019050919050565b82818337600083830152505050565b600061132c611327846112d9565b6112be565b90508281526020810184848401111561134857611347611259565b5b61135384828561130a565b509392505050565b600082601f8301126113705761136f611254565b5b8135611380848260208601611319565b91505092915050565b60006020828403121561139f5761139e61108c565b5b600082013567ffffffffffffffff8111156113bd576113bc611091565b5b6113c98482850161135b565b91505092915050565b600081519050919050565b600082825260208201905092915050565b6000819050602082019050919050565b600082825260208201905092915050565b600061141a826110f9565b61142481856113fe565b9350611434818560208601611115565b61143d8161113f565b840191505092915050565b61145181611096565b82525050565b600081519050919050565b600082825260208201905092915050565b6000819050602082019050919050565b600073ffffffffffffffffffffffffffffffffffffffff82169050919050565b60006114ae82611483565b9050919050565b6114be816114a3565b82525050565b60006114d083836114b5565b60208301905092915050565b6000602082019050919050565b60006114f482611457565b6114fe8185611462565b935061150983611473565b8060005b8381101561153a57815161152188826114c4565b975061152c836114dc565b92505060018101905061150d565b5085935050505092915050565b6000610120830160008301518482036000860152611565828261140f565b9150506020830151848203602086015261157f828261140f565b91505060408301518482036040860152611599828261140f565b915050606083015184820360608601526115b3828261140f565b91505060808301516115c86080860182611448565b5060a08301516115db60a0860182611448565b5060c08301516115ee60c0860182611448565b5060e083015184820360e0860152611606828261140f565b91505061010083015184820361010086015261162282826114e9565b9150508091505092915050565b600061163b8383611547565b905092915050565b6000602082019050919050565b600061165b826113d2565b61166581856113dd565b935083602082028501611677856113ee565b8060005b858110156116b35784840389528151611694858261162f565b945061169f83611643565b925060208a0199505060018101905061167b565b50829750879550505050505092915050565b600060208201905081810360008301526116df8184611650565b905092915050565b600080600080600080600080610100898b0312156117085761170761108c565b5b600089013567ffffffffffffffff81111561172657611725611091565b5b6117328b828c0161135b565b985050602089013567ffffffffffffffff81111561175357611752611091565b5b61175f8b828c0161135b565b975050604089013567ffffffffffffffff8111156117805761177f611091565b5b61178c8b828c0161135b565b965050606089013567ffffffffffffffff8111156117ad576117ac611091565b5b6117b98b828c0161135b565b95505060806117ca8b828c016110b7565b94505060a06117db8b828c016110b7565b93505060c06117ec8b828c016110b7565b92505060e089013567ffffffffffffffff81111561180d5761180c611091565b5b6118198b828c0161135b565b9150509295985092959890939650565b7f4e487b7100000000000000000000000000000000000000000000000000000000600052602260045260246000fd5b6000600282049050600182168061187057607f821691505b60208210810361188357611882611829565b5b50919050565b600081905092915050565b600061189f826110f9565b6118a98185611889565b93506118b9818560208601611115565b80840191505092915050565b60006118d18284611894565b915081905092915050565b60008190508160005260206000209050919050565b600081546118fe81611858565b6119088186611889565b9450600182166000811461192357600181146119385761196b565b60ff198316865281151582028601935061196b565b611941856118dc565b60005b8381101561196357815481890152600182019150602081019050611944565b838801955050505b50505092915050565b600061198082846118f1565b915081905092915050565b7f4e487b7100000000000000000000000000000000000000000000000000000000600052603260045260246000fd5b7f4e487b7100000000000000000000000000000000000000000000000000000000600052601160045260246000fd5b60006119f482611096565b91507fffffffffffffffffffffffffffffffffffffffffffffffffffffffffffffffff8203611a2657611a256119ba565b5b600182019050919050565b60006020601f8301049050919050565b600082821b905092915050565b600060088302611a7e7fffffffffffffffffffffffffffffffffffffffffffffffffffffffffffffffff82611a41565b611a888683611a41565b95508019841693508086168417925050509392505050565b6000819050919050565b6000611ac5611ac0611abb84611096565b611aa0565b611096565b9050919050565b6000819050919050565b611adf83611aaa565b611af3611aeb82611acc565b848454611a4e565b825550505050565b600090565b611b08611afb565b611b13818484611ad6565b505050565b5b81811015611b3757611b2c600082611b00565b600181019050611b19565b5050565b601f821115611b7c57611b4d816118dc565b611b5684611a31565b81016020851015611b65578190505b611b79611b7185611a31565b830182611b18565b50505b505050565b600082821c905092915050565b6000611b9f60001984600802611b81565b1980831691505092915050565b6000611bb88383611b8e565b9150826002028217905092915050565b611bd1826110f9565b67ffffffffffffffff811115611bea57611be961125e565b5b611bf48254611858565b611bff828285611b3b565b600060209050601f831160018114611c325760008415611c20578287015190505b611c2a8582611bac565b865550611c92565b601f198416611c40866118dc565b60005b82811015611c6857848901518255600182019150602085019450602081019050611c43565b86831015611c855784890151611c81601f891682611b8e565b8355505b6001600288020188555050505b505050505050565b6000611ca582611096565b9150611cb083611096565b9250828203905081811115611cc857611cc76119ba565b5b9291505056fea2646970667358221220ec3996fc8b4d1f1f2bfe1cb3f9d4acfd531a7464dbbd5ddc96db13164149550e64736f6c63430008130033",
  "linkReferences": {},
  "deployedLinkReferences": {}
}