{
  "_format": "hh-sol-artifact-1",
  "contractName": "CourseAttendance",
  "sourceName": "contracts/CourseAttendance.sol",
  "abi": [
    {
      "inputs": [
        {
          "internalType": "uint256",
          "name": "_id",
          "type": "uint256"
        }
      ],
      "name": "attendCourse",
      "outputs": [],
      "stateMutability": "payable",
      "type": "function"
    },
    {
      "inputs": [
        {
          "internalType": "uint256",
          "name": "_id",
          "type": "uint256"
        }
      ],
      "name": "closeAttendance",
      "outputs": [],
      "stateMutability": "nonpayable",
      "type": "function"
    },
    {
      "inputs": [
        {
          "internalType": "uint256",
          "name": "",
          "type": "uint256"
        }
      ],
      "name": "closedCourses",
      "outputs": [
        {
          "internalType": "string",
          "name": "lecturer",
          "type": "string"
        },
        {
          "internalType": "string",
          "name": "courseName",
          "type": "string"
        },
        {
          "internalType": "string",
          "name": "description",
          "type": "string"
        },
        {
          "internalType": "string",
          "name": "department",
          "type": "string"
        },
        {
          "internalType": "string",
          "name": "courseCode",
          "type": "string"
        },
        {
          "internalType": "string",
          "name": "week",
          "type": "string"
        },
        {
          "internalType": "string",
          "name": "programLevel",
          "type": "string"
        }
      ],
      "stateMutability": "view",
      "type": "function"
    },
    {
      "inputs": [
        {
          "internalType": "uint256",
          "name": "",
          "type": "uint256"
        }
      ],
      "name": "courses",
      "outputs": [
        {
          "internalType": "string",
          "name": "lecturer",
          "type": "string"
        },
        {
          "internalType": "string",
          "name": "courseName",
          "type": "string"
        },
        {
          "internalType": "string",
          "name": "description",
          "type": "string"
        },
        {
          "internalType": "string",
          "name": "department",
          "type": "string"
        },
        {
          "internalType": "string",
          "name": "courseCode",
          "type": "string"
        },
        {
          "internalType": "string",
          "name": "week",
          "type": "string"
        },
        {
          "internalType": "string",
          "name": "programLevel",
          "type": "string"
        }
      ],
      "stateMutability": "view",
      "type": "function"
    },
    {
      "inputs": [
        {
          "internalType": "string",
          "name": "_lecturer",
          "type": "string"
        },
        {
          "internalType": "string",
          "name": "_courseName",
          "type": "string"
        },
        {
          "internalType": "string",
          "name": "_description",
          "type": "string"
        },
        {
          "internalType": "string",
          "name": "_department",
          "type": "string"
        },
        {
          "internalType": "string",
          "name": "_courseCode",
          "type": "string"
        },
        {
          "internalType": "string",
          "name": "_week",
          "type": "string"
        },
        {
          "internalType": "string",
          "name": "_programLevel",
          "type": "string"
        }
      ],
      "name": "createCourse",
      "outputs": [
        {
          "internalType": "uint256",
          "name": "",
          "type": "uint256"
        }
      ],
      "stateMutability": "nonpayable",
      "type": "function"
    },
    {
      "inputs": [],
      "name": "getAllClosedCourses",
      "outputs": [
        {
          "components": [
            {
              "internalType": "string",
              "name": "lecturer",
              "type": "string"
            },
            {
              "internalType": "string",
              "name": "courseName",
              "type": "string"
            },
            {
              "internalType": "string",
              "name": "description",
              "type": "string"
            },
            {
              "internalType": "string",
              "name": "department",
              "type": "string"
            },
            {
              "internalType": "string",
              "name": "courseCode",
              "type": "string"
            },
            {
              "internalType": "string",
              "name": "week",
              "type": "string"
            },
            {
              "internalType": "string",
              "name": "programLevel",
              "type": "string"
            },
            {
              "internalType": "address[]",
              "name": "attendees",
              "type": "address[]"
            }
          ],
          "internalType": "struct CourseAttendance.Course[]",
          "name": "",
          "type": "tuple[]"
        }
      ],
      "stateMutability": "view",
      "type": "function"
    },
    {
      "inputs": [],
      "name": "getAllCourses",
      "outputs": [
        {
          "components": [
            {
              "internalType": "string",
              "name": "lecturer",
              "type": "string"
            },
            {
              "internalType": "string",
              "name": "courseName",
              "type": "string"
            },
            {
              "internalType": "string",
              "name": "description",
              "type": "string"
            },
            {
              "internalType": "string",
              "name": "department",
              "type": "string"
            },
            {
              "internalType": "string",
              "name": "courseCode",
              "type": "string"
            },
            {
              "internalType": "string",
              "name": "week",
              "type": "string"
            },
            {
              "internalType": "string",
              "name": "programLevel",
              "type": "string"
            },
            {
              "internalType": "address[]",
              "name": "attendees",
              "type": "address[]"
            }
          ],
          "internalType": "struct CourseAttendance.Course[]",
          "name": "",
          "type": "tuple[]"
        }
      ],
      "stateMutability": "view",
      "type": "function"
    },
    {
      "inputs": [
        {
          "internalType": "uint256",
          "name": "_id",
          "type": "uint256"
        }
      ],
      "name": "getAttendees",
      "outputs": [
        {
          "internalType": "address[]",
          "name": "",
          "type": "address[]"
        }
      ],
      "stateMutability": "view",
      "type": "function"
    },
    {
      "inputs": [
        {
          "internalType": "uint256",
          "name": "_id",
          "type": "uint256"
        }
      ],
      "name": "getAttendeesForClosed",
      "outputs": [
        {
          "internalType": "address[]",
          "name": "",
          "type": "address[]"
        }
      ],
      "stateMutability": "view",
      "type": "function"
    },
    {
      "inputs": [
        {
          "internalType": "string",
          "name": "_department",
          "type": "string"
        },
        {
          "internalType": "string",
          "name": "_programLevel",
          "type": "string"
        }
      ],
      "name": "getClosedCourses",
      "outputs": [
        {
          "components": [
            {
              "internalType": "string",
              "name": "lecturer",
              "type": "string"
            },
            {
              "internalType": "string",
              "name": "courseName",
              "type": "string"
            },
            {
              "internalType": "string",
              "name": "description",
              "type": "string"
            },
            {
              "internalType": "string",
              "name": "department",
              "type": "string"
            },
            {
              "internalType": "string",
              "name": "courseCode",
              "type": "string"
            },
            {
              "internalType": "string",
              "name": "week",
              "type": "string"
            },
            {
              "internalType": "string",
              "name": "programLevel",
              "type": "string"
            },
            {
              "internalType": "address[]",
              "name": "attendees",
              "type": "address[]"
            }
          ],
          "internalType": "struct CourseAttendance.Course[]",
          "name": "",
          "type": "tuple[]"
        }
      ],
      "stateMutability": "view",
      "type": "function"
    },
    {
      "inputs": [
        {
          "internalType": "string",
          "name": "_department",
          "type": "string"
        },
        {
          "internalType": "string",
          "name": "_programLevel",
          "type": "string"
        }
      ],
      "name": "getCourses",
      "outputs": [
        {
          "components": [
            {
              "internalType": "string",
              "name": "lecturer",
              "type": "string"
            },
            {
              "internalType": "string",
              "name": "courseName",
              "type": "string"
            },
            {
              "internalType": "string",
              "name": "description",
              "type": "string"
            },
            {
              "internalType": "string",
              "name": "department",
              "type": "string"
            },
            {
              "internalType": "string",
              "name": "courseCode",
              "type": "string"
            },
            {
              "internalType": "string",
              "name": "week",
              "type": "string"
            },
            {
              "internalType": "string",
              "name": "programLevel",
              "type": "string"
            },
            {
              "internalType": "address[]",
              "name": "attendees",
              "type": "address[]"
            }
          ],
          "internalType": "struct CourseAttendance.Course[]",
          "name": "",
          "type": "tuple[]"
        }
      ],
      "stateMutability": "view",
      "type": "function"
    },
    {
      "inputs": [
        {
          "internalType": "uint256",
          "name": "_id",
          "type": "uint256"
        }
      ],
      "name": "getLecturer",
      "outputs": [
        {
          "internalType": "string",
          "name": "",
          "type": "string"
        }
      ],
      "stateMutability": "view",
      "type": "function"
    },
    {
      "inputs": [
        {
          "internalType": "uint256",
          "name": "_id",
          "type": "uint256"
        }
      ],
      "name": "getNumberOfAttendees",
      "outputs": [
        {
          "internalType": "uint256",
          "name": "",
          "type": "uint256"
        }
      ],
      "stateMutability": "view",
      "type": "function"
    },
    {
      "inputs": [
        {
          "internalType": "uint256",
          "name": "_id",
          "type": "uint256"
        }
      ],
      "name": "getNumberOfAttendeesforClosed",
      "outputs": [
        {
          "internalType": "uint256",
          "name": "",
          "type": "uint256"
        }
      ],
      "stateMutability": "view",
      "type": "function"
    },
    {
      "inputs": [],
      "name": "numberofCourses",
      "outputs": [
        {
          "internalType": "uint256",
          "name": "",
          "type": "uint256"
        }
      ],
      "stateMutability": "view",
      "type": "function"
    },
    {
      "inputs": [],
      "name": "numberofclosedCourses",
      "outputs": [
        {
          "internalType": "uint256",
          "name": "",
          "type": "uint256"
        }
      ],
      "stateMutability": "view",
      "type": "function"
    },
    {
      "inputs": [
        {
          "internalType": "uint256",
          "name": "",
          "type": "uint256"
        }
      ],
      "name": "tempCourses",
      "outputs": [
        {
          "internalType": "string",
          "name": "lecturer",
          "type": "string"
        },
        {
          "internalType": "string",
          "name": "courseName",
          "type": "string"
        },
        {
          "internalType": "string",
          "name": "description",
          "type": "string"
        },
        {
          "internalType": "string",
          "name": "department",
          "type": "string"
        },
        {
          "internalType": "string",
          "name": "courseCode",
          "type": "string"
        },
        {
          "internalType": "string",
          "name": "week",
          "type": "string"
        },
        {
          "internalType": "string",
          "name": "programLevel",
          "type": "string"
        }
      ],
      "stateMutability": "view",
      "type": "function"
    }
  ],
  "bytecode": "0x60806040526000600255600060035534801561001a57600080fd5b5061419e8061002a6000396000f3fe6080604052600436106100fd5760003560e01c80637d750c9a116100955780639e58d254116100645780639e58d25414610399578063a4d0acef146103d6578063d990dc3414610401578063e0c143771461043e578063f25003681461047b576100fd565b80637d750c9a146102b157806384bd5a13146102ee5780638597f54f1461031957806396f979d214610356576100fd565b8063199cf123116100d1578063199cf123146101d85780632edea9141461021557806338966b75146102525780636323e98014610295576100fd565b80623f198c1461010257806304e48bd11461012d5780630f6b9c92146101585780631370d84714610195575b600080fd5b34801561010e57600080fd5b506101176104a4565b6040516101249190613221565b60405180910390f35b34801561013957600080fd5b506101426104aa565b60405161014f919061355f565b60405180910390f35b34801561016457600080fd5b5061017f600480360381019061017a91906135c1565b6109fc565b60405161018c9190613221565b60405180910390f35b3480156101a157600080fd5b506101bc60048036038101906101b791906135c1565b610a1e565b6040516101cf9796959493929190613638565b60405180910390f35b3480156101e457600080fd5b506101ff60048036038101906101fa919061380d565b610e28565b60405161020c919061355f565b60405180910390f35b34801561022157600080fd5b5061023c6004803603810190610237919061380d565b61145e565b604051610249919061355f565b60405180910390f35b34801561025e57600080fd5b50610279600480360381019061027491906135c1565b611a97565b60405161028c9796959493929190613638565b60405180910390f35b6102af60048036038101906102aa91906135c1565b611e91565b005b3480156102bd57600080fd5b506102d860048036038101906102d391906135c1565b611f5a565b6040516102e591906138f4565b60405180910390f35b3480156102fa57600080fd5b50610303611ffe565b6040516103109190613221565b60405180910390f35b34801561032557600080fd5b50610340600480360381019061033b9190613916565b612004565b60405161034d9190613221565b60405180910390f35b34801561036257600080fd5b5061037d600480360381019061037891906135c1565b6120d0565b6040516103909796959493929190613638565b60405180910390f35b3480156103a557600080fd5b506103c060048036038101906103bb91906135c1565b6124ca565b6040516103cd9190613221565b60405180910390f35b3480156103e257600080fd5b506103eb6124ed565b6040516103f8919061355f565b60405180910390f35b34801561040d57600080fd5b50610428600480360381019061042391906135c1565b612a40565b6040516104359190613a7c565b60405180910390f35b34801561044a57600080fd5b50610465600480360381019061046091906135c1565b612ae7565b60405161047291906138f4565b60405180910390f35b34801561048757600080fd5b506104a2600480360381019061049d91906135c1565b612b8a565b005b60035481565b6060600060025467ffffffffffffffff8111156104ca576104c96136e2565b5b60405190808252806020026020018201604052801561050357816020015b6104f0613038565b8152602001906001900390816104e85790505b50905060005b6002548110156109f45760008060008381526020019081526020016000209050806040518061010001604052908160008201805461054690613acd565b80601f016020809104026020016040519081016040528092919081815260200182805461057290613acd565b80156105bf5780601f10610594576101008083540402835291602001916105bf565b820191906000526020600020905b8154815290600101906020018083116105a257829003601f168201915b505050505081526020016001820180546105d890613acd565b80601f016020809104026020016040519081016040528092919081815260200182805461060490613acd565b80156106515780601f1061062657610100808354040283529160200191610651565b820191906000526020600020905b81548152906001019060200180831161063457829003601f168201915b5050505050815260200160028201805461066a90613acd565b80601f016020809104026020016040519081016040528092919081815260200182805461069690613acd565b80156106e35780601f106106b8576101008083540402835291602001916106e3565b820191906000526020600020905b8154815290600101906020018083116106c657829003601f168201915b505050505081526020016003820180546106fc90613acd565b80601f016020809104026020016040519081016040528092919081815260200182805461072890613acd565b80156107755780601f1061074a57610100808354040283529160200191610775565b820191906000526020600020905b81548152906001019060200180831161075857829003601f168201915b5050505050815260200160048201805461078e90613acd565b80601f01602080910402602001604051908101604052809291908181526020018280546107ba90613acd565b80156108075780601f106107dc57610100808354040283529160200191610807565b820191906000526020600020905b8154815290600101906020018083116107ea57829003601f168201915b5050505050815260200160058201805461082090613acd565b80601f016020809104026020016040519081016040528092919081815260200182805461084c90613acd565b80156108995780601f1061086e57610100808354040283529160200191610899565b820191906000526020600020905b81548152906001019060200180831161087c57829003601f168201915b505050505081526020016006820180546108b290613acd565b80601f01602080910402602001604051908101604052809291908181526020018280546108de90613acd565b801561092b5780601f106109005761010080835404028352916020019161092b565b820191906000526020600020905b81548152906001019060200180831161090e57829003601f168201915b50505050508152602001600782018054806020026020016040519081016040528092919081815260200182805480156109b957602002820191906000526020600020905b8160009054906101000a900473ffffffffffffffffffffffffffffffffffffffff1673ffffffffffffffffffffffffffffffffffffffff168152602001906001019080831161096f575b5050505050815250508383815181106109d5576109d4613afe565b5b60200260200101819052505080806109ec90613b5c565b915050610509565b508091505090565b6000806000838152602001908152602001600020600701805490509050919050565b60048181548110610a2e57600080fd5b9060005260206000209060080201600091509050806000018054610a5190613acd565b80601f0160208091040260200160405190810160405280929190818152602001828054610a7d90613acd565b8015610aca5780601f10610a9f57610100808354040283529160200191610aca565b820191906000526020600020905b815481529060010190602001808311610aad57829003601f168201915b505050505090806001018054610adf90613acd565b80601f0160208091040260200160405190810160405280929190818152602001828054610b0b90613acd565b8015610b585780601f10610b2d57610100808354040283529160200191610b58565b820191906000526020600020905b815481529060010190602001808311610b3b57829003601f168201915b505050505090806002018054610b6d90613acd565b80601f0160208091040260200160405190810160405280929190818152602001828054610b9990613acd565b8015610be65780601f10610bbb57610100808354040283529160200191610be6565b820191906000526020600020905b815481529060010190602001808311610bc957829003601f168201915b505050505090806003018054610bfb90613acd565b80601f0160208091040260200160405190810160405280929190818152602001828054610c2790613acd565b8015610c745780601f10610c4957610100808354040283529160200191610c74565b820191906000526020600020905b815481529060010190602001808311610c5757829003601f168201915b505050505090806004018054610c8990613acd565b80601f0160208091040260200160405190810160405280929190818152602001828054610cb590613acd565b8015610d025780601f10610cd757610100808354040283529160200191610d02565b820191906000526020600020905b815481529060010190602001808311610ce557829003601f168201915b505050505090806005018054610d1790613acd565b80601f0160208091040260200160405190810160405280929190818152602001828054610d4390613acd565b8015610d905780601f10610d6557610100808354040283529160200191610d90565b820191906000526020600020905b815481529060010190602001808311610d7357829003601f168201915b505050505090806006018054610da590613acd565b80601f0160208091040260200160405190810160405280929190818152602001828054610dd190613acd565b8015610e1e5780601f10610df357610100808354040283529160200191610e1e565b820191906000526020600020905b815481529060010190602001808311610e0157829003601f168201915b5050505050905087565b6060600060025467ffffffffffffffff811115610e4857610e476136e2565b5b604051908082528060200260200182016040528015610e8157816020015b610e6e613038565b815260200190600190039081610e665790505b5090506000805b60025481101561144f5785604051602001610ea39190613be0565b60405160208183030381529060405280519060200120600080838152602001908152602001600020600301604051602001610ede9190613c8f565b60405160208183030381529060405280519060200120148015610f60575084604051602001610f0d9190613be0565b60405160208183030381529060405280519060200120600080838152602001908152602001600020600601604051602001610f489190613c8f565b60405160208183030381529060405280519060200120145b1561143c5760008082815260200190815260200160002060405180610100016040529081600082018054610f9390613acd565b80601f0160208091040260200160405190810160405280929190818152602001828054610fbf90613acd565b801561100c5780601f10610fe15761010080835404028352916020019161100c565b820191906000526020600020905b815481529060010190602001808311610fef57829003601f168201915b5050505050815260200160018201805461102590613acd565b80601f016020809104026020016040519081016040528092919081815260200182805461105190613acd565b801561109e5780601f106110735761010080835404028352916020019161109e565b820191906000526020600020905b81548152906001019060200180831161108157829003601f168201915b505050505081526020016002820180546110b790613acd565b80601f01602080910402602001604051908101604052809291908181526020018280546110e390613acd565b80156111305780601f1061110557610100808354040283529160200191611130565b820191906000526020600020905b81548152906001019060200180831161111357829003601f168201915b5050505050815260200160038201805461114990613acd565b80601f016020809104026020016040519081016040528092919081815260200182805461117590613acd565b80156111c25780601f10611197576101008083540402835291602001916111c2565b820191906000526020600020905b8154815290600101906020018083116111a557829003601f168201915b505050505081526020016004820180546111db90613acd565b80601f016020809104026020016040519081016040528092919081815260200182805461120790613acd565b80156112545780601f1061122957610100808354040283529160200191611254565b820191906000526020600020905b81548152906001019060200180831161123757829003601f168201915b5050505050815260200160058201805461126d90613acd565b80601f016020809104026020016040519081016040528092919081815260200182805461129990613acd565b80156112e65780601f106112bb576101008083540402835291602001916112e6565b820191906000526020600020905b8154815290600101906020018083116112c957829003601f168201915b505050505081526020016006820180546112ff90613acd565b80601f016020809104026020016040519081016040528092919081815260200182805461132b90613acd565b80156113785780601f1061134d57610100808354040283529160200191611378565b820191906000526020600020905b81548152906001019060200180831161135b57829003601f168201915b505050505081526020016007820180548060200260200160405190810160405280929190818152602001828054801561140657602002820191906000526020600020905b8160009054906101000a900473ffffffffffffffffffffffffffffffffffffffff1673ffffffffffffffffffffffffffffffffffffffff16815260200190600101908083116113bc575b50505050508152505083838151811061142257611421613afe565b5b6020026020010181905250818061143890613b5c565b9250505b808061144790613b5c565b915050610e88565b50808252819250505092915050565b6060600060035467ffffffffffffffff81111561147e5761147d6136e2565b5b6040519080825280602002602001820160405280156114b757816020015b6114a4613038565b81526020019060019003908161149c5790505b5090506000805b600354811015611a8857856040516020016114d99190613be0565b60405160208183030381529060405280519060200120600160008381526020019081526020016000206003016040516020016115159190613c8f565b604051602081830303815290604052805190602001201480156115985750846040516020016115449190613be0565b60405160208183030381529060405280519060200120600160008381526020019081526020016000206006016040516020016115809190613c8f565b60405160208183030381529060405280519060200120145b15611a755760016000828152602001908152602001600020604051806101000160405290816000820180546115cc90613acd565b80601f01602080910402602001604051908101604052809291908181526020018280546115f890613acd565b80156116455780601f1061161a57610100808354040283529160200191611645565b820191906000526020600020905b81548152906001019060200180831161162857829003601f168201915b5050505050815260200160018201805461165e90613acd565b80601f016020809104026020016040519081016040528092919081815260200182805461168a90613acd565b80156116d75780601f106116ac576101008083540402835291602001916116d7565b820191906000526020600020905b8154815290600101906020018083116116ba57829003601f168201915b505050505081526020016002820180546116f090613acd565b80601f016020809104026020016040519081016040528092919081815260200182805461171c90613acd565b80156117695780601f1061173e57610100808354040283529160200191611769565b820191906000526020600020905b81548152906001019060200180831161174c57829003601f168201915b5050505050815260200160038201805461178290613acd565b80601f01602080910402602001604051908101604052809291908181526020018280546117ae90613acd565b80156117fb5780601f106117d0576101008083540402835291602001916117fb565b820191906000526020600020905b8154815290600101906020018083116117de57829003601f168201915b5050505050815260200160048201805461181490613acd565b80601f016020809104026020016040519081016040528092919081815260200182805461184090613acd565b801561188d5780601f106118625761010080835404028352916020019161188d565b820191906000526020600020905b81548152906001019060200180831161187057829003601f168201915b505050505081526020016005820180546118a690613acd565b80601f01602080910402602001604051908101604052809291908181526020018280546118d290613acd565b801561191f5780601f106118f45761010080835404028352916020019161191f565b820191906000526020600020905b81548152906001019060200180831161190257829003601f168201915b5050505050815260200160068201805461193890613acd565b80601f016020809104026020016040519081016040528092919081815260200182805461196490613acd565b80156119b15780601f10611986576101008083540402835291602001916119b1565b820191906000526020600020905b81548152906001019060200180831161199457829003601f168201915b5050505050815260200160078201805480602002602001604051908101604052809291908181526020018280548015611a3f57602002820191906000526020600020905b8160009054906101000a900473ffffffffffffffffffffffffffffffffffffffff1673ffffffffffffffffffffffffffffffffffffffff16815260200190600101908083116119f5575b505050505081525050838381518110611a5b57611a5a613afe565b5b60200260200101819052508180611a7190613b5c565b9250505b8080611a8090613b5c565b9150506114be565b50808252819250505092915050565b6001602052806000526040600020600091509050806000018054611aba90613acd565b80601f0160208091040260200160405190810160405280929190818152602001828054611ae690613acd565b8015611b335780601f10611b0857610100808354040283529160200191611b33565b820191906000526020600020905b815481529060010190602001808311611b1657829003601f168201915b505050505090806001018054611b4890613acd565b80601f0160208091040260200160405190810160405280929190818152602001828054611b7490613acd565b8015611bc15780601f10611b9657610100808354040283529160200191611bc1565b820191906000526020600020905b815481529060010190602001808311611ba457829003601f168201915b505050505090806002018054611bd690613acd565b80601f0160208091040260200160405190810160405280929190818152602001828054611c0290613acd565b8015611c4f5780601f10611c2457610100808354040283529160200191611c4f565b820191906000526020600020905b815481529060010190602001808311611c3257829003601f168201915b505050505090806003018054611c6490613acd565b80601f0160208091040260200160405190810160405280929190818152602001828054611c9090613acd565b8015611cdd5780601f10611cb257610100808354040283529160200191611cdd565b820191906000526020600020905b815481529060010190602001808311611cc057829003601f168201915b505050505090806004018054611cf290613acd565b80601f0160208091040260200160405190810160405280929190818152602001828054611d1e90613acd565b8015611d6b5780601f10611d4057610100808354040283529160200191611d6b565b820191906000526020600020905b815481529060010190602001808311611d4e57829003601f168201915b505050505090806005018054611d8090613acd565b80601f0160208091040260200160405190810160405280929190818152602001828054611dac90613acd565b8015611df95780601f10611dce57610100808354040283529160200191611df9565b820191906000526020600020905b815481529060010190602001808311611ddc57829003601f168201915b505050505090806006018054611e0e90613acd565b80601f0160208091040260200160405190810160405280929190818152602001828054611e3a90613acd565b8015611e875780601f10611e5c57610100808354040283529160200191611e87565b820191906000526020600020905b815481529060010190602001808311611e6a57829003601f168201915b5050505050905087565b60008060008381526020019081526020016000209050611eb18233612d90565b15611ef1576040517f08c379a0000000000000000000000000000000000000000000000000000000008152600401611ee890613d18565b60405180910390fd5b80600701339080600181540180825580915050600190039060005260206000200160009091909190916101000a81548173ffffffffffffffffffffffffffffffffffffffff021916908373ffffffffffffffffffffffffffffffffffffffff1602179055505050565b606060016000838152602001908152602001600020600701805480602002602001604051908101604052809291908181526020018280548015611ff257602002820191906000526020600020905b8160009054906101000a900473ffffffffffffffffffffffffffffffffffffffff1673ffffffffffffffffffffffffffffffffffffffff1681526020019060010190808311611fa8575b50505050509050919050565b60025481565b600080600080600254815260200190815260200160002090508881600001908161202e9190613ecf565b50878160010190816120409190613ecf565b50868160020190816120529190613ecf565b50858160030190816120649190613ecf565b50848160040190816120769190613ecf565b50838160050190816120889190613ecf565b508281600601908161209a9190613ecf565b50600260008154809291906120ae90613b5c565b919050555060016002546120c29190613fa1565b915050979650505050505050565b60006020528060005260406000206000915090508060000180546120f390613acd565b80601f016020809104026020016040519081016040528092919081815260200182805461211f90613acd565b801561216c5780601f106121415761010080835404028352916020019161216c565b820191906000526020600020905b81548152906001019060200180831161214f57829003601f168201915b50505050509080600101805461218190613acd565b80601f01602080910402602001604051908101604052809291908181526020018280546121ad90613acd565b80156121fa5780601f106121cf576101008083540402835291602001916121fa565b820191906000526020600020905b8154815290600101906020018083116121dd57829003601f168201915b50505050509080600201805461220f90613acd565b80601f016020809104026020016040519081016040528092919081815260200182805461223b90613acd565b80156122885780601f1061225d57610100808354040283529160200191612288565b820191906000526020600020905b81548152906001019060200180831161226b57829003601f168201915b50505050509080600301805461229d90613acd565b80601f01602080910402602001604051908101604052809291908181526020018280546122c990613acd565b80156123165780601f106122eb57610100808354040283529160200191612316565b820191906000526020600020905b8154815290600101906020018083116122f957829003601f168201915b50505050509080600401805461232b90613acd565b80601f016020809104026020016040519081016040528092919081815260200182805461235790613acd565b80156123a45780601f10612379576101008083540402835291602001916123a4565b820191906000526020600020905b81548152906001019060200180831161238757829003601f168201915b5050505050908060050180546123b990613acd565b80601f01602080910402602001604051908101604052809291908181526020018280546123e590613acd565b80156124325780601f1061240757610100808354040283529160200191612432565b820191906000526020600020905b81548152906001019060200180831161241557829003601f168201915b50505050509080600601805461244790613acd565b80601f016020809104026020016040519081016040528092919081815260200182805461247390613acd565b80156124c05780601f10612495576101008083540402835291602001916124c0565b820191906000526020600020905b8154815290600101906020018083116124a357829003601f168201915b5050505050905087565b600060016000838152602001908152602001600020600701805490509050919050565b6060600060035467ffffffffffffffff81111561250d5761250c6136e2565b5b60405190808252806020026020018201604052801561254657816020015b612533613038565b81526020019060019003908161252b5790505b50905060005b600354811015612a38576000600160008381526020019081526020016000209050806040518061010001604052908160008201805461258a90613acd565b80601f01602080910402602001604051908101604052809291908181526020018280546125b690613acd565b80156126035780601f106125d857610100808354040283529160200191612603565b820191906000526020600020905b8154815290600101906020018083116125e657829003601f168201915b5050505050815260200160018201805461261c90613acd565b80601f016020809104026020016040519081016040528092919081815260200182805461264890613acd565b80156126955780601f1061266a57610100808354040283529160200191612695565b820191906000526020600020905b81548152906001019060200180831161267857829003601f168201915b505050505081526020016002820180546126ae90613acd565b80601f01602080910402602001604051908101604052809291908181526020018280546126da90613acd565b80156127275780601f106126fc57610100808354040283529160200191612727565b820191906000526020600020905b81548152906001019060200180831161270a57829003601f168201915b5050505050815260200160038201805461274090613acd565b80601f016020809104026020016040519081016040528092919081815260200182805461276c90613acd565b80156127b95780601f1061278e576101008083540402835291602001916127b9565b820191906000526020600020905b81548152906001019060200180831161279c57829003601f168201915b505050505081526020016004820180546127d290613acd565b80601f01602080910402602001604051908101604052809291908181526020018280546127fe90613acd565b801561284b5780601f106128205761010080835404028352916020019161284b565b820191906000526020600020905b81548152906001019060200180831161282e57829003601f168201915b5050505050815260200160058201805461286490613acd565b80601f016020809104026020016040519081016040528092919081815260200182805461289090613acd565b80156128dd5780601f106128b2576101008083540402835291602001916128dd565b820191906000526020600020905b8154815290600101906020018083116128c057829003601f168201915b505050505081526020016006820180546128f690613acd565b80601f016020809104026020016040519081016040528092919081815260200182805461292290613acd565b801561296f5780601f106129445761010080835404028352916020019161296f565b820191906000526020600020905b81548152906001019060200180831161295257829003601f168201915b50505050508152602001600782018054806020026020016040519081016040528092919081815260200182805480156129fd57602002820191906000526020600020905b8160009054906101000a900473ffffffffffffffffffffffffffffffffffffffff1673ffffffffffffffffffffffffffffffffffffffff16815260200190600101908083116129b3575b505050505081525050838381518110612a1957612a18613afe565b5b6020026020010181905250508080612a3090613b5c565b91505061254c565b508091505090565b60606000808381526020019081526020016000206000018054612a6290613acd565b80601f0160208091040260200160405190810160405280929190818152602001828054612a8e90613acd565b8015612adb5780601f10612ab057610100808354040283529160200191612adb565b820191906000526020600020905b815481529060010190602001808311612abe57829003601f168201915b50505050509050919050565b6060600080838152602001908152602001600020600701805480602002602001604051908101604052809291908181526020018280548015612b7e57602002820191906000526020600020905b8160009054906101000a900473ffffffffffffffffffffffffffffffffffffffff1673ffffffffffffffffffffffffffffffffffffffff1681526020019060010190808311612b34575b50505050509050919050565b60008060008381526020019081526020016000209050600481908060018154018082558091505060019003906000526020600020906008020160009091909190915060008201816000019081612be09190613feb565b5060018201816001019081612bf59190613feb565b5060028201816002019081612c0a9190613feb565b5060038201816003019081612c1f9190613feb565b5060048201816004019081612c349190613feb565b5060058201816005019081612c499190613feb565b5060068201816006019081612c5e9190613feb565b506007820181600701908054612c7592919061307d565b505050612c8182612e57565b6004600081548110612c9657612c95613afe565b5b906000526020600020906008020160016000600354815260200190815260200160002060008201816000019081612ccd9190613feb565b5060018201816001019081612ce29190613feb565b5060028201816002019081612cf79190613feb565b5060038201816003019081612d0c9190613feb565b5060048201816004019081612d219190613feb565b5060058201816005019081612d369190613feb565b5060068201816006019081612d4b9190613feb565b506007820181600701908054612d6292919061307d565b5090505060036000815480929190612d7990613b5c565b919050555060046000612d8c91906130cf565b5050565b600080600080858152602001908152602001600020905060005b8160070180549050811015612e4a578373ffffffffffffffffffffffffffffffffffffffff16826007018281548110612de657612de5613afe565b5b9060005260206000200160009054906101000a900473ffffffffffffffffffffffffffffffffffffffff1673ffffffffffffffffffffffffffffffffffffffff1603612e3757600192505050612e51565b8080612e4290613b5c565b915050612daa565b5060009150505b92915050565b6002548110612e9b576040517f08c379a0000000000000000000000000000000000000000000000000000000008152600401612e929061411f565b60405180910390fd5b6000806001600254612ead9190613fa1565b815260200190815260200160002060008083815260200190815260200160002060008201816000019081612ee19190613feb565b5060018201816001019081612ef69190613feb565b5060028201816002019081612f0b9190613feb565b5060038201816003019081612f209190613feb565b5060048201816004019081612f359190613feb565b5060058201816005019081612f4a9190613feb565b5060068201816006019081612f5f9190613feb565b506007820181600701908054612f7692919061307d565b509050506000806001600254612f8c9190613fa1565b815260200190815260200160002060008082016000612fab91906130f3565b600182016000612fbb91906130f3565b600282016000612fcb91906130f3565b600382016000612fdb91906130f3565b600482016000612feb91906130f3565b600582016000612ffb91906130f3565b60068201600061300b91906130f3565b60078201600061301b9190613133565b5050600260008154809291906130309061413f565b919050555050565b60405180610100016040528060608152602001606081526020016060815260200160608152602001606081526020016060815260200160608152602001606081525090565b8280548282559060005260206000209081019282156130be5760005260206000209182015b828111156130bd5782548255916001019190600101906130a2565b5b5090506130cb9190613154565b5090565b50805460008255600802906000526020600020908101906130f09190613171565b50565b5080546130ff90613acd565b6000825580601f106131115750613130565b601f01602090049060005260206000209081019061312f9190613154565b5b50565b50805460008255906000526020600020908101906131519190613154565b50565b5b8082111561316d576000816000905550600101613155565b5090565b5b80821115613204576000808201600061318b91906130f3565b60018201600061319b91906130f3565b6002820160006131ab91906130f3565b6003820160006131bb91906130f3565b6004820160006131cb91906130f3565b6005820160006131db91906130f3565b6006820160006131eb91906130f3565b6007820160006131fb9190613133565b50600801613172565b5090565b6000819050919050565b61321b81613208565b82525050565b60006020820190506132366000830184613212565b92915050565b600081519050919050565b600082825260208201905092915050565b6000819050602082019050919050565b600081519050919050565b600082825260208201905092915050565b60005b838110156132a2578082015181840152602081019050613287565b60008484015250505050565b6000601f19601f8301169050919050565b60006132ca82613268565b6132d48185613273565b93506132e4818560208601613284565b6132ed816132ae565b840191505092915050565b600081519050919050565b600082825260208201905092915050565b6000819050602082019050919050565b600073ffffffffffffffffffffffffffffffffffffffff82169050919050565b600061334f82613324565b9050919050565b61335f81613344565b82525050565b60006133718383613356565b60208301905092915050565b6000602082019050919050565b6000613395826132f8565b61339f8185613303565b93506133aa83613314565b8060005b838110156133db5781516133c28882613365565b97506133cd8361337d565b9250506001810190506133ae565b5085935050505092915050565b600061010083016000830151848203600086015261340682826132bf565b9150506020830151848203602086015261342082826132bf565b9150506040830151848203604086015261343a82826132bf565b9150506060830151848203606086015261345482826132bf565b9150506080830151848203608086015261346e82826132bf565b91505060a083015184820360a086015261348882826132bf565b91505060c083015184820360c08601526134a282826132bf565b91505060e083015184820360e08601526134bc828261338a565b9150508091505092915050565b60006134d583836133e8565b905092915050565b6000602082019050919050565b60006134f58261323c565b6134ff8185613247565b93508360208202850161351185613258565b8060005b8581101561354d578484038952815161352e85826134c9565b9450613539836134dd565b925060208a01995050600181019050613515565b50829750879550505050505092915050565b6000602082019050818103600083015261357981846134ea565b905092915050565b6000604051905090565b600080fd5b600080fd5b61359e81613208565b81146135a957600080fd5b50565b6000813590506135bb81613595565b92915050565b6000602082840312156135d7576135d661358b565b5b60006135e5848285016135ac565b91505092915050565b600082825260208201905092915050565b600061360a82613268565b61361481856135ee565b9350613624818560208601613284565b61362d816132ae565b840191505092915050565b600060e0820190508181036000830152613652818a6135ff565b9050818103602083015261366681896135ff565b9050818103604083015261367a81886135ff565b9050818103606083015261368e81876135ff565b905081810360808301526136a281866135ff565b905081810360a08301526136b681856135ff565b905081810360c08301526136ca81846135ff565b905098975050505050505050565b600080fd5b600080fd5b7f4e487b7100000000000000000000000000000000000000000000000000000000600052604160045260246000fd5b61371a826132ae565b810181811067ffffffffffffffff82111715613739576137386136e2565b5b80604052505050565b600061374c613581565b90506137588282613711565b919050565b600067ffffffffffffffff821115613778576137776136e2565b5b613781826132ae565b9050602081019050919050565b82818337600083830152505050565b60006137b06137ab8461375d565b613742565b9050828152602081018484840111156137cc576137cb6136dd565b5b6137d784828561378e565b509392505050565b600082601f8301126137f4576137f36136d8565b5b813561380484826020860161379d565b91505092915050565b600080604083850312156138245761382361358b565b5b600083013567ffffffffffffffff81111561384257613841613590565b5b61384e858286016137df565b925050602083013567ffffffffffffffff81111561386f5761386e613590565b5b61387b858286016137df565b9150509250929050565b600082825260208201905092915050565b60006138a1826132f8565b6138ab8185613885565b93506138b683613314565b8060005b838110156138e75781516138ce8882613365565b97506138d98361337d565b9250506001810190506138ba565b5085935050505092915050565b6000602082019050818103600083015261390e8184613896565b905092915050565b600080600080600080600060e0888a0312156139355761393461358b565b5b600088013567ffffffffffffffff81111561395357613952613590565b5b61395f8a828b016137df565b975050602088013567ffffffffffffffff8111156139805761397f613590565b5b61398c8a828b016137df565b965050604088013567ffffffffffffffff8111156139ad576139ac613590565b5b6139b98a828b016137df565b955050606088013567ffffffffffffffff8111156139da576139d9613590565b5b6139e68a828b016137df565b945050608088013567ffffffffffffffff811115613a0757613a06613590565b5b613a138a828b016137df565b93505060a088013567ffffffffffffffff811115613a3457613a33613590565b5b613a408a828b016137df565b92505060c088013567ffffffffffffffff811115613a6157613a60613590565b5b613a6d8a828b016137df565b91505092959891949750929550565b60006020820190508181036000830152613a9681846135ff565b905092915050565b7f4e487b7100000000000000000000000000000000000000000000000000000000600052602260045260246000fd5b60006002820490506001821680613ae557607f821691505b602082108103613af857613af7613a9e565b5b50919050565b7f4e487b7100000000000000000000000000000000000000000000000000000000600052603260045260246000fd5b7f4e487b7100000000000000000000000000000000000000000000000000000000600052601160045260246000fd5b6000613b6782613208565b91507fffffffffffffffffffffffffffffffffffffffffffffffffffffffffffffffff8203613b9957613b98613b2d565b5b600182019050919050565b600081905092915050565b6000613bba82613268565b613bc48185613ba4565b9350613bd4818560208601613284565b80840191505092915050565b6000613bec8284613baf565b915081905092915050565b60008190508160005260206000209050919050565b60008154613c1981613acd565b613c238186613ba4565b94506001821660008114613c3e5760018114613c5357613c86565b60ff1983168652811515820286019350613c86565b613c5c85613bf7565b60005b83811015613c7e57815481890152600182019150602081019050613c5f565b838801955050505b50505092915050565b6000613c9b8284613c0c565b915081905092915050565b7f596f75206861766520616c726561647920617474656e6465642074686973206360008201527f6c6173732e000000000000000000000000000000000000000000000000000000602082015250565b6000613d026025836135ee565b9150613d0d82613ca6565b604082019050919050565b60006020820190508181036000830152613d3181613cf5565b9050919050565b60006020601f8301049050919050565b600082821b905092915050565b600060088302613d857fffffffffffffffffffffffffffffffffffffffffffffffffffffffffffffffff82613d48565b613d8f8683613d48565b95508019841693508086168417925050509392505050565b6000819050919050565b6000613dcc613dc7613dc284613208565b613da7565b613208565b9050919050565b6000819050919050565b613de683613db1565b613dfa613df282613dd3565b848454613d55565b825550505050565b600090565b613e0f613e02565b613e1a818484613ddd565b505050565b5b81811015613e3e57613e33600082613e07565b600181019050613e20565b5050565b601f821115613e8357613e5481613bf7565b613e5d84613d38565b81016020851015613e6c578190505b613e80613e7885613d38565b830182613e1f565b50505b505050565b600082821c905092915050565b6000613ea660001984600802613e88565b1980831691505092915050565b6000613ebf8383613e95565b9150826002028217905092915050565b613ed882613268565b67ffffffffffffffff811115613ef157613ef06136e2565b5b613efb8254613acd565b613f06828285613e42565b600060209050601f831160018114613f395760008415613f27578287015190505b613f318582613eb3565b865550613f99565b601f198416613f4786613bf7565b60005b82811015613f6f57848901518255600182019150602085019450602081019050613f4a565b86831015613f8c5784890151613f88601f891682613e95565b8355505b6001600288020188555050505b505050505050565b6000613fac82613208565b9150613fb783613208565b9250828203905081811115613fcf57613fce613b2d565b5b92915050565b600081549050613fe481613acd565b9050919050565b818103613ff95750506140d1565b61400282613fd5565b67ffffffffffffffff81111561401b5761401a6136e2565b5b6140258254613acd565b614030828285613e42565b6000601f83116001811461405f576000841561404d578287015490505b6140578582613eb3565b8655506140ca565b601f19841661406d87613bf7565b965061407886613bf7565b60005b828110156140a05784890154825560018201915060018501945060208101905061407b565b868310156140bd57848901546140b9601f891682613e95565b8355505b6001600288020188555050505b5050505050505b565b7f496e76616c696420696e64657800000000000000000000000000000000000000600082015250565b6000614109600d836135ee565b9150614114826140d3565b602082019050919050565b60006020820190508181036000830152614138816140fc565b9050919050565b600061414a82613208565b91506000820361415d5761415c613b2d565b5b60018203905091905056fea2646970667358221220fdb22054c012e55f4ec8c1266a5bf38ae962af52a32021637987ecd69245b51d64736f6c63430008130033",
  "linkReferences": {},
  "deployedLinkReferences": {}
}