{
  "_format": "hh-sol-artifact-1",
  "contractName": "LibraryBook",
  "sourceName": "contracts/LibraryBook.sol",
  "abi": [
    {
      "inputs": [
        {
          "internalType": "uint256",
          "name": "",
          "type": "uint256"
        }
      ],
      "name": "availableBooks",
      "outputs": [
        {
          "internalType": "string",
          "name": "title",
          "type": "string"
        },
        {
          "internalType": "string",
          "name": "description",
          "type": "string"
        },
        {
          "internalType": "uint256",
          "name": "submission",
          "type": "uint256"
        },
        {
          "internalType": "string",
          "name": "image",
          "type": "string"
        }
      ],
      "stateMutability": "view",
      "type": "function"
    },
    {
      "inputs": [
        {
          "internalType": "uint256",
          "name": "_id",
          "type": "uint256"
        }
      ],
      "name": "bookReturned",
      "outputs": [],
      "stateMutability": "nonpayable",
      "type": "function"
    },
    {
      "inputs": [
        {
          "internalType": "uint256",
          "name": "_id",
          "type": "uint256"
        }
      ],
      "name": "borrow",
      "outputs": [],
      "stateMutability": "payable",
      "type": "function"
    },
    {
      "inputs": [
        {
          "internalType": "string",
          "name": "_title",
          "type": "string"
        },
        {
          "internalType": "string",
          "name": "_description",
          "type": "string"
        },
        {
          "internalType": "string",
          "name": "_image",
          "type": "string"
        }
      ],
      "name": "createBook",
      "outputs": [
        {
          "internalType": "uint256",
          "name": "",
          "type": "uint256"
        }
      ],
      "stateMutability": "nonpayable",
      "type": "function"
    },
    {
      "inputs": [],
      "name": "getBooks",
      "outputs": [
        {
          "components": [
            {
              "internalType": "string",
              "name": "title",
              "type": "string"
            },
            {
              "internalType": "string",
              "name": "description",
              "type": "string"
            },
            {
              "internalType": "uint256",
              "name": "submission",
              "type": "uint256"
            },
            {
              "internalType": "string",
              "name": "image",
              "type": "string"
            },
            {
              "internalType": "address[]",
              "name": "borrowers",
              "type": "address[]"
            }
          ],
          "internalType": "struct LibraryBook.Book[]",
          "name": "",
          "type": "tuple[]"
        }
      ],
      "stateMutability": "view",
      "type": "function"
    },
    {
      "inputs": [
        {
          "internalType": "uint256",
          "name": "_id",
          "type": "uint256"
        }
      ],
      "name": "getBorrowers",
      "outputs": [
        {
          "internalType": "address[]",
          "name": "",
          "type": "address[]"
        }
      ],
      "stateMutability": "view",
      "type": "function"
    },
    {
      "inputs": [
        {
          "internalType": "uint256",
          "name": "_id",
          "type": "uint256"
        }
      ],
      "name": "getBorrowersForUnavailable",
      "outputs": [
        {
          "internalType": "address[]",
          "name": "",
          "type": "address[]"
        }
      ],
      "stateMutability": "view",
      "type": "function"
    },
    {
      "inputs": [],
      "name": "getUnavailable",
      "outputs": [
        {
          "components": [
            {
              "internalType": "string",
              "name": "title",
              "type": "string"
            },
            {
              "internalType": "string",
              "name": "description",
              "type": "string"
            },
            {
              "internalType": "uint256",
              "name": "submission",
              "type": "uint256"
            },
            {
              "internalType": "string",
              "name": "image",
              "type": "string"
            },
            {
              "internalType": "address[]",
              "name": "borrowers",
              "type": "address[]"
            }
          ],
          "internalType": "struct LibraryBook.Book[]",
          "name": "",
          "type": "tuple[]"
        }
      ],
      "stateMutability": "view",
      "type": "function"
    },
    {
      "inputs": [],
      "name": "numberofAvailable",
      "outputs": [
        {
          "internalType": "uint256",
          "name": "",
          "type": "uint256"
        }
      ],
      "stateMutability": "view",
      "type": "function"
    },
    {
      "inputs": [],
      "name": "numberofUnavailable",
      "outputs": [
        {
          "internalType": "uint256",
          "name": "",
          "type": "uint256"
        }
      ],
      "stateMutability": "view",
      "type": "function"
    },
    {
      "inputs": [
        {
          "internalType": "uint256",
          "name": "",
          "type": "uint256"
        }
      ],
      "name": "unavailableBooks",
      "outputs": [
        {
          "internalType": "string",
          "name": "title",
          "type": "string"
        },
        {
          "internalType": "string",
          "name": "description",
          "type": "string"
        },
        {
          "internalType": "uint256",
          "name": "submission",
          "type": "uint256"
        },
        {
          "internalType": "string",
          "name": "image",
          "type": "string"
        }
      ],
      "stateMutability": "view",
      "type": "function"
    }
  ],
  "bytecode": "0x60806040526000600255600060035534801561001a57600080fd5b50611e088061002a6000396000f3fe60806040526004361061009c5760003560e01c80638e31c335116100645780638e31c335146101c65780639f349789146101ef578063a8e1cc161461021a578063bfdf6b3814610245578063c5ebeaec14610282578063f2a31c8e1461029e5761009c565b80630fbebf9a146100a15780632734f681146100e15780634c7e840e1461010c5780635a0211391461014957806371d8e51914610189575b600080fd5b3480156100ad57600080fd5b506100c860048036038101906100c39190611259565b6102c9565b6040516100d89493929190611325565b60405180910390f35b3480156100ed57600080fd5b506100f6610491565b6040516101039190611615565b60405180910390f35b34801561011857600080fd5b50610133600480360381019061012e919061176c565b6107a5565b6040516101409190611813565b60405180910390f35b34801561015557600080fd5b50610170600480360381019061016b9190611259565b61083c565b6040516101809493929190611325565b60405180910390f35b34801561019557600080fd5b506101b060048036038101906101ab9190611259565b610a04565b6040516101bd919061189d565b60405180910390f35b3480156101d257600080fd5b506101ed60048036038101906101e89190611259565b610aa8565b005b3480156101fb57600080fd5b50610204610bc9565b6040516102119190611615565b60405180910390f35b34801561022657600080fd5b5061022f610edc565b60405161023c9190611813565b60405180910390f35b34801561025157600080fd5b5061026c60048036038101906102679190611259565b610ee2565b604051610279919061189d565b60405180910390f35b61029c60048036038101906102979190611259565b610f85565b005b3480156102aa57600080fd5b506102b361110a565b6040516102c09190611813565b60405180910390f35b60016020528060005260406000206000915090508060000180546102ec906118ee565b80601f0160208091040260200160405190810160405280929190818152602001828054610318906118ee565b80156103655780601f1061033a57610100808354040283529160200191610365565b820191906000526020600020905b81548152906001019060200180831161034857829003601f168201915b50505050509080600101805461037a906118ee565b80601f01602080910402602001604051908101604052809291908181526020018280546103a6906118ee565b80156103f35780601f106103c8576101008083540402835291602001916103f3565b820191906000526020600020905b8154815290600101906020018083116103d657829003601f168201915b50505050509080600201549080600301805461040e906118ee565b80601f016020809104026020016040519081016040528092919081815260200182805461043a906118ee565b80156104875780601f1061045c57610100808354040283529160200191610487565b820191906000526020600020905b81548152906001019060200180831161046a57829003601f168201915b5050505050905084565b6060600060035467ffffffffffffffff8111156104b1576104b0611641565b5b6040519080825280602002602001820160405280156104ea57816020015b6104d7611110565b8152602001906001900390816104cf5790505b50905060005b60035481101561079d576000600160008381526020019081526020016000209050806040518060a001604052908160008201805461052d906118ee565b80601f0160208091040260200160405190810160405280929190818152602001828054610559906118ee565b80156105a65780601f1061057b576101008083540402835291602001916105a6565b820191906000526020600020905b81548152906001019060200180831161058957829003601f168201915b505050505081526020016001820180546105bf906118ee565b80601f01602080910402602001604051908101604052809291908181526020018280546105eb906118ee565b80156106385780601f1061060d57610100808354040283529160200191610638565b820191906000526020600020905b81548152906001019060200180831161061b57829003601f168201915b505050505081526020016002820154815260200160038201805461065b906118ee565b80601f0160208091040260200160405190810160405280929190818152602001828054610687906118ee565b80156106d45780601f106106a9576101008083540402835291602001916106d4565b820191906000526020600020905b8154815290600101906020018083116106b757829003601f168201915b505050505081526020016004820180548060200260200160405190810160405280929190818152602001828054801561076257602002820191906000526020600020905b8160009054906101000a900473ffffffffffffffffffffffffffffffffffffffff1673ffffffffffffffffffffffffffffffffffffffff1681526020019060010190808311610718575b50505050508152505083838151811061077e5761077d61191f565b5b60200260200101819052505080806107959061197d565b9150506104f0565b508091505090565b6000806000806002548152602001908152602001600020905062093a80426107cd91906119c5565b8160020181905550848160000190816107e69190611ba5565b50838160010190816107f89190611ba5565b508281600301908161080a9190611ba5565b506002600081548092919061081e9061197d565b919050555060016002546108329190611c77565b9150509392505050565b600060205280600052604060002060009150905080600001805461085f906118ee565b80601f016020809104026020016040519081016040528092919081815260200182805461088b906118ee565b80156108d85780601f106108ad576101008083540402835291602001916108d8565b820191906000526020600020905b8154815290600101906020018083116108bb57829003601f168201915b5050505050908060010180546108ed906118ee565b80601f0160208091040260200160405190810160405280929190818152602001828054610919906118ee565b80156109665780601f1061093b57610100808354040283529160200191610966565b820191906000526020600020905b81548152906001019060200180831161094957829003601f168201915b505050505090806002015490806003018054610981906118ee565b80601f01602080910402602001604051908101604052809291908181526020018280546109ad906118ee565b80156109fa5780601f106109cf576101008083540402835291602001916109fa565b820191906000526020600020905b8154815290600101906020018083116109dd57829003601f168201915b5050505050905084565b606060016000838152602001908152602001600020600401805480602002602001604051908101604052809291908181526020018280548015610a9c57602002820191906000526020600020905b8160009054906101000a900473ffffffffffffffffffffffffffffffffffffffff1673ffffffffffffffffffffffffffffffffffffffff1681526020019060010190808311610a52575b50505050509050919050565b600060016000838152602001908152602001600020905080600080600254815260200190815260200160002060008201816000019081610ae89190611cc1565b5060018201816001019081610afd9190611cc1565b506002820154816002015560038201816003019081610b1c9190611cc1565b506004820181600401908054610b3392919061113f565b509050506001600083815260200190815260200160002060008082016000610b5b9190611191565b600182016000610b6b9190611191565b6002820160009055600382016000610b839190611191565b600482016000610b9391906111d1565b505060036000815480929190610ba890611da9565b919050555060026000815480929190610bc09061197d565b91905055505050565b6060600060025467ffffffffffffffff811115610be957610be8611641565b5b604051908082528060200260200182016040528015610c2257816020015b610c0f611110565b815260200190600190039081610c075790505b50905060005b600254811015610ed45760008060008381526020019081526020016000209050806040518060a0016040529081600082018054610c64906118ee565b80601f0160208091040260200160405190810160405280929190818152602001828054610c90906118ee565b8015610cdd5780601f10610cb257610100808354040283529160200191610cdd565b820191906000526020600020905b815481529060010190602001808311610cc057829003601f168201915b50505050508152602001600182018054610cf6906118ee565b80601f0160208091040260200160405190810160405280929190818152602001828054610d22906118ee565b8015610d6f5780601f10610d4457610100808354040283529160200191610d6f565b820191906000526020600020905b815481529060010190602001808311610d5257829003601f168201915b5050505050815260200160028201548152602001600382018054610d92906118ee565b80601f0160208091040260200160405190810160405280929190818152602001828054610dbe906118ee565b8015610e0b5780601f10610de057610100808354040283529160200191610e0b565b820191906000526020600020905b815481529060010190602001808311610dee57829003601f168201915b5050505050815260200160048201805480602002602001604051908101604052809291908181526020018280548015610e9957602002820191906000526020600020905b8160009054906101000a900473ffffffffffffffffffffffffffffffffffffffff1673ffffffffffffffffffffffffffffffffffffffff1681526020019060010190808311610e4f575b505050505081525050838381518110610eb557610eb461191f565b5b6020026020010181905250508080610ecc9061197d565b915050610c28565b508091505090565b60025481565b6060600080838152602001908152602001600020600401805480602002602001604051908101604052809291908181526020018280548015610f7957602002820191906000526020600020905b8160009054906101000a900473ffffffffffffffffffffffffffffffffffffffff1673ffffffffffffffffffffffffffffffffffffffff1681526020019060010190808311610f2f575b50505050509050919050565b6000806000838152602001908152602001600020905080600401339080600181540180825580915050600190039060005260206000200160009091909190916101000a81548173ffffffffffffffffffffffffffffffffffffffff021916908373ffffffffffffffffffffffffffffffffffffffff160217905550806001600060035481526020019081526020016000206000820181600001908161102a9190611cc1565b506001820181600101908161103f9190611cc1565b50600282015481600201556003820181600301908161105e9190611cc1565b50600482018160040190805461107592919061113f565b509050506000808381526020019081526020016000206000808201600061109c9190611191565b6001820160006110ac9190611191565b60028201600090556003820160006110c49190611191565b6004820160006110d491906111d1565b5050600260008154809291906110e990611da9565b9190505550600360008154809291906111019061197d565b91905055505050565b60035481565b6040518060a0016040528060608152602001606081526020016000815260200160608152602001606081525090565b8280548282559060005260206000209081019282156111805760005260206000209182015b8281111561117f578254825591600101919060010190611164565b5b50905061118d91906111f2565b5090565b50805461119d906118ee565b6000825580601f106111af57506111ce565b601f0160209004906000526020600020908101906111cd91906111f2565b5b50565b50805460008255906000526020600020908101906111ef91906111f2565b50565b5b8082111561120b5760008160009055506001016111f3565b5090565b6000604051905090565b600080fd5b600080fd5b6000819050919050565b61123681611223565b811461124157600080fd5b50565b6000813590506112538161122d565b92915050565b60006020828403121561126f5761126e611219565b5b600061127d84828501611244565b91505092915050565b600081519050919050565b600082825260208201905092915050565b60005b838110156112c05780820151818401526020810190506112a5565b60008484015250505050565b6000601f19601f8301169050919050565b60006112e882611286565b6112f28185611291565b93506113028185602086016112a2565b61130b816112cc565b840191505092915050565b61131f81611223565b82525050565b6000608082019050818103600083015261133f81876112dd565b9050818103602083015261135381866112dd565b90506113626040830185611316565b818103606083015261137481846112dd565b905095945050505050565b600081519050919050565b600082825260208201905092915050565b6000819050602082019050919050565b600082825260208201905092915050565b60006113c782611286565b6113d181856113ab565b93506113e18185602086016112a2565b6113ea816112cc565b840191505092915050565b6113fe81611223565b82525050565b600081519050919050565b600082825260208201905092915050565b6000819050602082019050919050565b600073ffffffffffffffffffffffffffffffffffffffff82169050919050565b600061145b82611430565b9050919050565b61146b81611450565b82525050565b600061147d8383611462565b60208301905092915050565b6000602082019050919050565b60006114a182611404565b6114ab818561140f565b93506114b683611420565b8060005b838110156114e75781516114ce8882611471565b97506114d983611489565b9250506001810190506114ba565b5085935050505092915050565b600060a083016000830151848203600086015261151182826113bc565b9150506020830151848203602086015261152b82826113bc565b915050604083015161154060408601826113f5565b506060830151848203606086015261155882826113bc565b915050608083015184820360808601526115728282611496565b9150508091505092915050565b600061158b83836114f4565b905092915050565b6000602082019050919050565b60006115ab8261137f565b6115b5818561138a565b9350836020820285016115c78561139b565b8060005b8581101561160357848403895281516115e4858261157f565b94506115ef83611593565b925060208a019950506001810190506115cb565b50829750879550505050505092915050565b6000602082019050818103600083015261162f81846115a0565b905092915050565b600080fd5b600080fd5b7f4e487b7100000000000000000000000000000000000000000000000000000000600052604160045260246000fd5b611679826112cc565b810181811067ffffffffffffffff8211171561169857611697611641565b5b80604052505050565b60006116ab61120f565b90506116b78282611670565b919050565b600067ffffffffffffffff8211156116d7576116d6611641565b5b6116e0826112cc565b9050602081019050919050565b82818337600083830152505050565b600061170f61170a846116bc565b6116a1565b90508281526020810184848401111561172b5761172a61163c565b5b6117368482856116ed565b509392505050565b600082601f83011261175357611752611637565b5b81356117638482602086016116fc565b91505092915050565b60008060006060848603121561178557611784611219565b5b600084013567ffffffffffffffff8111156117a3576117a261121e565b5b6117af8682870161173e565b935050602084013567ffffffffffffffff8111156117d0576117cf61121e565b5b6117dc8682870161173e565b925050604084013567ffffffffffffffff8111156117fd576117fc61121e565b5b6118098682870161173e565b9150509250925092565b60006020820190506118286000830184611316565b92915050565b600082825260208201905092915050565b600061184a82611404565b611854818561182e565b935061185f83611420565b8060005b838110156118905781516118778882611471565b975061188283611489565b925050600181019050611863565b5085935050505092915050565b600060208201905081810360008301526118b7818461183f565b905092915050565b7f4e487b7100000000000000000000000000000000000000000000000000000000600052602260045260246000fd5b6000600282049050600182168061190657607f821691505b602082108103611919576119186118bf565b5b50919050565b7f4e487b7100000000000000000000000000000000000000000000000000000000600052603260045260246000fd5b7f4e487b7100000000000000000000000000000000000000000000000000000000600052601160045260246000fd5b600061198882611223565b91507fffffffffffffffffffffffffffffffffffffffffffffffffffffffffffffffff82036119ba576119b961194e565b5b600182019050919050565b60006119d082611223565b91506119db83611223565b92508282019050808211156119f3576119f261194e565b5b92915050565b60008190508160005260206000209050919050565b60006020601f8301049050919050565b600082821b905092915050565b600060088302611a5b7fffffffffffffffffffffffffffffffffffffffffffffffffffffffffffffffff82611a1e565b611a658683611a1e565b95508019841693508086168417925050509392505050565b6000819050919050565b6000611aa2611a9d611a9884611223565b611a7d565b611223565b9050919050565b6000819050919050565b611abc83611a87565b611ad0611ac882611aa9565b848454611a2b565b825550505050565b600090565b611ae5611ad8565b611af0818484611ab3565b505050565b5b81811015611b1457611b09600082611add565b600181019050611af6565b5050565b601f821115611b5957611b2a816119f9565b611b3384611a0e565b81016020851015611b42578190505b611b56611b4e85611a0e565b830182611af5565b50505b505050565b600082821c905092915050565b6000611b7c60001984600802611b5e565b1980831691505092915050565b6000611b958383611b6b565b9150826002028217905092915050565b611bae82611286565b67ffffffffffffffff811115611bc757611bc6611641565b5b611bd182546118ee565b611bdc828285611b18565b600060209050601f831160018114611c0f5760008415611bfd578287015190505b611c078582611b89565b865550611c6f565b601f198416611c1d866119f9565b60005b82811015611c4557848901518255600182019150602085019450602081019050611c20565b86831015611c625784890151611c5e601f891682611b6b565b8355505b6001600288020188555050505b505050505050565b6000611c8282611223565b9150611c8d83611223565b9250828203905081811115611ca557611ca461194e565b5b92915050565b600081549050611cba816118ee565b9050919050565b818103611ccf575050611da7565b611cd882611cab565b67ffffffffffffffff811115611cf157611cf0611641565b5b611cfb82546118ee565b611d06828285611b18565b6000601f831160018114611d355760008415611d23578287015490505b611d2d8582611b89565b865550611da0565b601f198416611d43876119f9565b9650611d4e866119f9565b60005b82811015611d7657848901548255600182019150600185019450602081019050611d51565b86831015611d935784890154611d8f601f891682611b6b565b8355505b6001600288020188555050505b5050505050505b565b6000611db482611223565b915060008203611dc757611dc661194e565b5b60018203905091905056fea26469706673582212201d435710b5d8adba22055c9ab8a1550326d54bc4280073c0a07651f3717af3d864736f6c63430008130033",
  "linkReferences": {},
  "deployedLinkReferences": {}
}