{
  "_format": "hh-sol-artifact-1",
  "contractName": "LibraryBook",
  "sourceName": "contracts/LibraryBook.sol",
  "abi": [
    {
      "inputs": [
        {
          "internalType": "uint256",
          "name": "",
          "type": "uint256"
        }
      ],
      "name": "availableBooks",
      "outputs": [
        {
          "internalType": "string",
          "name": "title",
          "type": "string"
        },
        {
          "internalType": "string",
          "name": "description",
          "type": "string"
        },
        {
          "internalType": "string",
          "name": "image",
          "type": "string"
        },
        {
          "internalType": "string",
          "name": "author",
          "type": "string"
        },
        {
          "internalType": "string",
          "name": "pages",
          "type": "string"
        }
      ],
      "stateMutability": "view",
      "type": "function"
    },
    {
      "inputs": [
        {
          "internalType": "uint256",
          "name": "_id",
          "type": "uint256"
        }
      ],
      "name": "bookReturned",
      "outputs": [],
      "stateMutability": "nonpayable",
      "type": "function"
    },
    {
      "inputs": [
        {
          "internalType": "uint256",
          "name": "_id",
          "type": "uint256"
        }
      ],
      "name": "borrow",
      "outputs": [],
      "stateMutability": "payable",
      "type": "function"
    },
    {
      "inputs": [
        {
          "internalType": "string",
          "name": "_title",
          "type": "string"
        },
        {
          "internalType": "string",
          "name": "_description",
          "type": "string"
        },
        {
          "internalType": "string",
          "name": "_image",
          "type": "string"
        },
        {
          "internalType": "string",
          "name": "_author",
          "type": "string"
        },
        {
          "internalType": "string",
          "name": "_pages",
          "type": "string"
        }
      ],
      "name": "createBook",
      "outputs": [
        {
          "internalType": "uint256",
          "name": "",
          "type": "uint256"
        }
      ],
      "stateMutability": "nonpayable",
      "type": "function"
    },
    {
      "inputs": [],
      "name": "getBooks",
      "outputs": [
        {
          "components": [
            {
              "internalType": "string",
              "name": "title",
              "type": "string"
            },
            {
              "internalType": "string",
              "name": "description",
              "type": "string"
            },
            {
              "internalType": "string",
              "name": "image",
              "type": "string"
            },
            {
              "internalType": "string",
              "name": "author",
              "type": "string"
            },
            {
              "internalType": "string",
              "name": "pages",
              "type": "string"
            },
            {
              "internalType": "address[]",
              "name": "borrowers",
              "type": "address[]"
            }
          ],
          "internalType": "struct LibraryBook.Book[]",
          "name": "",
          "type": "tuple[]"
        }
      ],
      "stateMutability": "view",
      "type": "function"
    },
    {
      "inputs": [
        {
          "internalType": "uint256",
          "name": "_id",
          "type": "uint256"
        }
      ],
      "name": "getBorrowers",
      "outputs": [
        {
          "internalType": "address[]",
          "name": "",
          "type": "address[]"
        }
      ],
      "stateMutability": "view",
      "type": "function"
    },
    {
      "inputs": [
        {
          "internalType": "uint256",
          "name": "_id",
          "type": "uint256"
        }
      ],
      "name": "getBorrowersForUnavailable",
      "outputs": [
        {
          "internalType": "address[]",
          "name": "",
          "type": "address[]"
        }
      ],
      "stateMutability": "view",
      "type": "function"
    },
    {
      "inputs": [],
      "name": "getUnavailable",
      "outputs": [
        {
          "components": [
            {
              "internalType": "string",
              "name": "title",
              "type": "string"
            },
            {
              "internalType": "string",
              "name": "description",
              "type": "string"
            },
            {
              "internalType": "string",
              "name": "image",
              "type": "string"
            },
            {
              "internalType": "string",
              "name": "author",
              "type": "string"
            },
            {
              "internalType": "string",
              "name": "pages",
              "type": "string"
            },
            {
              "internalType": "address[]",
              "name": "borrowers",
              "type": "address[]"
            }
          ],
          "internalType": "struct LibraryBook.Book[]",
          "name": "",
          "type": "tuple[]"
        }
      ],
      "stateMutability": "view",
      "type": "function"
    },
    {
      "inputs": [],
      "name": "numberofAvailable",
      "outputs": [
        {
          "internalType": "uint256",
          "name": "",
          "type": "uint256"
        }
      ],
      "stateMutability": "view",
      "type": "function"
    },
    {
      "inputs": [],
      "name": "numberofUnavailable",
      "outputs": [
        {
          "internalType": "uint256",
          "name": "",
          "type": "uint256"
        }
      ],
      "stateMutability": "view",
      "type": "function"
    },
    {
      "inputs": [
        {
          "internalType": "uint256",
          "name": "",
          "type": "uint256"
        }
      ],
      "name": "unavailableBooks",
      "outputs": [
        {
          "internalType": "string",
          "name": "title",
          "type": "string"
        },
        {
          "internalType": "string",
          "name": "description",
          "type": "string"
        },
        {
          "internalType": "string",
          "name": "image",
          "type": "string"
        },
        {
          "internalType": "string",
          "name": "author",
          "type": "string"
        },
        {
          "internalType": "string",
          "name": "pages",
          "type": "string"
        }
      ],
      "stateMutability": "view",
      "type": "function"
    }
  ],
  "bytecode": "0x60806040526000600255600060035534801561001a57600080fd5b506127288061002a6000396000f3fe60806040526004361061009c5760003560e01c80638e31c335116100645780638e31c335146101c85780639f349789146101f1578063a8e1cc161461021c578063bfdf6b3814610247578063c5ebeaec14610284578063f2a31c8e146102a05761009c565b80630fbebf9a146100a15780632734f681146100e25780632ffb3df41461010d5780635a0211391461014a57806371d8e5191461018b575b600080fd5b3480156100ad57600080fd5b506100c860048036038101906100c391906119db565b6102cb565b6040516100d9959493929190611a98565b60405180910390f35b3480156100ee57600080fd5b506100f76105a9565b6040516101049190611db6565b60405180910390f35b34801561011957600080fd5b50610134600480360381019061012f9190611f0d565b6109d7565b6040516101419190612023565b60405180910390f35b34801561015657600080fd5b50610171600480360381019061016c91906119db565b610a7d565b604051610182959493929190611a98565b60405180910390f35b34801561019757600080fd5b506101b260048036038101906101ad91906119db565b610d5b565b6040516101bf91906120ad565b60405180910390f35b3480156101d457600080fd5b506101ef60048036038101906101ea91906119db565b610dff565b005b3480156101fd57600080fd5b506102066110a6565b6040516102139190611db6565b60405180910390f35b34801561022857600080fd5b506102316114d3565b60405161023e9190612023565b60405180910390f35b34801561025357600080fd5b5061026e600480360381019061026991906119db565b6114d9565b60405161027b91906120ad565b60405180910390f35b61029e600480360381019061029991906119db565b61157c565b005b3480156102ac57600080fd5b506102b5611885565b6040516102c29190612023565b60405180910390f35b60016020528060005260406000206000915090508060000180546102ee906120fe565b80601f016020809104026020016040519081016040528092919081815260200182805461031a906120fe565b80156103675780601f1061033c57610100808354040283529160200191610367565b820191906000526020600020905b81548152906001019060200180831161034a57829003601f168201915b50505050509080600101805461037c906120fe565b80601f01602080910402602001604051908101604052809291908181526020018280546103a8906120fe565b80156103f55780601f106103ca576101008083540402835291602001916103f5565b820191906000526020600020905b8154815290600101906020018083116103d857829003601f168201915b50505050509080600201805461040a906120fe565b80601f0160208091040260200160405190810160405280929190818152602001828054610436906120fe565b80156104835780601f1061045857610100808354040283529160200191610483565b820191906000526020600020905b81548152906001019060200180831161046657829003601f168201915b505050505090806003018054610498906120fe565b80601f01602080910402602001604051908101604052809291908181526020018280546104c4906120fe565b80156105115780601f106104e657610100808354040283529160200191610511565b820191906000526020600020905b8154815290600101906020018083116104f457829003601f168201915b505050505090806004018054610526906120fe565b80601f0160208091040260200160405190810160405280929190818152602001828054610552906120fe565b801561059f5780601f106105745761010080835404028352916020019161059f565b820191906000526020600020905b81548152906001019060200180831161058257829003601f168201915b5050505050905085565b6060600060035467ffffffffffffffff8111156105c9576105c8611de2565b5b60405190808252806020026020018201604052801561060257816020015b6105ef61188b565b8152602001906001900390816105e75790505b50905060005b6003548110156109cf576000600160008381526020019081526020016000209050806040518060c0016040529081600082018054610645906120fe565b80601f0160208091040260200160405190810160405280929190818152602001828054610671906120fe565b80156106be5780601f10610693576101008083540402835291602001916106be565b820191906000526020600020905b8154815290600101906020018083116106a157829003601f168201915b505050505081526020016001820180546106d7906120fe565b80601f0160208091040260200160405190810160405280929190818152602001828054610703906120fe565b80156107505780601f1061072557610100808354040283529160200191610750565b820191906000526020600020905b81548152906001019060200180831161073357829003601f168201915b50505050508152602001600282018054610769906120fe565b80601f0160208091040260200160405190810160405280929190818152602001828054610795906120fe565b80156107e25780601f106107b7576101008083540402835291602001916107e2565b820191906000526020600020905b8154815290600101906020018083116107c557829003601f168201915b505050505081526020016003820180546107fb906120fe565b80601f0160208091040260200160405190810160405280929190818152602001828054610827906120fe565b80156108745780601f1061084957610100808354040283529160200191610874565b820191906000526020600020905b81548152906001019060200180831161085757829003601f168201915b5050505050815260200160048201805461088d906120fe565b80601f01602080910402602001604051908101604052809291908181526020018280546108b9906120fe565b80156109065780601f106108db57610100808354040283529160200191610906565b820191906000526020600020905b8154815290600101906020018083116108e957829003601f168201915b505050505081526020016005820180548060200260200160405190810160405280929190818152602001828054801561099457602002820191906000526020600020905b8160009054906101000a900473ffffffffffffffffffffffffffffffffffffffff1673ffffffffffffffffffffffffffffffffffffffff168152602001906001019080831161094a575b5050505050815250508383815181106109b0576109af61212f565b5b60200260200101819052505080806109c79061218d565b915050610608565b508091505090565b6000806000806002548152602001908152602001600020905086816000019081610a019190612381565b5085816001019081610a139190612381565b5084816002019081610a259190612381565b5083816003019081610a379190612381565b5082816004019081610a499190612381565b5060026000815480929190610a5d9061218d565b91905055506001600254610a719190612453565b91505095945050505050565b6000602052806000526040600020600091509050806000018054610aa0906120fe565b80601f0160208091040260200160405190810160405280929190818152602001828054610acc906120fe565b8015610b195780601f10610aee57610100808354040283529160200191610b19565b820191906000526020600020905b815481529060010190602001808311610afc57829003601f168201915b505050505090806001018054610b2e906120fe565b80601f0160208091040260200160405190810160405280929190818152602001828054610b5a906120fe565b8015610ba75780601f10610b7c57610100808354040283529160200191610ba7565b820191906000526020600020905b815481529060010190602001808311610b8a57829003601f168201915b505050505090806002018054610bbc906120fe565b80601f0160208091040260200160405190810160405280929190818152602001828054610be8906120fe565b8015610c355780601f10610c0a57610100808354040283529160200191610c35565b820191906000526020600020905b815481529060010190602001808311610c1857829003601f168201915b505050505090806003018054610c4a906120fe565b80601f0160208091040260200160405190810160405280929190818152602001828054610c76906120fe565b8015610cc35780601f10610c9857610100808354040283529160200191610cc3565b820191906000526020600020905b815481529060010190602001808311610ca657829003601f168201915b505050505090806004018054610cd8906120fe565b80601f0160208091040260200160405190810160405280929190818152602001828054610d04906120fe565b8015610d515780601f10610d2657610100808354040283529160200191610d51565b820191906000526020600020905b815481529060010190602001808311610d3457829003601f168201915b5050505050905085565b606060016000838152602001908152602001600020600501805480602002602001604051908101604052809291908181526020018280548015610df357602002820191906000526020600020905b8160009054906101000a900473ffffffffffffffffffffffffffffffffffffffff1673ffffffffffffffffffffffffffffffffffffffff1681526020019060010190808311610da9575b50505050509050919050565b600060035411610e44576040517f08c379a0000000000000000000000000000000000000000000000000000000008152600401610e3b906124d3565b60405180910390fd5b6003548110610e88576040517f08c379a0000000000000000000000000000000000000000000000000000000008152600401610e7f9061253f565b60405180910390fd5b600060016000838152602001908152602001600020905080600080600254815260200190815260200160002060008201816000019081610ec89190612575565b5060018201816001019081610edd9190612575565b5060028201816002019081610ef29190612575565b5060038201816003019081610f079190612575565b5060048201816004019081610f1c9190612575565b506005820181600501908054610f339291906118c1565b5090505060026000815480929190610f4a9061218d565b9190505550600160006001600354610f629190612453565b81526020019081526020016000206001600084815260200190815260200160002060008201816000019081610f979190612575565b5060018201816001019081610fac9190612575565b5060028201816002019081610fc19190612575565b5060038201816003019081610fd69190612575565b5060048201816004019081610feb9190612575565b5060058201816005019080546110029291906118c1565b509050506001600060016003546110199190612453565b8152602001908152602001600020600080820160006110389190611913565b6001820160006110489190611913565b6002820160006110589190611913565b6003820160006110689190611913565b6004820160006110789190611913565b6005820160006110889190611953565b50506003600081548092919061109d9061265d565b91905055505050565b6060600060025467ffffffffffffffff8111156110c6576110c5611de2565b5b6040519080825280602002602001820160405280156110ff57816020015b6110ec61188b565b8152602001906001900390816110e45790505b50905060005b6002548110156114cb5760008060008381526020019081526020016000209050806040518060c0016040529081600082018054611141906120fe565b80601f016020809104026020016040519081016040528092919081815260200182805461116d906120fe565b80156111ba5780601f1061118f576101008083540402835291602001916111ba565b820191906000526020600020905b81548152906001019060200180831161119d57829003601f168201915b505050505081526020016001820180546111d3906120fe565b80601f01602080910402602001604051908101604052809291908181526020018280546111ff906120fe565b801561124c5780601f106112215761010080835404028352916020019161124c565b820191906000526020600020905b81548152906001019060200180831161122f57829003601f168201915b50505050508152602001600282018054611265906120fe565b80601f0160208091040260200160405190810160405280929190818152602001828054611291906120fe565b80156112de5780601f106112b3576101008083540402835291602001916112de565b820191906000526020600020905b8154815290600101906020018083116112c157829003601f168201915b505050505081526020016003820180546112f7906120fe565b80601f0160208091040260200160405190810160405280929190818152602001828054611323906120fe565b80156113705780601f1061134557610100808354040283529160200191611370565b820191906000526020600020905b81548152906001019060200180831161135357829003601f168201915b50505050508152602001600482018054611389906120fe565b80601f01602080910402602001604051908101604052809291908181526020018280546113b5906120fe565b80156114025780601f106113d757610100808354040283529160200191611402565b820191906000526020600020905b8154815290600101906020018083116113e557829003601f168201915b505050505081526020016005820180548060200260200160405190810160405280929190818152602001828054801561149057602002820191906000526020600020905b8160009054906101000a900473ffffffffffffffffffffffffffffffffffffffff1673ffffffffffffffffffffffffffffffffffffffff1681526020019060010190808311611446575b5050505050815250508383815181106114ac576114ab61212f565b5b60200260200101819052505080806114c39061218d565b915050611105565b508091505090565b60025481565b606060008083815260200190815260200160002060050180548060200260200160405190810160405280929190818152602001828054801561157057602002820191906000526020600020905b8160009054906101000a900473ffffffffffffffffffffffffffffffffffffffff1673ffffffffffffffffffffffffffffffffffffffff1681526020019060010190808311611526575b50505050509050919050565b6000600254116115c1576040517f08c379a00000000000000000000000000000000000000000000000000000000081526004016115b8906126d2565b60405180910390fd5b6002548110611605576040517f08c379a00000000000000000000000000000000000000000000000000000000081526004016115fc9061253f565b60405180910390fd5b6000806000838152602001908152602001600020905080600501339080600181540180825580915050600190039060005260206000200160009091909190916101000a81548173ffffffffffffffffffffffffffffffffffffffff021916908373ffffffffffffffffffffffffffffffffffffffff16021790555080600160006003548152602001908152602001600020600082018160000190816116aa9190612575565b50600182018160010190816116bf9190612575565b50600282018160020190816116d49190612575565b50600382018160030190816116e99190612575565b50600482018160040190816116fe9190612575565b5060058201816005019080546117159291906118c1565b509050506003600081548092919061172c9061218d565b919050555060008060016002546117439190612453565b8152602001908152602001600020600080848152602001908152602001600020600082018160000190816117779190612575565b506001820181600101908161178c9190612575565b50600282018160020190816117a19190612575565b50600382018160030190816117b69190612575565b50600482018160040190816117cb9190612575565b5060058201816005019080546117e29291906118c1565b5090505060008060016002546117f89190612453565b8152602001908152602001600020600080820160006118179190611913565b6001820160006118279190611913565b6002820160006118379190611913565b6003820160006118479190611913565b6004820160006118579190611913565b6005820160006118679190611953565b50506002600081548092919061187c9061265d565b91905055505050565b60035481565b6040518060c001604052806060815260200160608152602001606081526020016060815260200160608152602001606081525090565b8280548282559060005260206000209081019282156119025760005260206000209182015b828111156119015782548255916001019190600101906118e6565b5b50905061190f9190611974565b5090565b50805461191f906120fe565b6000825580601f106119315750611950565b601f01602090049060005260206000209081019061194f9190611974565b5b50565b50805460008255906000526020600020908101906119719190611974565b50565b5b8082111561198d576000816000905550600101611975565b5090565b6000604051905090565b600080fd5b600080fd5b6000819050919050565b6119b8816119a5565b81146119c357600080fd5b50565b6000813590506119d5816119af565b92915050565b6000602082840312156119f1576119f061199b565b5b60006119ff848285016119c6565b91505092915050565b600081519050919050565b600082825260208201905092915050565b60005b83811015611a42578082015181840152602081019050611a27565b60008484015250505050565b6000601f19601f8301169050919050565b6000611a6a82611a08565b611a748185611a13565b9350611a84818560208601611a24565b611a8d81611a4e565b840191505092915050565b600060a0820190508181036000830152611ab28188611a5f565b90508181036020830152611ac68187611a5f565b90508181036040830152611ada8186611a5f565b90508181036060830152611aee8185611a5f565b90508181036080830152611b028184611a5f565b90509695505050505050565b600081519050919050565b600082825260208201905092915050565b6000819050602082019050919050565b600082825260208201905092915050565b6000611b5682611a08565b611b608185611b3a565b9350611b70818560208601611a24565b611b7981611a4e565b840191505092915050565b600081519050919050565b600082825260208201905092915050565b6000819050602082019050919050565b600073ffffffffffffffffffffffffffffffffffffffff82169050919050565b6000611bdb82611bb0565b9050919050565b611beb81611bd0565b82525050565b6000611bfd8383611be2565b60208301905092915050565b6000602082019050919050565b6000611c2182611b84565b611c2b8185611b8f565b9350611c3683611ba0565b8060005b83811015611c67578151611c4e8882611bf1565b9750611c5983611c09565b925050600181019050611c3a565b5085935050505092915050565b600060c0830160008301518482036000860152611c918282611b4b565b91505060208301518482036020860152611cab8282611b4b565b91505060408301518482036040860152611cc58282611b4b565b91505060608301518482036060860152611cdf8282611b4b565b91505060808301518482036080860152611cf98282611b4b565b91505060a083015184820360a0860152611d138282611c16565b9150508091505092915050565b6000611d2c8383611c74565b905092915050565b6000602082019050919050565b6000611d4c82611b0e565b611d568185611b19565b935083602082028501611d6885611b2a565b8060005b85811015611da45784840389528151611d858582611d20565b9450611d9083611d34565b925060208a01995050600181019050611d6c565b50829750879550505050505092915050565b60006020820190508181036000830152611dd08184611d41565b905092915050565b600080fd5b600080fd5b7f4e487b7100000000000000000000000000000000000000000000000000000000600052604160045260246000fd5b611e1a82611a4e565b810181811067ffffffffffffffff82111715611e3957611e38611de2565b5b80604052505050565b6000611e4c611991565b9050611e588282611e11565b919050565b600067ffffffffffffffff821115611e7857611e77611de2565b5b611e8182611a4e565b9050602081019050919050565b82818337600083830152505050565b6000611eb0611eab84611e5d565b611e42565b905082815260208101848484011115611ecc57611ecb611ddd565b5b611ed7848285611e8e565b509392505050565b600082601f830112611ef457611ef3611dd8565b5b8135611f04848260208601611e9d565b91505092915050565b600080600080600060a08688031215611f2957611f2861199b565b5b600086013567ffffffffffffffff811115611f4757611f466119a0565b5b611f5388828901611edf565b955050602086013567ffffffffffffffff811115611f7457611f736119a0565b5b611f8088828901611edf565b945050604086013567ffffffffffffffff811115611fa157611fa06119a0565b5b611fad88828901611edf565b935050606086013567ffffffffffffffff811115611fce57611fcd6119a0565b5b611fda88828901611edf565b925050608086013567ffffffffffffffff811115611ffb57611ffa6119a0565b5b61200788828901611edf565b9150509295509295909350565b61201d816119a5565b82525050565b60006020820190506120386000830184612014565b92915050565b600082825260208201905092915050565b600061205a82611b84565b612064818561203e565b935061206f83611ba0565b8060005b838110156120a05781516120878882611bf1565b975061209283611c09565b925050600181019050612073565b5085935050505092915050565b600060208201905081810360008301526120c7818461204f565b905092915050565b7f4e487b7100000000000000000000000000000000000000000000000000000000600052602260045260246000fd5b6000600282049050600182168061211657607f821691505b602082108103612129576121286120cf565b5b50919050565b7f4e487b7100000000000000000000000000000000000000000000000000000000600052603260045260246000fd5b7f4e487b7100000000000000000000000000000000000000000000000000000000600052601160045260246000fd5b6000612198826119a5565b91507fffffffffffffffffffffffffffffffffffffffffffffffffffffffffffffffff82036121ca576121c961215e565b5b600182019050919050565b60008190508160005260206000209050919050565b60006020601f8301049050919050565b600082821b905092915050565b6000600883026122377fffffffffffffffffffffffffffffffffffffffffffffffffffffffffffffffff826121fa565b61224186836121fa565b95508019841693508086168417925050509392505050565b6000819050919050565b600061227e612279612274846119a5565b612259565b6119a5565b9050919050565b6000819050919050565b61229883612263565b6122ac6122a482612285565b848454612207565b825550505050565b600090565b6122c16122b4565b6122cc81848461228f565b505050565b5b818110156122f0576122e56000826122b9565b6001810190506122d2565b5050565b601f82111561233557612306816121d5565b61230f846121ea565b8101602085101561231e578190505b61233261232a856121ea565b8301826122d1565b50505b505050565b600082821c905092915050565b60006123586000198460080261233a565b1980831691505092915050565b60006123718383612347565b9150826002028217905092915050565b61238a82611a08565b67ffffffffffffffff8111156123a3576123a2611de2565b5b6123ad82546120fe565b6123b88282856122f4565b600060209050601f8311600181146123eb57600084156123d9578287015190505b6123e38582612365565b86555061244b565b601f1984166123f9866121d5565b60005b82811015612421578489015182556001820191506020850194506020810190506123fc565b8683101561243e578489015161243a601f891682612347565b8355505b6001600288020188555050505b505050505050565b600061245e826119a5565b9150612469836119a5565b92508282039050818111156124815761248061215e565b5b92915050565b7f4e6f20626f6f6b7320746f2072657475726e2e00000000000000000000000000600082015250565b60006124bd601383611a13565b91506124c882612487565b602082019050919050565b600060208201905081810360008301526124ec816124b0565b9050919050565b7f496e76616c696420626f6f6b2049442e00000000000000000000000000000000600082015250565b6000612529601083611a13565b9150612534826124f3565b602082019050919050565b600060208201905081810360008301526125588161251c565b9050919050565b60008154905061256e816120fe565b9050919050565b81810361258357505061265b565b61258c8261255f565b67ffffffffffffffff8111156125a5576125a4611de2565b5b6125af82546120fe565b6125ba8282856122f4565b6000601f8311600181146125e957600084156125d7578287015490505b6125e18582612365565b865550612654565b601f1984166125f7876121d5565b9650612602866121d5565b60005b8281101561262a57848901548255600182019150600185019450602081019050612605565b868310156126475784890154612643601f891682612347565b8355505b6001600288020188555050505b5050505050505b565b6000612668826119a5565b91506000820361267b5761267a61215e565b5b600182039050919050565b7f4e6f20617661696c61626c6520626f6f6b7320746f20626f72726f772e000000600082015250565b60006126bc601d83611a13565b91506126c782612686565b602082019050919050565b600060208201905081810360008301526126eb816126af565b905091905056fea2646970667358221220903a158daba14a7535c7f003d2b404f27a8622cb3ca757776a420818d7ffcad764736f6c63430008130033",
  "linkReferences": {},
  "deployedLinkReferences": {}
}