{
  "contractName": "LibraryBook",
  "abi": [
    {
      "inputs": [
        {
          "internalType": "uint256",
          "name": "",
          "type": "uint256"
        }
      ],
      "name": "books",
      "outputs": [
        {
          "internalType": "string",
          "name": "title",
          "type": "string"
        },
        {
          "internalType": "string",
          "name": "description",
          "type": "string"
        },
        {
          "internalType": "uint256",
          "name": "submission",
          "type": "uint256"
        },
        {
          "internalType": "string",
          "name": "image",
          "type": "string"
        }
      ],
      "stateMutability": "view",
      "type": "function",
      "constant": true
    },
    {
      "inputs": [],
      "name": "numberofBooks",
      "outputs": [
        {
          "internalType": "uint256",
          "name": "",
          "type": "uint256"
        }
      ],
      "stateMutability": "view",
      "type": "function",
      "constant": true
    },
    {
      "inputs": [
        {
          "internalType": "string",
          "name": "_title",
          "type": "string"
        },
        {
          "internalType": "string",
          "name": "_description",
          "type": "string"
        },
        {
          "internalType": "string",
          "name": "_image",
          "type": "string"
        }
      ],
      "name": "createBook",
      "outputs": [
        {
          "internalType": "uint256",
          "name": "",
          "type": "uint256"
        }
      ],
      "stateMutability": "nonpayable",
      "type": "function"
    },
    {
      "inputs": [
        {
          "internalType": "uint256",
          "name": "_id",
          "type": "uint256"
        }
      ],
      "name": "borrow",
      "outputs": [],
      "stateMutability": "payable",
      "type": "function",
      "payable": true
    },
    {
      "inputs": [
        {
          "internalType": "uint256",
          "name": "_id",
          "type": "uint256"
        }
      ],
      "name": "getBorrowers",
      "outputs": [
        {
          "internalType": "address[]",
          "name": "",
          "type": "address[]"
        }
      ],
      "stateMutability": "view",
      "type": "function",
      "constant": true
    },
    {
      "inputs": [],
      "name": "getBooks",
      "outputs": [
        {
          "components": [
            {
              "internalType": "string",
              "name": "title",
              "type": "string"
            },
            {
              "internalType": "string",
              "name": "description",
              "type": "string"
            },
            {
              "internalType": "uint256",
              "name": "submission",
              "type": "uint256"
            },
            {
              "internalType": "string",
              "name": "image",
              "type": "string"
            },
            {
              "internalType": "address[]",
              "name": "borrowers",
              "type": "address[]"
            }
          ],
          "internalType": "struct LibraryBook.Book[]",
          "name": "",
          "type": "tuple[]"
        }
      ],
      "stateMutability": "view",
      "type": "function",
      "constant": true
    }
  ],
  "bytecode": "0x6080604052600060015534801561001557600080fd5b50611320806100256000396000f3fe6080604052600436106100555760003560e01c80632497872d1461005a5780634c7e840e1461008557806368744046146100c25780639f34978914610102578063bfdf6b381461012d578063c5ebeaec1461016a575b600080fd5b34801561006657600080fd5b5061006f610186565b60405161007c9190610867565b60405180910390f35b34801561009157600080fd5b506100ac60048036038101906100a791906109dc565b61018c565b6040516100b99190610867565b60405180910390f35b3480156100ce57600080fd5b506100e960048036038101906100e49190610aaf565b610222565b6040516100f99493929190610b5b565b60405180910390f35b34801561010e57600080fd5b506101176103ea565b6040516101249190610e4b565b60405180910390f35b34801561013957600080fd5b50610154600480360381019061014f9190610aaf565b6106fd565b6040516101619190610edc565b60405180910390f35b610184600480360381019061017f9190610aaf565b6107a0565b005b60015481565b6000806000806001548152602001908152602001600020905062093a80426101b49190610f2d565b8160020181905550848160000190816101cd919061116d565b50838160010190816101df919061116d565b50828160030190816101f1919061116d565b50600160008154809291906102059061123f565b9190505550600180546102189190611287565b9150509392505050565b600060205280600052604060002060009150905080600001805461024590610f90565b80601f016020809104026020016040519081016040528092919081815260200182805461027190610f90565b80156102be5780601f10610293576101008083540402835291602001916102be565b820191906000526020600020905b8154815290600101906020018083116102a157829003601f168201915b5050505050908060010180546102d390610f90565b80601f01602080910402602001604051908101604052809291908181526020018280546102ff90610f90565b801561034c5780601f106103215761010080835404028352916020019161034c565b820191906000526020600020905b81548152906001019060200180831161032f57829003601f168201915b50505050509080600201549080600301805461036790610f90565b80601f016020809104026020016040519081016040528092919081815260200182805461039390610f90565b80156103e05780601f106103b5576101008083540402835291602001916103e0565b820191906000526020600020905b8154815290600101906020018083116103c357829003601f168201915b5050505050905084565b6060600060015467ffffffffffffffff81111561040a576104096108b1565b5b60405190808252806020026020018201604052801561044357816020015b61043061081f565b8152602001906001900390816104285790505b50905060005b6001548110156106f55760008060008381526020019081526020016000209050806040518060a001604052908160008201805461048590610f90565b80601f01602080910402602001604051908101604052809291908181526020018280546104b190610f90565b80156104fe5780601f106104d3576101008083540402835291602001916104fe565b820191906000526020600020905b8154815290600101906020018083116104e157829003601f168201915b5050505050815260200160018201805461051790610f90565b80601f016020809104026020016040519081016040528092919081815260200182805461054390610f90565b80156105905780601f1061056557610100808354040283529160200191610590565b820191906000526020600020905b81548152906001019060200180831161057357829003601f168201915b50505050508152602001600282015481526020016003820180546105b390610f90565b80601f01602080910402602001604051908101604052809291908181526020018280546105df90610f90565b801561062c5780601f106106015761010080835404028352916020019161062c565b820191906000526020600020905b81548152906001019060200180831161060f57829003601f168201915b50505050508152602001600482018054806020026020016040519081016040528092919081815260200182805480156106ba57602002820191906000526020600020905b8160009054906101000a900473ffffffffffffffffffffffffffffffffffffffff1673ffffffffffffffffffffffffffffffffffffffff1681526020019060010190808311610670575b5050505050815250508383815181106106d6576106d56112bb565b5b60200260200101819052505080806106ed9061123f565b915050610449565b508091505090565b606060008083815260200190815260200160002060040180548060200260200160405190810160405280929190818152602001828054801561079457602002820191906000526020600020905b8160009054906101000a900473ffffffffffffffffffffffffffffffffffffffff1673ffffffffffffffffffffffffffffffffffffffff168152602001906001019080831161074a575b50505050509050919050565b6000806000838152602001908152602001600020905080600401339080600181540180825580915050600190039060005260206000200160009091909190916101000a81548173ffffffffffffffffffffffffffffffffffffffff021916908373ffffffffffffffffffffffffffffffffffffffff1602179055505050565b6040518060a0016040528060608152602001606081526020016000815260200160608152602001606081525090565b6000819050919050565b6108618161084e565b82525050565b600060208201905061087c6000830184610858565b92915050565b6000604051905090565b600080fd5b600080fd5b600080fd5b600080fd5b6000601f19601f8301169050919050565b7f4e487b7100000000000000000000000000000000000000000000000000000000600052604160045260246000fd5b6108e9826108a0565b810181811067ffffffffffffffff82111715610908576109076108b1565b5b80604052505050565b600061091b610882565b905061092782826108e0565b919050565b600067ffffffffffffffff821115610947576109466108b1565b5b610950826108a0565b9050602081019050919050565b82818337600083830152505050565b600061097f61097a8461092c565b610911565b90508281526020810184848401111561099b5761099a61089b565b5b6109a684828561095d565b509392505050565b600082601f8301126109c3576109c2610896565b5b81356109d384826020860161096c565b91505092915050565b6000806000606084860312156109f5576109f461088c565b5b600084013567ffffffffffffffff811115610a1357610a12610891565b5b610a1f868287016109ae565b935050602084013567ffffffffffffffff811115610a4057610a3f610891565b5b610a4c868287016109ae565b925050604084013567ffffffffffffffff811115610a6d57610a6c610891565b5b610a79868287016109ae565b9150509250925092565b610a8c8161084e565b8114610a9757600080fd5b50565b600081359050610aa981610a83565b92915050565b600060208284031215610ac557610ac461088c565b5b6000610ad384828501610a9a565b91505092915050565b600081519050919050565b600082825260208201905092915050565b60005b83811015610b16578082015181840152602081019050610afb565b60008484015250505050565b6000610b2d82610adc565b610b378185610ae7565b9350610b47818560208601610af8565b610b50816108a0565b840191505092915050565b60006080820190508181036000830152610b758187610b22565b90508181036020830152610b898186610b22565b9050610b986040830185610858565b8181036060830152610baa8184610b22565b905095945050505050565b600081519050919050565b600082825260208201905092915050565b6000819050602082019050919050565b600082825260208201905092915050565b6000610bfd82610adc565b610c078185610be1565b9350610c17818560208601610af8565b610c20816108a0565b840191505092915050565b610c348161084e565b82525050565b600081519050919050565b600082825260208201905092915050565b6000819050602082019050919050565b600073ffffffffffffffffffffffffffffffffffffffff82169050919050565b6000610c9182610c66565b9050919050565b610ca181610c86565b82525050565b6000610cb38383610c98565b60208301905092915050565b6000602082019050919050565b6000610cd782610c3a565b610ce18185610c45565b9350610cec83610c56565b8060005b83811015610d1d578151610d048882610ca7565b9750610d0f83610cbf565b925050600181019050610cf0565b5085935050505092915050565b600060a0830160008301518482036000860152610d478282610bf2565b91505060208301518482036020860152610d618282610bf2565b9150506040830151610d766040860182610c2b565b5060608301518482036060860152610d8e8282610bf2565b91505060808301518482036080860152610da88282610ccc565b9150508091505092915050565b6000610dc18383610d2a565b905092915050565b6000602082019050919050565b6000610de182610bb5565b610deb8185610bc0565b935083602082028501610dfd85610bd1565b8060005b85811015610e395784840389528151610e1a8582610db5565b9450610e2583610dc9565b925060208a01995050600181019050610e01565b50829750879550505050505092915050565b60006020820190508181036000830152610e658184610dd6565b905092915050565b600082825260208201905092915050565b6000610e8982610c3a565b610e938185610e6d565b9350610e9e83610c56565b8060005b83811015610ecf578151610eb68882610ca7565b9750610ec183610cbf565b925050600181019050610ea2565b5085935050505092915050565b60006020820190508181036000830152610ef68184610e7e565b905092915050565b7f4e487b7100000000000000000000000000000000000000000000000000000000600052601160045260246000fd5b6000610f388261084e565b9150610f438361084e565b9250828201905080821115610f5b57610f5a610efe565b5b92915050565b7f4e487b7100000000000000000000000000000000000000000000000000000000600052602260045260246000fd5b60006002820490506001821680610fa857607f821691505b602082108103610fbb57610fba610f61565b5b50919050565b60008190508160005260206000209050919050565b60006020601f8301049050919050565b600082821b905092915050565b6000600883026110237fffffffffffffffffffffffffffffffffffffffffffffffffffffffffffffffff82610fe6565b61102d8683610fe6565b95508019841693508086168417925050509392505050565b6000819050919050565b600061106a6110656110608461084e565b611045565b61084e565b9050919050565b6000819050919050565b6110848361104f565b61109861109082611071565b848454610ff3565b825550505050565b600090565b6110ad6110a0565b6110b881848461107b565b505050565b5b818110156110dc576110d16000826110a5565b6001810190506110be565b5050565b601f821115611121576110f281610fc1565b6110fb84610fd6565b8101602085101561110a578190505b61111e61111685610fd6565b8301826110bd565b50505b505050565b600082821c905092915050565b600061114460001984600802611126565b1980831691505092915050565b600061115d8383611133565b9150826002028217905092915050565b61117682610adc565b67ffffffffffffffff81111561118f5761118e6108b1565b5b6111998254610f90565b6111a48282856110e0565b600060209050601f8311600181146111d757600084156111c5578287015190505b6111cf8582611151565b865550611237565b601f1984166111e586610fc1565b60005b8281101561120d578489015182556001820191506020850194506020810190506111e8565b8683101561122a5784890151611226601f891682611133565b8355505b6001600288020188555050505b505050505050565b600061124a8261084e565b91507fffffffffffffffffffffffffffffffffffffffffffffffffffffffffffffffff820361127c5761127b610efe565b5b600182019050919050565b60006112928261084e565b915061129d8361084e565b92508282039050818111156112b5576112b4610efe565b5b92915050565b7f4e487b7100000000000000000000000000000000000000000000000000000000600052603260045260246000fdfea2646970667358221220f34c0026a4aacbbf3fcec1249a669a9fc1b7b2715581f2a762c3ac1b8833bcdd64736f6c63430008110033",
  "immutableReferences": {},
  "source": "// SPDX-License-Identifier: MIT\r\npragma experimental ABIEncoderV2;\r\npragma solidity >=0.4.22 <0.9.0;\r\n\r\ncontract LibraryBook { //this will be used for student aide but for now i will just copy the crowdfunding campaign solidity\r\n    struct Book {\r\n        string title;\r\n        string description;\r\n        uint256 submission;\r\n        string image;\r\n        address[] borrowers;\r\n    }\r\n\r\n    mapping(uint256 => Book) public books;\r\n\r\n    uint256 public numberofBooks = 0;\r\n\r\n    function createBook(string memory _title, string memory _description, string memory _image) public returns (uint256) {\r\n        Book storage book = books[numberofBooks];\r\n\r\n        book.submission = block.timestamp + 7 days;\r\n        \r\n        book.title = _title;\r\n        book.description = _description;\r\n        book.image = _image;\r\n\r\n        numberofBooks++;\r\n\r\n        return numberofBooks - 1; //index of newest aide\r\n    }\r\n\r\n    function borrow(uint256 _id) public payable {\r\n\r\n        Book storage book = books[_id];\r\n\r\n        book.borrowers.push(msg.sender);\r\n    }\r\n\r\n    function getBorrowers(uint256 _id) view public returns (address[] memory) {\r\n        return (books[_id].borrowers);\r\n    }\r\n\r\n    function getBooks() public view returns (Book[] memory) {\r\n        Book[] memory allBooks = new Book[](numberofBooks);\r\n\r\n        for(uint i = 0; i < numberofBooks; i++){\r\n            Book storage item = books[i];\r\n\r\n            allBooks[i] = item;\r\n        }\r\n\r\n        return allBooks;\r\n    }\r\n}",
  "sourcePath": "C:\\Users\\iamem\\Desktop\\fyp\\contracts\\LibraryBook.sol",
  "compiler": {
    "name": "solc",
    "version": "0.8.17+commit.8df45f5f.Emscripten.clang"
  },
  "schemaVersion": "3.4.15",
  "updatedAt": "2023-12-03T10:10:30.703Z",
  "networkType": "ethereum",
  "devdoc": {
    "kind": "dev",
    "methods": {},
    "version": 1
  },
  "userdoc": {
    "kind": "user",
    "methods": {},
    "version": 1
  }
}