{
  "_format": "hh-sol-artifact-1",
  "contractName": "LibraryBook",
  "sourceName": "contracts/LibraryBook.sol",
  "abi": [
    {
      "inputs": [
        {
          "internalType": "uint256",
          "name": "",
          "type": "uint256"
        }
      ],
      "name": "availableBooks",
      "outputs": [
        {
          "internalType": "string",
          "name": "title",
          "type": "string"
        },
        {
          "internalType": "string",
          "name": "description",
          "type": "string"
        },
        {
          "internalType": "uint256",
          "name": "submission",
          "type": "uint256"
        },
        {
          "internalType": "string",
          "name": "image",
          "type": "string"
        }
      ],
      "stateMutability": "view",
      "type": "function"
    },
    {
      "inputs": [
        {
          "internalType": "uint256",
          "name": "_id",
          "type": "uint256"
        }
      ],
      "name": "bookReturned",
      "outputs": [],
      "stateMutability": "nonpayable",
      "type": "function"
    },
    {
      "inputs": [
        {
          "internalType": "uint256",
          "name": "_id",
          "type": "uint256"
        }
      ],
      "name": "borrow",
      "outputs": [],
      "stateMutability": "payable",
      "type": "function"
    },
    {
      "inputs": [
        {
          "internalType": "string",
          "name": "_title",
          "type": "string"
        },
        {
          "internalType": "string",
          "name": "_description",
          "type": "string"
        },
        {
          "internalType": "string",
          "name": "_image",
          "type": "string"
        }
      ],
      "name": "createBook",
      "outputs": [
        {
          "internalType": "uint256",
          "name": "",
          "type": "uint256"
        }
      ],
      "stateMutability": "nonpayable",
      "type": "function"
    },
    {
      "inputs": [],
      "name": "getBooks",
      "outputs": [
        {
          "components": [
            {
              "internalType": "string",
              "name": "title",
              "type": "string"
            },
            {
              "internalType": "string",
              "name": "description",
              "type": "string"
            },
            {
              "internalType": "uint256",
              "name": "submission",
              "type": "uint256"
            },
            {
              "internalType": "string",
              "name": "image",
              "type": "string"
            },
            {
              "internalType": "address[]",
              "name": "borrowers",
              "type": "address[]"
            }
          ],
          "internalType": "struct LibraryBook.Book[]",
          "name": "",
          "type": "tuple[]"
        }
      ],
      "stateMutability": "view",
      "type": "function"
    },
    {
      "inputs": [
        {
          "internalType": "uint256",
          "name": "_id",
          "type": "uint256"
        }
      ],
      "name": "getBorrowers",
      "outputs": [
        {
          "internalType": "address[]",
          "name": "",
          "type": "address[]"
        }
      ],
      "stateMutability": "view",
      "type": "function"
    },
    {
      "inputs": [],
      "name": "getUnavailable",
      "outputs": [
        {
          "components": [
            {
              "internalType": "string",
              "name": "title",
              "type": "string"
            },
            {
              "internalType": "string",
              "name": "description",
              "type": "string"
            },
            {
              "internalType": "uint256",
              "name": "submission",
              "type": "uint256"
            },
            {
              "internalType": "string",
              "name": "image",
              "type": "string"
            },
            {
              "internalType": "address[]",
              "name": "borrowers",
              "type": "address[]"
            }
          ],
          "internalType": "struct LibraryBook.Book[]",
          "name": "",
          "type": "tuple[]"
        }
      ],
      "stateMutability": "view",
      "type": "function"
    },
    {
      "inputs": [],
      "name": "numberofAvailable",
      "outputs": [
        {
          "internalType": "uint256",
          "name": "",
          "type": "uint256"
        }
      ],
      "stateMutability": "view",
      "type": "function"
    },
    {
      "inputs": [],
      "name": "numberofUnavailable",
      "outputs": [
        {
          "internalType": "uint256",
          "name": "",
          "type": "uint256"
        }
      ],
      "stateMutability": "view",
      "type": "function"
    },
    {
      "inputs": [
        {
          "internalType": "uint256",
          "name": "",
          "type": "uint256"
        }
      ],
      "name": "unavailableBooks",
      "outputs": [
        {
          "internalType": "string",
          "name": "title",
          "type": "string"
        },
        {
          "internalType": "string",
          "name": "description",
          "type": "string"
        },
        {
          "internalType": "uint256",
          "name": "submission",
          "type": "uint256"
        },
        {
          "internalType": "string",
          "name": "image",
          "type": "string"
        }
      ],
      "stateMutability": "view",
      "type": "function"
    }
  ],
  "bytecode": "0x60806040526000600255600060035534801561001a57600080fd5b50611d1c8061002a6000396000f3fe6080604052600436106100915760003560e01c80639f349789116100595780639f349789146101a7578063a8e1cc16146101d2578063bfdf6b38146101fd578063c5ebeaec1461023a578063f2a31c8e1461025657610091565b80630fbebf9a146100965780632734f681146100d65780634c7e840e146101015780635a0211391461013e5780638e31c3351461017e575b600080fd5b3480156100a257600080fd5b506100bd60048036038101906100b8919061116d565b610281565b6040516100cd9493929190611239565b60405180910390f35b3480156100e257600080fd5b506100eb610449565b6040516100f89190611529565b60405180910390f35b34801561010d57600080fd5b5061012860048036038101906101239190611680565b61075d565b6040516101359190611727565b60405180910390f35b34801561014a57600080fd5b506101656004803603810190610160919061116d565b6107f4565b6040516101759493929190611239565b60405180910390f35b34801561018a57600080fd5b506101a560048036038101906101a0919061116d565b6109bc565b005b3480156101b357600080fd5b506101bc610add565b6040516101c99190611529565b60405180910390f35b3480156101de57600080fd5b506101e7610df0565b6040516101f49190611727565b60405180910390f35b34801561020957600080fd5b50610224600480360381019061021f919061116d565b610df6565b60405161023191906117b1565b60405180910390f35b610254600480360381019061024f919061116d565b610e99565b005b34801561026257600080fd5b5061026b61101e565b6040516102789190611727565b60405180910390f35b60016020528060005260406000206000915090508060000180546102a490611802565b80601f01602080910402602001604051908101604052809291908181526020018280546102d090611802565b801561031d5780601f106102f25761010080835404028352916020019161031d565b820191906000526020600020905b81548152906001019060200180831161030057829003601f168201915b50505050509080600101805461033290611802565b80601f016020809104026020016040519081016040528092919081815260200182805461035e90611802565b80156103ab5780601f10610380576101008083540402835291602001916103ab565b820191906000526020600020905b81548152906001019060200180831161038e57829003601f168201915b5050505050908060020154908060030180546103c690611802565b80601f01602080910402602001604051908101604052809291908181526020018280546103f290611802565b801561043f5780601f106104145761010080835404028352916020019161043f565b820191906000526020600020905b81548152906001019060200180831161042257829003601f168201915b5050505050905084565b6060600060035467ffffffffffffffff81111561046957610468611555565b5b6040519080825280602002602001820160405280156104a257816020015b61048f611024565b8152602001906001900390816104875790505b50905060005b600354811015610755576000600160008381526020019081526020016000209050806040518060a00160405290816000820180546104e590611802565b80601f016020809104026020016040519081016040528092919081815260200182805461051190611802565b801561055e5780601f106105335761010080835404028352916020019161055e565b820191906000526020600020905b81548152906001019060200180831161054157829003601f168201915b5050505050815260200160018201805461057790611802565b80601f01602080910402602001604051908101604052809291908181526020018280546105a390611802565b80156105f05780601f106105c5576101008083540402835291602001916105f0565b820191906000526020600020905b8154815290600101906020018083116105d357829003601f168201915b505050505081526020016002820154815260200160038201805461061390611802565b80601f016020809104026020016040519081016040528092919081815260200182805461063f90611802565b801561068c5780601f106106615761010080835404028352916020019161068c565b820191906000526020600020905b81548152906001019060200180831161066f57829003601f168201915b505050505081526020016004820180548060200260200160405190810160405280929190818152602001828054801561071a57602002820191906000526020600020905b8160009054906101000a900473ffffffffffffffffffffffffffffffffffffffff1673ffffffffffffffffffffffffffffffffffffffff16815260200190600101908083116106d0575b50505050508152505083838151811061073657610735611833565b5b602002602001018190525050808061074d90611891565b9150506104a8565b508091505090565b6000806000806002548152602001908152602001600020905062093a804261078591906118d9565b81600201819055508481600001908161079e9190611ab9565b50838160010190816107b09190611ab9565b50828160030190816107c29190611ab9565b50600260008154809291906107d690611891565b919050555060016002546107ea9190611b8b565b9150509392505050565b600060205280600052604060002060009150905080600001805461081790611802565b80601f016020809104026020016040519081016040528092919081815260200182805461084390611802565b80156108905780601f1061086557610100808354040283529160200191610890565b820191906000526020600020905b81548152906001019060200180831161087357829003601f168201915b5050505050908060010180546108a590611802565b80601f01602080910402602001604051908101604052809291908181526020018280546108d190611802565b801561091e5780601f106108f35761010080835404028352916020019161091e565b820191906000526020600020905b81548152906001019060200180831161090157829003601f168201915b50505050509080600201549080600301805461093990611802565b80601f016020809104026020016040519081016040528092919081815260200182805461096590611802565b80156109b25780601f10610987576101008083540402835291602001916109b2565b820191906000526020600020905b81548152906001019060200180831161099557829003601f168201915b5050505050905084565b6000600160008381526020019081526020016000209050806000806002548152602001908152602001600020600082018160000190816109fc9190611bd5565b5060018201816001019081610a119190611bd5565b506002820154816002015560038201816003019081610a309190611bd5565b506004820181600401908054610a47929190611053565b509050506001600083815260200190815260200160002060008082016000610a6f91906110a5565b600182016000610a7f91906110a5565b6002820160009055600382016000610a9791906110a5565b600482016000610aa791906110e5565b505060036000815480929190610abc90611cbd565b919050555060026000815480929190610ad490611891565b91905055505050565b6060600060025467ffffffffffffffff811115610afd57610afc611555565b5b604051908082528060200260200182016040528015610b3657816020015b610b23611024565b815260200190600190039081610b1b5790505b50905060005b600254811015610de85760008060008381526020019081526020016000209050806040518060a0016040529081600082018054610b7890611802565b80601f0160208091040260200160405190810160405280929190818152602001828054610ba490611802565b8015610bf15780601f10610bc657610100808354040283529160200191610bf1565b820191906000526020600020905b815481529060010190602001808311610bd457829003601f168201915b50505050508152602001600182018054610c0a90611802565b80601f0160208091040260200160405190810160405280929190818152602001828054610c3690611802565b8015610c835780601f10610c5857610100808354040283529160200191610c83565b820191906000526020600020905b815481529060010190602001808311610c6657829003601f168201915b5050505050815260200160028201548152602001600382018054610ca690611802565b80601f0160208091040260200160405190810160405280929190818152602001828054610cd290611802565b8015610d1f5780601f10610cf457610100808354040283529160200191610d1f565b820191906000526020600020905b815481529060010190602001808311610d0257829003601f168201915b5050505050815260200160048201805480602002602001604051908101604052809291908181526020018280548015610dad57602002820191906000526020600020905b8160009054906101000a900473ffffffffffffffffffffffffffffffffffffffff1673ffffffffffffffffffffffffffffffffffffffff1681526020019060010190808311610d63575b505050505081525050838381518110610dc957610dc8611833565b5b6020026020010181905250508080610de090611891565b915050610b3c565b508091505090565b60025481565b6060600080838152602001908152602001600020600401805480602002602001604051908101604052809291908181526020018280548015610e8d57602002820191906000526020600020905b8160009054906101000a900473ffffffffffffffffffffffffffffffffffffffff1673ffffffffffffffffffffffffffffffffffffffff1681526020019060010190808311610e43575b50505050509050919050565b6000806000838152602001908152602001600020905080600401339080600181540180825580915050600190039060005260206000200160009091909190916101000a81548173ffffffffffffffffffffffffffffffffffffffff021916908373ffffffffffffffffffffffffffffffffffffffff1602179055508060016000600354815260200190815260200160002060008201816000019081610f3e9190611bd5565b5060018201816001019081610f539190611bd5565b506002820154816002015560038201816003019081610f729190611bd5565b506004820181600401908054610f89929190611053565b5090505060008083815260200190815260200160002060008082016000610fb091906110a5565b600182016000610fc091906110a5565b6002820160009055600382016000610fd891906110a5565b600482016000610fe891906110e5565b505060026000815480929190610ffd90611cbd565b91905055506003600081548092919061101590611891565b91905055505050565b60035481565b6040518060a0016040528060608152602001606081526020016000815260200160608152602001606081525090565b8280548282559060005260206000209081019282156110945760005260206000209182015b82811115611093578254825591600101919060010190611078565b5b5090506110a19190611106565b5090565b5080546110b190611802565b6000825580601f106110c357506110e2565b601f0160209004906000526020600020908101906110e19190611106565b5b50565b50805460008255906000526020600020908101906111039190611106565b50565b5b8082111561111f576000816000905550600101611107565b5090565b6000604051905090565b600080fd5b600080fd5b6000819050919050565b61114a81611137565b811461115557600080fd5b50565b60008135905061116781611141565b92915050565b6000602082840312156111835761118261112d565b5b600061119184828501611158565b91505092915050565b600081519050919050565b600082825260208201905092915050565b60005b838110156111d45780820151818401526020810190506111b9565b60008484015250505050565b6000601f19601f8301169050919050565b60006111fc8261119a565b61120681856111a5565b93506112168185602086016111b6565b61121f816111e0565b840191505092915050565b61123381611137565b82525050565b6000608082019050818103600083015261125381876111f1565b9050818103602083015261126781866111f1565b9050611276604083018561122a565b818103606083015261128881846111f1565b905095945050505050565b600081519050919050565b600082825260208201905092915050565b6000819050602082019050919050565b600082825260208201905092915050565b60006112db8261119a565b6112e581856112bf565b93506112f58185602086016111b6565b6112fe816111e0565b840191505092915050565b61131281611137565b82525050565b600081519050919050565b600082825260208201905092915050565b6000819050602082019050919050565b600073ffffffffffffffffffffffffffffffffffffffff82169050919050565b600061136f82611344565b9050919050565b61137f81611364565b82525050565b60006113918383611376565b60208301905092915050565b6000602082019050919050565b60006113b582611318565b6113bf8185611323565b93506113ca83611334565b8060005b838110156113fb5781516113e28882611385565b97506113ed8361139d565b9250506001810190506113ce565b5085935050505092915050565b600060a083016000830151848203600086015261142582826112d0565b9150506020830151848203602086015261143f82826112d0565b91505060408301516114546040860182611309565b506060830151848203606086015261146c82826112d0565b9150506080830151848203608086015261148682826113aa565b9150508091505092915050565b600061149f8383611408565b905092915050565b6000602082019050919050565b60006114bf82611293565b6114c9818561129e565b9350836020820285016114db856112af565b8060005b8581101561151757848403895281516114f88582611493565b9450611503836114a7565b925060208a019950506001810190506114df565b50829750879550505050505092915050565b6000602082019050818103600083015261154381846114b4565b905092915050565b600080fd5b600080fd5b7f4e487b7100000000000000000000000000000000000000000000000000000000600052604160045260246000fd5b61158d826111e0565b810181811067ffffffffffffffff821117156115ac576115ab611555565b5b80604052505050565b60006115bf611123565b90506115cb8282611584565b919050565b600067ffffffffffffffff8211156115eb576115ea611555565b5b6115f4826111e0565b9050602081019050919050565b82818337600083830152505050565b600061162361161e846115d0565b6115b5565b90508281526020810184848401111561163f5761163e611550565b5b61164a848285611601565b509392505050565b600082601f8301126116675761166661154b565b5b8135611677848260208601611610565b91505092915050565b6000806000606084860312156116995761169861112d565b5b600084013567ffffffffffffffff8111156116b7576116b6611132565b5b6116c386828701611652565b935050602084013567ffffffffffffffff8111156116e4576116e3611132565b5b6116f086828701611652565b925050604084013567ffffffffffffffff81111561171157611710611132565b5b61171d86828701611652565b9150509250925092565b600060208201905061173c600083018461122a565b92915050565b600082825260208201905092915050565b600061175e82611318565b6117688185611742565b935061177383611334565b8060005b838110156117a457815161178b8882611385565b97506117968361139d565b925050600181019050611777565b5085935050505092915050565b600060208201905081810360008301526117cb8184611753565b905092915050565b7f4e487b7100000000000000000000000000000000000000000000000000000000600052602260045260246000fd5b6000600282049050600182168061181a57607f821691505b60208210810361182d5761182c6117d3565b5b50919050565b7f4e487b7100000000000000000000000000000000000000000000000000000000600052603260045260246000fd5b7f4e487b7100000000000000000000000000000000000000000000000000000000600052601160045260246000fd5b600061189c82611137565b91507fffffffffffffffffffffffffffffffffffffffffffffffffffffffffffffffff82036118ce576118cd611862565b5b600182019050919050565b60006118e482611137565b91506118ef83611137565b925082820190508082111561190757611906611862565b5b92915050565b60008190508160005260206000209050919050565b60006020601f8301049050919050565b600082821b905092915050565b60006008830261196f7fffffffffffffffffffffffffffffffffffffffffffffffffffffffffffffffff82611932565b6119798683611932565b95508019841693508086168417925050509392505050565b6000819050919050565b60006119b66119b16119ac84611137565b611991565b611137565b9050919050565b6000819050919050565b6119d08361199b565b6119e46119dc826119bd565b84845461193f565b825550505050565b600090565b6119f96119ec565b611a048184846119c7565b505050565b5b81811015611a2857611a1d6000826119f1565b600181019050611a0a565b5050565b601f821115611a6d57611a3e8161190d565b611a4784611922565b81016020851015611a56578190505b611a6a611a6285611922565b830182611a09565b50505b505050565b600082821c905092915050565b6000611a9060001984600802611a72565b1980831691505092915050565b6000611aa98383611a7f565b9150826002028217905092915050565b611ac28261119a565b67ffffffffffffffff811115611adb57611ada611555565b5b611ae58254611802565b611af0828285611a2c565b600060209050601f831160018114611b235760008415611b11578287015190505b611b1b8582611a9d565b865550611b83565b601f198416611b318661190d565b60005b82811015611b5957848901518255600182019150602085019450602081019050611b34565b86831015611b765784890151611b72601f891682611a7f565b8355505b6001600288020188555050505b505050505050565b6000611b9682611137565b9150611ba183611137565b9250828203905081811115611bb957611bb8611862565b5b92915050565b600081549050611bce81611802565b9050919050565b818103611be3575050611cbb565b611bec82611bbf565b67ffffffffffffffff811115611c0557611c04611555565b5b611c0f8254611802565b611c1a828285611a2c565b6000601f831160018114611c495760008415611c37578287015490505b611c418582611a9d565b865550611cb4565b601f198416611c578761190d565b9650611c628661190d565b60005b82811015611c8a57848901548255600182019150600185019450602081019050611c65565b86831015611ca75784890154611ca3601f891682611a7f565b8355505b6001600288020188555050505b5050505050505b565b6000611cc882611137565b915060008203611cdb57611cda611862565b5b60018203905091905056fea26469706673582212207572b98edf7e5c82e5759c733d25879b981fc282b53b99295d8ba96aa68d44e064736f6c63430008130033",
  "linkReferences": {},
  "deployedLinkReferences": {}
}