{
  "_format": "hh-sol-artifact-1",
  "contractName": "LibraryBook",
  "sourceName": "contracts/LibraryBook.sol",
  "abi": [
    {
      "inputs": [
        {
          "internalType": "uint256",
          "name": "",
          "type": "uint256"
        }
      ],
      "name": "availableBooks",
      "outputs": [
        {
          "internalType": "string",
          "name": "title",
          "type": "string"
        },
        {
          "internalType": "string",
          "name": "description",
          "type": "string"
        },
        {
          "internalType": "uint256",
          "name": "submission",
          "type": "uint256"
        },
        {
          "internalType": "string",
          "name": "image",
          "type": "string"
        }
      ],
      "stateMutability": "view",
      "type": "function"
    },
    {
      "inputs": [
        {
          "internalType": "uint256",
          "name": "_id",
          "type": "uint256"
        }
      ],
      "name": "bookReturned",
      "outputs": [],
      "stateMutability": "nonpayable",
      "type": "function"
    },
    {
      "inputs": [
        {
          "internalType": "uint256",
          "name": "_id",
          "type": "uint256"
        }
      ],
      "name": "borrow",
      "outputs": [],
      "stateMutability": "payable",
      "type": "function"
    },
    {
      "inputs": [
        {
          "internalType": "string",
          "name": "_title",
          "type": "string"
        },
        {
          "internalType": "string",
          "name": "_description",
          "type": "string"
        },
        {
          "internalType": "string",
          "name": "_image",
          "type": "string"
        }
      ],
      "name": "createBook",
      "outputs": [
        {
          "internalType": "uint256",
          "name": "",
          "type": "uint256"
        }
      ],
      "stateMutability": "nonpayable",
      "type": "function"
    },
    {
      "inputs": [],
      "name": "getBooks",
      "outputs": [
        {
          "components": [
            {
              "internalType": "string",
              "name": "title",
              "type": "string"
            },
            {
              "internalType": "string",
              "name": "description",
              "type": "string"
            },
            {
              "internalType": "uint256",
              "name": "submission",
              "type": "uint256"
            },
            {
              "internalType": "string",
              "name": "image",
              "type": "string"
            },
            {
              "internalType": "address[]",
              "name": "borrowers",
              "type": "address[]"
            }
          ],
          "internalType": "struct LibraryBook.Book[]",
          "name": "",
          "type": "tuple[]"
        }
      ],
      "stateMutability": "view",
      "type": "function"
    },
    {
      "inputs": [
        {
          "internalType": "uint256",
          "name": "_id",
          "type": "uint256"
        }
      ],
      "name": "getBorrowers",
      "outputs": [
        {
          "internalType": "address[]",
          "name": "",
          "type": "address[]"
        }
      ],
      "stateMutability": "view",
      "type": "function"
    },
    {
      "inputs": [
        {
          "internalType": "uint256",
          "name": "_id",
          "type": "uint256"
        }
      ],
      "name": "getBorrowersForUnavailable",
      "outputs": [
        {
          "internalType": "address[]",
          "name": "",
          "type": "address[]"
        }
      ],
      "stateMutability": "view",
      "type": "function"
    },
    {
      "inputs": [],
      "name": "getUnavailable",
      "outputs": [
        {
          "components": [
            {
              "internalType": "string",
              "name": "title",
              "type": "string"
            },
            {
              "internalType": "string",
              "name": "description",
              "type": "string"
            },
            {
              "internalType": "uint256",
              "name": "submission",
              "type": "uint256"
            },
            {
              "internalType": "string",
              "name": "image",
              "type": "string"
            },
            {
              "internalType": "address[]",
              "name": "borrowers",
              "type": "address[]"
            }
          ],
          "internalType": "struct LibraryBook.Book[]",
          "name": "",
          "type": "tuple[]"
        }
      ],
      "stateMutability": "view",
      "type": "function"
    },
    {
      "inputs": [],
      "name": "numberofAvailable",
      "outputs": [
        {
          "internalType": "uint256",
          "name": "",
          "type": "uint256"
        }
      ],
      "stateMutability": "view",
      "type": "function"
    },
    {
      "inputs": [],
      "name": "numberofUnavailable",
      "outputs": [
        {
          "internalType": "uint256",
          "name": "",
          "type": "uint256"
        }
      ],
      "stateMutability": "view",
      "type": "function"
    },
    {
      "inputs": [
        {
          "internalType": "uint256",
          "name": "",
          "type": "uint256"
        }
      ],
      "name": "unavailableBooks",
      "outputs": [
        {
          "internalType": "string",
          "name": "title",
          "type": "string"
        },
        {
          "internalType": "string",
          "name": "description",
          "type": "string"
        },
        {
          "internalType": "uint256",
          "name": "submission",
          "type": "uint256"
        },
        {
          "internalType": "string",
          "name": "image",
          "type": "string"
        }
      ],
      "stateMutability": "view",
      "type": "function"
    }
  ],
  "bytecode": "0x60806040526000600255600060035534801561001a57600080fd5b506121a68061002a6000396000f3fe60806040526004361061009c5760003560e01c80638e31c335116100645780638e31c335146101c65780639f349789146101ef578063a8e1cc161461021a578063bfdf6b3814610245578063c5ebeaec14610282578063f2a31c8e1461029e5761009c565b80630fbebf9a146100a15780632734f681146100e15780634c7e840e1461010c5780635a0211391461014957806371d8e51914610189575b600080fd5b3480156100ad57600080fd5b506100c860048036038101906100c391906114b3565b6102c9565b6040516100d8949392919061157f565b60405180910390f35b3480156100ed57600080fd5b506100f6610491565b604051610103919061186f565b60405180910390f35b34801561011857600080fd5b50610133600480360381019061012e91906119c6565b6107a5565b6040516101409190611a6d565b60405180910390f35b34801561015557600080fd5b50610170600480360381019061016b91906114b3565b61083c565b604051610180949392919061157f565b60405180910390f35b34801561019557600080fd5b506101b060048036038101906101ab91906114b3565b610a04565b6040516101bd9190611af7565b60405180910390f35b3480156101d257600080fd5b506101ed60048036038101906101e891906114b3565b610aa8565b005b3480156101fb57600080fd5b50610204610cf7565b604051610211919061186f565b60405180910390f35b34801561022657600080fd5b5061022f61100a565b60405161023c9190611a6d565b60405180910390f35b34801561025157600080fd5b5061026c600480360381019061026791906114b3565b611010565b6040516102799190611af7565b60405180910390f35b61029c600480360381019061029791906114b3565b6110b3565b005b3480156102aa57600080fd5b506102b3611364565b6040516102c09190611a6d565b60405180910390f35b60016020528060005260406000206000915090508060000180546102ec90611b48565b80601f016020809104026020016040519081016040528092919081815260200182805461031890611b48565b80156103655780601f1061033a57610100808354040283529160200191610365565b820191906000526020600020905b81548152906001019060200180831161034857829003601f168201915b50505050509080600101805461037a90611b48565b80601f01602080910402602001604051908101604052809291908181526020018280546103a690611b48565b80156103f35780601f106103c8576101008083540402835291602001916103f3565b820191906000526020600020905b8154815290600101906020018083116103d657829003601f168201915b50505050509080600201549080600301805461040e90611b48565b80601f016020809104026020016040519081016040528092919081815260200182805461043a90611b48565b80156104875780601f1061045c57610100808354040283529160200191610487565b820191906000526020600020905b81548152906001019060200180831161046a57829003601f168201915b5050505050905084565b6060600060035467ffffffffffffffff8111156104b1576104b061189b565b5b6040519080825280602002602001820160405280156104ea57816020015b6104d761136a565b8152602001906001900390816104cf5790505b50905060005b60035481101561079d576000600160008381526020019081526020016000209050806040518060a001604052908160008201805461052d90611b48565b80601f016020809104026020016040519081016040528092919081815260200182805461055990611b48565b80156105a65780601f1061057b576101008083540402835291602001916105a6565b820191906000526020600020905b81548152906001019060200180831161058957829003601f168201915b505050505081526020016001820180546105bf90611b48565b80601f01602080910402602001604051908101604052809291908181526020018280546105eb90611b48565b80156106385780601f1061060d57610100808354040283529160200191610638565b820191906000526020600020905b81548152906001019060200180831161061b57829003601f168201915b505050505081526020016002820154815260200160038201805461065b90611b48565b80601f016020809104026020016040519081016040528092919081815260200182805461068790611b48565b80156106d45780601f106106a9576101008083540402835291602001916106d4565b820191906000526020600020905b8154815290600101906020018083116106b757829003601f168201915b505050505081526020016004820180548060200260200160405190810160405280929190818152602001828054801561076257602002820191906000526020600020905b8160009054906101000a900473ffffffffffffffffffffffffffffffffffffffff1673ffffffffffffffffffffffffffffffffffffffff1681526020019060010190808311610718575b50505050508152505083838151811061077e5761077d611b79565b5b602002602001018190525050808061079590611bd7565b9150506104f0565b508091505090565b6000806000806002548152602001908152602001600020905062093a80426107cd9190611c1f565b8160020181905550848160000190816107e69190611dff565b50838160010190816107f89190611dff565b508281600301908161080a9190611dff565b506002600081548092919061081e90611bd7565b919050555060016002546108329190611ed1565b9150509392505050565b600060205280600052604060002060009150905080600001805461085f90611b48565b80601f016020809104026020016040519081016040528092919081815260200182805461088b90611b48565b80156108d85780601f106108ad576101008083540402835291602001916108d8565b820191906000526020600020905b8154815290600101906020018083116108bb57829003601f168201915b5050505050908060010180546108ed90611b48565b80601f016020809104026020016040519081016040528092919081815260200182805461091990611b48565b80156109665780601f1061093b57610100808354040283529160200191610966565b820191906000526020600020905b81548152906001019060200180831161094957829003601f168201915b50505050509080600201549080600301805461098190611b48565b80601f01602080910402602001604051908101604052809291908181526020018280546109ad90611b48565b80156109fa5780601f106109cf576101008083540402835291602001916109fa565b820191906000526020600020905b8154815290600101906020018083116109dd57829003601f168201915b5050505050905084565b606060016000838152602001908152602001600020600401805480602002602001604051908101604052809291908181526020018280548015610a9c57602002820191906000526020600020905b8160009054906101000a900473ffffffffffffffffffffffffffffffffffffffff1673ffffffffffffffffffffffffffffffffffffffff1681526020019060010190808311610a52575b50505050509050919050565b600060035411610aed576040517f08c379a0000000000000000000000000000000000000000000000000000000008152600401610ae490611f51565b60405180910390fd5b6003548110610b31576040517f08c379a0000000000000000000000000000000000000000000000000000000008152600401610b2890611fbd565b60405180910390fd5b600060016000838152602001908152602001600020905080600080600254815260200190815260200160002060008201816000019081610b719190611ff3565b5060018201816001019081610b869190611ff3565b506002820154816002015560038201816003019081610ba59190611ff3565b506004820181600401908054610bbc929190611399565b5090505060026000815480929190610bd390611bd7565b9190505550600160006001600354610beb9190611ed1565b81526020019081526020016000206001600084815260200190815260200160002060008201816000019081610c209190611ff3565b5060018201816001019081610c359190611ff3565b506002820154816002015560038201816003019081610c549190611ff3565b506004820181600401908054610c6b929190611399565b50905050600160006001600354610c829190611ed1565b815260200190815260200160002060008082016000610ca191906113eb565b600182016000610cb191906113eb565b6002820160009055600382016000610cc991906113eb565b600482016000610cd9919061142b565b505060036000815480929190610cee906120db565b91905055505050565b6060600060025467ffffffffffffffff811115610d1757610d1661189b565b5b604051908082528060200260200182016040528015610d5057816020015b610d3d61136a565b815260200190600190039081610d355790505b50905060005b6002548110156110025760008060008381526020019081526020016000209050806040518060a0016040529081600082018054610d9290611b48565b80601f0160208091040260200160405190810160405280929190818152602001828054610dbe90611b48565b8015610e0b5780601f10610de057610100808354040283529160200191610e0b565b820191906000526020600020905b815481529060010190602001808311610dee57829003601f168201915b50505050508152602001600182018054610e2490611b48565b80601f0160208091040260200160405190810160405280929190818152602001828054610e5090611b48565b8015610e9d5780601f10610e7257610100808354040283529160200191610e9d565b820191906000526020600020905b815481529060010190602001808311610e8057829003601f168201915b5050505050815260200160028201548152602001600382018054610ec090611b48565b80601f0160208091040260200160405190810160405280929190818152602001828054610eec90611b48565b8015610f395780601f10610f0e57610100808354040283529160200191610f39565b820191906000526020600020905b815481529060010190602001808311610f1c57829003601f168201915b5050505050815260200160048201805480602002602001604051908101604052809291908181526020018280548015610fc757602002820191906000526020600020905b8160009054906101000a900473ffffffffffffffffffffffffffffffffffffffff1673ffffffffffffffffffffffffffffffffffffffff1681526020019060010190808311610f7d575b505050505081525050838381518110610fe357610fe2611b79565b5b6020026020010181905250508080610ffa90611bd7565b915050610d56565b508091505090565b60025481565b60606000808381526020019081526020016000206004018054806020026020016040519081016040528092919081815260200182805480156110a757602002820191906000526020600020905b8160009054906101000a900473ffffffffffffffffffffffffffffffffffffffff1673ffffffffffffffffffffffffffffffffffffffff168152602001906001019080831161105d575b50505050509050919050565b6000600254116110f8576040517f08c379a00000000000000000000000000000000000000000000000000000000081526004016110ef90612150565b60405180910390fd5b600254811061113c576040517f08c379a000000000000000000000000000000000000000000000000000000000815260040161113390611fbd565b60405180910390fd5b6000806000838152602001908152602001600020905080600401339080600181540180825580915050600190039060005260206000200160009091909190916101000a81548173ffffffffffffffffffffffffffffffffffffffff021916908373ffffffffffffffffffffffffffffffffffffffff16021790555080600160006003548152602001908152602001600020600082018160000190816111e19190611ff3565b50600182018160010190816111f69190611ff3565b5060028201548160020155600382018160030190816112159190611ff3565b50600482018160040190805461122c929190611399565b509050506003600081548092919061124390611bd7565b9190505550600080600160025461125a9190611ed1565b81526020019081526020016000206000808481526020019081526020016000206000820181600001908161128e9190611ff3565b50600182018160010190816112a39190611ff3565b5060028201548160020155600382018160030190816112c29190611ff3565b5060048201816004019080546112d9929190611399565b5090505060008060016002546112ef9190611ed1565b81526020019081526020016000206000808201600061130e91906113eb565b60018201600061131e91906113eb565b600282016000905560038201600061133691906113eb565b600482016000611346919061142b565b50506002600081548092919061135b906120db565b91905055505050565b60035481565b6040518060a0016040528060608152602001606081526020016000815260200160608152602001606081525090565b8280548282559060005260206000209081019282156113da5760005260206000209182015b828111156113d95782548255916001019190600101906113be565b5b5090506113e7919061144c565b5090565b5080546113f790611b48565b6000825580601f106114095750611428565b601f016020900490600052602060002090810190611427919061144c565b5b50565b5080546000825590600052602060002090810190611449919061144c565b50565b5b8082111561146557600081600090555060010161144d565b5090565b6000604051905090565b600080fd5b600080fd5b6000819050919050565b6114908161147d565b811461149b57600080fd5b50565b6000813590506114ad81611487565b92915050565b6000602082840312156114c9576114c8611473565b5b60006114d78482850161149e565b91505092915050565b600081519050919050565b600082825260208201905092915050565b60005b8381101561151a5780820151818401526020810190506114ff565b60008484015250505050565b6000601f19601f8301169050919050565b6000611542826114e0565b61154c81856114eb565b935061155c8185602086016114fc565b61156581611526565b840191505092915050565b6115798161147d565b82525050565b600060808201905081810360008301526115998187611537565b905081810360208301526115ad8186611537565b90506115bc6040830185611570565b81810360608301526115ce8184611537565b905095945050505050565b600081519050919050565b600082825260208201905092915050565b6000819050602082019050919050565b600082825260208201905092915050565b6000611621826114e0565b61162b8185611605565b935061163b8185602086016114fc565b61164481611526565b840191505092915050565b6116588161147d565b82525050565b600081519050919050565b600082825260208201905092915050565b6000819050602082019050919050565b600073ffffffffffffffffffffffffffffffffffffffff82169050919050565b60006116b58261168a565b9050919050565b6116c5816116aa565b82525050565b60006116d783836116bc565b60208301905092915050565b6000602082019050919050565b60006116fb8261165e565b6117058185611669565b93506117108361167a565b8060005b8381101561174157815161172888826116cb565b9750611733836116e3565b925050600181019050611714565b5085935050505092915050565b600060a083016000830151848203600086015261176b8282611616565b915050602083015184820360208601526117858282611616565b915050604083015161179a604086018261164f565b50606083015184820360608601526117b28282611616565b915050608083015184820360808601526117cc82826116f0565b9150508091505092915050565b60006117e5838361174e565b905092915050565b6000602082019050919050565b6000611805826115d9565b61180f81856115e4565b935083602082028501611821856115f5565b8060005b8581101561185d578484038952815161183e85826117d9565b9450611849836117ed565b925060208a01995050600181019050611825565b50829750879550505050505092915050565b6000602082019050818103600083015261188981846117fa565b905092915050565b600080fd5b600080fd5b7f4e487b7100000000000000000000000000000000000000000000000000000000600052604160045260246000fd5b6118d382611526565b810181811067ffffffffffffffff821117156118f2576118f161189b565b5b80604052505050565b6000611905611469565b905061191182826118ca565b919050565b600067ffffffffffffffff8211156119315761193061189b565b5b61193a82611526565b9050602081019050919050565b82818337600083830152505050565b600061196961196484611916565b6118fb565b90508281526020810184848401111561198557611984611896565b5b611990848285611947565b509392505050565b600082601f8301126119ad576119ac611891565b5b81356119bd848260208601611956565b91505092915050565b6000806000606084860312156119df576119de611473565b5b600084013567ffffffffffffffff8111156119fd576119fc611478565b5b611a0986828701611998565b935050602084013567ffffffffffffffff811115611a2a57611a29611478565b5b611a3686828701611998565b925050604084013567ffffffffffffffff811115611a5757611a56611478565b5b611a6386828701611998565b9150509250925092565b6000602082019050611a826000830184611570565b92915050565b600082825260208201905092915050565b6000611aa48261165e565b611aae8185611a88565b9350611ab98361167a565b8060005b83811015611aea578151611ad188826116cb565b9750611adc836116e3565b925050600181019050611abd565b5085935050505092915050565b60006020820190508181036000830152611b118184611a99565b905092915050565b7f4e487b7100000000000000000000000000000000000000000000000000000000600052602260045260246000fd5b60006002820490506001821680611b6057607f821691505b602082108103611b7357611b72611b19565b5b50919050565b7f4e487b7100000000000000000000000000000000000000000000000000000000600052603260045260246000fd5b7f4e487b7100000000000000000000000000000000000000000000000000000000600052601160045260246000fd5b6000611be28261147d565b91507fffffffffffffffffffffffffffffffffffffffffffffffffffffffffffffffff8203611c1457611c13611ba8565b5b600182019050919050565b6000611c2a8261147d565b9150611c358361147d565b9250828201905080821115611c4d57611c4c611ba8565b5b92915050565b60008190508160005260206000209050919050565b60006020601f8301049050919050565b600082821b905092915050565b600060088302611cb57fffffffffffffffffffffffffffffffffffffffffffffffffffffffffffffffff82611c78565b611cbf8683611c78565b95508019841693508086168417925050509392505050565b6000819050919050565b6000611cfc611cf7611cf28461147d565b611cd7565b61147d565b9050919050565b6000819050919050565b611d1683611ce1565b611d2a611d2282611d03565b848454611c85565b825550505050565b600090565b611d3f611d32565b611d4a818484611d0d565b505050565b5b81811015611d6e57611d63600082611d37565b600181019050611d50565b5050565b601f821115611db357611d8481611c53565b611d8d84611c68565b81016020851015611d9c578190505b611db0611da885611c68565b830182611d4f565b50505b505050565b600082821c905092915050565b6000611dd660001984600802611db8565b1980831691505092915050565b6000611def8383611dc5565b9150826002028217905092915050565b611e08826114e0565b67ffffffffffffffff811115611e2157611e2061189b565b5b611e2b8254611b48565b611e36828285611d72565b600060209050601f831160018114611e695760008415611e57578287015190505b611e618582611de3565b865550611ec9565b601f198416611e7786611c53565b60005b82811015611e9f57848901518255600182019150602085019450602081019050611e7a565b86831015611ebc5784890151611eb8601f891682611dc5565b8355505b6001600288020188555050505b505050505050565b6000611edc8261147d565b9150611ee78361147d565b9250828203905081811115611eff57611efe611ba8565b5b92915050565b7f4e6f20626f6f6b7320746f2072657475726e2e00000000000000000000000000600082015250565b6000611f3b6013836114eb565b9150611f4682611f05565b602082019050919050565b60006020820190508181036000830152611f6a81611f2e565b9050919050565b7f496e76616c696420626f6f6b2049442e00000000000000000000000000000000600082015250565b6000611fa76010836114eb565b9150611fb282611f71565b602082019050919050565b60006020820190508181036000830152611fd681611f9a565b9050919050565b600081549050611fec81611b48565b9050919050565b8181036120015750506120d9565b61200a82611fdd565b67ffffffffffffffff8111156120235761202261189b565b5b61202d8254611b48565b612038828285611d72565b6000601f8311600181146120675760008415612055578287015490505b61205f8582611de3565b8655506120d2565b601f19841661207587611c53565b965061208086611c53565b60005b828110156120a857848901548255600182019150600185019450602081019050612083565b868310156120c557848901546120c1601f891682611dc5565b8355505b6001600288020188555050505b5050505050505b565b60006120e68261147d565b9150600082036120f9576120f8611ba8565b5b600182039050919050565b7f4e6f20617661696c61626c6520626f6f6b7320746f20626f72726f772e000000600082015250565b600061213a601d836114eb565b915061214582612104565b602082019050919050565b600060208201905081810360008301526121698161212d565b905091905056fea2646970667358221220ff903b3b862e279960f17b0ec30d502d0a018937325cdbd9fb088dedcc14e04c64736f6c63430008130033",
  "linkReferences": {},
  "deployedLinkReferences": {}
}