{
  "_format": "hh-sol-artifact-1",
  "contractName": "StudentAide",
  "sourceName": "contracts/StudentAide.sol",
  "abi": [
    {
      "inputs": [
        {
          "internalType": "uint256",
          "name": "",
          "type": "uint256"
        }
      ],
      "name": "aides",
      "outputs": [
        {
          "internalType": "address",
          "name": "owner",
          "type": "address"
        },
        {
          "internalType": "string",
          "name": "title",
          "type": "string"
        },
        {
          "internalType": "string",
          "name": "description",
          "type": "string"
        },
        {
          "internalType": "uint256",
          "name": "maxRequesters",
          "type": "uint256"
        },
        {
          "internalType": "uint256",
          "name": "deadline",
          "type": "uint256"
        },
        {
          "internalType": "string",
          "name": "image",
          "type": "string"
        }
      ],
      "stateMutability": "view",
      "type": "function"
    },
    {
      "inputs": [
        {
          "internalType": "string",
          "name": "_title",
          "type": "string"
        },
        {
          "internalType": "string",
          "name": "_description",
          "type": "string"
        },
        {
          "internalType": "uint256",
          "name": "_maxRequesters",
          "type": "uint256"
        },
        {
          "internalType": "uint256",
          "name": "_deadline",
          "type": "uint256"
        },
        {
          "internalType": "string",
          "name": "_image",
          "type": "string"
        }
      ],
      "name": "createAide",
      "outputs": [
        {
          "internalType": "uint256",
          "name": "",
          "type": "uint256"
        }
      ],
      "stateMutability": "nonpayable",
      "type": "function"
    },
    {
      "inputs": [
        {
          "internalType": "uint256",
          "name": "",
          "type": "uint256"
        }
      ],
      "name": "fullAides",
      "outputs": [
        {
          "internalType": "address",
          "name": "owner",
          "type": "address"
        },
        {
          "internalType": "string",
          "name": "title",
          "type": "string"
        },
        {
          "internalType": "string",
          "name": "description",
          "type": "string"
        },
        {
          "internalType": "uint256",
          "name": "maxRequesters",
          "type": "uint256"
        },
        {
          "internalType": "uint256",
          "name": "deadline",
          "type": "uint256"
        },
        {
          "internalType": "string",
          "name": "image",
          "type": "string"
        }
      ],
      "stateMutability": "view",
      "type": "function"
    },
    {
      "inputs": [],
      "name": "getAides",
      "outputs": [
        {
          "components": [
            {
              "internalType": "address",
              "name": "owner",
              "type": "address"
            },
            {
              "internalType": "string",
              "name": "title",
              "type": "string"
            },
            {
              "internalType": "string",
              "name": "description",
              "type": "string"
            },
            {
              "internalType": "uint256",
              "name": "maxRequesters",
              "type": "uint256"
            },
            {
              "internalType": "uint256",
              "name": "deadline",
              "type": "uint256"
            },
            {
              "internalType": "string",
              "name": "image",
              "type": "string"
            },
            {
              "internalType": "address[]",
              "name": "requesters",
              "type": "address[]"
            }
          ],
          "internalType": "struct StudentAide.Aide[]",
          "name": "",
          "type": "tuple[]"
        }
      ],
      "stateMutability": "view",
      "type": "function"
    },
    {
      "inputs": [],
      "name": "getFullAides",
      "outputs": [
        {
          "components": [
            {
              "internalType": "address",
              "name": "owner",
              "type": "address"
            },
            {
              "internalType": "string",
              "name": "title",
              "type": "string"
            },
            {
              "internalType": "string",
              "name": "description",
              "type": "string"
            },
            {
              "internalType": "uint256",
              "name": "maxRequesters",
              "type": "uint256"
            },
            {
              "internalType": "uint256",
              "name": "deadline",
              "type": "uint256"
            },
            {
              "internalType": "string",
              "name": "image",
              "type": "string"
            },
            {
              "internalType": "address[]",
              "name": "requesters",
              "type": "address[]"
            }
          ],
          "internalType": "struct StudentAide.Aide[]",
          "name": "",
          "type": "tuple[]"
        }
      ],
      "stateMutability": "view",
      "type": "function"
    },
    {
      "inputs": [
        {
          "internalType": "uint256",
          "name": "_id",
          "type": "uint256"
        }
      ],
      "name": "getNumberOfRequesters",
      "outputs": [
        {
          "internalType": "uint256",
          "name": "",
          "type": "uint256"
        }
      ],
      "stateMutability": "view",
      "type": "function"
    },
    {
      "inputs": [
        {
          "internalType": "uint256",
          "name": "_id",
          "type": "uint256"
        }
      ],
      "name": "getNumberOfRequestersforFull",
      "outputs": [
        {
          "internalType": "uint256",
          "name": "",
          "type": "uint256"
        }
      ],
      "stateMutability": "view",
      "type": "function"
    },
    {
      "inputs": [
        {
          "internalType": "uint256",
          "name": "_id",
          "type": "uint256"
        }
      ],
      "name": "getRequesters",
      "outputs": [
        {
          "internalType": "address[]",
          "name": "",
          "type": "address[]"
        }
      ],
      "stateMutability": "view",
      "type": "function"
    },
    {
      "inputs": [
        {
          "internalType": "uint256",
          "name": "_id",
          "type": "uint256"
        }
      ],
      "name": "getRequestersforFull",
      "outputs": [
        {
          "internalType": "address[]",
          "name": "",
          "type": "address[]"
        }
      ],
      "stateMutability": "view",
      "type": "function"
    },
    {
      "inputs": [],
      "name": "numberofAides",
      "outputs": [
        {
          "internalType": "uint256",
          "name": "",
          "type": "uint256"
        }
      ],
      "stateMutability": "view",
      "type": "function"
    },
    {
      "inputs": [],
      "name": "numberoffullAides",
      "outputs": [
        {
          "internalType": "uint256",
          "name": "",
          "type": "uint256"
        }
      ],
      "stateMutability": "view",
      "type": "function"
    },
    {
      "inputs": [
        {
          "internalType": "uint256",
          "name": "_id",
          "type": "uint256"
        }
      ],
      "name": "requestAide",
      "outputs": [],
      "stateMutability": "payable",
      "type": "function"
    },
    {
      "inputs": [
        {
          "internalType": "uint256",
          "name": "",
          "type": "uint256"
        }
      ],
      "name": "tempAides",
      "outputs": [
        {
          "internalType": "address",
          "name": "owner",
          "type": "address"
        },
        {
          "internalType": "string",
          "name": "title",
          "type": "string"
        },
        {
          "internalType": "string",
          "name": "description",
          "type": "string"
        },
        {
          "internalType": "uint256",
          "name": "maxRequesters",
          "type": "uint256"
        },
        {
          "internalType": "uint256",
          "name": "deadline",
          "type": "uint256"
        },
        {
          "internalType": "string",
          "name": "image",
          "type": "string"
        }
      ],
      "stateMutability": "view",
      "type": "function"
    }
  ],
  "bytecode": "0x60806040526000600255600060035534801561001a57600080fd5b5061295e8061002a6000396000f3fe6080604052600436106100c25760003560e01c8063698af3c91161007f578063923c781511610059578063923c7815146102b1578063c3d1bc83146102ee578063de4a73bf14610319578063fc8fdff214610344576100c2565b8063698af3c91461020c57806370772bd81461024957806374fb08ee14610274576100c2565b80630c3acf34146100c75780631937a2a4146101095780633d8ee8731461014657806346f2e82f1461018857806352f15775146101b35780635f8adcc3146101cf575b600080fd5b3480156100d357600080fd5b506100ee60048036038101906100e99190611b48565b610386565b60405161010096959493929190611c55565b60405180910390f35b34801561011557600080fd5b50610130600480360381019061012b9190611e00565b61057a565b60405161013d9190611ecf565b60405180910390f35b34801561015257600080fd5b5061016d60048036038101906101689190611b48565b61060e565b60405161017f96959493929190611c55565b60405180910390f35b34801561019457600080fd5b5061019d610802565b6040516101aa9190612174565b60405180910390f35b6101cd60048036038101906101c89190611b48565b610b76565b005b3480156101db57600080fd5b506101f660048036038101906101f19190611b48565b610f33565b6040516102039190611ecf565b60405180910390f35b34801561021857600080fd5b50610233600480360381019061022e9190611b48565b610f56565b6040516102409190611ecf565b60405180910390f35b34801561025557600080fd5b5061025e610f78565b60405161026b9190611ecf565b60405180910390f35b34801561028057600080fd5b5061029b60048036038101906102969190611b48565b610f7e565b6040516102a89190612205565b60405180910390f35b3480156102bd57600080fd5b506102d860048036038101906102d39190611b48565b611021565b6040516102e59190612205565b60405180910390f35b3480156102fa57600080fd5b506103036110c5565b6040516103109190611ecf565b60405180910390f35b34801561032557600080fd5b5061032e6110cb565b60405161033b9190612174565b60405180910390f35b34801561035057600080fd5b5061036b60048036038101906103669190611b48565b61143e565b60405161037d96959493929190611c55565b60405180910390f35b60016020528060005260406000206000915090508060000160009054906101000a900473ffffffffffffffffffffffffffffffffffffffff16908060010180546103cf90612256565b80601f01602080910402602001604051908101604052809291908181526020018280546103fb90612256565b80156104485780601f1061041d57610100808354040283529160200191610448565b820191906000526020600020905b81548152906001019060200180831161042b57829003601f168201915b50505050509080600201805461045d90612256565b80601f016020809104026020016040519081016040528092919081815260200182805461048990612256565b80156104d65780601f106104ab576101008083540402835291602001916104d6565b820191906000526020600020905b8154815290600101906020018083116104b957829003601f168201915b5050505050908060030154908060040154908060050180546104f790612256565b80601f016020809104026020016040519081016040528092919081815260200182805461052390612256565b80156105705780601f1061054557610100808354040283529160200191610570565b820191906000526020600020905b81548152906001019060200180831161055357829003601f168201915b5050505050905086565b60008060008060025481526020019081526020016000209050868160010190816105a49190612433565b50858160020190816105b69190612433565b50848160030181905550838160040181905550828160050190816105da9190612433565b50600260008154809291906105ee90612534565b91905055506001600254610602919061257c565b91505095945050505050565b60006020528060005260406000206000915090508060000160009054906101000a900473ffffffffffffffffffffffffffffffffffffffff169080600101805461065790612256565b80601f016020809104026020016040519081016040528092919081815260200182805461068390612256565b80156106d05780601f106106a5576101008083540402835291602001916106d0565b820191906000526020600020905b8154815290600101906020018083116106b357829003601f168201915b5050505050908060020180546106e590612256565b80601f016020809104026020016040519081016040528092919081815260200182805461071190612256565b801561075e5780601f106107335761010080835404028352916020019161075e565b820191906000526020600020905b81548152906001019060200180831161074157829003601f168201915b50505050509080600301549080600401549080600501805461077f90612256565b80601f01602080910402602001604051908101604052809291908181526020018280546107ab90612256565b80156107f85780601f106107cd576101008083540402835291602001916107f8565b820191906000526020600020905b8154815290600101906020018083116107db57829003601f168201915b5050505050905086565b6060600060035467ffffffffffffffff81111561082257610821611cd5565b5b60405190808252806020026020018201604052801561085b57816020015b610848611929565b8152602001906001900390816108405790505b50905060005b600354811015610b6e576000600160008381526020019081526020016000209050806040518060e00160405290816000820160009054906101000a900473ffffffffffffffffffffffffffffffffffffffff1673ffffffffffffffffffffffffffffffffffffffff1673ffffffffffffffffffffffffffffffffffffffff1681526020016001820180546108f490612256565b80601f016020809104026020016040519081016040528092919081815260200182805461092090612256565b801561096d5780601f106109425761010080835404028352916020019161096d565b820191906000526020600020905b81548152906001019060200180831161095057829003601f168201915b5050505050815260200160028201805461098690612256565b80601f01602080910402602001604051908101604052809291908181526020018280546109b290612256565b80156109ff5780601f106109d4576101008083540402835291602001916109ff565b820191906000526020600020905b8154815290600101906020018083116109e257829003601f168201915b505050505081526020016003820154815260200160048201548152602001600582018054610a2c90612256565b80601f0160208091040260200160405190810160405280929190818152602001828054610a5890612256565b8015610aa55780601f10610a7a57610100808354040283529160200191610aa5565b820191906000526020600020905b815481529060010190602001808311610a8857829003601f168201915b5050505050815260200160068201805480602002602001604051908101604052809291908181526020018280548015610b3357602002820191906000526020600020905b8160009054906101000a900473ffffffffffffffffffffffffffffffffffffffff1673ffffffffffffffffffffffffffffffffffffffff1681526020019060010190808311610ae9575b505050505081525050838381518110610b4f57610b4e6125b0565b5b6020026020010181905250508080610b6690612534565b915050610861565b508091505090565b60008060008381526020019081526020016000209050610b9582611642565b15610bd5576040517f08c379a0000000000000000000000000000000000000000000000000000000008152600401610bcc90612651565b60405180910390fd5b8060030154816006018054905010610c22576040517f08c379a0000000000000000000000000000000000000000000000000000000008152600401610c19906126e3565b60405180910390fd5b610c2c8233611663565b15610c6c576040517f08c379a0000000000000000000000000000000000000000000000000000000008152600401610c6390612775565b60405180910390fd5b80600601339080600181540180825580915050600190039060005260206000200160009091909190916101000a81548173ffffffffffffffffffffffffffffffffffffffff021916908373ffffffffffffffffffffffffffffffffffffffff160217905550806003015481600601805490501480610cef5750610cee82611642565b5b15610f2f5760048190806001815401808255809150506001900390600052602060002090600702016000909190919091506000820160009054906101000a900473ffffffffffffffffffffffffffffffffffffffff168160000160006101000a81548173ffffffffffffffffffffffffffffffffffffffff021916908373ffffffffffffffffffffffffffffffffffffffff16021790555060018201816001019081610d9b91906127ab565b5060028201816002019081610db091906127ab565b50600382015481600301556004820154816004015560058201816005019081610dd991906127ab565b506006820181600601908054610df092919061197c565b505050610dfc8261172a565b6004600081548110610e1157610e106125b0565b5b90600052602060002090600702016001600060035481526020019081526020016000206000820160009054906101000a900473ffffffffffffffffffffffffffffffffffffffff168160000160006101000a81548173ffffffffffffffffffffffffffffffffffffffff021916908373ffffffffffffffffffffffffffffffffffffffff16021790555060018201816001019081610eaf91906127ab565b5060028201816002019081610ec491906127ab565b50600382015481600301556004820154816004015560058201816005019081610eed91906127ab565b506006820181600601908054610f0492919061197c565b5090505060036000815480929190610f1b90612534565b919050555060046000610f2e91906119ce565b5b5050565b600060016000838152602001908152602001600020600601805490509050919050565b6000806000838152602001908152602001600020600601805490509050919050565b60035481565b606060008083815260200190815260200160002060060180548060200260200160405190810160405280929190818152602001828054801561101557602002820191906000526020600020905b8160009054906101000a900473ffffffffffffffffffffffffffffffffffffffff1673ffffffffffffffffffffffffffffffffffffffff1681526020019060010190808311610fcb575b50505050509050919050565b6060600160008381526020019081526020016000206006018054806020026020016040519081016040528092919081815260200182805480156110b957602002820191906000526020600020905b8160009054906101000a900473ffffffffffffffffffffffffffffffffffffffff1673ffffffffffffffffffffffffffffffffffffffff168152602001906001019080831161106f575b50505050509050919050565b60025481565b6060600060025467ffffffffffffffff8111156110eb576110ea611cd5565b5b60405190808252806020026020018201604052801561112457816020015b611111611929565b8152602001906001900390816111095790505b50905060005b6002548110156114365760008060008381526020019081526020016000209050806040518060e00160405290816000820160009054906101000a900473ffffffffffffffffffffffffffffffffffffffff1673ffffffffffffffffffffffffffffffffffffffff1673ffffffffffffffffffffffffffffffffffffffff1681526020016001820180546111bc90612256565b80601f01602080910402602001604051908101604052809291908181526020018280546111e890612256565b80156112355780601f1061120a57610100808354040283529160200191611235565b820191906000526020600020905b81548152906001019060200180831161121857829003601f168201915b5050505050815260200160028201805461124e90612256565b80601f016020809104026020016040519081016040528092919081815260200182805461127a90612256565b80156112c75780601f1061129c576101008083540402835291602001916112c7565b820191906000526020600020905b8154815290600101906020018083116112aa57829003601f168201915b5050505050815260200160038201548152602001600482015481526020016005820180546112f490612256565b80601f016020809104026020016040519081016040528092919081815260200182805461132090612256565b801561136d5780601f106113425761010080835404028352916020019161136d565b820191906000526020600020905b81548152906001019060200180831161135057829003601f168201915b50505050508152602001600682018054806020026020016040519081016040528092919081815260200182805480156113fb57602002820191906000526020600020905b8160009054906101000a900473ffffffffffffffffffffffffffffffffffffffff1673ffffffffffffffffffffffffffffffffffffffff16815260200190600101908083116113b1575b505050505081525050838381518110611417576114166125b0565b5b602002602001018190525050808061142e90612534565b91505061112a565b508091505090565b6004818154811061144e57600080fd5b90600052602060002090600702016000915090508060000160009054906101000a900473ffffffffffffffffffffffffffffffffffffffff169080600101805461149790612256565b80601f01602080910402602001604051908101604052809291908181526020018280546114c390612256565b80156115105780601f106114e557610100808354040283529160200191611510565b820191906000526020600020905b8154815290600101906020018083116114f357829003601f168201915b50505050509080600201805461152590612256565b80601f016020809104026020016040519081016040528092919081815260200182805461155190612256565b801561159e5780601f106115735761010080835404028352916020019161159e565b820191906000526020600020905b81548152906001019060200180831161158157829003601f168201915b5050505050908060030154908060040154908060050180546115bf90612256565b80601f01602080910402602001604051908101604052809291908181526020018280546115eb90612256565b80156116385780601f1061160d57610100808354040283529160200191611638565b820191906000526020600020905b81548152906001019060200180831161161b57829003601f168201915b5050505050905086565b60008060008381526020019081526020016000206004015442119050919050565b600080600080858152602001908152602001600020905060005b816006018054905081101561171d578373ffffffffffffffffffffffffffffffffffffffff168260060182815481106116b9576116b86125b0565b5b9060005260206000200160009054906101000a900473ffffffffffffffffffffffffffffffffffffffff1673ffffffffffffffffffffffffffffffffffffffff160361170a57600192505050611724565b808061171590612534565b91505061167d565b5060009150505b92915050565b600254811061176e576040517f08c379a0000000000000000000000000000000000000000000000000000000008152600401611765906128df565b60405180910390fd5b6000806001600254611780919061257c565b81526020019081526020016000206000808381526020019081526020016000206000820160009054906101000a900473ffffffffffffffffffffffffffffffffffffffff168160000160006101000a81548173ffffffffffffffffffffffffffffffffffffffff021916908373ffffffffffffffffffffffffffffffffffffffff1602179055506001820181600101908161181b91906127ab565b506002820181600201908161183091906127ab565b5060038201548160030155600482015481600401556005820181600501908161185991906127ab565b50600682018160060190805461187092919061197c565b509050506000806001600254611886919061257c565b8152602001908152602001600020600080820160006101000a81549073ffffffffffffffffffffffffffffffffffffffff02191690556001820160006118cc91906119f2565b6002820160006118dc91906119f2565b600382016000905560048201600090556005820160006118fc91906119f2565b60068201600061190c9190611a32565b505060026000815480929190611921906128ff565b919050555050565b6040518060e00160405280600073ffffffffffffffffffffffffffffffffffffffff1681526020016060815260200160608152602001600081526020016000815260200160608152602001606081525090565b8280548282559060005260206000209081019282156119bd5760005260206000209182015b828111156119bc5782548255916001019190600101906119a1565b5b5090506119ca9190611a53565b5090565b50805460008255600702906000526020600020908101906119ef9190611a70565b50565b5080546119fe90612256565b6000825580601f10611a105750611a2f565b601f016020900490600052602060002090810190611a2e9190611a53565b5b50565b5080546000825590600052602060002090810190611a509190611a53565b50565b5b80821115611a6c576000816000905550600101611a54565b5090565b5b80821115611afa57600080820160006101000a81549073ffffffffffffffffffffffffffffffffffffffff0219169055600182016000611ab191906119f2565b600282016000611ac191906119f2565b60038201600090556004820160009055600582016000611ae191906119f2565b600682016000611af19190611a32565b50600701611a71565b5090565b6000604051905090565b600080fd5b600080fd5b6000819050919050565b611b2581611b12565b8114611b3057600080fd5b50565b600081359050611b4281611b1c565b92915050565b600060208284031215611b5e57611b5d611b08565b5b6000611b6c84828501611b33565b91505092915050565b600073ffffffffffffffffffffffffffffffffffffffff82169050919050565b6000611ba082611b75565b9050919050565b611bb081611b95565b82525050565b600081519050919050565b600082825260208201905092915050565b60005b83811015611bf0578082015181840152602081019050611bd5565b60008484015250505050565b6000601f19601f8301169050919050565b6000611c1882611bb6565b611c228185611bc1565b9350611c32818560208601611bd2565b611c3b81611bfc565b840191505092915050565b611c4f81611b12565b82525050565b600060c082019050611c6a6000830189611ba7565b8181036020830152611c7c8188611c0d565b90508181036040830152611c908187611c0d565b9050611c9f6060830186611c46565b611cac6080830185611c46565b81810360a0830152611cbe8184611c0d565b9050979650505050505050565b600080fd5b600080fd5b7f4e487b7100000000000000000000000000000000000000000000000000000000600052604160045260246000fd5b611d0d82611bfc565b810181811067ffffffffffffffff82111715611d2c57611d2b611cd5565b5b80604052505050565b6000611d3f611afe565b9050611d4b8282611d04565b919050565b600067ffffffffffffffff821115611d6b57611d6a611cd5565b5b611d7482611bfc565b9050602081019050919050565b82818337600083830152505050565b6000611da3611d9e84611d50565b611d35565b905082815260208101848484011115611dbf57611dbe611cd0565b5b611dca848285611d81565b509392505050565b600082601f830112611de757611de6611ccb565b5b8135611df7848260208601611d90565b91505092915050565b600080600080600060a08688031215611e1c57611e1b611b08565b5b600086013567ffffffffffffffff811115611e3a57611e39611b0d565b5b611e4688828901611dd2565b955050602086013567ffffffffffffffff811115611e6757611e66611b0d565b5b611e7388828901611dd2565b9450506040611e8488828901611b33565b9350506060611e9588828901611b33565b925050608086013567ffffffffffffffff811115611eb657611eb5611b0d565b5b611ec288828901611dd2565b9150509295509295909350565b6000602082019050611ee46000830184611c46565b92915050565b600081519050919050565b600082825260208201905092915050565b6000819050602082019050919050565b611f1f81611b95565b82525050565b600082825260208201905092915050565b6000611f4182611bb6565b611f4b8185611f25565b9350611f5b818560208601611bd2565b611f6481611bfc565b840191505092915050565b611f7881611b12565b82525050565b600081519050919050565b600082825260208201905092915050565b6000819050602082019050919050565b6000611fb68383611f16565b60208301905092915050565b6000602082019050919050565b6000611fda82611f7e565b611fe48185611f89565b9350611fef83611f9a565b8060005b838110156120205781516120078882611faa565b975061201283611fc2565b925050600181019050611ff3565b5085935050505092915050565b600060e0830160008301516120456000860182611f16565b506020830151848203602086015261205d8282611f36565b915050604083015184820360408601526120778282611f36565b915050606083015161208c6060860182611f6f565b50608083015161209f6080860182611f6f565b5060a083015184820360a08601526120b78282611f36565b91505060c083015184820360c08601526120d18282611fcf565b9150508091505092915050565b60006120ea838361202d565b905092915050565b6000602082019050919050565b600061210a82611eea565b6121148185611ef5565b93508360208202850161212685611f06565b8060005b85811015612162578484038952815161214385826120de565b945061214e836120f2565b925060208a0199505060018101905061212a565b50829750879550505050505092915050565b6000602082019050818103600083015261218e81846120ff565b905092915050565b600082825260208201905092915050565b60006121b282611f7e565b6121bc8185612196565b93506121c783611f9a565b8060005b838110156121f85781516121df8882611faa565b97506121ea83611fc2565b9250506001810190506121cb565b5085935050505092915050565b6000602082019050818103600083015261221f81846121a7565b905092915050565b7f4e487b7100000000000000000000000000000000000000000000000000000000600052602260045260246000fd5b6000600282049050600182168061226e57607f821691505b60208210810361228157612280612227565b5b50919050565b60008190508160005260206000209050919050565b60006020601f8301049050919050565b600082821b905092915050565b6000600883026122e97fffffffffffffffffffffffffffffffffffffffffffffffffffffffffffffffff826122ac565b6122f386836122ac565b95508019841693508086168417925050509392505050565b6000819050919050565b600061233061232b61232684611b12565b61230b565b611b12565b9050919050565b6000819050919050565b61234a83612315565b61235e61235682612337565b8484546122b9565b825550505050565b600090565b612373612366565b61237e818484612341565b505050565b5b818110156123a25761239760008261236b565b600181019050612384565b5050565b601f8211156123e7576123b881612287565b6123c18461229c565b810160208510156123d0578190505b6123e46123dc8561229c565b830182612383565b50505b505050565b600082821c905092915050565b600061240a600019846008026123ec565b1980831691505092915050565b600061242383836123f9565b9150826002028217905092915050565b61243c82611bb6565b67ffffffffffffffff81111561245557612454611cd5565b5b61245f8254612256565b61246a8282856123a6565b600060209050601f83116001811461249d576000841561248b578287015190505b6124958582612417565b8655506124fd565b601f1984166124ab86612287565b60005b828110156124d3578489015182556001820191506020850194506020810190506124ae565b868310156124f057848901516124ec601f8916826123f9565b8355505b6001600288020188555050505b505050505050565b7f4e487b7100000000000000000000000000000000000000000000000000000000600052601160045260246000fd5b600061253f82611b12565b91507fffffffffffffffffffffffffffffffffffffffffffffffffffffffffffffffff820361257157612570612505565b5b600182019050919050565b600061258782611b12565b915061259283611b12565b92508282039050818111156125aa576125a9612505565b5b92915050565b7f4e487b7100000000000000000000000000000000000000000000000000000000600052603260045260246000fd5b7f4169646520646561646c696e652068617320616c72656164792070617373656460008201527f2e00000000000000000000000000000000000000000000000000000000000000602082015250565b600061263b602183611bc1565b9150612646826125df565b604082019050919050565b6000602082019050818103600083015261266a8161262e565b9050919050565b7f4169646520686173207265616368656420746865206d6178696d756d206e756d60008201527f626572206f6620726571756573746572732e0000000000000000000000000000602082015250565b60006126cd603283611bc1565b91506126d882612671565b604082019050919050565b600060208201905081810360008301526126fc816126c0565b9050919050565b7f596f75206861766520616c72656164792072657175657374656420666f72207460008201527f68697320416964652e0000000000000000000000000000000000000000000000602082015250565b600061275f602983611bc1565b915061276a82612703565b604082019050919050565b6000602082019050818103600083015261278e81612752565b9050919050565b6000815490506127a481612256565b9050919050565b8181036127b9575050612891565b6127c282612795565b67ffffffffffffffff8111156127db576127da611cd5565b5b6127e58254612256565b6127f08282856123a6565b6000601f83116001811461281f576000841561280d578287015490505b6128178582612417565b86555061288a565b601f19841661282d87612287565b965061283886612287565b60005b828110156128605784890154825560018201915060018501945060208101905061283b565b8683101561287d5784890154612879601f8916826123f9565b8355505b6001600288020188555050505b5050505050505b565b7f496e76616c696420696e64657800000000000000000000000000000000000000600082015250565b60006128c9600d83611bc1565b91506128d482612893565b602082019050919050565b600060208201905081810360008301526128f8816128bc565b9050919050565b600061290a82611b12565b91506000820361291d5761291c612505565b5b60018203905091905056fea2646970667358221220f639cec954bcc6bc4dc80bc7d61b17a867f41edc4dfa3f21c7e9d3bc8c717f6264736f6c63430008130033",
  "linkReferences": {},
  "deployedLinkReferences": {}
}