{
  "_format": "hh-sol-artifact-1",
  "contractName": "StudentAide",
  "sourceName": "contracts/StudentAide.sol",
  "abi": [
    {
      "inputs": [
        {
          "internalType": "uint256",
          "name": "",
          "type": "uint256"
        }
      ],
      "name": "aides",
      "outputs": [
        {
          "internalType": "address",
          "name": "owner",
          "type": "address"
        },
        {
          "internalType": "string",
          "name": "title",
          "type": "string"
        },
        {
          "internalType": "string",
          "name": "description",
          "type": "string"
        },
        {
          "internalType": "uint256",
          "name": "maxRequesters",
          "type": "uint256"
        },
        {
          "internalType": "uint256",
          "name": "deadline",
          "type": "uint256"
        },
        {
          "internalType": "string",
          "name": "image",
          "type": "string"
        }
      ],
      "stateMutability": "view",
      "type": "function"
    },
    {
      "inputs": [
        {
          "internalType": "string",
          "name": "_title",
          "type": "string"
        },
        {
          "internalType": "string",
          "name": "_description",
          "type": "string"
        },
        {
          "internalType": "uint256",
          "name": "_maxRequesters",
          "type": "uint256"
        },
        {
          "internalType": "uint256",
          "name": "_deadline",
          "type": "uint256"
        },
        {
          "internalType": "string",
          "name": "_image",
          "type": "string"
        }
      ],
      "name": "createAide",
      "outputs": [
        {
          "internalType": "uint256",
          "name": "",
          "type": "uint256"
        }
      ],
      "stateMutability": "nonpayable",
      "type": "function"
    },
    {
      "inputs": [
        {
          "internalType": "uint256",
          "name": "",
          "type": "uint256"
        }
      ],
      "name": "fullAides",
      "outputs": [
        {
          "internalType": "address",
          "name": "owner",
          "type": "address"
        },
        {
          "internalType": "string",
          "name": "title",
          "type": "string"
        },
        {
          "internalType": "string",
          "name": "description",
          "type": "string"
        },
        {
          "internalType": "uint256",
          "name": "maxRequesters",
          "type": "uint256"
        },
        {
          "internalType": "uint256",
          "name": "deadline",
          "type": "uint256"
        },
        {
          "internalType": "string",
          "name": "image",
          "type": "string"
        }
      ],
      "stateMutability": "view",
      "type": "function"
    },
    {
      "inputs": [],
      "name": "getAides",
      "outputs": [
        {
          "components": [
            {
              "internalType": "address",
              "name": "owner",
              "type": "address"
            },
            {
              "internalType": "string",
              "name": "title",
              "type": "string"
            },
            {
              "internalType": "string",
              "name": "description",
              "type": "string"
            },
            {
              "internalType": "uint256",
              "name": "maxRequesters",
              "type": "uint256"
            },
            {
              "internalType": "uint256",
              "name": "deadline",
              "type": "uint256"
            },
            {
              "internalType": "string",
              "name": "image",
              "type": "string"
            },
            {
              "internalType": "address[]",
              "name": "requesters",
              "type": "address[]"
            }
          ],
          "internalType": "struct StudentAide.Aide[]",
          "name": "",
          "type": "tuple[]"
        }
      ],
      "stateMutability": "view",
      "type": "function"
    },
    {
      "inputs": [],
      "name": "getFullAides",
      "outputs": [
        {
          "components": [
            {
              "internalType": "address",
              "name": "owner",
              "type": "address"
            },
            {
              "internalType": "string",
              "name": "title",
              "type": "string"
            },
            {
              "internalType": "string",
              "name": "description",
              "type": "string"
            },
            {
              "internalType": "uint256",
              "name": "maxRequesters",
              "type": "uint256"
            },
            {
              "internalType": "uint256",
              "name": "deadline",
              "type": "uint256"
            },
            {
              "internalType": "string",
              "name": "image",
              "type": "string"
            },
            {
              "internalType": "address[]",
              "name": "requesters",
              "type": "address[]"
            }
          ],
          "internalType": "struct StudentAide.Aide[]",
          "name": "",
          "type": "tuple[]"
        }
      ],
      "stateMutability": "view",
      "type": "function"
    },
    {
      "inputs": [
        {
          "internalType": "uint256",
          "name": "_id",
          "type": "uint256"
        }
      ],
      "name": "getRequesters",
      "outputs": [
        {
          "internalType": "address[]",
          "name": "",
          "type": "address[]"
        }
      ],
      "stateMutability": "view",
      "type": "function"
    },
    {
      "inputs": [
        {
          "internalType": "uint256",
          "name": "_id",
          "type": "uint256"
        }
      ],
      "name": "getRequestersforFull",
      "outputs": [
        {
          "internalType": "address[]",
          "name": "",
          "type": "address[]"
        }
      ],
      "stateMutability": "view",
      "type": "function"
    },
    {
      "inputs": [],
      "name": "numberofAides",
      "outputs": [
        {
          "internalType": "uint256",
          "name": "",
          "type": "uint256"
        }
      ],
      "stateMutability": "view",
      "type": "function"
    },
    {
      "inputs": [],
      "name": "numberoffullAides",
      "outputs": [
        {
          "internalType": "uint256",
          "name": "",
          "type": "uint256"
        }
      ],
      "stateMutability": "view",
      "type": "function"
    },
    {
      "inputs": [
        {
          "internalType": "uint256",
          "name": "_id",
          "type": "uint256"
        }
      ],
      "name": "requestAide",
      "outputs": [],
      "stateMutability": "payable",
      "type": "function"
    }
  ],
  "bytecode": "0x60806040526000600255600060035534801561001a57600080fd5b506120d48061002a6000396000f3fe6080604052600436106100915760003560e01c806370772bd81161005957806370772bd81461019e57806374fb08ee146101c9578063923c781514610206578063c3d1bc8314610243578063de4a73bf1461026e57610091565b80630c3acf34146100965780631937a2a4146100d85780633d8ee8731461011557806346f2e82f1461015757806352f1577514610182575b600080fd5b3480156100a257600080fd5b506100bd60048036038101906100b8919061144e565b610299565b6040516100cf9695949392919061155b565b60405180910390f35b3480156100e457600080fd5b506100ff60048036038101906100fa9190611706565b61048d565b60405161010c91906117d5565b60405180910390f35b34801561012157600080fd5b5061013c6004803603810190610137919061144e565b610521565b60405161014e9695949392919061155b565b60405180910390f35b34801561016357600080fd5b5061016c610715565b6040516101799190611a7a565b60405180910390f35b61019c6004803603810190610197919061144e565b610a89565b005b3480156101aa57600080fd5b506101b3610e1b565b6040516101c091906117d5565b60405180910390f35b3480156101d557600080fd5b506101f060048036038101906101eb919061144e565b610e21565b6040516101fd9190611b0b565b60405180910390f35b34801561021257600080fd5b5061022d6004803603810190610228919061144e565b610ec4565b60405161023a9190611b0b565b60405180910390f35b34801561024f57600080fd5b50610258610f68565b60405161026591906117d5565b60405180910390f35b34801561027a57600080fd5b50610283610f6e565b6040516102909190611a7a565b60405180910390f35b60016020528060005260406000206000915090508060000160009054906101000a900473ffffffffffffffffffffffffffffffffffffffff16908060010180546102e290611b5c565b80601f016020809104026020016040519081016040528092919081815260200182805461030e90611b5c565b801561035b5780601f106103305761010080835404028352916020019161035b565b820191906000526020600020905b81548152906001019060200180831161033e57829003601f168201915b50505050509080600201805461037090611b5c565b80601f016020809104026020016040519081016040528092919081815260200182805461039c90611b5c565b80156103e95780601f106103be576101008083540402835291602001916103e9565b820191906000526020600020905b8154815290600101906020018083116103cc57829003601f168201915b50505050509080600301549080600401549080600501805461040a90611b5c565b80601f016020809104026020016040519081016040528092919081815260200182805461043690611b5c565b80156104835780601f1061045857610100808354040283529160200191610483565b820191906000526020600020905b81548152906001019060200180831161046657829003601f168201915b5050505050905086565b60008060008060025481526020019081526020016000209050868160010190816104b79190611d39565b50858160020190816104c99190611d39565b50848160030181905550838160040181905550828160050190816104ed9190611d39565b506002600081548092919061050190611e3a565b919050555060016002546105159190611e82565b91505095945050505050565b60006020528060005260406000206000915090508060000160009054906101000a900473ffffffffffffffffffffffffffffffffffffffff169080600101805461056a90611b5c565b80601f016020809104026020016040519081016040528092919081815260200182805461059690611b5c565b80156105e35780601f106105b8576101008083540402835291602001916105e3565b820191906000526020600020905b8154815290600101906020018083116105c657829003601f168201915b5050505050908060020180546105f890611b5c565b80601f016020809104026020016040519081016040528092919081815260200182805461062490611b5c565b80156106715780601f1061064657610100808354040283529160200191610671565b820191906000526020600020905b81548152906001019060200180831161065457829003601f168201915b50505050509080600301549080600401549080600501805461069290611b5c565b80601f01602080910402602001604051908101604052809291908181526020018280546106be90611b5c565b801561070b5780601f106106e05761010080835404028352916020019161070b565b820191906000526020600020905b8154815290600101906020018083116106ee57829003601f168201915b5050505050905086565b6060600060035467ffffffffffffffff811115610735576107346115db565b5b60405190808252806020026020018201604052801561076e57816020015b61075b6112e1565b8152602001906001900390816107535790505b50905060005b600354811015610a81576000600160008381526020019081526020016000209050806040518060e00160405290816000820160009054906101000a900473ffffffffffffffffffffffffffffffffffffffff1673ffffffffffffffffffffffffffffffffffffffff1673ffffffffffffffffffffffffffffffffffffffff16815260200160018201805461080790611b5c565b80601f016020809104026020016040519081016040528092919081815260200182805461083390611b5c565b80156108805780601f1061085557610100808354040283529160200191610880565b820191906000526020600020905b81548152906001019060200180831161086357829003601f168201915b5050505050815260200160028201805461089990611b5c565b80601f01602080910402602001604051908101604052809291908181526020018280546108c590611b5c565b80156109125780601f106108e757610100808354040283529160200191610912565b820191906000526020600020905b8154815290600101906020018083116108f557829003601f168201915b50505050508152602001600382015481526020016004820154815260200160058201805461093f90611b5c565b80601f016020809104026020016040519081016040528092919081815260200182805461096b90611b5c565b80156109b85780601f1061098d576101008083540402835291602001916109b8565b820191906000526020600020905b81548152906001019060200180831161099b57829003601f168201915b5050505050815260200160068201805480602002602001604051908101604052809291908181526020018280548015610a4657602002820191906000526020600020905b8160009054906101000a900473ffffffffffffffffffffffffffffffffffffffff1673ffffffffffffffffffffffffffffffffffffffff16815260200190600101908083116109fc575b505050505081525050838381518110610a6257610a61611eb6565b5b6020026020010181905250508080610a7990611e3a565b915050610774565b508091505090565b6000806000838152602001908152602001600020905080600601339080600181540180825580915050600190039060005260206000200160009091909190916101000a81548173ffffffffffffffffffffffffffffffffffffffff021916908373ffffffffffffffffffffffffffffffffffffffff160217905550806003015481600601805490501115610b52576040517f08c379a0000000000000000000000000000000000000000000000000000000008152600401610b4990611f57565b60405180910390fd5b8060030154816006018054905003610e175760006001600254610b759190611e82565b90506000808281526020019081526020016000206000808581526020019081526020016000206000820160009054906101000a900473ffffffffffffffffffffffffffffffffffffffff168160000160006101000a81548173ffffffffffffffffffffffffffffffffffffffff021916908373ffffffffffffffffffffffffffffffffffffffff16021790555060018201816001019081610c169190611f8d565b5060028201816002019081610c2b9190611f8d565b50600382015481600301556004820154816004015560058201816005019081610c549190611f8d565b506006820181600601908054610c6b929190611334565b50905050816001600060035481526020019081526020016000206000820160009054906101000a900473ffffffffffffffffffffffffffffffffffffffff168160000160006101000a81548173ffffffffffffffffffffffffffffffffffffffff021916908373ffffffffffffffffffffffffffffffffffffffff16021790555060018201816001019081610d009190611f8d565b5060028201816002019081610d159190611f8d565b50600382015481600301556004820154816004015560058201816005019081610d3e9190611f8d565b506006820181600601908054610d55929190611334565b5090505060036000815480929190610d6c90611e3a565b9190505550600080828152602001908152602001600020600080820160006101000a81549073ffffffffffffffffffffffffffffffffffffffff0219169055600182016000610dbb9190611386565b600282016000610dcb9190611386565b60038201600090556004820160009055600582016000610deb9190611386565b600682016000610dfb91906113c6565b505060026000815480929190610e1090612075565b9190505550505b5050565b60035481565b6060600080838152602001908152602001600020600601805480602002602001604051908101604052809291908181526020018280548015610eb857602002820191906000526020600020905b8160009054906101000a900473ffffffffffffffffffffffffffffffffffffffff1673ffffffffffffffffffffffffffffffffffffffff1681526020019060010190808311610e6e575b50505050509050919050565b606060016000838152602001908152602001600020600601805480602002602001604051908101604052809291908181526020018280548015610f5c57602002820191906000526020600020905b8160009054906101000a900473ffffffffffffffffffffffffffffffffffffffff1673ffffffffffffffffffffffffffffffffffffffff1681526020019060010190808311610f12575b50505050509050919050565b60025481565b6060600060025467ffffffffffffffff811115610f8e57610f8d6115db565b5b604051908082528060200260200182016040528015610fc757816020015b610fb46112e1565b815260200190600190039081610fac5790505b50905060005b6002548110156112d95760008060008381526020019081526020016000209050806040518060e00160405290816000820160009054906101000a900473ffffffffffffffffffffffffffffffffffffffff1673ffffffffffffffffffffffffffffffffffffffff1673ffffffffffffffffffffffffffffffffffffffff16815260200160018201805461105f90611b5c565b80601f016020809104026020016040519081016040528092919081815260200182805461108b90611b5c565b80156110d85780601f106110ad576101008083540402835291602001916110d8565b820191906000526020600020905b8154815290600101906020018083116110bb57829003601f168201915b505050505081526020016002820180546110f190611b5c565b80601f016020809104026020016040519081016040528092919081815260200182805461111d90611b5c565b801561116a5780601f1061113f5761010080835404028352916020019161116a565b820191906000526020600020905b81548152906001019060200180831161114d57829003601f168201915b50505050508152602001600382015481526020016004820154815260200160058201805461119790611b5c565b80601f01602080910402602001604051908101604052809291908181526020018280546111c390611b5c565b80156112105780601f106111e557610100808354040283529160200191611210565b820191906000526020600020905b8154815290600101906020018083116111f357829003601f168201915b505050505081526020016006820180548060200260200160405190810160405280929190818152602001828054801561129e57602002820191906000526020600020905b8160009054906101000a900473ffffffffffffffffffffffffffffffffffffffff1673ffffffffffffffffffffffffffffffffffffffff1681526020019060010190808311611254575b5050505050815250508383815181106112ba576112b9611eb6565b5b60200260200101819052505080806112d190611e3a565b915050610fcd565b508091505090565b6040518060e00160405280600073ffffffffffffffffffffffffffffffffffffffff1681526020016060815260200160608152602001600081526020016000815260200160608152602001606081525090565b8280548282559060005260206000209081019282156113755760005260206000209182015b82811115611374578254825591600101919060010190611359565b5b50905061138291906113e7565b5090565b50805461139290611b5c565b6000825580601f106113a457506113c3565b601f0160209004906000526020600020908101906113c291906113e7565b5b50565b50805460008255906000526020600020908101906113e491906113e7565b50565b5b808211156114005760008160009055506001016113e8565b5090565b6000604051905090565b600080fd5b600080fd5b6000819050919050565b61142b81611418565b811461143657600080fd5b50565b60008135905061144881611422565b92915050565b6000602082840312156114645761146361140e565b5b600061147284828501611439565b91505092915050565b600073ffffffffffffffffffffffffffffffffffffffff82169050919050565b60006114a68261147b565b9050919050565b6114b68161149b565b82525050565b600081519050919050565b600082825260208201905092915050565b60005b838110156114f65780820151818401526020810190506114db565b60008484015250505050565b6000601f19601f8301169050919050565b600061151e826114bc565b61152881856114c7565b93506115388185602086016114d8565b61154181611502565b840191505092915050565b61155581611418565b82525050565b600060c08201905061157060008301896114ad565b81810360208301526115828188611513565b905081810360408301526115968187611513565b90506115a5606083018661154c565b6115b2608083018561154c565b81810360a08301526115c48184611513565b9050979650505050505050565b600080fd5b600080fd5b7f4e487b7100000000000000000000000000000000000000000000000000000000600052604160045260246000fd5b61161382611502565b810181811067ffffffffffffffff82111715611632576116316115db565b5b80604052505050565b6000611645611404565b9050611651828261160a565b919050565b600067ffffffffffffffff821115611671576116706115db565b5b61167a82611502565b9050602081019050919050565b82818337600083830152505050565b60006116a96116a484611656565b61163b565b9050828152602081018484840111156116c5576116c46115d6565b5b6116d0848285611687565b509392505050565b600082601f8301126116ed576116ec6115d1565b5b81356116fd848260208601611696565b91505092915050565b600080600080600060a086880312156117225761172161140e565b5b600086013567ffffffffffffffff8111156117405761173f611413565b5b61174c888289016116d8565b955050602086013567ffffffffffffffff81111561176d5761176c611413565b5b611779888289016116d8565b945050604061178a88828901611439565b935050606061179b88828901611439565b925050608086013567ffffffffffffffff8111156117bc576117bb611413565b5b6117c8888289016116d8565b9150509295509295909350565b60006020820190506117ea600083018461154c565b92915050565b600081519050919050565b600082825260208201905092915050565b6000819050602082019050919050565b6118258161149b565b82525050565b600082825260208201905092915050565b6000611847826114bc565b611851818561182b565b93506118618185602086016114d8565b61186a81611502565b840191505092915050565b61187e81611418565b82525050565b600081519050919050565b600082825260208201905092915050565b6000819050602082019050919050565b60006118bc838361181c565b60208301905092915050565b6000602082019050919050565b60006118e082611884565b6118ea818561188f565b93506118f5836118a0565b8060005b8381101561192657815161190d88826118b0565b9750611918836118c8565b9250506001810190506118f9565b5085935050505092915050565b600060e08301600083015161194b600086018261181c565b5060208301518482036020860152611963828261183c565b9150506040830151848203604086015261197d828261183c565b91505060608301516119926060860182611875565b5060808301516119a56080860182611875565b5060a083015184820360a08601526119bd828261183c565b91505060c083015184820360c08601526119d782826118d5565b9150508091505092915050565b60006119f08383611933565b905092915050565b6000602082019050919050565b6000611a10826117f0565b611a1a81856117fb565b935083602082028501611a2c8561180c565b8060005b85811015611a685784840389528151611a4985826119e4565b9450611a54836119f8565b925060208a01995050600181019050611a30565b50829750879550505050505092915050565b60006020820190508181036000830152611a948184611a05565b905092915050565b600082825260208201905092915050565b6000611ab882611884565b611ac28185611a9c565b9350611acd836118a0565b8060005b83811015611afe578151611ae588826118b0565b9750611af0836118c8565b925050600181019050611ad1565b5085935050505092915050565b60006020820190508181036000830152611b258184611aad565b905092915050565b7f4e487b7100000000000000000000000000000000000000000000000000000000600052602260045260246000fd5b60006002820490506001821680611b7457607f821691505b602082108103611b8757611b86611b2d565b5b50919050565b60008190508160005260206000209050919050565b60006020601f8301049050919050565b600082821b905092915050565b600060088302611bef7fffffffffffffffffffffffffffffffffffffffffffffffffffffffffffffffff82611bb2565b611bf98683611bb2565b95508019841693508086168417925050509392505050565b6000819050919050565b6000611c36611c31611c2c84611418565b611c11565b611418565b9050919050565b6000819050919050565b611c5083611c1b565b611c64611c5c82611c3d565b848454611bbf565b825550505050565b600090565b611c79611c6c565b611c84818484611c47565b505050565b5b81811015611ca857611c9d600082611c71565b600181019050611c8a565b5050565b601f821115611ced57611cbe81611b8d565b611cc784611ba2565b81016020851015611cd6578190505b611cea611ce285611ba2565b830182611c89565b50505b505050565b600082821c905092915050565b6000611d1060001984600802611cf2565b1980831691505092915050565b6000611d298383611cff565b9150826002028217905092915050565b611d42826114bc565b67ffffffffffffffff811115611d5b57611d5a6115db565b5b611d658254611b5c565b611d70828285611cac565b600060209050601f831160018114611da35760008415611d91578287015190505b611d9b8582611d1d565b865550611e03565b601f198416611db186611b8d565b60005b82811015611dd957848901518255600182019150602085019450602081019050611db4565b86831015611df65784890151611df2601f891682611cff565b8355505b6001600288020188555050505b505050505050565b7f4e487b7100000000000000000000000000000000000000000000000000000000600052601160045260246000fd5b6000611e4582611418565b91507fffffffffffffffffffffffffffffffffffffffffffffffffffffffffffffffff8203611e7757611e76611e0b565b5b600182019050919050565b6000611e8d82611418565b9150611e9883611418565b9250828203905081811115611eb057611eaf611e0b565b5b92915050565b7f4e487b7100000000000000000000000000000000000000000000000000000000600052603260045260246000fd5b7f4169646520686173207265616368656420746865206d6178696d756d206e756d60008201527f626572206f6620726571756573746572732e0000000000000000000000000000602082015250565b6000611f416032836114c7565b9150611f4c82611ee5565b604082019050919050565b60006020820190508181036000830152611f7081611f34565b9050919050565b600081549050611f8681611b5c565b9050919050565b818103611f9b575050612073565b611fa482611f77565b67ffffffffffffffff811115611fbd57611fbc6115db565b5b611fc78254611b5c565b611fd2828285611cac565b6000601f8311600181146120015760008415611fef578287015490505b611ff98582611d1d565b86555061206c565b601f19841661200f87611b8d565b965061201a86611b8d565b60005b828110156120425784890154825560018201915060018501945060208101905061201d565b8683101561205f578489015461205b601f891682611cff565b8355505b6001600288020188555050505b5050505050505b565b600061208082611418565b91506000820361209357612092611e0b565b5b60018203905091905056fea2646970667358221220957c447b74ee0a53552f6a7e0310601364593ba133913f8223f13b2aba200c8964736f6c63430008130033",
  "linkReferences": {},
  "deployedLinkReferences": {}
}