{
  "_format": "hh-sol-artifact-1",
  "contractName": "StudentAide",
  "sourceName": "contracts/StudentAide.sol",
  "abi": [
    {
      "inputs": [
        {
          "internalType": "uint256",
          "name": "",
          "type": "uint256"
        }
      ],
      "name": "aides",
      "outputs": [
        {
          "internalType": "string",
          "name": "title",
          "type": "string"
        },
        {
          "internalType": "string",
          "name": "description",
          "type": "string"
        },
        {
          "internalType": "uint256",
          "name": "maxRequesters",
          "type": "uint256"
        },
        {
          "internalType": "uint256",
          "name": "deadline",
          "type": "uint256"
        },
        {
          "internalType": "string",
          "name": "image",
          "type": "string"
        }
      ],
      "stateMutability": "view",
      "type": "function"
    },
    {
      "inputs": [
        {
          "internalType": "uint256",
          "name": "_id",
          "type": "uint256"
        }
      ],
      "name": "closeAide",
      "outputs": [],
      "stateMutability": "nonpayable",
      "type": "function"
    },
    {
      "inputs": [
        {
          "internalType": "string",
          "name": "_title",
          "type": "string"
        },
        {
          "internalType": "string",
          "name": "_description",
          "type": "string"
        },
        {
          "internalType": "uint256",
          "name": "_maxRequesters",
          "type": "uint256"
        },
        {
          "internalType": "uint256",
          "name": "_deadline",
          "type": "uint256"
        },
        {
          "internalType": "string",
          "name": "_image",
          "type": "string"
        }
      ],
      "name": "createAide",
      "outputs": [
        {
          "internalType": "uint256",
          "name": "",
          "type": "uint256"
        }
      ],
      "stateMutability": "nonpayable",
      "type": "function"
    },
    {
      "inputs": [
        {
          "internalType": "uint256",
          "name": "",
          "type": "uint256"
        }
      ],
      "name": "fullAides",
      "outputs": [
        {
          "internalType": "string",
          "name": "title",
          "type": "string"
        },
        {
          "internalType": "string",
          "name": "description",
          "type": "string"
        },
        {
          "internalType": "uint256",
          "name": "maxRequesters",
          "type": "uint256"
        },
        {
          "internalType": "uint256",
          "name": "deadline",
          "type": "uint256"
        },
        {
          "internalType": "string",
          "name": "image",
          "type": "string"
        }
      ],
      "stateMutability": "view",
      "type": "function"
    },
    {
      "inputs": [],
      "name": "getAides",
      "outputs": [
        {
          "components": [
            {
              "internalType": "string",
              "name": "title",
              "type": "string"
            },
            {
              "internalType": "string",
              "name": "description",
              "type": "string"
            },
            {
              "internalType": "uint256",
              "name": "maxRequesters",
              "type": "uint256"
            },
            {
              "internalType": "uint256",
              "name": "deadline",
              "type": "uint256"
            },
            {
              "internalType": "string",
              "name": "image",
              "type": "string"
            },
            {
              "internalType": "address[]",
              "name": "requesters",
              "type": "address[]"
            }
          ],
          "internalType": "struct StudentAide.Aide[]",
          "name": "",
          "type": "tuple[]"
        }
      ],
      "stateMutability": "view",
      "type": "function"
    },
    {
      "inputs": [],
      "name": "getFullAides",
      "outputs": [
        {
          "components": [
            {
              "internalType": "string",
              "name": "title",
              "type": "string"
            },
            {
              "internalType": "string",
              "name": "description",
              "type": "string"
            },
            {
              "internalType": "uint256",
              "name": "maxRequesters",
              "type": "uint256"
            },
            {
              "internalType": "uint256",
              "name": "deadline",
              "type": "uint256"
            },
            {
              "internalType": "string",
              "name": "image",
              "type": "string"
            },
            {
              "internalType": "address[]",
              "name": "requesters",
              "type": "address[]"
            }
          ],
          "internalType": "struct StudentAide.Aide[]",
          "name": "",
          "type": "tuple[]"
        }
      ],
      "stateMutability": "view",
      "type": "function"
    },
    {
      "inputs": [
        {
          "internalType": "uint256",
          "name": "_id",
          "type": "uint256"
        }
      ],
      "name": "getNumberOfRequesters",
      "outputs": [
        {
          "internalType": "uint256",
          "name": "",
          "type": "uint256"
        }
      ],
      "stateMutability": "view",
      "type": "function"
    },
    {
      "inputs": [
        {
          "internalType": "uint256",
          "name": "_id",
          "type": "uint256"
        }
      ],
      "name": "getNumberOfRequestersforFull",
      "outputs": [
        {
          "internalType": "uint256",
          "name": "",
          "type": "uint256"
        }
      ],
      "stateMutability": "view",
      "type": "function"
    },
    {
      "inputs": [
        {
          "internalType": "uint256",
          "name": "_id",
          "type": "uint256"
        }
      ],
      "name": "getRequesters",
      "outputs": [
        {
          "internalType": "address[]",
          "name": "",
          "type": "address[]"
        }
      ],
      "stateMutability": "view",
      "type": "function"
    },
    {
      "inputs": [
        {
          "internalType": "uint256",
          "name": "_id",
          "type": "uint256"
        }
      ],
      "name": "getRequestersforFull",
      "outputs": [
        {
          "internalType": "address[]",
          "name": "",
          "type": "address[]"
        }
      ],
      "stateMutability": "view",
      "type": "function"
    },
    {
      "inputs": [],
      "name": "numberofAides",
      "outputs": [
        {
          "internalType": "uint256",
          "name": "",
          "type": "uint256"
        }
      ],
      "stateMutability": "view",
      "type": "function"
    },
    {
      "inputs": [],
      "name": "numberoffullAides",
      "outputs": [
        {
          "internalType": "uint256",
          "name": "",
          "type": "uint256"
        }
      ],
      "stateMutability": "view",
      "type": "function"
    },
    {
      "inputs": [
        {
          "internalType": "uint256",
          "name": "_id",
          "type": "uint256"
        }
      ],
      "name": "requestAide",
      "outputs": [],
      "stateMutability": "payable",
      "type": "function"
    },
    {
      "inputs": [
        {
          "internalType": "uint256",
          "name": "",
          "type": "uint256"
        }
      ],
      "name": "tempAides",
      "outputs": [
        {
          "internalType": "string",
          "name": "title",
          "type": "string"
        },
        {
          "internalType": "string",
          "name": "description",
          "type": "string"
        },
        {
          "internalType": "uint256",
          "name": "maxRequesters",
          "type": "uint256"
        },
        {
          "internalType": "uint256",
          "name": "deadline",
          "type": "uint256"
        },
        {
          "internalType": "string",
          "name": "image",
          "type": "string"
        }
      ],
      "stateMutability": "view",
      "type": "function"
    }
  ],
  "bytecode": "0x60806040526000600255600060035534801561001a57600080fd5b5061272a8061002a6000396000f3fe6080604052600436106100dd5760003560e01c8063698af3c91161007f578063923c781511610059578063923c7815146102f3578063c3d1bc8314610330578063de4a73bf1461035b578063fc8fdff214610386576100dd565b8063698af3c91461024e57806370772bd81461028b57806374fb08ee146102b6576100dd565b80633d8ee873116100bb5780633d8ee8731461018957806346f2e82f146101ca57806352f15775146101f55780635f8adcc314610211576100dd565b80630c3acf34146100e25780631937a2a41461012357806326e2f62814610160575b600080fd5b3480156100ee57600080fd5b50610109600480360381019061010491906119d6565b6103c7565b60405161011a959493929190611aa2565b60405180910390f35b34801561012f57600080fd5b5061014a60048036038101906101459190611c3f565b610595565b6040516101579190611d0e565b60405180910390f35b34801561016c57600080fd5b50610187600480360381019061018291906119d6565b610629565b005b34801561019557600080fd5b506101b060048036038101906101ab91906119d6565b6107af565b6040516101c1959493929190611aa2565b60405180910390f35b3480156101d657600080fd5b506101df61097d565b6040516101ec9190611fd2565b60405180910390f35b61020f600480360381019061020a91906119d6565b610c9b565b005b34801561021d57600080fd5b50610238600480360381019061023391906119d6565b610f30565b6040516102459190611d0e565b60405180910390f35b34801561025a57600080fd5b50610275600480360381019061027091906119d6565b610f53565b6040516102829190611d0e565b60405180910390f35b34801561029757600080fd5b506102a0610f75565b6040516102ad9190611d0e565b60405180910390f35b3480156102c257600080fd5b506102dd60048036038101906102d891906119d6565b610f7b565b6040516102ea9190612063565b60405180910390f35b3480156102ff57600080fd5b5061031a600480360381019061031591906119d6565b61101e565b6040516103279190612063565b60405180910390f35b34801561033c57600080fd5b506103456110c2565b6040516103529190611d0e565b60405180910390f35b34801561036757600080fd5b506103706110c8565b60405161037d9190611fd2565b60405180910390f35b34801561039257600080fd5b506103ad60048036038101906103a891906119d6565b6113e5565b6040516103be959493929190611aa2565b60405180910390f35b60016020528060005260406000206000915090508060000180546103ea906120b4565b80601f0160208091040260200160405190810160405280929190818152602001828054610416906120b4565b80156104635780601f1061043857610100808354040283529160200191610463565b820191906000526020600020905b81548152906001019060200180831161044657829003601f168201915b505050505090806001018054610478906120b4565b80601f01602080910402602001604051908101604052809291908181526020018280546104a4906120b4565b80156104f15780601f106104c6576101008083540402835291602001916104f1565b820191906000526020600020905b8154815290600101906020018083116104d457829003601f168201915b505050505090806002015490806003015490806004018054610512906120b4565b80601f016020809104026020016040519081016040528092919081815260200182805461053e906120b4565b801561058b5780601f106105605761010080835404028352916020019161058b565b820191906000526020600020905b81548152906001019060200180831161056e57829003601f168201915b5050505050905085565b60008060008060025481526020019081526020016000209050868160000190816105bf9190612291565b50858160010190816105d19190612291565b50848160020181905550838160030181905550828160040190816105f59190612291565b506002600081548092919061060990612392565b9190505550600160025461061d91906123da565b91505095945050505050565b6000806000838152602001908152602001600020905060048190806001815401808255809150506001900390600052602060002090600602016000909190919091506000820181600001908161067f9190612424565b50600182018160010190816106949190612424565b506002820154816002015560038201548160030155600482018160040190816106bd9190612424565b5060058201816005019080546106d49291906117fb565b5050506106e0826115c3565b60046000815481106106f5576106f461250c565b5b90600052602060002090600602016001600060035481526020019081526020016000206000820181600001908161072c9190612424565b50600182018160010190816107419190612424565b5060028201548160020155600382015481600301556004820181600401908161076a9190612424565b5060058201816005019080546107819291906117fb565b509050506003600081548092919061079890612392565b9190505550600460006107ab919061184d565b5050565b60006020528060005260406000206000915090508060000180546107d2906120b4565b80601f01602080910402602001604051908101604052809291908181526020018280546107fe906120b4565b801561084b5780601f106108205761010080835404028352916020019161084b565b820191906000526020600020905b81548152906001019060200180831161082e57829003601f168201915b505050505090806001018054610860906120b4565b80601f016020809104026020016040519081016040528092919081815260200182805461088c906120b4565b80156108d95780601f106108ae576101008083540402835291602001916108d9565b820191906000526020600020905b8154815290600101906020018083116108bc57829003601f168201915b5050505050908060020154908060030154908060040180546108fa906120b4565b80601f0160208091040260200160405190810160405280929190818152602001828054610926906120b4565b80156109735780601f1061094857610100808354040283529160200191610973565b820191906000526020600020905b81548152906001019060200180831161095657829003601f168201915b5050505050905085565b6060600060035467ffffffffffffffff81111561099d5761099c611b14565b5b6040519080825280602002602001820160405280156109d657816020015b6109c3611871565b8152602001906001900390816109bb5790505b50905060005b600354811015610c93576000600160008381526020019081526020016000209050806040518060c0016040529081600082018054610a19906120b4565b80601f0160208091040260200160405190810160405280929190818152602001828054610a45906120b4565b8015610a925780601f10610a6757610100808354040283529160200191610a92565b820191906000526020600020905b815481529060010190602001808311610a7557829003601f168201915b50505050508152602001600182018054610aab906120b4565b80601f0160208091040260200160405190810160405280929190818152602001828054610ad7906120b4565b8015610b245780601f10610af957610100808354040283529160200191610b24565b820191906000526020600020905b815481529060010190602001808311610b0757829003601f168201915b505050505081526020016002820154815260200160038201548152602001600482018054610b51906120b4565b80601f0160208091040260200160405190810160405280929190818152602001828054610b7d906120b4565b8015610bca5780601f10610b9f57610100808354040283529160200191610bca565b820191906000526020600020905b815481529060010190602001808311610bad57829003601f168201915b5050505050815260200160058201805480602002602001604051908101604052809291908181526020018280548015610c5857602002820191906000526020600020905b8160009054906101000a900473ffffffffffffffffffffffffffffffffffffffff1673ffffffffffffffffffffffffffffffffffffffff1681526020019060010190808311610c0e575b505050505081525050838381518110610c7457610c7361250c565b5b6020026020010181905250508080610c8b90612392565b9150506109dc565b508091505090565b60008060008381526020019081526020016000209050610cbb8233611734565b15610cfb576040517f08c379a0000000000000000000000000000000000000000000000000000000008152600401610cf2906125ad565b60405180910390fd5b8060020154816005018054905010610d48576040517f08c379a0000000000000000000000000000000000000000000000000000000008152600401610d3f9061263f565b60405180910390fd5b80600501339080600181540180825580915050600190039060005260206000200160009091909190916101000a81548173ffffffffffffffffffffffffffffffffffffffff021916908373ffffffffffffffffffffffffffffffffffffffff1602179055508060020154816005018054905003610f2c57600481908060018154018082558091505060019003906000526020600020906006020160009091909190915060008201816000019081610dff9190612424565b5060018201816001019081610e149190612424565b50600282015481600201556003820154816003015560048201816004019081610e3d9190612424565b506005820181600501908054610e549291906117fb565b505050610e60826115c3565b6004600081548110610e7557610e7461250c565b5b906000526020600020906006020160016000600354815260200190815260200160002060008201816000019081610eac9190612424565b5060018201816001019081610ec19190612424565b50600282015481600201556003820154816003015560048201816004019081610eea9190612424565b506005820181600501908054610f019291906117fb565b5090505060036000815480929190610f1890612392565b919050555060046000610f2b919061184d565b5b5050565b600060016000838152602001908152602001600020600501805490509050919050565b6000806000838152602001908152602001600020600501805490509050919050565b60035481565b606060008083815260200190815260200160002060050180548060200260200160405190810160405280929190818152602001828054801561101257602002820191906000526020600020905b8160009054906101000a900473ffffffffffffffffffffffffffffffffffffffff1673ffffffffffffffffffffffffffffffffffffffff1681526020019060010190808311610fc8575b50505050509050919050565b6060600160008381526020019081526020016000206005018054806020026020016040519081016040528092919081815260200182805480156110b657602002820191906000526020600020905b8160009054906101000a900473ffffffffffffffffffffffffffffffffffffffff1673ffffffffffffffffffffffffffffffffffffffff168152602001906001019080831161106c575b50505050509050919050565b60025481565b6060600060025467ffffffffffffffff8111156110e8576110e7611b14565b5b60405190808252806020026020018201604052801561112157816020015b61110e611871565b8152602001906001900390816111065790505b50905060005b6002548110156113dd5760008060008381526020019081526020016000209050806040518060c0016040529081600082018054611163906120b4565b80601f016020809104026020016040519081016040528092919081815260200182805461118f906120b4565b80156111dc5780601f106111b1576101008083540402835291602001916111dc565b820191906000526020600020905b8154815290600101906020018083116111bf57829003601f168201915b505050505081526020016001820180546111f5906120b4565b80601f0160208091040260200160405190810160405280929190818152602001828054611221906120b4565b801561126e5780601f106112435761010080835404028352916020019161126e565b820191906000526020600020905b81548152906001019060200180831161125157829003601f168201915b50505050508152602001600282015481526020016003820154815260200160048201805461129b906120b4565b80601f01602080910402602001604051908101604052809291908181526020018280546112c7906120b4565b80156113145780601f106112e957610100808354040283529160200191611314565b820191906000526020600020905b8154815290600101906020018083116112f757829003601f168201915b50505050508152602001600582018054806020026020016040519081016040528092919081815260200182805480156113a257602002820191906000526020600020905b8160009054906101000a900473ffffffffffffffffffffffffffffffffffffffff1673ffffffffffffffffffffffffffffffffffffffff1681526020019060010190808311611358575b5050505050815250508383815181106113be576113bd61250c565b5b60200260200101819052505080806113d590612392565b915050611127565b508091505090565b600481815481106113f557600080fd5b9060005260206000209060060201600091509050806000018054611418906120b4565b80601f0160208091040260200160405190810160405280929190818152602001828054611444906120b4565b80156114915780601f1061146657610100808354040283529160200191611491565b820191906000526020600020905b81548152906001019060200180831161147457829003601f168201915b5050505050908060010180546114a6906120b4565b80601f01602080910402602001604051908101604052809291908181526020018280546114d2906120b4565b801561151f5780601f106114f45761010080835404028352916020019161151f565b820191906000526020600020905b81548152906001019060200180831161150257829003601f168201915b505050505090806002015490806003015490806004018054611540906120b4565b80601f016020809104026020016040519081016040528092919081815260200182805461156c906120b4565b80156115b95780601f1061158e576101008083540402835291602001916115b9565b820191906000526020600020905b81548152906001019060200180831161159c57829003601f168201915b5050505050905085565b6002548110611607576040517f08c379a00000000000000000000000000000000000000000000000000000000081526004016115fe906126ab565b60405180910390fd5b600080600160025461161991906123da565b81526020019081526020016000206000808381526020019081526020016000206000820181600001908161164d9190612424565b50600182018160010190816116629190612424565b5060028201548160020155600382015481600301556004820181600401908161168b9190612424565b5060058201816005019080546116a29291906117fb565b5090505060008060016002546116b891906123da565b8152602001908152602001600020600080820160006116d791906118a7565b6001820160006116e791906118a7565b6002820160009055600382016000905560048201600061170791906118a7565b60058201600061171791906118e7565b50506002600081548092919061172c906126cb565b919050555050565b600080600080858152602001908152602001600020905060005b81600501805490508110156117ee578373ffffffffffffffffffffffffffffffffffffffff1682600501828154811061178a5761178961250c565b5b9060005260206000200160009054906101000a900473ffffffffffffffffffffffffffffffffffffffff1673ffffffffffffffffffffffffffffffffffffffff16036117db576001925050506117f5565b80806117e690612392565b91505061174e565b5060009150505b92915050565b82805482825590600052602060002090810192821561183c5760005260206000209182015b8281111561183b578254825591600101919060010190611820565b5b5090506118499190611908565b5090565b508054600082556006029060005260206000209081019061186e9190611925565b50565b6040518060c001604052806060815260200160608152602001600081526020016000815260200160608152602001606081525090565b5080546118b3906120b4565b6000825580601f106118c557506118e4565b601f0160209004906000526020600020908101906118e39190611908565b5b50565b50805460008255906000526020600020908101906119059190611908565b50565b5b80821115611921576000816000905550600101611909565b5090565b5b80821115611988576000808201600061193f91906118a7565b60018201600061194f91906118a7565b6002820160009055600382016000905560048201600061196f91906118a7565b60058201600061197f91906118e7565b50600601611926565b5090565b6000604051905090565b600080fd5b600080fd5b6000819050919050565b6119b3816119a0565b81146119be57600080fd5b50565b6000813590506119d0816119aa565b92915050565b6000602082840312156119ec576119eb611996565b5b60006119fa848285016119c1565b91505092915050565b600081519050919050565b600082825260208201905092915050565b60005b83811015611a3d578082015181840152602081019050611a22565b60008484015250505050565b6000601f19601f8301169050919050565b6000611a6582611a03565b611a6f8185611a0e565b9350611a7f818560208601611a1f565b611a8881611a49565b840191505092915050565b611a9c816119a0565b82525050565b600060a0820190508181036000830152611abc8188611a5a565b90508181036020830152611ad08187611a5a565b9050611adf6040830186611a93565b611aec6060830185611a93565b8181036080830152611afe8184611a5a565b90509695505050505050565b600080fd5b600080fd5b7f4e487b7100000000000000000000000000000000000000000000000000000000600052604160045260246000fd5b611b4c82611a49565b810181811067ffffffffffffffff82111715611b6b57611b6a611b14565b5b80604052505050565b6000611b7e61198c565b9050611b8a8282611b43565b919050565b600067ffffffffffffffff821115611baa57611ba9611b14565b5b611bb382611a49565b9050602081019050919050565b82818337600083830152505050565b6000611be2611bdd84611b8f565b611b74565b905082815260208101848484011115611bfe57611bfd611b0f565b5b611c09848285611bc0565b509392505050565b600082601f830112611c2657611c25611b0a565b5b8135611c36848260208601611bcf565b91505092915050565b600080600080600060a08688031215611c5b57611c5a611996565b5b600086013567ffffffffffffffff811115611c7957611c7861199b565b5b611c8588828901611c11565b955050602086013567ffffffffffffffff811115611ca657611ca561199b565b5b611cb288828901611c11565b9450506040611cc3888289016119c1565b9350506060611cd4888289016119c1565b925050608086013567ffffffffffffffff811115611cf557611cf461199b565b5b611d0188828901611c11565b9150509295509295909350565b6000602082019050611d236000830184611a93565b92915050565b600081519050919050565b600082825260208201905092915050565b6000819050602082019050919050565b600082825260208201905092915050565b6000611d7182611a03565b611d7b8185611d55565b9350611d8b818560208601611a1f565b611d9481611a49565b840191505092915050565b611da8816119a0565b82525050565b600081519050919050565b600082825260208201905092915050565b6000819050602082019050919050565b600073ffffffffffffffffffffffffffffffffffffffff82169050919050565b6000611e0582611dda565b9050919050565b611e1581611dfa565b82525050565b6000611e278383611e0c565b60208301905092915050565b6000602082019050919050565b6000611e4b82611dae565b611e558185611db9565b9350611e6083611dca565b8060005b83811015611e91578151611e788882611e1b565b9750611e8383611e33565b925050600181019050611e64565b5085935050505092915050565b600060c0830160008301518482036000860152611ebb8282611d66565b91505060208301518482036020860152611ed58282611d66565b9150506040830151611eea6040860182611d9f565b506060830151611efd6060860182611d9f565b5060808301518482036080860152611f158282611d66565b91505060a083015184820360a0860152611f2f8282611e40565b9150508091505092915050565b6000611f488383611e9e565b905092915050565b6000602082019050919050565b6000611f6882611d29565b611f728185611d34565b935083602082028501611f8485611d45565b8060005b85811015611fc05784840389528151611fa18582611f3c565b9450611fac83611f50565b925060208a01995050600181019050611f88565b50829750879550505050505092915050565b60006020820190508181036000830152611fec8184611f5d565b905092915050565b600082825260208201905092915050565b600061201082611dae565b61201a8185611ff4565b935061202583611dca565b8060005b8381101561205657815161203d8882611e1b565b975061204883611e33565b925050600181019050612029565b5085935050505092915050565b6000602082019050818103600083015261207d8184612005565b905092915050565b7f4e487b7100000000000000000000000000000000000000000000000000000000600052602260045260246000fd5b600060028204905060018216806120cc57607f821691505b6020821081036120df576120de612085565b5b50919050565b60008190508160005260206000209050919050565b60006020601f8301049050919050565b600082821b905092915050565b6000600883026121477fffffffffffffffffffffffffffffffffffffffffffffffffffffffffffffffff8261210a565b612151868361210a565b95508019841693508086168417925050509392505050565b6000819050919050565b600061218e612189612184846119a0565b612169565b6119a0565b9050919050565b6000819050919050565b6121a883612173565b6121bc6121b482612195565b848454612117565b825550505050565b600090565b6121d16121c4565b6121dc81848461219f565b505050565b5b81811015612200576121f56000826121c9565b6001810190506121e2565b5050565b601f82111561224557612216816120e5565b61221f846120fa565b8101602085101561222e578190505b61224261223a856120fa565b8301826121e1565b50505b505050565b600082821c905092915050565b60006122686000198460080261224a565b1980831691505092915050565b60006122818383612257565b9150826002028217905092915050565b61229a82611a03565b67ffffffffffffffff8111156122b3576122b2611b14565b5b6122bd82546120b4565b6122c8828285612204565b600060209050601f8311600181146122fb57600084156122e9578287015190505b6122f38582612275565b86555061235b565b601f198416612309866120e5565b60005b828110156123315784890151825560018201915060208501945060208101905061230c565b8683101561234e578489015161234a601f891682612257565b8355505b6001600288020188555050505b505050505050565b7f4e487b7100000000000000000000000000000000000000000000000000000000600052601160045260246000fd5b600061239d826119a0565b91507fffffffffffffffffffffffffffffffffffffffffffffffffffffffffffffffff82036123cf576123ce612363565b5b600182019050919050565b60006123e5826119a0565b91506123f0836119a0565b925082820390508181111561240857612407612363565b5b92915050565b60008154905061241d816120b4565b9050919050565b81810361243257505061250a565b61243b8261240e565b67ffffffffffffffff81111561245457612453611b14565b5b61245e82546120b4565b612469828285612204565b6000601f8311600181146124985760008415612486578287015490505b6124908582612275565b865550612503565b601f1984166124a6876120e5565b96506124b1866120e5565b60005b828110156124d9578489015482556001820191506001850194506020810190506124b4565b868310156124f657848901546124f2601f891682612257565b8355505b6001600288020188555050505b5050505050505b565b7f4e487b7100000000000000000000000000000000000000000000000000000000600052603260045260246000fd5b7f596f75206861766520616c72656164792072657175657374656420666f72207460008201527f68697320416964652e0000000000000000000000000000000000000000000000602082015250565b6000612597602983611a0e565b91506125a28261253b565b604082019050919050565b600060208201905081810360008301526125c68161258a565b9050919050565b7f4169646520686173207265616368656420746865206d6178696d756d206e756d60008201527f626572206f6620726571756573746572732e0000000000000000000000000000602082015250565b6000612629603283611a0e565b9150612634826125cd565b604082019050919050565b600060208201905081810360008301526126588161261c565b9050919050565b7f496e76616c696420696e64657800000000000000000000000000000000000000600082015250565b6000612695600d83611a0e565b91506126a08261265f565b602082019050919050565b600060208201905081810360008301526126c481612688565b9050919050565b60006126d6826119a0565b9150600082036126e9576126e8612363565b5b60018203905091905056fea26469706673582212209e4ee240d5bb4485795cec2b59853901e92957faf917ff3bb768a8ac7a4574fd64736f6c63430008130033",
  "linkReferences": {},
  "deployedLinkReferences": {}
}