{
  "_format": "hh-sol-artifact-1",
  "contractName": "StudentAide",
  "sourceName": "contracts/StudentAide.sol",
  "abi": [
    {
      "inputs": [
        {
          "internalType": "uint256",
          "name": "",
          "type": "uint256"
        }
      ],
      "name": "aides",
      "outputs": [
        {
          "internalType": "address",
          "name": "owner",
          "type": "address"
        },
        {
          "internalType": "string",
          "name": "title",
          "type": "string"
        },
        {
          "internalType": "string",
          "name": "description",
          "type": "string"
        },
        {
          "internalType": "uint256",
          "name": "maxRequesters",
          "type": "uint256"
        },
        {
          "internalType": "uint256",
          "name": "deadline",
          "type": "uint256"
        },
        {
          "internalType": "string",
          "name": "image",
          "type": "string"
        }
      ],
      "stateMutability": "view",
      "type": "function"
    },
    {
      "inputs": [
        {
          "internalType": "uint256",
          "name": "_id",
          "type": "uint256"
        }
      ],
      "name": "closeAide",
      "outputs": [],
      "stateMutability": "nonpayable",
      "type": "function"
    },
    {
      "inputs": [
        {
          "internalType": "string",
          "name": "_title",
          "type": "string"
        },
        {
          "internalType": "string",
          "name": "_description",
          "type": "string"
        },
        {
          "internalType": "uint256",
          "name": "_maxRequesters",
          "type": "uint256"
        },
        {
          "internalType": "uint256",
          "name": "_deadline",
          "type": "uint256"
        },
        {
          "internalType": "string",
          "name": "_image",
          "type": "string"
        }
      ],
      "name": "createAide",
      "outputs": [
        {
          "internalType": "uint256",
          "name": "",
          "type": "uint256"
        }
      ],
      "stateMutability": "nonpayable",
      "type": "function"
    },
    {
      "inputs": [
        {
          "internalType": "uint256",
          "name": "",
          "type": "uint256"
        }
      ],
      "name": "fullAides",
      "outputs": [
        {
          "internalType": "address",
          "name": "owner",
          "type": "address"
        },
        {
          "internalType": "string",
          "name": "title",
          "type": "string"
        },
        {
          "internalType": "string",
          "name": "description",
          "type": "string"
        },
        {
          "internalType": "uint256",
          "name": "maxRequesters",
          "type": "uint256"
        },
        {
          "internalType": "uint256",
          "name": "deadline",
          "type": "uint256"
        },
        {
          "internalType": "string",
          "name": "image",
          "type": "string"
        }
      ],
      "stateMutability": "view",
      "type": "function"
    },
    {
      "inputs": [],
      "name": "getAides",
      "outputs": [
        {
          "components": [
            {
              "internalType": "address",
              "name": "owner",
              "type": "address"
            },
            {
              "internalType": "string",
              "name": "title",
              "type": "string"
            },
            {
              "internalType": "string",
              "name": "description",
              "type": "string"
            },
            {
              "internalType": "uint256",
              "name": "maxRequesters",
              "type": "uint256"
            },
            {
              "internalType": "uint256",
              "name": "deadline",
              "type": "uint256"
            },
            {
              "internalType": "string",
              "name": "image",
              "type": "string"
            },
            {
              "internalType": "address[]",
              "name": "requesters",
              "type": "address[]"
            }
          ],
          "internalType": "struct StudentAide.Aide[]",
          "name": "",
          "type": "tuple[]"
        }
      ],
      "stateMutability": "view",
      "type": "function"
    },
    {
      "inputs": [],
      "name": "getFullAides",
      "outputs": [
        {
          "components": [
            {
              "internalType": "address",
              "name": "owner",
              "type": "address"
            },
            {
              "internalType": "string",
              "name": "title",
              "type": "string"
            },
            {
              "internalType": "string",
              "name": "description",
              "type": "string"
            },
            {
              "internalType": "uint256",
              "name": "maxRequesters",
              "type": "uint256"
            },
            {
              "internalType": "uint256",
              "name": "deadline",
              "type": "uint256"
            },
            {
              "internalType": "string",
              "name": "image",
              "type": "string"
            },
            {
              "internalType": "address[]",
              "name": "requesters",
              "type": "address[]"
            }
          ],
          "internalType": "struct StudentAide.Aide[]",
          "name": "",
          "type": "tuple[]"
        }
      ],
      "stateMutability": "view",
      "type": "function"
    },
    {
      "inputs": [
        {
          "internalType": "uint256",
          "name": "_id",
          "type": "uint256"
        }
      ],
      "name": "getNumberOfRequesters",
      "outputs": [
        {
          "internalType": "uint256",
          "name": "",
          "type": "uint256"
        }
      ],
      "stateMutability": "view",
      "type": "function"
    },
    {
      "inputs": [
        {
          "internalType": "uint256",
          "name": "_id",
          "type": "uint256"
        }
      ],
      "name": "getNumberOfRequestersforFull",
      "outputs": [
        {
          "internalType": "uint256",
          "name": "",
          "type": "uint256"
        }
      ],
      "stateMutability": "view",
      "type": "function"
    },
    {
      "inputs": [
        {
          "internalType": "uint256",
          "name": "_id",
          "type": "uint256"
        }
      ],
      "name": "getRequesters",
      "outputs": [
        {
          "internalType": "address[]",
          "name": "",
          "type": "address[]"
        }
      ],
      "stateMutability": "view",
      "type": "function"
    },
    {
      "inputs": [
        {
          "internalType": "uint256",
          "name": "_id",
          "type": "uint256"
        }
      ],
      "name": "getRequestersforFull",
      "outputs": [
        {
          "internalType": "address[]",
          "name": "",
          "type": "address[]"
        }
      ],
      "stateMutability": "view",
      "type": "function"
    },
    {
      "inputs": [],
      "name": "numberofAides",
      "outputs": [
        {
          "internalType": "uint256",
          "name": "",
          "type": "uint256"
        }
      ],
      "stateMutability": "view",
      "type": "function"
    },
    {
      "inputs": [],
      "name": "numberoffullAides",
      "outputs": [
        {
          "internalType": "uint256",
          "name": "",
          "type": "uint256"
        }
      ],
      "stateMutability": "view",
      "type": "function"
    },
    {
      "inputs": [
        {
          "internalType": "uint256",
          "name": "_id",
          "type": "uint256"
        }
      ],
      "name": "requestAide",
      "outputs": [],
      "stateMutability": "payable",
      "type": "function"
    },
    {
      "inputs": [
        {
          "internalType": "uint256",
          "name": "",
          "type": "uint256"
        }
      ],
      "name": "tempAides",
      "outputs": [
        {
          "internalType": "address",
          "name": "owner",
          "type": "address"
        },
        {
          "internalType": "string",
          "name": "title",
          "type": "string"
        },
        {
          "internalType": "string",
          "name": "description",
          "type": "string"
        },
        {
          "internalType": "uint256",
          "name": "maxRequesters",
          "type": "uint256"
        },
        {
          "internalType": "uint256",
          "name": "deadline",
          "type": "uint256"
        },
        {
          "internalType": "string",
          "name": "image",
          "type": "string"
        }
      ],
      "stateMutability": "view",
      "type": "function"
    }
  ],
  "bytecode": "0x60806040526000600255600060035534801561001a57600080fd5b50612ae98061002a6000396000f3fe6080604052600436106100dd5760003560e01c8063698af3c91161007f578063923c781511610059578063923c7815146102f5578063c3d1bc8314610332578063de4a73bf1461035d578063fc8fdff214610388576100dd565b8063698af3c91461025057806370772bd81461028d57806374fb08ee146102b8576100dd565b80633d8ee873116100bb5780633d8ee8731461018a57806346f2e82f146101cc57806352f15775146101f75780635f8adcc314610213576100dd565b80630c3acf34146100e25780631937a2a41461012457806326e2f62814610161575b600080fd5b3480156100ee57600080fd5b5061010960048036038101906101049190611d65565b6103ca565b60405161011b96959493929190611e72565b60405180910390f35b34801561013057600080fd5b5061014b6004803603810190610146919061201d565b6105be565b60405161015891906120ec565b60405180910390f35b34801561016d57600080fd5b5061018860048036038101906101839190611d65565b610652565b005b34801561019657600080fd5b506101b160048036038101906101ac9190611d65565b6108a6565b6040516101c396959493929190611e72565b60405180910390f35b3480156101d857600080fd5b506101e1610a9a565b6040516101ee9190612391565b60405180910390f35b610211600480360381019061020c9190611d65565b610e0e565b005b34801561021f57600080fd5b5061023a60048036038101906102359190611d65565b611171565b60405161024791906120ec565b60405180910390f35b34801561025c57600080fd5b5061027760048036038101906102729190611d65565b611194565b60405161028491906120ec565b60405180910390f35b34801561029957600080fd5b506102a26111b6565b6040516102af91906120ec565b60405180910390f35b3480156102c457600080fd5b506102df60048036038101906102da9190611d65565b6111bc565b6040516102ec9190612422565b60405180910390f35b34801561030157600080fd5b5061031c60048036038101906103179190611d65565b61125f565b6040516103299190612422565b60405180910390f35b34801561033e57600080fd5b50610347611303565b60405161035491906120ec565b60405180910390f35b34801561036957600080fd5b50610372611309565b60405161037f9190612391565b60405180910390f35b34801561039457600080fd5b506103af60048036038101906103aa9190611d65565b61167c565b6040516103c196959493929190611e72565b60405180910390f35b60016020528060005260406000206000915090508060000160009054906101000a900473ffffffffffffffffffffffffffffffffffffffff169080600101805461041390612473565b80601f016020809104026020016040519081016040528092919081815260200182805461043f90612473565b801561048c5780601f106104615761010080835404028352916020019161048c565b820191906000526020600020905b81548152906001019060200180831161046f57829003601f168201915b5050505050908060020180546104a190612473565b80601f01602080910402602001604051908101604052809291908181526020018280546104cd90612473565b801561051a5780601f106104ef5761010080835404028352916020019161051a565b820191906000526020600020905b8154815290600101906020018083116104fd57829003601f168201915b50505050509080600301549080600401549080600501805461053b90612473565b80601f016020809104026020016040519081016040528092919081815260200182805461056790612473565b80156105b45780601f10610589576101008083540402835291602001916105b4565b820191906000526020600020905b81548152906001019060200180831161059757829003601f168201915b5050505050905086565b60008060008060025481526020019081526020016000209050868160010190816105e89190612650565b50858160020190816105fa9190612650565b508481600301819055508381600401819055508281600501908161061e9190612650565b506002600081548092919061063290612751565b919050555060016002546106469190612799565b91505095945050505050565b6000806000838152602001908152602001600020905060048190806001815401808255809150506001900390600052602060002090600702016000909190919091506000820160009054906101000a900473ffffffffffffffffffffffffffffffffffffffff168160000160006101000a81548173ffffffffffffffffffffffffffffffffffffffff021916908373ffffffffffffffffffffffffffffffffffffffff1602179055506001820181600101908161070f91906127e3565b506002820181600201908161072491906127e3565b5060038201548160030155600482015481600401556005820181600501908161074d91906127e3565b506006820181600601908054610764929190611b46565b50505061077082611880565b6004600081548110610785576107846128cb565b5b90600052602060002090600702016001600060035481526020019081526020016000206000820160009054906101000a900473ffffffffffffffffffffffffffffffffffffffff168160000160006101000a81548173ffffffffffffffffffffffffffffffffffffffff021916908373ffffffffffffffffffffffffffffffffffffffff1602179055506001820181600101908161082391906127e3565b506002820181600201908161083891906127e3565b5060038201548160030155600482015481600401556005820181600501908161086191906127e3565b506006820181600601908054610878929190611b46565b509050506003600081548092919061088f90612751565b9190505550600460006108a29190611b98565b5050565b60006020528060005260406000206000915090508060000160009054906101000a900473ffffffffffffffffffffffffffffffffffffffff16908060010180546108ef90612473565b80601f016020809104026020016040519081016040528092919081815260200182805461091b90612473565b80156109685780601f1061093d57610100808354040283529160200191610968565b820191906000526020600020905b81548152906001019060200180831161094b57829003601f168201915b50505050509080600201805461097d90612473565b80601f01602080910402602001604051908101604052809291908181526020018280546109a990612473565b80156109f65780601f106109cb576101008083540402835291602001916109f6565b820191906000526020600020905b8154815290600101906020018083116109d957829003601f168201915b505050505090806003015490806004015490806005018054610a1790612473565b80601f0160208091040260200160405190810160405280929190818152602001828054610a4390612473565b8015610a905780601f10610a6557610100808354040283529160200191610a90565b820191906000526020600020905b815481529060010190602001808311610a7357829003601f168201915b5050505050905086565b6060600060035467ffffffffffffffff811115610aba57610ab9611ef2565b5b604051908082528060200260200182016040528015610af357816020015b610ae0611bbc565b815260200190600190039081610ad85790505b50905060005b600354811015610e06576000600160008381526020019081526020016000209050806040518060e00160405290816000820160009054906101000a900473ffffffffffffffffffffffffffffffffffffffff1673ffffffffffffffffffffffffffffffffffffffff1673ffffffffffffffffffffffffffffffffffffffff168152602001600182018054610b8c90612473565b80601f0160208091040260200160405190810160405280929190818152602001828054610bb890612473565b8015610c055780601f10610bda57610100808354040283529160200191610c05565b820191906000526020600020905b815481529060010190602001808311610be857829003601f168201915b50505050508152602001600282018054610c1e90612473565b80601f0160208091040260200160405190810160405280929190818152602001828054610c4a90612473565b8015610c975780601f10610c6c57610100808354040283529160200191610c97565b820191906000526020600020905b815481529060010190602001808311610c7a57829003601f168201915b505050505081526020016003820154815260200160048201548152602001600582018054610cc490612473565b80601f0160208091040260200160405190810160405280929190818152602001828054610cf090612473565b8015610d3d5780601f10610d1257610100808354040283529160200191610d3d565b820191906000526020600020905b815481529060010190602001808311610d2057829003601f168201915b5050505050815260200160068201805480602002602001604051908101604052809291908181526020018280548015610dcb57602002820191906000526020600020905b8160009054906101000a900473ffffffffffffffffffffffffffffffffffffffff1673ffffffffffffffffffffffffffffffffffffffff1681526020019060010190808311610d81575b505050505081525050838381518110610de757610de66128cb565b5b6020026020010181905250508080610dfe90612751565b915050610af9565b508091505090565b60008060008381526020019081526020016000209050610e2e8233611a7f565b15610e6e576040517f08c379a0000000000000000000000000000000000000000000000000000000008152600401610e659061296c565b60405180910390fd5b8060030154816006018054905010610ebb576040517f08c379a0000000000000000000000000000000000000000000000000000000008152600401610eb2906129fe565b60405180910390fd5b80600601339080600181540180825580915050600190039060005260206000200160009091909190916101000a81548173ffffffffffffffffffffffffffffffffffffffff021916908373ffffffffffffffffffffffffffffffffffffffff160217905550806003015481600601805490500361116d5760048190806001815401808255809150506001900390600052602060002090600702016000909190919091506000820160009054906101000a900473ffffffffffffffffffffffffffffffffffffffff168160000160006101000a81548173ffffffffffffffffffffffffffffffffffffffff021916908373ffffffffffffffffffffffffffffffffffffffff16021790555060018201816001019081610fd991906127e3565b5060028201816002019081610fee91906127e3565b5060038201548160030155600482015481600401556005820181600501908161101791906127e3565b50600682018160060190805461102e929190611b46565b50505061103a82611880565b600460008154811061104f5761104e6128cb565b5b90600052602060002090600702016001600060035481526020019081526020016000206000820160009054906101000a900473ffffffffffffffffffffffffffffffffffffffff168160000160006101000a81548173ffffffffffffffffffffffffffffffffffffffff021916908373ffffffffffffffffffffffffffffffffffffffff160217905550600182018160010190816110ed91906127e3565b506002820181600201908161110291906127e3565b5060038201548160030155600482015481600401556005820181600501908161112b91906127e3565b506006820181600601908054611142929190611b46565b509050506003600081548092919061115990612751565b91905055506004600061116c9190611b98565b5b5050565b600060016000838152602001908152602001600020600601805490509050919050565b6000806000838152602001908152602001600020600601805490509050919050565b60035481565b606060008083815260200190815260200160002060060180548060200260200160405190810160405280929190818152602001828054801561125357602002820191906000526020600020905b8160009054906101000a900473ffffffffffffffffffffffffffffffffffffffff1673ffffffffffffffffffffffffffffffffffffffff1681526020019060010190808311611209575b50505050509050919050565b6060600160008381526020019081526020016000206006018054806020026020016040519081016040528092919081815260200182805480156112f757602002820191906000526020600020905b8160009054906101000a900473ffffffffffffffffffffffffffffffffffffffff1673ffffffffffffffffffffffffffffffffffffffff16815260200190600101908083116112ad575b50505050509050919050565b60025481565b6060600060025467ffffffffffffffff81111561132957611328611ef2565b5b60405190808252806020026020018201604052801561136257816020015b61134f611bbc565b8152602001906001900390816113475790505b50905060005b6002548110156116745760008060008381526020019081526020016000209050806040518060e00160405290816000820160009054906101000a900473ffffffffffffffffffffffffffffffffffffffff1673ffffffffffffffffffffffffffffffffffffffff1673ffffffffffffffffffffffffffffffffffffffff1681526020016001820180546113fa90612473565b80601f016020809104026020016040519081016040528092919081815260200182805461142690612473565b80156114735780601f1061144857610100808354040283529160200191611473565b820191906000526020600020905b81548152906001019060200180831161145657829003601f168201915b5050505050815260200160028201805461148c90612473565b80601f01602080910402602001604051908101604052809291908181526020018280546114b890612473565b80156115055780601f106114da57610100808354040283529160200191611505565b820191906000526020600020905b8154815290600101906020018083116114e857829003601f168201915b50505050508152602001600382015481526020016004820154815260200160058201805461153290612473565b80601f016020809104026020016040519081016040528092919081815260200182805461155e90612473565b80156115ab5780601f10611580576101008083540402835291602001916115ab565b820191906000526020600020905b81548152906001019060200180831161158e57829003601f168201915b505050505081526020016006820180548060200260200160405190810160405280929190818152602001828054801561163957602002820191906000526020600020905b8160009054906101000a900473ffffffffffffffffffffffffffffffffffffffff1673ffffffffffffffffffffffffffffffffffffffff16815260200190600101908083116115ef575b505050505081525050838381518110611655576116546128cb565b5b602002602001018190525050808061166c90612751565b915050611368565b508091505090565b6004818154811061168c57600080fd5b90600052602060002090600702016000915090508060000160009054906101000a900473ffffffffffffffffffffffffffffffffffffffff16908060010180546116d590612473565b80601f016020809104026020016040519081016040528092919081815260200182805461170190612473565b801561174e5780601f106117235761010080835404028352916020019161174e565b820191906000526020600020905b81548152906001019060200180831161173157829003601f168201915b50505050509080600201805461176390612473565b80601f016020809104026020016040519081016040528092919081815260200182805461178f90612473565b80156117dc5780601f106117b1576101008083540402835291602001916117dc565b820191906000526020600020905b8154815290600101906020018083116117bf57829003601f168201915b5050505050908060030154908060040154908060050180546117fd90612473565b80601f016020809104026020016040519081016040528092919081815260200182805461182990612473565b80156118765780601f1061184b57610100808354040283529160200191611876565b820191906000526020600020905b81548152906001019060200180831161185957829003601f168201915b5050505050905086565b60025481106118c4576040517f08c379a00000000000000000000000000000000000000000000000000000000081526004016118bb90612a6a565b60405180910390fd5b60008060016002546118d69190612799565b81526020019081526020016000206000808381526020019081526020016000206000820160009054906101000a900473ffffffffffffffffffffffffffffffffffffffff168160000160006101000a81548173ffffffffffffffffffffffffffffffffffffffff021916908373ffffffffffffffffffffffffffffffffffffffff1602179055506001820181600101908161197191906127e3565b506002820181600201908161198691906127e3565b506003820154816003015560048201548160040155600582018160050190816119af91906127e3565b5060068201816006019080546119c6929190611b46565b5090505060008060016002546119dc9190612799565b8152602001908152602001600020600080820160006101000a81549073ffffffffffffffffffffffffffffffffffffffff0219169055600182016000611a229190611c0f565b600282016000611a329190611c0f565b60038201600090556004820160009055600582016000611a529190611c0f565b600682016000611a629190611c4f565b505060026000815480929190611a7790612a8a565b919050555050565b600080600080858152602001908152602001600020905060005b8160060180549050811015611b39578373ffffffffffffffffffffffffffffffffffffffff16826006018281548110611ad557611ad46128cb565b5b9060005260206000200160009054906101000a900473ffffffffffffffffffffffffffffffffffffffff1673ffffffffffffffffffffffffffffffffffffffff1603611b2657600192505050611b40565b8080611b3190612751565b915050611a99565b5060009150505b92915050565b828054828255906000526020600020908101928215611b875760005260206000209182015b82811115611b86578254825591600101919060010190611b6b565b5b509050611b949190611c70565b5090565b5080546000825560070290600052602060002090810190611bb99190611c8d565b50565b6040518060e00160405280600073ffffffffffffffffffffffffffffffffffffffff1681526020016060815260200160608152602001600081526020016000815260200160608152602001606081525090565b508054611c1b90612473565b6000825580601f10611c2d5750611c4c565b601f016020900490600052602060002090810190611c4b9190611c70565b5b50565b5080546000825590600052602060002090810190611c6d9190611c70565b50565b5b80821115611c89576000816000905550600101611c71565b5090565b5b80821115611d1757600080820160006101000a81549073ffffffffffffffffffffffffffffffffffffffff0219169055600182016000611cce9190611c0f565b600282016000611cde9190611c0f565b60038201600090556004820160009055600582016000611cfe9190611c0f565b600682016000611d0e9190611c4f565b50600701611c8e565b5090565b6000604051905090565b600080fd5b600080fd5b6000819050919050565b611d4281611d2f565b8114611d4d57600080fd5b50565b600081359050611d5f81611d39565b92915050565b600060208284031215611d7b57611d7a611d25565b5b6000611d8984828501611d50565b91505092915050565b600073ffffffffffffffffffffffffffffffffffffffff82169050919050565b6000611dbd82611d92565b9050919050565b611dcd81611db2565b82525050565b600081519050919050565b600082825260208201905092915050565b60005b83811015611e0d578082015181840152602081019050611df2565b60008484015250505050565b6000601f19601f8301169050919050565b6000611e3582611dd3565b611e3f8185611dde565b9350611e4f818560208601611def565b611e5881611e19565b840191505092915050565b611e6c81611d2f565b82525050565b600060c082019050611e876000830189611dc4565b8181036020830152611e998188611e2a565b90508181036040830152611ead8187611e2a565b9050611ebc6060830186611e63565b611ec96080830185611e63565b81810360a0830152611edb8184611e2a565b9050979650505050505050565b600080fd5b600080fd5b7f4e487b7100000000000000000000000000000000000000000000000000000000600052604160045260246000fd5b611f2a82611e19565b810181811067ffffffffffffffff82111715611f4957611f48611ef2565b5b80604052505050565b6000611f5c611d1b565b9050611f688282611f21565b919050565b600067ffffffffffffffff821115611f8857611f87611ef2565b5b611f9182611e19565b9050602081019050919050565b82818337600083830152505050565b6000611fc0611fbb84611f6d565b611f52565b905082815260208101848484011115611fdc57611fdb611eed565b5b611fe7848285611f9e565b509392505050565b600082601f83011261200457612003611ee8565b5b8135612014848260208601611fad565b91505092915050565b600080600080600060a0868803121561203957612038611d25565b5b600086013567ffffffffffffffff81111561205757612056611d2a565b5b61206388828901611fef565b955050602086013567ffffffffffffffff81111561208457612083611d2a565b5b61209088828901611fef565b94505060406120a188828901611d50565b93505060606120b288828901611d50565b925050608086013567ffffffffffffffff8111156120d3576120d2611d2a565b5b6120df88828901611fef565b9150509295509295909350565b60006020820190506121016000830184611e63565b92915050565b600081519050919050565b600082825260208201905092915050565b6000819050602082019050919050565b61213c81611db2565b82525050565b600082825260208201905092915050565b600061215e82611dd3565b6121688185612142565b9350612178818560208601611def565b61218181611e19565b840191505092915050565b61219581611d2f565b82525050565b600081519050919050565b600082825260208201905092915050565b6000819050602082019050919050565b60006121d38383612133565b60208301905092915050565b6000602082019050919050565b60006121f78261219b565b61220181856121a6565b935061220c836121b7565b8060005b8381101561223d57815161222488826121c7565b975061222f836121df565b925050600181019050612210565b5085935050505092915050565b600060e0830160008301516122626000860182612133565b506020830151848203602086015261227a8282612153565b915050604083015184820360408601526122948282612153565b91505060608301516122a9606086018261218c565b5060808301516122bc608086018261218c565b5060a083015184820360a08601526122d48282612153565b91505060c083015184820360c08601526122ee82826121ec565b9150508091505092915050565b6000612307838361224a565b905092915050565b6000602082019050919050565b600061232782612107565b6123318185612112565b93508360208202850161234385612123565b8060005b8581101561237f578484038952815161236085826122fb565b945061236b8361230f565b925060208a01995050600181019050612347565b50829750879550505050505092915050565b600060208201905081810360008301526123ab818461231c565b905092915050565b600082825260208201905092915050565b60006123cf8261219b565b6123d981856123b3565b93506123e4836121b7565b8060005b838110156124155781516123fc88826121c7565b9750612407836121df565b9250506001810190506123e8565b5085935050505092915050565b6000602082019050818103600083015261243c81846123c4565b905092915050565b7f4e487b7100000000000000000000000000000000000000000000000000000000600052602260045260246000fd5b6000600282049050600182168061248b57607f821691505b60208210810361249e5761249d612444565b5b50919050565b60008190508160005260206000209050919050565b60006020601f8301049050919050565b600082821b905092915050565b6000600883026125067fffffffffffffffffffffffffffffffffffffffffffffffffffffffffffffffff826124c9565b61251086836124c9565b95508019841693508086168417925050509392505050565b6000819050919050565b600061254d61254861254384611d2f565b612528565b611d2f565b9050919050565b6000819050919050565b61256783612532565b61257b61257382612554565b8484546124d6565b825550505050565b600090565b612590612583565b61259b81848461255e565b505050565b5b818110156125bf576125b4600082612588565b6001810190506125a1565b5050565b601f821115612604576125d5816124a4565b6125de846124b9565b810160208510156125ed578190505b6126016125f9856124b9565b8301826125a0565b50505b505050565b600082821c905092915050565b600061262760001984600802612609565b1980831691505092915050565b60006126408383612616565b9150826002028217905092915050565b61265982611dd3565b67ffffffffffffffff81111561267257612671611ef2565b5b61267c8254612473565b6126878282856125c3565b600060209050601f8311600181146126ba57600084156126a8578287015190505b6126b28582612634565b86555061271a565b601f1984166126c8866124a4565b60005b828110156126f0578489015182556001820191506020850194506020810190506126cb565b8683101561270d5784890151612709601f891682612616565b8355505b6001600288020188555050505b505050505050565b7f4e487b7100000000000000000000000000000000000000000000000000000000600052601160045260246000fd5b600061275c82611d2f565b91507fffffffffffffffffffffffffffffffffffffffffffffffffffffffffffffffff820361278e5761278d612722565b5b600182019050919050565b60006127a482611d2f565b91506127af83611d2f565b92508282039050818111156127c7576127c6612722565b5b92915050565b6000815490506127dc81612473565b9050919050565b8181036127f15750506128c9565b6127fa826127cd565b67ffffffffffffffff81111561281357612812611ef2565b5b61281d8254612473565b6128288282856125c3565b6000601f8311600181146128575760008415612845578287015490505b61284f8582612634565b8655506128c2565b601f198416612865876124a4565b9650612870866124a4565b60005b8281101561289857848901548255600182019150600185019450602081019050612873565b868310156128b557848901546128b1601f891682612616565b8355505b6001600288020188555050505b5050505050505b565b7f4e487b7100000000000000000000000000000000000000000000000000000000600052603260045260246000fd5b7f596f75206861766520616c72656164792072657175657374656420666f72207460008201527f68697320416964652e0000000000000000000000000000000000000000000000602082015250565b6000612956602983611dde565b9150612961826128fa565b604082019050919050565b6000602082019050818103600083015261298581612949565b9050919050565b7f4169646520686173207265616368656420746865206d6178696d756d206e756d60008201527f626572206f6620726571756573746572732e0000000000000000000000000000602082015250565b60006129e8603283611dde565b91506129f38261298c565b604082019050919050565b60006020820190508181036000830152612a17816129db565b9050919050565b7f496e76616c696420696e64657800000000000000000000000000000000000000600082015250565b6000612a54600d83611dde565b9150612a5f82612a1e565b602082019050919050565b60006020820190508181036000830152612a8381612a47565b9050919050565b6000612a9582611d2f565b915060008203612aa857612aa7612722565b5b60018203905091905056fea2646970667358221220228251835ae2ac819c06f758f1fc3b500c745be4ab7888b9742adca3123bee5164736f6c63430008130033",
  "linkReferences": {},
  "deployedLinkReferences": {}
}