{
  "contractName": "StudentAide",
  "abi": [
    {
      "inputs": [
        {
          "internalType": "uint256",
          "name": "",
          "type": "uint256"
        }
      ],
      "name": "aides",
      "outputs": [
        {
          "internalType": "address",
          "name": "owner",
          "type": "address"
        },
        {
          "internalType": "string",
          "name": "title",
          "type": "string"
        },
        {
          "internalType": "string",
          "name": "description",
          "type": "string"
        },
        {
          "internalType": "uint256",
          "name": "target",
          "type": "uint256"
        },
        {
          "internalType": "uint256",
          "name": "deadline",
          "type": "uint256"
        },
        {
          "internalType": "uint256",
          "name": "amountCollected",
          "type": "uint256"
        },
        {
          "internalType": "string",
          "name": "image",
          "type": "string"
        }
      ],
      "stateMutability": "view",
      "type": "function",
      "constant": true
    },
    {
      "inputs": [],
      "name": "numberofAides",
      "outputs": [
        {
          "internalType": "uint256",
          "name": "",
          "type": "uint256"
        }
      ],
      "stateMutability": "view",
      "type": "function",
      "constant": true
    },
    {
      "inputs": [
        {
          "internalType": "address",
          "name": "_owner",
          "type": "address"
        },
        {
          "internalType": "string",
          "name": "_title",
          "type": "string"
        },
        {
          "internalType": "string",
          "name": "_description",
          "type": "string"
        },
        {
          "internalType": "uint256",
          "name": "_target",
          "type": "uint256"
        },
        {
          "internalType": "uint256",
          "name": "_deadline",
          "type": "uint256"
        },
        {
          "internalType": "string",
          "name": "_image",
          "type": "string"
        }
      ],
      "name": "createAide",
      "outputs": [
        {
          "internalType": "uint256",
          "name": "",
          "type": "uint256"
        }
      ],
      "stateMutability": "nonpayable",
      "type": "function"
    },
    {
      "inputs": [
        {
          "internalType": "uint256",
          "name": "_id",
          "type": "uint256"
        }
      ],
      "name": "sendAide",
      "outputs": [],
      "stateMutability": "payable",
      "type": "function",
      "payable": true
    },
    {
      "inputs": [
        {
          "internalType": "uint256",
          "name": "_id",
          "type": "uint256"
        }
      ],
      "name": "getDonators",
      "outputs": [
        {
          "internalType": "address[]",
          "name": "",
          "type": "address[]"
        },
        {
          "internalType": "uint256[]",
          "name": "",
          "type": "uint256[]"
        }
      ],
      "stateMutability": "view",
      "type": "function",
      "constant": true
    },
    {
      "inputs": [],
      "name": "getAides",
      "outputs": [
        {
          "components": [
            {
              "internalType": "address",
              "name": "owner",
              "type": "address"
            },
            {
              "internalType": "string",
              "name": "title",
              "type": "string"
            },
            {
              "internalType": "string",
              "name": "description",
              "type": "string"
            },
            {
              "internalType": "uint256",
              "name": "target",
              "type": "uint256"
            },
            {
              "internalType": "uint256",
              "name": "deadline",
              "type": "uint256"
            },
            {
              "internalType": "uint256",
              "name": "amountCollected",
              "type": "uint256"
            },
            {
              "internalType": "string",
              "name": "image",
              "type": "string"
            },
            {
              "internalType": "address[]",
              "name": "donators",
              "type": "address[]"
            },
            {
              "internalType": "uint256[]",
              "name": "donations",
              "type": "uint256[]"
            }
          ],
          "internalType": "struct StudentAide.Aide[]",
          "name": "",
          "type": "tuple[]"
        }
      ],
      "stateMutability": "view",
      "type": "function",
      "constant": true
    }
  ],
  "bytecode": "0x6080604052600060015534801561001557600080fd5b5061192b806100256000396000f3fe6080604052600436106100555760003560e01c80630fa91fa91461005a57806332133692146100985780633d8ee873146100d5578063408c445714610118578063c3d1bc8314610134578063de4a73bf1461015f575b600080fd5b34801561006657600080fd5b50610081600480360381019061007c9190610ba3565b61018a565b60405161008f929190610d7e565b60405180910390f35b3480156100a457600080fd5b506100bf60048036038101906100ba9190610f27565b61029a565b6040516100cc9190611017565b60405180910390f35b3480156100e157600080fd5b506100fc60048036038101906100f79190610ba3565b6103c1565b60405161010f97969594939291906110c0565b60405180910390f35b610132600480360381019061012d9190610ba3565b6105bb565b005b34801561014057600080fd5b5061014961071b565b6040516101569190611017565b60405180910390f35b34801561016b57600080fd5b50610174610721565b604051610181919061140f565b60405180910390f35b6060806000808481526020019081526020016000206007016000808581526020019081526020016000206008018180548060200260200160405190810160405280929190818152602001828054801561023857602002820191906000526020600020905b8160009054906101000a900473ffffffffffffffffffffffffffffffffffffffff1673ffffffffffffffffffffffffffffffffffffffff16815260200190600101908083116101ee575b505050505091508080548060200260200160405190810160405280929190818152602001828054801561028a57602002820191906000526020600020905b815481526020019060010190808311610276575b5050505050905091509150915091565b60008060008060015481526020019081526020016000209050428160040154106102f9576040517f08c379a00000000000000000000000000000000000000000000000000000000081526004016102f0906114a3565b60405180910390fd5b878160000160006101000a81548173ffffffffffffffffffffffffffffffffffffffff021916908373ffffffffffffffffffffffffffffffffffffffff1602179055508681600101908161034d91906116cf565b508581600201908161035f91906116cf565b50848160030181905550838160040181905550600081600501819055508281600601908161038d91906116cf565b50600160008154809291906103a1906117d0565b9190505550600180546103b49190611818565b9150509695505050505050565b60006020528060005260406000206000915090508060000160009054906101000a900473ffffffffffffffffffffffffffffffffffffffff169080600101805461040a906114f2565b80601f0160208091040260200160405190810160405280929190818152602001828054610436906114f2565b80156104835780601f1061045857610100808354040283529160200191610483565b820191906000526020600020905b81548152906001019060200180831161046657829003601f168201915b505050505090806002018054610498906114f2565b80601f01602080910402602001604051908101604052809291908181526020018280546104c4906114f2565b80156105115780601f106104e657610100808354040283529160200191610511565b820191906000526020600020905b8154815290600101906020018083116104f457829003601f168201915b505050505090806003015490806004015490806005015490806006018054610538906114f2565b80601f0160208091040260200160405190810160405280929190818152602001828054610564906114f2565b80156105b15780601f10610586576101008083540402835291602001916105b1565b820191906000526020600020905b81548152906001019060200180831161059457829003601f168201915b5050505050905087565b60003490506000806000848152602001908152602001600020905080600701339080600181540180825580915050600190039060005260206000200160009091909190916101000a81548173ffffffffffffffffffffffffffffffffffffffff021916908373ffffffffffffffffffffffffffffffffffffffff1602179055508060080182908060018154018082558091505060019003906000526020600020016000909190919091505560008160000160009054906101000a900473ffffffffffffffffffffffffffffffffffffffff1673ffffffffffffffffffffffffffffffffffffffff16836040516106b09061187d565b60006040518083038185875af1925050503d80600081146106ed576040519150601f19603f3d011682016040523d82523d6000602084013e6106f2565b606091505b5050905080156107155782826005015461070c9190611892565b82600501819055505b50505050565b60015481565b6060600060015467ffffffffffffffff81111561074157610740610dfc565b5b60405190808252806020026020018201604052801561077a57816020015b610767610af7565b81526020019060019003908161075f5790505b50905060005b600154811015610aef576000806000838152602001908152602001600020905080604051806101200160405290816000820160009054906101000a900473ffffffffffffffffffffffffffffffffffffffff1673ffffffffffffffffffffffffffffffffffffffff1673ffffffffffffffffffffffffffffffffffffffff168152602001600182018054610813906114f2565b80601f016020809104026020016040519081016040528092919081815260200182805461083f906114f2565b801561088c5780601f106108615761010080835404028352916020019161088c565b820191906000526020600020905b81548152906001019060200180831161086f57829003601f168201915b505050505081526020016002820180546108a5906114f2565b80601f01602080910402602001604051908101604052809291908181526020018280546108d1906114f2565b801561091e5780601f106108f35761010080835404028352916020019161091e565b820191906000526020600020905b81548152906001019060200180831161090157829003601f168201915b50505050508152602001600382015481526020016004820154815260200160058201548152602001600682018054610955906114f2565b80601f0160208091040260200160405190810160405280929190818152602001828054610981906114f2565b80156109ce5780601f106109a3576101008083540402835291602001916109ce565b820191906000526020600020905b8154815290600101906020018083116109b157829003601f168201915b5050505050815260200160078201805480602002602001604051908101604052809291908181526020018280548015610a5c57602002820191906000526020600020905b8160009054906101000a900473ffffffffffffffffffffffffffffffffffffffff1673ffffffffffffffffffffffffffffffffffffffff1681526020019060010190808311610a12575b5050505050815260200160088201805480602002602001604051908101604052809291908181526020018280548015610ab457602002820191906000526020600020905b815481526020019060010190808311610aa0575b505050505081525050838381518110610ad057610acf6118c6565b5b6020026020010181905250508080610ae7906117d0565b915050610780565b508091505090565b604051806101200160405280600073ffffffffffffffffffffffffffffffffffffffff16815260200160608152602001606081526020016000815260200160008152602001600081526020016060815260200160608152602001606081525090565b6000604051905090565b600080fd5b600080fd5b6000819050919050565b610b8081610b6d565b8114610b8b57600080fd5b50565b600081359050610b9d81610b77565b92915050565b600060208284031215610bb957610bb8610b63565b5b6000610bc784828501610b8e565b91505092915050565b600081519050919050565b600082825260208201905092915050565b6000819050602082019050919050565b600073ffffffffffffffffffffffffffffffffffffffff82169050919050565b6000610c2782610bfc565b9050919050565b610c3781610c1c565b82525050565b6000610c498383610c2e565b60208301905092915050565b6000602082019050919050565b6000610c6d82610bd0565b610c778185610bdb565b9350610c8283610bec565b8060005b83811015610cb3578151610c9a8882610c3d565b9750610ca583610c55565b925050600181019050610c86565b5085935050505092915050565b600081519050919050565b600082825260208201905092915050565b6000819050602082019050919050565b610cf581610b6d565b82525050565b6000610d078383610cec565b60208301905092915050565b6000602082019050919050565b6000610d2b82610cc0565b610d358185610ccb565b9350610d4083610cdc565b8060005b83811015610d71578151610d588882610cfb565b9750610d6383610d13565b925050600181019050610d44565b5085935050505092915050565b60006040820190508181036000830152610d988185610c62565b90508181036020830152610dac8184610d20565b90509392505050565b610dbe81610c1c565b8114610dc957600080fd5b50565b600081359050610ddb81610db5565b92915050565b600080fd5b600080fd5b6000601f19601f8301169050919050565b7f4e487b7100000000000000000000000000000000000000000000000000000000600052604160045260246000fd5b610e3482610deb565b810181811067ffffffffffffffff82111715610e5357610e52610dfc565b5b80604052505050565b6000610e66610b59565b9050610e728282610e2b565b919050565b600067ffffffffffffffff821115610e9257610e91610dfc565b5b610e9b82610deb565b9050602081019050919050565b82818337600083830152505050565b6000610eca610ec584610e77565b610e5c565b905082815260208101848484011115610ee657610ee5610de6565b5b610ef1848285610ea8565b509392505050565b600082601f830112610f0e57610f0d610de1565b5b8135610f1e848260208601610eb7565b91505092915050565b60008060008060008060c08789031215610f4457610f43610b63565b5b6000610f5289828a01610dcc565b965050602087013567ffffffffffffffff811115610f7357610f72610b68565b5b610f7f89828a01610ef9565b955050604087013567ffffffffffffffff811115610fa057610f9f610b68565b5b610fac89828a01610ef9565b9450506060610fbd89828a01610b8e565b9350506080610fce89828a01610b8e565b92505060a087013567ffffffffffffffff811115610fef57610fee610b68565b5b610ffb89828a01610ef9565b9150509295509295509295565b61101181610b6d565b82525050565b600060208201905061102c6000830184611008565b92915050565b61103b81610c1c565b82525050565b600081519050919050565b600082825260208201905092915050565b60005b8381101561107b578082015181840152602081019050611060565b60008484015250505050565b600061109282611041565b61109c818561104c565b93506110ac81856020860161105d565b6110b581610deb565b840191505092915050565b600060e0820190506110d5600083018a611032565b81810360208301526110e78189611087565b905081810360408301526110fb8188611087565b905061110a6060830187611008565b6111176080830186611008565b61112460a0830185611008565b81810360c08301526111368184611087565b905098975050505050505050565b600081519050919050565b600082825260208201905092915050565b6000819050602082019050919050565b600082825260208201905092915050565b600061118c82611041565b6111968185611170565b93506111a681856020860161105d565b6111af81610deb565b840191505092915050565b600082825260208201905092915050565b60006111d682610bd0565b6111e081856111ba565b93506111eb83610bec565b8060005b8381101561121c5781516112038882610c3d565b975061120e83610c55565b9250506001810190506111ef565b5085935050505092915050565b600082825260208201905092915050565b600061124582610cc0565b61124f8185611229565b935061125a83610cdc565b8060005b8381101561128b5781516112728882610cfb565b975061127d83610d13565b92505060018101905061125e565b5085935050505092915050565b6000610120830160008301516112b16000860182610c2e565b50602083015184820360208601526112c98282611181565b915050604083015184820360408601526112e38282611181565b91505060608301516112f86060860182610cec565b50608083015161130b6080860182610cec565b5060a083015161131e60a0860182610cec565b5060c083015184820360c08601526113368282611181565b91505060e083015184820360e086015261135082826111cb565b91505061010083015184820361010086015261136c828261123a565b9150508091505092915050565b60006113858383611298565b905092915050565b6000602082019050919050565b60006113a582611144565b6113af818561114f565b9350836020820285016113c185611160565b8060005b858110156113fd57848403895281516113de8582611379565b94506113e98361138d565b925060208a019950506001810190506113c5565b50829750879550505050505092915050565b60006020820190508181036000830152611429818461139a565b905092915050565b7f54686520646561646c696e652073686f756c642062652061206461746520696e60008201527f20746865206675747572652e0000000000000000000000000000000000000000602082015250565b600061148d602c8361104c565b915061149882611431565b604082019050919050565b600060208201905081810360008301526114bc81611480565b9050919050565b7f4e487b7100000000000000000000000000000000000000000000000000000000600052602260045260246000fd5b6000600282049050600182168061150a57607f821691505b60208210810361151d5761151c6114c3565b5b50919050565b60008190508160005260206000209050919050565b60006020601f8301049050919050565b600082821b905092915050565b6000600883026115857fffffffffffffffffffffffffffffffffffffffffffffffffffffffffffffffff82611548565b61158f8683611548565b95508019841693508086168417925050509392505050565b6000819050919050565b60006115cc6115c76115c284610b6d565b6115a7565b610b6d565b9050919050565b6000819050919050565b6115e6836115b1565b6115fa6115f2826115d3565b848454611555565b825550505050565b600090565b61160f611602565b61161a8184846115dd565b505050565b5b8181101561163e57611633600082611607565b600181019050611620565b5050565b601f8211156116835761165481611523565b61165d84611538565b8101602085101561166c578190505b61168061167885611538565b83018261161f565b50505b505050565b600082821c905092915050565b60006116a660001984600802611688565b1980831691505092915050565b60006116bf8383611695565b9150826002028217905092915050565b6116d882611041565b67ffffffffffffffff8111156116f1576116f0610dfc565b5b6116fb82546114f2565b611706828285611642565b600060209050601f8311600181146117395760008415611727578287015190505b61173185826116b3565b865550611799565b601f19841661174786611523565b60005b8281101561176f5784890151825560018201915060208501945060208101905061174a565b8683101561178c5784890151611788601f891682611695565b8355505b6001600288020188555050505b505050505050565b7f4e487b7100000000000000000000000000000000000000000000000000000000600052601160045260246000fd5b60006117db82610b6d565b91507fffffffffffffffffffffffffffffffffffffffffffffffffffffffffffffffff820361180d5761180c6117a1565b5b600182019050919050565b600061182382610b6d565b915061182e83610b6d565b9250828203905081811115611846576118456117a1565b5b92915050565b600081905092915050565b50565b600061186760008361184c565b915061187282611857565b600082019050919050565b60006118888261185a565b9150819050919050565b600061189d82610b6d565b91506118a883610b6d565b92508282019050808211156118c0576118bf6117a1565b5b92915050565b7f4e487b7100000000000000000000000000000000000000000000000000000000600052603260045260246000fdfea2646970667358221220aa65d4213901b12c4b29fa6e9b83709df53356f0086a783d8608fc2f4877e29f64736f6c63430008110033",
  "immutableReferences": {},
  "source": "// SPDX-License-Identifier: MIT\r\npragma solidity >=0.4.22 <0.9.0;\r\n\r\ncontract StudentAide { //this will be used for student aide but for now i will just copy the crowdfunding campaign solidity\r\n    struct Aide {\r\n        address owner;\r\n        string title;\r\n        string description;\r\n        uint256 target;\r\n        uint256 deadline;\r\n        uint256 amountCollected;\r\n        string image;\r\n        address[] donators;\r\n        uint256[] donations;\r\n    }\r\n\r\n    mapping(uint256 => Aide) public aides;\r\n\r\n    uint256 public numberofAides = 0;\r\n\r\n    function createAide(address _owner, string memory _title, string memory _description, uint256 _target, uint256 _deadline, string memory _image) public returns (uint256) {\r\n        Aide storage aide = aides[numberofAides];\r\n\r\n        require(aide.deadline < block.timestamp, \"The deadline should be a date in the future.\");\r\n\r\n        aide.owner = _owner;\r\n        aide.title = _title;\r\n        aide.description = _description;\r\n        aide.target = _target;\r\n        aide.deadline = _deadline;\r\n        aide.amountCollected = 0;\r\n        aide.image = _image;\r\n\r\n        numberofAides++;\r\n\r\n        return numberofAides - 1; //index of newest aide\r\n    }\r\n\r\n    function sendAide(uint256 _id) public payable {\r\n        uint256 amount = msg.value;\r\n\r\n        Aide storage aide = aides[_id];\r\n\r\n        aide.donators.push(msg.sender);\r\n        aide.donations.push(amount);\r\n\r\n        (bool sent,) =  payable(aide.owner).call{value: amount}(\"\");\r\n\r\n        if(sent){\r\n            aide.amountCollected = aide.amountCollected + amount;\r\n        }\r\n    }\r\n\r\n    function getDonators(uint256 _id) view public returns (address[] memory, uint256[] memory) {\r\n        return (aides[_id].donators, aides[_id].donations);\r\n    }\r\n\r\n    function getAides() public view returns (Aide[] memory) {\r\n        Aide[] memory allAides = new Aide[](numberofAides);\r\n\r\n        for(uint i = 0; i < numberofAides; i++){\r\n            Aide storage item = aides[i];\r\n\r\n            allAides[i] = item;\r\n        }\r\n\r\n        return allAides;\r\n    }\r\n}",
  "sourcePath": "C:\\Users\\iamem\\Desktop\\fyp\\contracts\\StudentAide.sol",
  "compiler": {
    "name": "solc",
    "version": "0.8.17+commit.8df45f5f.Emscripten.clang"
  },
  "schemaVersion": "3.4.15",
  "updatedAt": "2023-09-13T02:33:09.716Z",
  "networkType": "ethereum",
  "devdoc": {
    "kind": "dev",
    "methods": {},
    "version": 1
  },
  "userdoc": {
    "kind": "user",
    "methods": {},
    "version": 1
  }
}